{
	"contracts/ERC-721AWRefund.sol": {
		"Web3Builders": {
			"abi": [
				{
					"inputs": [],
					"stateMutability": "nonpayable",
					"type": "constructor"
				},
				{
					"inputs": [],
					"name": "ApprovalCallerNotOwnerNorApproved",
					"type": "error"
				},
				{
					"inputs": [],
					"name": "ApprovalQueryForNonexistentToken",
					"type": "error"
				},
				{
					"inputs": [],
					"name": "ApprovalToCurrentOwner",
					"type": "error"
				},
				{
					"inputs": [],
					"name": "ApproveToCaller",
					"type": "error"
				},
				{
					"inputs": [],
					"name": "BalanceQueryForZeroAddress",
					"type": "error"
				},
				{
					"inputs": [],
					"name": "MintToZeroAddress",
					"type": "error"
				},
				{
					"inputs": [],
					"name": "MintZeroQuantity",
					"type": "error"
				},
				{
					"inputs": [],
					"name": "OwnerQueryForNonexistentToken",
					"type": "error"
				},
				{
					"inputs": [],
					"name": "TransferCallerNotOwnerNorApproved",
					"type": "error"
				},
				{
					"inputs": [],
					"name": "TransferFromIncorrectOwner",
					"type": "error"
				},
				{
					"inputs": [],
					"name": "TransferToNonERC721ReceiverImplementer",
					"type": "error"
				},
				{
					"inputs": [],
					"name": "TransferToZeroAddress",
					"type": "error"
				},
				{
					"inputs": [],
					"name": "URIQueryForNonexistentToken",
					"type": "error"
				},
				{
					"anonymous": false,
					"inputs": [
						{
							"indexed": true,
							"internalType": "address",
							"name": "owner",
							"type": "address"
						},
						{
							"indexed": true,
							"internalType": "address",
							"name": "approved",
							"type": "address"
						},
						{
							"indexed": true,
							"internalType": "uint256",
							"name": "tokenId",
							"type": "uint256"
						}
					],
					"name": "Approval",
					"type": "event"
				},
				{
					"anonymous": false,
					"inputs": [
						{
							"indexed": true,
							"internalType": "address",
							"name": "owner",
							"type": "address"
						},
						{
							"indexed": true,
							"internalType": "address",
							"name": "operator",
							"type": "address"
						},
						{
							"indexed": false,
							"internalType": "bool",
							"name": "approved",
							"type": "bool"
						}
					],
					"name": "ApprovalForAll",
					"type": "event"
				},
				{
					"anonymous": false,
					"inputs": [
						{
							"indexed": true,
							"internalType": "address",
							"name": "previousOwner",
							"type": "address"
						},
						{
							"indexed": true,
							"internalType": "address",
							"name": "newOwner",
							"type": "address"
						}
					],
					"name": "OwnershipTransferred",
					"type": "event"
				},
				{
					"anonymous": false,
					"inputs": [
						{
							"indexed": true,
							"internalType": "address",
							"name": "from",
							"type": "address"
						},
						{
							"indexed": true,
							"internalType": "address",
							"name": "to",
							"type": "address"
						},
						{
							"indexed": true,
							"internalType": "uint256",
							"name": "tokenId",
							"type": "uint256"
						}
					],
					"name": "Transfer",
					"type": "event"
				},
				{
					"inputs": [
						{
							"internalType": "address",
							"name": "to",
							"type": "address"
						},
						{
							"internalType": "uint256",
							"name": "tokenId",
							"type": "uint256"
						}
					],
					"name": "approve",
					"outputs": [],
					"stateMutability": "nonpayable",
					"type": "function"
				},
				{
					"inputs": [
						{
							"internalType": "address",
							"name": "owner",
							"type": "address"
						}
					],
					"name": "balanceOf",
					"outputs": [
						{
							"internalType": "uint256",
							"name": "",
							"type": "uint256"
						}
					],
					"stateMutability": "view",
					"type": "function"
				},
				{
					"inputs": [
						{
							"internalType": "uint256",
							"name": "tokenId",
							"type": "uint256"
						}
					],
					"name": "getApproved",
					"outputs": [
						{
							"internalType": "address",
							"name": "",
							"type": "address"
						}
					],
					"stateMutability": "view",
					"type": "function"
				},
				{
					"inputs": [
						{
							"internalType": "uint256",
							"name": "tokenId",
							"type": "uint256"
						}
					],
					"name": "getRefundAmount",
					"outputs": [
						{
							"internalType": "uint256",
							"name": "",
							"type": "uint256"
						}
					],
					"stateMutability": "view",
					"type": "function"
				},
				{
					"inputs": [
						{
							"internalType": "uint256",
							"name": "tokenId",
							"type": "uint256"
						}
					],
					"name": "getRefundDeadline",
					"outputs": [
						{
							"internalType": "uint256",
							"name": "",
							"type": "uint256"
						}
					],
					"stateMutability": "view",
					"type": "function"
				},
				{
					"inputs": [
						{
							"internalType": "uint256",
							"name": "",
							"type": "uint256"
						}
					],
					"name": "hasRefunded",
					"outputs": [
						{
							"internalType": "bool",
							"name": "",
							"type": "bool"
						}
					],
					"stateMutability": "view",
					"type": "function"
				},
				{
					"inputs": [
						{
							"internalType": "address",
							"name": "owner",
							"type": "address"
						},
						{
							"internalType": "address",
							"name": "operator",
							"type": "address"
						}
					],
					"name": "isApprovedForAll",
					"outputs": [
						{
							"internalType": "bool",
							"name": "",
							"type": "bool"
						}
					],
					"stateMutability": "view",
					"type": "function"
				},
				{
					"inputs": [],
					"name": "maxMintPerUser",
					"outputs": [
						{
							"internalType": "uint256",
							"name": "",
							"type": "uint256"
						}
					],
					"stateMutability": "view",
					"type": "function"
				},
				{
					"inputs": [],
					"name": "maxMintSupply",
					"outputs": [
						{
							"internalType": "uint256",
							"name": "",
							"type": "uint256"
						}
					],
					"stateMutability": "view",
					"type": "function"
				},
				{
					"inputs": [],
					"name": "mintPrice",
					"outputs": [
						{
							"internalType": "uint256",
							"name": "",
							"type": "uint256"
						}
					],
					"stateMutability": "view",
					"type": "function"
				},
				{
					"inputs": [],
					"name": "name",
					"outputs": [
						{
							"internalType": "string",
							"name": "",
							"type": "string"
						}
					],
					"stateMutability": "view",
					"type": "function"
				},
				{
					"inputs": [],
					"name": "owner",
					"outputs": [
						{
							"internalType": "address",
							"name": "",
							"type": "address"
						}
					],
					"stateMutability": "view",
					"type": "function"
				},
				{
					"inputs": [
						{
							"internalType": "uint256",
							"name": "tokenId",
							"type": "uint256"
						}
					],
					"name": "ownerOf",
					"outputs": [
						{
							"internalType": "address",
							"name": "",
							"type": "address"
						}
					],
					"stateMutability": "view",
					"type": "function"
				},
				{
					"inputs": [
						{
							"internalType": "uint256",
							"name": "tokenId",
							"type": "uint256"
						}
					],
					"name": "refund",
					"outputs": [],
					"stateMutability": "nonpayable",
					"type": "function"
				},
				{
					"inputs": [],
					"name": "refundAddress",
					"outputs": [
						{
							"internalType": "address",
							"name": "",
							"type": "address"
						}
					],
					"stateMutability": "view",
					"type": "function"
				},
				{
					"inputs": [],
					"name": "refundEndTimeStamp",
					"outputs": [
						{
							"internalType": "uint256",
							"name": "",
							"type": "uint256"
						}
					],
					"stateMutability": "view",
					"type": "function"
				},
				{
					"inputs": [
						{
							"internalType": "uint256",
							"name": "",
							"type": "uint256"
						}
					],
					"name": "refundEndTimestamps",
					"outputs": [
						{
							"internalType": "uint256",
							"name": "",
							"type": "uint256"
						}
					],
					"stateMutability": "view",
					"type": "function"
				},
				{
					"inputs": [],
					"name": "refundPeriod",
					"outputs": [
						{
							"internalType": "uint256",
							"name": "",
							"type": "uint256"
						}
					],
					"stateMutability": "view",
					"type": "function"
				},
				{
					"inputs": [],
					"name": "renounceOwnership",
					"outputs": [],
					"stateMutability": "nonpayable",
					"type": "function"
				},
				{
					"inputs": [
						{
							"internalType": "uint256",
							"name": "quantity",
							"type": "uint256"
						}
					],
					"name": "safeMint",
					"outputs": [],
					"stateMutability": "payable",
					"type": "function"
				},
				{
					"inputs": [
						{
							"internalType": "address",
							"name": "from",
							"type": "address"
						},
						{
							"internalType": "address",
							"name": "to",
							"type": "address"
						},
						{
							"internalType": "uint256",
							"name": "tokenId",
							"type": "uint256"
						}
					],
					"name": "safeTransferFrom",
					"outputs": [],
					"stateMutability": "nonpayable",
					"type": "function"
				},
				{
					"inputs": [
						{
							"internalType": "address",
							"name": "from",
							"type": "address"
						},
						{
							"internalType": "address",
							"name": "to",
							"type": "address"
						},
						{
							"internalType": "uint256",
							"name": "tokenId",
							"type": "uint256"
						},
						{
							"internalType": "bytes",
							"name": "_data",
							"type": "bytes"
						}
					],
					"name": "safeTransferFrom",
					"outputs": [],
					"stateMutability": "nonpayable",
					"type": "function"
				},
				{
					"inputs": [
						{
							"internalType": "address",
							"name": "operator",
							"type": "address"
						},
						{
							"internalType": "bool",
							"name": "approved",
							"type": "bool"
						}
					],
					"name": "setApprovalForAll",
					"outputs": [],
					"stateMutability": "nonpayable",
					"type": "function"
				},
				{
					"inputs": [
						{
							"internalType": "bytes4",
							"name": "interfaceId",
							"type": "bytes4"
						}
					],
					"name": "supportsInterface",
					"outputs": [
						{
							"internalType": "bool",
							"name": "",
							"type": "bool"
						}
					],
					"stateMutability": "view",
					"type": "function"
				},
				{
					"inputs": [],
					"name": "symbol",
					"outputs": [
						{
							"internalType": "string",
							"name": "",
							"type": "string"
						}
					],
					"stateMutability": "view",
					"type": "function"
				},
				{
					"inputs": [
						{
							"internalType": "uint256",
							"name": "tokenId",
							"type": "uint256"
						}
					],
					"name": "tokenURI",
					"outputs": [
						{
							"internalType": "string",
							"name": "",
							"type": "string"
						}
					],
					"stateMutability": "view",
					"type": "function"
				},
				{
					"inputs": [],
					"name": "totalSupply",
					"outputs": [
						{
							"internalType": "uint256",
							"name": "",
							"type": "uint256"
						}
					],
					"stateMutability": "view",
					"type": "function"
				},
				{
					"inputs": [
						{
							"internalType": "address",
							"name": "from",
							"type": "address"
						},
						{
							"internalType": "address",
							"name": "to",
							"type": "address"
						},
						{
							"internalType": "uint256",
							"name": "tokenId",
							"type": "uint256"
						}
					],
					"name": "transferFrom",
					"outputs": [],
					"stateMutability": "nonpayable",
					"type": "function"
				},
				{
					"inputs": [
						{
							"internalType": "address",
							"name": "newOwner",
							"type": "address"
						}
					],
					"name": "transferOwnership",
					"outputs": [],
					"stateMutability": "nonpayable",
					"type": "function"
				},
				{
					"inputs": [],
					"name": "withdraw",
					"outputs": [],
					"stateMutability": "nonpayable",
					"type": "function"
				}
			],
			"devdoc": {
				"events": {
					"Approval(address,address,uint256)": {
						"details": "Emitted when `owner` enables `approved` to manage the `tokenId` token."
					},
					"ApprovalForAll(address,address,bool)": {
						"details": "Emitted when `owner` enables or disables (`approved`) `operator` to manage all of its assets."
					},
					"Transfer(address,address,uint256)": {
						"details": "Emitted when `tokenId` token is transferred from `from` to `to`."
					}
				},
				"kind": "dev",
				"methods": {
					"approve(address,uint256)": {
						"details": "See {IERC721-approve}."
					},
					"balanceOf(address)": {
						"details": "See {IERC721-balanceOf}."
					},
					"getApproved(uint256)": {
						"details": "See {IERC721-getApproved}."
					},
					"isApprovedForAll(address,address)": {
						"details": "See {IERC721-isApprovedForAll}."
					},
					"name()": {
						"details": "See {IERC721Metadata-name}."
					},
					"owner()": {
						"details": "Returns the address of the current owner."
					},
					"ownerOf(uint256)": {
						"details": "See {IERC721-ownerOf}."
					},
					"renounceOwnership()": {
						"details": "Leaves the contract without owner. It will not be possible to call `onlyOwner` functions. Can only be called by the current owner. NOTE: Renouncing ownership will leave the contract without an owner, thereby disabling any functionality that is only available to the owner."
					},
					"safeTransferFrom(address,address,uint256)": {
						"details": "See {IERC721-safeTransferFrom}."
					},
					"safeTransferFrom(address,address,uint256,bytes)": {
						"details": "See {IERC721-safeTransferFrom}."
					},
					"setApprovalForAll(address,bool)": {
						"details": "See {IERC721-setApprovalForAll}."
					},
					"supportsInterface(bytes4)": {
						"details": "See {IERC165-supportsInterface}."
					},
					"symbol()": {
						"details": "See {IERC721Metadata-symbol}."
					},
					"tokenURI(uint256)": {
						"details": "See {IERC721Metadata-tokenURI}."
					},
					"totalSupply()": {
						"details": "Burned tokens are calculated here, use _totalMinted() if you want to count just minted tokens."
					},
					"transferFrom(address,address,uint256)": {
						"details": "See {IERC721-transferFrom}."
					},
					"transferOwnership(address)": {
						"details": "Transfers ownership of the contract to a new account (`newOwner`). Can only be called by the current owner."
					}
				},
				"version": 1
			},
			"evm": {
				"assembly": "    /* \"contracts/ERC-721AWRefund.sol\":283:2923  contract Web3Builders is ERC721A, Ownable {... */\n  mstore(0x40, 0x80)\n    /* \"contracts/ERC-721AWRefund.sol\":865:1017  constructor() ERC721A(\"Web3Builders\", \"WE3\") {... */\n  callvalue\n  dup1\n  iszero\n  tag_1\n  jumpi\n  0x00\n  dup1\n  revert\ntag_1:\n  pop\n    /* \"https://github.com/exo-digital-labs/ERC721R/blob/main/contracts/ERC721A.sol\":3413:3567  constructor(string memory name_, string memory symbol_) {... */\n  mload(0x40)\n  dup1\n  0x40\n  add\n  0x40\n  mstore\n  dup1\n  0x0c\n  dup2\n  mstore\n  0x20\n  add\n  shl(0xa0, 0x576562334275696c64657273)\n  dup2\n  mstore\n  pop\n  mload(0x40)\n  dup1\n  0x40\n  add\n  0x40\n  mstore\n  dup1\n  0x03\n  dup2\n  mstore\n  0x20\n  add\n  shl(0xe8, 0x574533)\n  dup2\n  mstore\n  pop\n    /* \"https://github.com/exo-digital-labs/ERC721R/blob/main/contracts/ERC721A.sol\":3487:3492  name_ */\n  dup2\n    /* \"https://github.com/exo-digital-labs/ERC721R/blob/main/contracts/ERC721A.sol\":3479:3484  _name */\n  0x02\n    /* \"https://github.com/exo-digital-labs/ERC721R/blob/main/contracts/ERC721A.sol\":3479:3492  _name = name_ */\n  swap1\n  dup2\n  tag_6\n  swap2\n  swap1\n  tag_7\n  jump\t// in\ntag_6:\n  pop\n    /* \"https://github.com/exo-digital-labs/ERC721R/blob/main/contracts/ERC721A.sol\":3502:3509  _symbol */\n  0x03\n    /* \"https://github.com/exo-digital-labs/ERC721R/blob/main/contracts/ERC721A.sol\":3502:3519  _symbol = symbol_ */\n  tag_8\n    /* \"https://github.com/exo-digital-labs/ERC721R/blob/main/contracts/ERC721A.sol\":3512:3519  symbol_ */\n  dup3\n    /* \"https://github.com/exo-digital-labs/ERC721R/blob/main/contracts/ERC721A.sol\":3502:3509  _symbol */\n  dup3\n    /* \"https://github.com/exo-digital-labs/ERC721R/blob/main/contracts/ERC721A.sol\":3502:3519  _symbol = symbol_ */\n  tag_7\n  jump\t// in\ntag_8:\n  pop\n  pop\n    /* \"https://github.com/exo-digital-labs/ERC721R/blob/main/contracts/ERC721A.sol\":3715:3722  uint256 */\n  0x00\n    /* \"https://github.com/exo-digital-labs/ERC721R/blob/main/contracts/ERC721A.sol\":3529:3560  _currentIndex = _startTokenId() */\n  dup1\n  sstore\n  pop\n    /* \"@openzeppelin/contracts/access/Ownable.sol\":936:968  _transferOwnership(_msgSender()) */\n  tag_12\n    /* \"@openzeppelin/contracts/utils/Context.sol\":719:729  msg.sender */\n  caller\n    /* \"@openzeppelin/contracts/access/Ownable.sol\":936:954  _transferOwnership */\n  tag_15\n    /* \"@openzeppelin/contracts/access/Ownable.sol\":936:968  _transferOwnership(_msgSender()) */\n  jump\t// in\ntag_12:\n    /* \"contracts/ERC-721AWRefund.sol\":920:933  refundAddress */\n  0x0a\n    /* \"contracts/ERC-721AWRefund.sol\":920:949  refundAddress = address(this) */\n  dup1\n  sload\n  not(sub(shl(0xa0, 0x01), 0x01))\n  and\n    /* \"contracts/ERC-721AWRefund.sol\":944:948  this */\n  address\n    /* \"contracts/ERC-721AWRefund.sol\":920:949  refundAddress = address(this) */\n  or\n  swap1\n  sstore\n    /* \"contracts/ERC-721AWRefund.sol\":980:1010  block.timestamp + refundPeriod */\n  tag_17\n    /* \"contracts/ERC-721AWRefund.sol\":515:524  3 minutes */\n  0xb4\n    /* \"contracts/ERC-721AWRefund.sol\":980:995  block.timestamp */\n  timestamp\n    /* \"contracts/ERC-721AWRefund.sol\":980:1010  block.timestamp + refundPeriod */\n  tag_18\n  jump\t// in\ntag_17:\n    /* \"contracts/ERC-721AWRefund.sol\":959:977  refundEndTimeStamp */\n  0x09\n    /* \"contracts/ERC-721AWRefund.sol\":959:1010  refundEndTimeStamp = block.timestamp + refundPeriod */\n  sstore\n    /* \"contracts/ERC-721AWRefund.sol\":283:2923  contract Web3Builders is ERC721A, Ownable {... */\n  jump(tag_28)\n    /* \"@openzeppelin/contracts/access/Ownable.sol\":2426:2613  function _transferOwnership(address newOwner) internal virtual {... */\ntag_15:\n    /* \"@openzeppelin/contracts/access/Ownable.sol\":2518:2524  _owner */\n  0x08\n  dup1\n  sload\n  sub(shl(0xa0, 0x01), 0x01)\n    /* \"@openzeppelin/contracts/access/Ownable.sol\":2534:2551  _owner = newOwner */\n  dup4\n  dup2\n  and\n  not(sub(shl(0xa0, 0x01), 0x01))\n  dup4\n  and\n  dup2\n  or\n  swap1\n  swap4\n  sstore\n    /* \"@openzeppelin/contracts/access/Ownable.sol\":2566:2606  OwnershipTransferred(oldOwner, newOwner) */\n  mload(0x40)\n    /* \"@openzeppelin/contracts/access/Ownable.sol\":2518:2524  _owner */\n  swap2\n  and\n  swap2\n    /* \"@openzeppelin/contracts/access/Ownable.sol\":2534:2551  _owner = newOwner */\n  swap1\n    /* \"@openzeppelin/contracts/access/Ownable.sol\":2518:2524  _owner */\n  dup3\n  swap1\n    /* \"@openzeppelin/contracts/access/Ownable.sol\":2566:2606  OwnershipTransferred(oldOwner, newOwner) */\n  0x8be0079c531659141344cd1fd0a4f28419497f9722a3daafe3b4186f6b6457e0\n  swap1\n    /* \"@openzeppelin/contracts/access/Ownable.sol\":2499:2515  address oldOwner */\n  0x00\n  swap1\n    /* \"@openzeppelin/contracts/access/Ownable.sol\":2566:2606  OwnershipTransferred(oldOwner, newOwner) */\n  log3\n    /* \"@openzeppelin/contracts/access/Ownable.sol\":2489:2613  {... */\n  pop\n    /* \"@openzeppelin/contracts/access/Ownable.sol\":2426:2613  function _transferOwnership(address newOwner) internal virtual {... */\n  pop\n  jump\t// out\n    /* \"#utility.yul\":14:141   */\ntag_23:\n    /* \"#utility.yul\":75:85   */\n  0x4e487b71\n    /* \"#utility.yul\":70:73   */\n  0xe0\n    /* \"#utility.yul\":66:86   */\n  shl\n    /* \"#utility.yul\":63:64   */\n  0x00\n    /* \"#utility.yul\":56:87   */\n  mstore\n    /* \"#utility.yul\":106:110   */\n  0x41\n    /* \"#utility.yul\":103:104   */\n  0x04\n    /* \"#utility.yul\":96:111   */\n  mstore\n    /* \"#utility.yul\":130:134   */\n  0x24\n    /* \"#utility.yul\":127:128   */\n  0x00\n    /* \"#utility.yul\":120:135   */\n  revert\n    /* \"#utility.yul\":146:526   */\ntag_24:\n    /* \"#utility.yul\":225:226   */\n  0x01\n    /* \"#utility.yul\":221:233   */\n  dup2\n  dup2\n  shr\n  swap1\n    /* \"#utility.yul\":268:280   */\n  dup3\n  and\n  dup1\n    /* \"#utility.yul\":289:350   */\n  tag_31\n  jumpi\n    /* \"#utility.yul\":343:347   */\n  0x7f\n    /* \"#utility.yul\":335:341   */\n  dup3\n    /* \"#utility.yul\":331:348   */\n  and\n    /* \"#utility.yul\":321:348   */\n  swap2\n  pop\n    /* \"#utility.yul\":289:350   */\ntag_31:\n    /* \"#utility.yul\":396:398   */\n  0x20\n    /* \"#utility.yul\":388:394   */\n  dup3\n    /* \"#utility.yul\":385:399   */\n  lt\n    /* \"#utility.yul\":365:383   */\n  dup2\n    /* \"#utility.yul\":362:400   */\n  sub\n    /* \"#utility.yul\":359:520   */\n  tag_32\n  jumpi\n    /* \"#utility.yul\":442:452   */\n  0x4e487b71\n    /* \"#utility.yul\":437:440   */\n  0xe0\n    /* \"#utility.yul\":433:453   */\n  shl\n    /* \"#utility.yul\":430:431   */\n  0x00\n    /* \"#utility.yul\":423:454   */\n  mstore\n    /* \"#utility.yul\":477:481   */\n  0x22\n    /* \"#utility.yul\":474:475   */\n  0x04\n    /* \"#utility.yul\":467:482   */\n  mstore\n    /* \"#utility.yul\":505:509   */\n  0x24\n    /* \"#utility.yul\":502:503   */\n  0x00\n    /* \"#utility.yul\":495:510   */\n  revert\n    /* \"#utility.yul\":359:520   */\ntag_32:\n  pop\n    /* \"#utility.yul\":146:526   */\n  swap2\n  swap1\n  pop\n  jump\t// out\n    /* \"#utility.yul\":657:1202   */\ntag_26:\n    /* \"#utility.yul\":759:761   */\n  0x1f\n    /* \"#utility.yul\":754:757   */\n  dup3\n    /* \"#utility.yul\":751:762   */\n  gt\n    /* \"#utility.yul\":748:1196   */\n  iszero\n  tag_35\n  jumpi\n    /* \"#utility.yul\":795:796   */\n  0x00\n    /* \"#utility.yul\":820:825   */\n  dup2\n    /* \"#utility.yul\":816:818   */\n  dup2\n    /* \"#utility.yul\":809:826   */\n  mstore\n    /* \"#utility.yul\":865:869   */\n  0x20\n    /* \"#utility.yul\":861:863   */\n  dup2\n    /* \"#utility.yul\":851:870   */\n  keccak256\n    /* \"#utility.yul\":935:937   */\n  0x1f\n    /* \"#utility.yul\":923:933   */\n  dup6\n    /* \"#utility.yul\":919:938   */\n  add\n    /* \"#utility.yul\":916:917   */\n  0x05\n    /* \"#utility.yul\":912:939   */\n  shr\n    /* \"#utility.yul\":906:910   */\n  dup2\n    /* \"#utility.yul\":902:940   */\n  add\n    /* \"#utility.yul\":971:975   */\n  0x20\n    /* \"#utility.yul\":959:969   */\n  dup7\n    /* \"#utility.yul\":956:976   */\n  lt\n    /* \"#utility.yul\":953:1000   */\n  iszero\n  tag_36\n  jumpi\n  pop\n    /* \"#utility.yul\":994:998   */\n  dup1\n    /* \"#utility.yul\":953:1000   */\ntag_36:\n    /* \"#utility.yul\":1049:1051   */\n  0x1f\n    /* \"#utility.yul\":1044:1047   */\n  dup6\n    /* \"#utility.yul\":1040:1052   */\n  add\n    /* \"#utility.yul\":1037:1038   */\n  0x05\n    /* \"#utility.yul\":1033:1053   */\n  shr\n    /* \"#utility.yul\":1027:1031   */\n  dup3\n    /* \"#utility.yul\":1023:1054   */\n  add\n    /* \"#utility.yul\":1013:1054   */\n  swap2\n  pop\n    /* \"#utility.yul\":1104:1186   */\ntag_37:\n    /* \"#utility.yul\":1122:1124   */\n  dup2\n    /* \"#utility.yul\":1115:1120   */\n  dup2\n    /* \"#utility.yul\":1112:1125   */\n  lt\n    /* \"#utility.yul\":1104:1186   */\n  iszero\n  tag_39\n  jumpi\n    /* \"#utility.yul\":1167:1184   */\n  dup3\n  dup2\n  sstore\n    /* \"#utility.yul\":1148:1149   */\n  0x01\n    /* \"#utility.yul\":1137:1150   */\n  add\n    /* \"#utility.yul\":1104:1186   */\n  jump(tag_37)\ntag_39:\n    /* \"#utility.yul\":1108:1111   */\n  pop\n  pop\n  pop\n    /* \"#utility.yul\":748:1196   */\ntag_35:\n    /* \"#utility.yul\":657:1202   */\n  pop\n  pop\n  pop\n  jump\t// out\n    /* \"#utility.yul\":1378:2730   */\ntag_7:\n    /* \"#utility.yul\":1498:1508   */\n  dup2\n  mload\n  sub(shl(0x40, 0x01), 0x01)\n    /* \"#utility.yul\":1520:1550   */\n  dup2\n  gt\n    /* \"#utility.yul\":1517:1573   */\n  iszero\n  tag_43\n  jumpi\n    /* \"#utility.yul\":1553:1571   */\n  tag_43\n  tag_23\n  jump\t// in\ntag_43:\n    /* \"#utility.yul\":1582:1679   */\n  tag_44\n    /* \"#utility.yul\":1672:1678   */\n  dup2\n    /* \"#utility.yul\":1632:1670   */\n  tag_45\n    /* \"#utility.yul\":1664:1668   */\n  dup5\n    /* \"#utility.yul\":1658:1669   */\n  sload\n    /* \"#utility.yul\":1632:1670   */\n  tag_24\n  jump\t// in\ntag_45:\n    /* \"#utility.yul\":1626:1630   */\n  dup5\n    /* \"#utility.yul\":1582:1679   */\n  tag_26\n  jump\t// in\ntag_44:\n    /* \"#utility.yul\":1734:1738   */\n  0x20\n  dup1\n    /* \"#utility.yul\":1798:1800   */\n  0x1f\n    /* \"#utility.yul\":1787:1801   */\n  dup4\n  gt\n    /* \"#utility.yul\":1815:1816   */\n  0x01\n    /* \"#utility.yul\":1810:2473   */\n  dup2\n  eq\n  tag_47\n  jumpi\n    /* \"#utility.yul\":2517:2518   */\n  0x00\n    /* \"#utility.yul\":2534:2540   */\n  dup5\n    /* \"#utility.yul\":2531:2620   */\n  iszero\n  tag_48\n  jumpi\n  pop\n    /* \"#utility.yul\":2586:2605   */\n  dup6\n  dup4\n  add\n    /* \"#utility.yul\":2580:2606   */\n  mload\n    /* \"#utility.yul\":2531:2620   */\ntag_48:\n  not(0x00)\n    /* \"#utility.yul\":1335:1336   */\n  0x03\n    /* \"#utility.yul\":1331:1342   */\n  dup7\n  swap1\n  shl\n    /* \"#utility.yul\":1327:1351   */\n  shr\n    /* \"#utility.yul\":1323:1352   */\n  not\n    /* \"#utility.yul\":1313:1353   */\n  and\n    /* \"#utility.yul\":1359:1360   */\n  0x01\n    /* \"#utility.yul\":1355:1366   */\n  dup6\n  swap1\n  shl\n    /* \"#utility.yul\":1310:1367   */\n  or\n    /* \"#utility.yul\":2633:2714   */\n  dup6\n  sstore\n    /* \"#utility.yul\":1780:2724   */\n  jump(tag_39)\n    /* \"#utility.yul\":1810:2473   */\ntag_47:\n    /* \"#utility.yul\":604:605   */\n  0x00\n    /* \"#utility.yul\":597:611   */\n  dup6\n  dup2\n  mstore\n    /* \"#utility.yul\":641:645   */\n  0x20\n    /* \"#utility.yul\":628:646   */\n  dup2\n  keccak256\n  not(0x1f)\n    /* \"#utility.yul\":1846:1866   */\n  dup7\n  and\n  swap2\n    /* \"#utility.yul\":1964:2200   */\ntag_51:\n    /* \"#utility.yul\":1978:1985   */\n  dup3\n    /* \"#utility.yul\":1975:1976   */\n  dup2\n    /* \"#utility.yul\":1972:1986   */\n  lt\n    /* \"#utility.yul\":1964:2200   */\n  iszero\n  tag_53\n  jumpi\n    /* \"#utility.yul\":2067:2086   */\n  dup9\n  dup7\n  add\n    /* \"#utility.yul\":2061:2087   */\n  mload\n    /* \"#utility.yul\":2046:2088   */\n  dup3\n  sstore\n    /* \"#utility.yul\":2159:2186   */\n  swap5\n  dup5\n  add\n  swap5\n    /* \"#utility.yul\":2127:2128   */\n  0x01\n    /* \"#utility.yul\":2115:2129   */\n  swap1\n  swap2\n  add\n  swap1\n    /* \"#utility.yul\":1994:2013   */\n  dup5\n  add\n    /* \"#utility.yul\":1964:2200   */\n  jump(tag_51)\ntag_53:\n    /* \"#utility.yul\":1968:1971   */\n  pop\n    /* \"#utility.yul\":2228:2234   */\n  dup6\n    /* \"#utility.yul\":2219:2226   */\n  dup3\n    /* \"#utility.yul\":2216:2235   */\n  lt\n    /* \"#utility.yul\":2213:2414   */\n  iszero\n  tag_54\n  jumpi\n    /* \"#utility.yul\":2289:2308   */\n  dup8\n  dup6\n  add\n    /* \"#utility.yul\":2283:2309   */\n  mload\n  not(0x00)\n    /* \"#utility.yul\":2372:2373   */\n  0x03\n    /* \"#utility.yul\":2368:2382   */\n  dup9\n  swap1\n  shl\n    /* \"#utility.yul\":2384:2387   */\n  0xf8\n    /* \"#utility.yul\":2364:2388   */\n  and\n    /* \"#utility.yul\":2360:2397   */\n  shr\n    /* \"#utility.yul\":2356:2398   */\n  not\n    /* \"#utility.yul\":2341:2399   */\n  and\n    /* \"#utility.yul\":2326:2400   */\n  dup2\n  sstore\n    /* \"#utility.yul\":2213:2414   */\ntag_54:\n  pop\n  pop\n  pop\n  pop\n  pop\n    /* \"#utility.yul\":2460:2461   */\n  0x01\n    /* \"#utility.yul\":2444:2458   */\n  swap1\n  dup2\n  shl\n    /* \"#utility.yul\":2440:2462   */\n  add\n    /* \"#utility.yul\":2427:2463   */\n  swap1\n  sstore\n  pop\n    /* \"#utility.yul\":1378:2730   */\n  jump\t// out\n    /* \"#utility.yul\":2735:2957   */\ntag_18:\n    /* \"#utility.yul\":2800:2809   */\n  dup1\n  dup3\n  add\n    /* \"#utility.yul\":2821:2831   */\n  dup1\n  dup3\n  gt\n    /* \"#utility.yul\":2818:2951   */\n  iszero\n  tag_56\n  jumpi\n    /* \"#utility.yul\":2873:2883   */\n  0x4e487b71\n    /* \"#utility.yul\":2868:2871   */\n  0xe0\n    /* \"#utility.yul\":2864:2884   */\n  shl\n    /* \"#utility.yul\":2861:2862   */\n  0x00\n    /* \"#utility.yul\":2854:2885   */\n  mstore\n    /* \"#utility.yul\":2908:2912   */\n  0x11\n    /* \"#utility.yul\":2905:2906   */\n  0x04\n    /* \"#utility.yul\":2898:2913   */\n  mstore\n    /* \"#utility.yul\":2936:2940   */\n  0x24\n    /* \"#utility.yul\":2933:2934   */\n  0x00\n    /* \"#utility.yul\":2926:2941   */\n  revert\n    /* \"#utility.yul\":2818:2951   */\ntag_56:\n    /* \"#utility.yul\":2735:2957   */\n  swap3\n  swap2\n  pop\n  pop\n  jump\t// out\ntag_28:\n    /* \"contracts/ERC-721AWRefund.sol\":283:2923  contract Web3Builders is ERC721A, Ownable {... */\n  dataSize(sub_0)\n  dup1\n  dataOffset(sub_0)\n  0x00\n  codecopy\n  0x00\n  return\nstop\n\nsub_0: assembly {\n        /* \"contracts/ERC-721AWRefund.sol\":283:2923  contract Web3Builders is ERC721A, Ownable {... */\n      mstore(0x40, 0x80)\n      jumpi(tag_1, lt(calldatasize, 0x04))\n      shr(0xe0, calldataload(0x00))\n      dup1\n      0x70a08231\n      gt\n      tag_32\n      jumpi\n      dup1\n      0xc23fcdef\n      gt\n      tag_33\n      jumpi\n      dup1\n      0xd64297f9\n      gt\n      tag_34\n      jumpi\n      dup1\n      0xd64297f9\n      eq\n      tag_28\n      jumpi\n      dup1\n      0xe5496fc8\n      eq\n      tag_29\n      jumpi\n      dup1\n      0xe985e9c5\n      eq\n      tag_30\n      jumpi\n      dup1\n      0xf2fde38b\n      eq\n      tag_31\n      jumpi\n      0x00\n      dup1\n      revert\n    tag_34:\n      dup1\n      0xc23fcdef\n      eq\n      tag_24\n      jumpi\n      dup1\n      0xc285e107\n      eq\n      tag_25\n      jumpi\n      dup1\n      0xc87b56dd\n      eq\n      tag_26\n      jumpi\n      dup1\n      0xd304c4bc\n      eq\n      tag_27\n      jumpi\n      0x00\n      dup1\n      revert\n    tag_33:\n      dup1\n      0x95d89b41\n      gt\n      tag_35\n      jumpi\n      dup1\n      0x95d89b41\n      eq\n      tag_20\n      jumpi\n      dup1\n      0xa22cb465\n      eq\n      tag_21\n      jumpi\n      dup1\n      0xa6a3b5b4\n      eq\n      tag_22\n      jumpi\n      dup1\n      0xb88d4fde\n      eq\n      tag_23\n      jumpi\n      0x00\n      dup1\n      revert\n    tag_35:\n      dup1\n      0x70a08231\n      eq\n      tag_17\n      jumpi\n      dup1\n      0x715018a6\n      eq\n      tag_18\n      jumpi\n      dup1\n      0x8da5cb5b\n      eq\n      tag_19\n      jumpi\n      0x00\n      dup1\n      revert\n    tag_32:\n      dup1\n      0x23b872dd\n      gt\n      tag_36\n      jumpi\n      dup1\n      0x42842e0e\n      gt\n      tag_37\n      jumpi\n      dup1\n      0x42842e0e\n      eq\n      tag_13\n      jumpi\n      dup1\n      0x6352211e\n      eq\n      tag_14\n      jumpi\n      dup1\n      0x6817c76c\n      eq\n      tag_15\n      jumpi\n      dup1\n      0x6f1d10ce\n      eq\n      tag_16\n      jumpi\n      0x00\n      dup1\n      revert\n    tag_37:\n      dup1\n      0x23b872dd\n      eq\n      tag_9\n      jumpi\n      dup1\n      0x278ecde1\n      eq\n      tag_10\n      jumpi\n      dup1\n      0x31c864e8\n      eq\n      tag_11\n      jumpi\n      dup1\n      0x3ccfd60b\n      eq\n      tag_12\n      jumpi\n      0x00\n      dup1\n      revert\n    tag_36:\n      dup1\n      0x081812fc\n      gt\n      tag_38\n      jumpi\n      dup1\n      0x081812fc\n      eq\n      tag_5\n      jumpi\n      dup1\n      0x095ea7b3\n      eq\n      tag_6\n      jumpi\n      dup1\n      0x0cb61f6c\n      eq\n      tag_7\n      jumpi\n      dup1\n      0x18160ddd\n      eq\n      tag_8\n      jumpi\n      0x00\n      dup1\n      revert\n    tag_38:\n      dup1\n      0x01ffc9a7\n      eq\n      tag_2\n      jumpi\n      dup1\n      0x04cd5294\n      eq\n      tag_3\n      jumpi\n      dup1\n      0x06fdde03\n      eq\n      tag_4\n      jumpi\n    tag_1:\n      0x00\n      dup1\n      revert\n        /* \"https://github.com/exo-digital-labs/ERC721R/blob/main/contracts/ERC721A.sol\":4607:4907  function supportsInterface(bytes4 interfaceId) public view virtual override(ERC165, IERC165) returns (bool) {... */\n    tag_2:\n      callvalue\n      dup1\n      iszero\n      tag_39\n      jumpi\n      0x00\n      dup1\n      revert\n    tag_39:\n      pop\n      tag_40\n      tag_41\n      calldatasize\n      0x04\n      tag_42\n      jump\t// in\n    tag_41:\n      tag_43\n      jump\t// in\n    tag_40:\n      mload(0x40)\n        /* \"#utility.yul\":565:579   */\n      swap1\n      iszero\n        /* \"#utility.yul\":558:580   */\n      iszero\n        /* \"#utility.yul\":540:581   */\n      dup2\n      mstore\n        /* \"#utility.yul\":528:530   */\n      0x20\n        /* \"#utility.yul\":513:531   */\n      add\n        /* \"https://github.com/exo-digital-labs/ERC721R/blob/main/contracts/ERC721A.sol\":4607:4907  function supportsInterface(bytes4 interfaceId) public view virtual override(ERC165, IERC165) returns (bool) {... */\n    tag_44:\n      mload(0x40)\n      dup1\n      swap2\n      sub\n      swap1\n      return\n        /* \"contracts/ERC-721AWRefund.sol\":2466:2637  function getRefundAmount(uint256 tokenId) public view returns(uint256) {... */\n    tag_3:\n      callvalue\n      dup1\n      iszero\n      tag_46\n      jumpi\n      0x00\n      dup1\n      revert\n    tag_46:\n      pop\n      tag_47\n      tag_48\n      calldatasize\n      0x04\n      tag_49\n      jump\t// in\n    tag_48:\n      tag_50\n      jump\t// in\n    tag_47:\n      mload(0x40)\n        /* \"#utility.yul\":923:948   */\n      swap1\n      dup2\n      mstore\n        /* \"#utility.yul\":911:913   */\n      0x20\n        /* \"#utility.yul\":896:914   */\n      add\n        /* \"contracts/ERC-721AWRefund.sol\":2466:2637  function getRefundAmount(uint256 tokenId) public view returns(uint256) {... */\n      tag_44\n        /* \"#utility.yul\":777:954   */\n      jump\n        /* \"https://github.com/exo-digital-labs/ERC721R/blob/main/contracts/ERC721A.sol\":7635:7733  function name() public view virtual override returns (string memory) {... */\n    tag_4:\n      callvalue\n      dup1\n      iszero\n      tag_53\n      jumpi\n      0x00\n      dup1\n      revert\n    tag_53:\n      pop\n      tag_54\n      tag_55\n      jump\t// in\n    tag_54:\n      mload(0x40)\n      tag_44\n      swap2\n      swap1\n      tag_57\n      jump\t// in\n        /* \"https://github.com/exo-digital-labs/ERC721R/blob/main/contracts/ERC721A.sol\":9091:9291  function getApproved(uint256 tokenId) public view override returns (address) {... */\n    tag_5:\n      callvalue\n      dup1\n      iszero\n      tag_58\n      jumpi\n      0x00\n      dup1\n      revert\n    tag_58:\n      pop\n      tag_59\n      tag_60\n      calldatasize\n      0x04\n      tag_49\n      jump\t// in\n    tag_60:\n      tag_61\n      jump\t// in\n    tag_59:\n      mload(0x40)\n      sub(shl(0xa0, 0x01), 0x01)\n        /* \"#utility.yul\":1879:1911   */\n      swap1\n      swap2\n      and\n        /* \"#utility.yul\":1861:1912   */\n      dup2\n      mstore\n        /* \"#utility.yul\":1849:1851   */\n      0x20\n        /* \"#utility.yul\":1834:1852   */\n      add\n        /* \"https://github.com/exo-digital-labs/ERC721R/blob/main/contracts/ERC721A.sol\":9091:9291  function getApproved(uint256 tokenId) public view override returns (address) {... */\n      tag_44\n        /* \"#utility.yul\":1715:1918   */\n      jump\n        /* \"https://github.com/exo-digital-labs/ERC721R/blob/main/contracts/ERC721A.sol\":8668:9030  function approve(address to, uint256 tokenId) public override {... */\n    tag_6:\n      callvalue\n      dup1\n      iszero\n      tag_64\n      jumpi\n      0x00\n      dup1\n      revert\n    tag_64:\n      pop\n      tag_65\n      tag_66\n      calldatasize\n      0x04\n      tag_67\n      jump\t// in\n    tag_66:\n      tag_68\n      jump\t// in\n    tag_65:\n      stop\n        /* \"contracts/ERC-721AWRefund.sol\":570:598  address public refundAddress */\n    tag_7:\n      callvalue\n      dup1\n      iszero\n      tag_69\n      jumpi\n      0x00\n      dup1\n      revert\n    tag_69:\n      pop\n      sload(0x0a)\n      tag_59\n      swap1\n      sub(shl(0xa0, 0x01), 0x01)\n      and\n      dup2\n      jump\n        /* \"https://github.com/exo-digital-labs/ERC721R/blob/main/contracts/ERC721A.sol\":3878:4175  function totalSupply() public view returns (uint256) {... */\n    tag_8:\n      callvalue\n      dup1\n      iszero\n      tag_73\n      jumpi\n      0x00\n      dup1\n      revert\n    tag_73:\n      pop\n        /* \"https://github.com/exo-digital-labs/ERC721R/blob/main/contracts/ERC721A.sol\":4128:4140  _burnCounter */\n      sload(0x01)\n        /* \"https://github.com/exo-digital-labs/ERC721R/blob/main/contracts/ERC721A.sol\":3922:3929  uint256 */\n      0x00\n        /* \"https://github.com/exo-digital-labs/ERC721R/blob/main/contracts/ERC721A.sol\":4112:4125  _currentIndex */\n      sload\n        /* \"https://github.com/exo-digital-labs/ERC721R/blob/main/contracts/ERC721A.sol\":4112:4140  _currentIndex - _burnCounter */\n      sub\n        /* \"https://github.com/exo-digital-labs/ERC721R/blob/main/contracts/ERC721A.sol\":3878:4175  function totalSupply() public view returns (uint256) {... */\n      jump(tag_47)\n        /* \"https://github.com/exo-digital-labs/ERC721R/blob/main/contracts/ERC721A.sol\":9930:10094  function transferFrom(... */\n    tag_9:\n      callvalue\n      dup1\n      iszero\n      tag_77\n      jumpi\n      0x00\n      dup1\n      revert\n    tag_77:\n      pop\n      tag_65\n      tag_79\n      calldatasize\n      0x04\n      tag_80\n      jump\t// in\n    tag_79:\n      tag_81\n      jump\t// in\n        /* \"contracts/ERC-721AWRefund.sol\":1724:2262  function refund(uint256 tokenId) external {... */\n    tag_10:\n      callvalue\n      dup1\n      iszero\n      tag_82\n      jumpi\n      0x00\n      dup1\n      revert\n    tag_82:\n      pop\n      tag_65\n      tag_84\n      calldatasize\n      0x04\n      tag_49\n      jump\t// in\n    tag_84:\n      tag_85\n      jump\t// in\n        /* \"contracts/ERC-721AWRefund.sol\":1176:1718  function safeMint(uint256 quantity) public payable {... */\n    tag_11:\n      tag_65\n      tag_87\n      calldatasize\n      0x04\n      tag_49\n      jump\t// in\n    tag_87:\n      tag_88\n      jump\t// in\n        /* \"contracts/ERC-721AWRefund.sol\":2643:2921  function withdraw() external onlyOwner {... */\n    tag_12:\n      callvalue\n      dup1\n      iszero\n      tag_89\n      jumpi\n      0x00\n      dup1\n      revert\n    tag_89:\n      pop\n      tag_65\n      tag_91\n      jump\t// in\n        /* \"https://github.com/exo-digital-labs/ERC721R/blob/main/contracts/ERC721A.sol\":10160:10339  function safeTransferFrom(... */\n    tag_13:\n      callvalue\n      dup1\n      iszero\n      tag_92\n      jumpi\n      0x00\n      dup1\n      revert\n    tag_92:\n      pop\n      tag_65\n      tag_94\n      calldatasize\n      0x04\n      tag_80\n      jump\t// in\n    tag_94:\n      tag_95\n      jump\t// in\n        /* \"https://github.com/exo-digital-labs/ERC721R/blob/main/contracts/ERC721A.sol\":7450:7573  function ownerOf(uint256 tokenId) public view override returns (address) {... */\n    tag_14:\n      callvalue\n      dup1\n      iszero\n      tag_96\n      jumpi\n      0x00\n      dup1\n      revert\n    tag_96:\n      pop\n      tag_59\n      tag_98\n      calldatasize\n      0x04\n      tag_49\n      jump\t// in\n    tag_98:\n      tag_99\n      jump\t// in\n        /* \"contracts/ERC-721AWRefund.sol\":332:375  uint256 public constant mintPrice = 1 ether */\n    tag_15:\n      callvalue\n      dup1\n      iszero\n      tag_101\n      jumpi\n      0x00\n      dup1\n      revert\n    tag_101:\n      pop\n      tag_47\n        /* \"contracts/ERC-721AWRefund.sol\":368:375  1 ether */\n      0x0de0b6b3a7640000\n        /* \"contracts/ERC-721AWRefund.sol\":332:375  uint256 public constant mintPrice = 1 ether */\n      dup2\n      jump\n        /* \"contracts/ERC-721AWRefund.sol\":530:563  uint256 public refundEndTimeStamp */\n    tag_16:\n      callvalue\n      dup1\n      iszero\n      tag_105\n      jumpi\n      0x00\n      dup1\n      revert\n    tag_105:\n      pop\n      tag_47\n      sload(0x09)\n      dup2\n      jump\n        /* \"https://github.com/exo-digital-labs/ERC721R/blob/main/contracts/ERC721A.sol\":4966:5169  function balanceOf(address owner) public view override returns (uint256) {... */\n    tag_17:\n      callvalue\n      dup1\n      iszero\n      tag_109\n      jumpi\n      0x00\n      dup1\n      revert\n    tag_109:\n      pop\n      tag_47\n      tag_111\n      calldatasize\n      0x04\n      tag_112\n      jump\t// in\n    tag_111:\n      tag_113\n      jump\t// in\n        /* \"@openzeppelin/contracts/access/Ownable.sol\":1824:1925  function renounceOwnership() public virtual onlyOwner {... */\n    tag_18:\n      callvalue\n      dup1\n      iszero\n      tag_115\n      jumpi\n      0x00\n      dup1\n      revert\n    tag_115:\n      pop\n      tag_65\n      tag_117\n      jump\t// in\n        /* \"@openzeppelin/contracts/access/Ownable.sol\":1201:1286  function owner() public view virtual returns (address) {... */\n    tag_19:\n      callvalue\n      dup1\n      iszero\n      tag_118\n      jumpi\n      0x00\n      dup1\n      revert\n    tag_118:\n      pop\n        /* \"@openzeppelin/contracts/access/Ownable.sol\":1273:1279  _owner */\n      and(sub(shl(0xa0, 0x01), 0x01), sload(0x08))\n        /* \"@openzeppelin/contracts/access/Ownable.sol\":1201:1286  function owner() public view virtual returns (address) {... */\n      jump(tag_59)\n        /* \"https://github.com/exo-digital-labs/ERC721R/blob/main/contracts/ERC721A.sol\":7797:7899  function symbol() public view virtual override returns (string memory) {... */\n    tag_20:\n      callvalue\n      dup1\n      iszero\n      tag_122\n      jumpi\n      0x00\n      dup1\n      revert\n    tag_122:\n      pop\n      tag_54\n      tag_124\n      jump\t// in\n        /* \"https://github.com/exo-digital-labs/ERC721R/blob/main/contracts/ERC721A.sol\":9358:9640  function setApprovalForAll(address operator, bool approved) public virtual override {... */\n    tag_21:\n      callvalue\n      dup1\n      iszero\n      tag_126\n      jumpi\n      0x00\n      dup1\n      revert\n    tag_126:\n      pop\n      tag_65\n      tag_128\n      calldatasize\n      0x04\n      tag_129\n      jump\t// in\n    tag_128:\n      tag_130\n      jump\t// in\n        /* \"contracts/ERC-721AWRefund.sol\":479:524  uint public constant refundPeriod = 3 minutes */\n    tag_22:\n      callvalue\n      dup1\n      iszero\n      tag_131\n      jumpi\n      0x00\n      dup1\n      revert\n    tag_131:\n      pop\n      tag_47\n        /* \"contracts/ERC-721AWRefund.sol\":515:524  3 minutes */\n      0xb4\n        /* \"contracts/ERC-721AWRefund.sol\":479:524  uint public constant refundPeriod = 3 minutes */\n      dup2\n      jump\n        /* \"https://github.com/exo-digital-labs/ERC721R/blob/main/contracts/ERC721A.sol\":10405:10764  function safeTransferFrom(... */\n    tag_23:\n      callvalue\n      dup1\n      iszero\n      tag_135\n      jumpi\n      0x00\n      dup1\n      revert\n    tag_135:\n      pop\n      tag_65\n      tag_137\n      calldatasize\n      0x04\n      tag_138\n      jump\t// in\n    tag_137:\n      tag_139\n      jump\t// in\n        /* \"contracts/ERC-721AWRefund.sol\":815:858  mapping(uint256 => bool) public hasRefunded */\n    tag_24:\n      callvalue\n      dup1\n      iszero\n      tag_140\n      jumpi\n      0x00\n      dup1\n      revert\n    tag_140:\n      pop\n      tag_40\n      tag_142\n      calldatasize\n      0x04\n      tag_49\n      jump\t// in\n    tag_142:\n      mstore(0x20, 0x0c)\n      0x00\n      swap1\n      dup2\n      mstore\n      0x40\n      swap1\n      keccak256\n      sload\n      0xff\n      and\n      dup2\n      jump\n        /* \"contracts/ERC-721AWRefund.sol\":429:472  uint256 public constant maxMintSupply = 100 */\n    tag_25:\n      callvalue\n      dup1\n      iszero\n      tag_145\n      jumpi\n      0x00\n      dup1\n      revert\n    tag_145:\n      pop\n      tag_47\n        /* \"contracts/ERC-721AWRefund.sol\":469:472  100 */\n      0x64\n        /* \"contracts/ERC-721AWRefund.sol\":429:472  uint256 public constant maxMintSupply = 100 */\n      dup2\n      jump\n        /* \"https://github.com/exo-digital-labs/ERC721R/blob/main/contracts/ERC721A.sol\":7965:8278  function tokenURI(uint256 tokenId) public view virtual override returns (string memory) {... */\n    tag_26:\n      callvalue\n      dup1\n      iszero\n      tag_149\n      jumpi\n      0x00\n      dup1\n      revert\n    tag_149:\n      pop\n      tag_54\n      tag_151\n      calldatasize\n      0x04\n      tag_49\n      jump\t// in\n    tag_151:\n      tag_152\n      jump\t// in\n        /* \"contracts/ERC-721AWRefund.sol\":381:423  uint256 public constant maxMintPerUser = 5 */\n    tag_27:\n      callvalue\n      dup1\n      iszero\n      tag_154\n      jumpi\n      0x00\n      dup1\n      revert\n    tag_154:\n      pop\n      tag_47\n        /* \"contracts/ERC-721AWRefund.sol\":422:423  5 */\n      0x05\n        /* \"contracts/ERC-721AWRefund.sol\":381:423  uint256 public constant maxMintPerUser = 5 */\n      dup2\n      jump\n        /* \"contracts/ERC-721AWRefund.sol\":651:705  mapping(uint256 => uint256) public refundEndTimestamps */\n    tag_28:\n      callvalue\n      dup1\n      iszero\n      tag_158\n      jumpi\n      0x00\n      dup1\n      revert\n    tag_158:\n      pop\n      tag_47\n      tag_160\n      calldatasize\n      0x04\n      tag_49\n      jump\t// in\n    tag_160:\n      mstore(0x20, 0x0b)\n      0x00\n      swap1\n      dup2\n      mstore\n      0x40\n      swap1\n      keccak256\n      sload\n      dup2\n      jump\n        /* \"contracts/ERC-721AWRefund.sol\":2268:2460  function getRefundDeadline(uint256 tokenId) public view returns(uint256) {... */\n    tag_29:\n      callvalue\n      dup1\n      iszero\n      tag_163\n      jumpi\n      0x00\n      dup1\n      revert\n    tag_163:\n      pop\n      tag_47\n      tag_165\n      calldatasize\n      0x04\n      tag_49\n      jump\t// in\n    tag_165:\n      tag_166\n      jump\t// in\n        /* \"https://github.com/exo-digital-labs/ERC721R/blob/main/contracts/ERC721A.sol\":9706:9868  function isApprovedForAll(address owner, address operator) public view virtual override returns (bool) {... */\n    tag_30:\n      callvalue\n      dup1\n      iszero\n      tag_168\n      jumpi\n      0x00\n      dup1\n      revert\n    tag_168:\n      pop\n      tag_40\n      tag_170\n      calldatasize\n      0x04\n      tag_171\n      jump\t// in\n    tag_170:\n      tag_172\n      jump\t// in\n        /* \"@openzeppelin/contracts/access/Ownable.sol\":2074:2272  function transferOwnership(address newOwner) public virtual onlyOwner {... */\n    tag_31:\n      callvalue\n      dup1\n      iszero\n      tag_174\n      jumpi\n      0x00\n      dup1\n      revert\n    tag_174:\n      pop\n      tag_65\n      tag_176\n      calldatasize\n      0x04\n      tag_112\n      jump\t// in\n    tag_176:\n      tag_177\n      jump\t// in\n        /* \"https://github.com/exo-digital-labs/ERC721R/blob/main/contracts/ERC721A.sol\":4607:4907  function supportsInterface(bytes4 interfaceId) public view virtual override(ERC165, IERC165) returns (bool) {... */\n    tag_43:\n        /* \"https://github.com/exo-digital-labs/ERC721R/blob/main/contracts/ERC721A.sol\":4709:4713  bool */\n      0x00\n      not(sub(shl(0xe0, 0x01), 0x01))\n        /* \"https://github.com/exo-digital-labs/ERC721R/blob/main/contracts/ERC721A.sol\":4744:4784  interfaceId == type(IERC721).interfaceId */\n      dup3\n      and\n      shl(0xe0, 0x80ac58cd)\n      eq\n      dup1\n        /* \"https://github.com/exo-digital-labs/ERC721R/blob/main/contracts/ERC721A.sol\":4744:4848  interfaceId == type(IERC721).interfaceId ||... */\n      tag_179\n      jumpi\n      pop\n      not(sub(shl(0xe0, 0x01), 0x01))\n        /* \"https://github.com/exo-digital-labs/ERC721R/blob/main/contracts/ERC721A.sol\":4800:4848  interfaceId == type(IERC721Metadata).interfaceId */\n      dup3\n      and\n      shl(0xe0, 0x5b5e139f)\n      eq\n        /* \"https://github.com/exo-digital-labs/ERC721R/blob/main/contracts/ERC721A.sol\":4744:4848  interfaceId == type(IERC721).interfaceId ||... */\n    tag_179:\n        /* \"https://github.com/exo-digital-labs/ERC721R/blob/main/contracts/ERC721A.sol\":4744:4900  interfaceId == type(IERC721).interfaceId ||... */\n      dup1\n      tag_181\n      jumpi\n      pop\n      shl(0xe0, 0x01ffc9a7)\n      not(sub(shl(0xe0, 0x01), 0x01))\n        /* \"@openzeppelin/contracts/utils/introspection/ERC165.sol\":937:977  interfaceId == type(IERC165).interfaceId */\n      dup4\n      and\n      eq\n        /* \"https://github.com/exo-digital-labs/ERC721R/blob/main/contracts/ERC721A.sol\":4864:4900  super.supportsInterface(interfaceId) */\n    tag_181:\n        /* \"https://github.com/exo-digital-labs/ERC721R/blob/main/contracts/ERC721A.sol\":4725:4900  return... */\n      swap3\n        /* \"https://github.com/exo-digital-labs/ERC721R/blob/main/contracts/ERC721A.sol\":4607:4907  function supportsInterface(bytes4 interfaceId) public view virtual override(ERC165, IERC165) returns (bool) {... */\n      swap2\n      pop\n      pop\n      jump\t// out\n        /* \"contracts/ERC-721AWRefund.sol\":2466:2637  function getRefundAmount(uint256 tokenId) public view returns(uint256) {... */\n    tag_50:\n        /* \"contracts/ERC-721AWRefund.sol\":2528:2535  uint256 */\n      0x00\n        /* \"contracts/ERC-721AWRefund.sol\":2550:2570  hasRefunded[tokenId] */\n      dup2\n      dup2\n      mstore\n        /* \"contracts/ERC-721AWRefund.sol\":2550:2561  hasRefunded */\n      0x0c\n        /* \"contracts/ERC-721AWRefund.sol\":2550:2570  hasRefunded[tokenId] */\n      0x20\n      mstore\n      0x40\n      dup2\n      keccak256\n      sload\n      0xff\n      and\n        /* \"contracts/ERC-721AWRefund.sol\":2547:2605  if(hasRefunded[tokenId]) {... */\n      iszero\n      tag_184\n      jumpi\n      pop\n        /* \"contracts/ERC-721AWRefund.sol\":2593:2594  0 */\n      0x00\n      swap2\n        /* \"contracts/ERC-721AWRefund.sol\":2466:2637  function getRefundAmount(uint256 tokenId) public view returns(uint256) {... */\n      swap1\n      pop\n      jump\t// out\n        /* \"contracts/ERC-721AWRefund.sol\":2547:2605  if(hasRefunded[tokenId]) {... */\n    tag_184:\n      pop\n        /* \"contracts/ERC-721AWRefund.sol\":368:375  1 ether */\n      0x0de0b6b3a7640000\n      swap2\n        /* \"contracts/ERC-721AWRefund.sol\":2466:2637  function getRefundAmount(uint256 tokenId) public view returns(uint256) {... */\n      swap1\n      pop\n      jump\t// out\n        /* \"https://github.com/exo-digital-labs/ERC721R/blob/main/contracts/ERC721A.sol\":7635:7733  function name() public view virtual override returns (string memory) {... */\n    tag_55:\n        /* \"https://github.com/exo-digital-labs/ERC721R/blob/main/contracts/ERC721A.sol\":7689:7702  string memory */\n      0x60\n        /* \"https://github.com/exo-digital-labs/ERC721R/blob/main/contracts/ERC721A.sol\":7721:7726  _name */\n      0x02\n        /* \"https://github.com/exo-digital-labs/ERC721R/blob/main/contracts/ERC721A.sol\":7714:7726  return _name */\n      dup1\n      sload\n      tag_186\n      swap1\n      tag_187\n      jump\t// in\n    tag_186:\n      dup1\n      0x1f\n      add\n      0x20\n      dup1\n      swap2\n      div\n      mul\n      0x20\n      add\n      mload(0x40)\n      swap1\n      dup2\n      add\n      0x40\n      mstore\n      dup1\n      swap3\n      swap2\n      swap1\n      dup2\n      dup2\n      mstore\n      0x20\n      add\n      dup3\n      dup1\n      sload\n      tag_188\n      swap1\n      tag_187\n      jump\t// in\n    tag_188:\n      dup1\n      iszero\n      tag_189\n      jumpi\n      dup1\n      0x1f\n      lt\n      tag_190\n      jumpi\n      0x0100\n      dup1\n      dup4\n      sload\n      div\n      mul\n      dup4\n      mstore\n      swap2\n      0x20\n      add\n      swap2\n      jump(tag_189)\n    tag_190:\n      dup3\n      add\n      swap2\n      swap1\n      0x00\n      mstore\n      keccak256(0x00, 0x20)\n      swap1\n    tag_191:\n      dup2\n      sload\n      dup2\n      mstore\n      swap1\n      0x01\n      add\n      swap1\n      0x20\n      add\n      dup1\n      dup4\n      gt\n      tag_191\n      jumpi\n      dup3\n      swap1\n      sub\n      0x1f\n      and\n      dup3\n      add\n      swap2\n    tag_189:\n      pop\n      pop\n      pop\n      pop\n      pop\n      swap1\n      pop\n        /* \"https://github.com/exo-digital-labs/ERC721R/blob/main/contracts/ERC721A.sol\":7635:7733  function name() public view virtual override returns (string memory) {... */\n      swap1\n      jump\t// out\n        /* \"https://github.com/exo-digital-labs/ERC721R/blob/main/contracts/ERC721A.sol\":9091:9291  function getApproved(uint256 tokenId) public view override returns (address) {... */\n    tag_61:\n        /* \"https://github.com/exo-digital-labs/ERC721R/blob/main/contracts/ERC721A.sol\":9159:9166  address */\n      0x00\n        /* \"https://github.com/exo-digital-labs/ERC721R/blob/main/contracts/ERC721A.sol\":9183:9199  _exists(tokenId) */\n      tag_193\n        /* \"https://github.com/exo-digital-labs/ERC721R/blob/main/contracts/ERC721A.sol\":9191:9198  tokenId */\n      dup3\n        /* \"https://github.com/exo-digital-labs/ERC721R/blob/main/contracts/ERC721A.sol\":9183:9190  _exists */\n      tag_194\n        /* \"https://github.com/exo-digital-labs/ERC721R/blob/main/contracts/ERC721A.sol\":9183:9199  _exists(tokenId) */\n      jump\t// in\n    tag_193:\n        /* \"https://github.com/exo-digital-labs/ERC721R/blob/main/contracts/ERC721A.sol\":9178:9242  if (!_exists(tokenId)) revert ApprovalQueryForNonexistentToken() */\n      tag_195\n      jumpi\n        /* \"https://github.com/exo-digital-labs/ERC721R/blob/main/contracts/ERC721A.sol\":9208:9242  ApprovalQueryForNonexistentToken() */\n      mload(0x40)\n      shl(0xe2, 0x33d1c039)\n      dup2\n      mstore\n      0x04\n      add\n      mload(0x40)\n      dup1\n      swap2\n      sub\n      swap1\n      revert\n        /* \"https://github.com/exo-digital-labs/ERC721R/blob/main/contracts/ERC721A.sol\":9178:9242  if (!_exists(tokenId)) revert ApprovalQueryForNonexistentToken() */\n    tag_195:\n      pop\n        /* \"https://github.com/exo-digital-labs/ERC721R/blob/main/contracts/ERC721A.sol\":9260:9284  _tokenApprovals[tokenId] */\n      0x00\n      swap1\n      dup2\n      mstore\n        /* \"https://github.com/exo-digital-labs/ERC721R/blob/main/contracts/ERC721A.sol\":9260:9275  _tokenApprovals */\n      0x06\n        /* \"https://github.com/exo-digital-labs/ERC721R/blob/main/contracts/ERC721A.sol\":9260:9284  _tokenApprovals[tokenId] */\n      0x20\n      mstore\n      0x40\n      swap1\n      keccak256\n      sload\n      sub(shl(0xa0, 0x01), 0x01)\n      and\n      swap1\n        /* \"https://github.com/exo-digital-labs/ERC721R/blob/main/contracts/ERC721A.sol\":9091:9291  function getApproved(uint256 tokenId) public view override returns (address) {... */\n      jump\t// out\n        /* \"https://github.com/exo-digital-labs/ERC721R/blob/main/contracts/ERC721A.sol\":8668:9030  function approve(address to, uint256 tokenId) public override {... */\n    tag_68:\n        /* \"https://github.com/exo-digital-labs/ERC721R/blob/main/contracts/ERC721A.sol\":8740:8753  address owner */\n      0x00\n        /* \"https://github.com/exo-digital-labs/ERC721R/blob/main/contracts/ERC721A.sol\":8756:8780  ERC721A.ownerOf(tokenId) */\n      tag_197\n        /* \"https://github.com/exo-digital-labs/ERC721R/blob/main/contracts/ERC721A.sol\":8772:8779  tokenId */\n      dup3\n        /* \"https://github.com/exo-digital-labs/ERC721R/blob/main/contracts/ERC721A.sol\":8756:8771  ERC721A.ownerOf */\n      tag_99\n        /* \"https://github.com/exo-digital-labs/ERC721R/blob/main/contracts/ERC721A.sol\":8756:8780  ERC721A.ownerOf(tokenId) */\n      jump\t// in\n    tag_197:\n        /* \"https://github.com/exo-digital-labs/ERC721R/blob/main/contracts/ERC721A.sol\":8740:8780  address owner = ERC721A.ownerOf(tokenId) */\n      swap1\n      pop\n        /* \"https://github.com/exo-digital-labs/ERC721R/blob/main/contracts/ERC721A.sol\":8800:8805  owner */\n      dup1\n      sub(shl(0xa0, 0x01), 0x01)\n        /* \"https://github.com/exo-digital-labs/ERC721R/blob/main/contracts/ERC721A.sol\":8794:8805  to == owner */\n      and\n        /* \"https://github.com/exo-digital-labs/ERC721R/blob/main/contracts/ERC721A.sol\":8794:8796  to */\n      dup4\n      sub(shl(0xa0, 0x01), 0x01)\n        /* \"https://github.com/exo-digital-labs/ERC721R/blob/main/contracts/ERC721A.sol\":8794:8805  to == owner */\n      and\n      sub\n        /* \"https://github.com/exo-digital-labs/ERC721R/blob/main/contracts/ERC721A.sol\":8790:8838  if (to == owner) revert ApprovalToCurrentOwner() */\n      tag_198\n      jumpi\n        /* \"https://github.com/exo-digital-labs/ERC721R/blob/main/contracts/ERC721A.sol\":8814:8838  ApprovalToCurrentOwner() */\n      mload(0x40)\n      shl(0xe2, 0x250fdee3)\n      dup2\n      mstore\n      0x04\n      add\n      mload(0x40)\n      dup1\n      swap2\n      sub\n      swap1\n      revert\n        /* \"https://github.com/exo-digital-labs/ERC721R/blob/main/contracts/ERC721A.sol\":8790:8838  if (to == owner) revert ApprovalToCurrentOwner() */\n    tag_198:\n        /* \"@openzeppelin/contracts/utils/Context.sol\":719:729  msg.sender */\n      caller\n      sub(shl(0xa0, 0x01), 0x01)\n        /* \"https://github.com/exo-digital-labs/ERC721R/blob/main/contracts/ERC721A.sol\":8853:8874  _msgSender() != owner */\n      dup3\n      and\n      eq\n      dup1\n      iszero\n      swap1\n        /* \"https://github.com/exo-digital-labs/ERC721R/blob/main/contracts/ERC721A.sol\":8853:8916  _msgSender() != owner && !isApprovedForAll(owner, _msgSender()) */\n      tag_201\n      jumpi\n      pop\n        /* \"https://github.com/exo-digital-labs/ERC721R/blob/main/contracts/ERC721A.sol\":8879:8916  isApprovedForAll(owner, _msgSender()) */\n      tag_202\n        /* \"https://github.com/exo-digital-labs/ERC721R/blob/main/contracts/ERC721A.sol\":8896:8901  owner */\n      dup2\n        /* \"@openzeppelin/contracts/utils/Context.sol\":719:729  msg.sender */\n      caller\n        /* \"https://github.com/exo-digital-labs/ERC721R/blob/main/contracts/ERC721A.sol\":9706:9868  function isApprovedForAll(address owner, address operator) public view virtual override returns (bool) {... */\n      tag_172\n      jump\t// in\n        /* \"https://github.com/exo-digital-labs/ERC721R/blob/main/contracts/ERC721A.sol\":8879:8916  isApprovedForAll(owner, _msgSender()) */\n    tag_202:\n        /* \"https://github.com/exo-digital-labs/ERC721R/blob/main/contracts/ERC721A.sol\":8878:8916  !isApprovedForAll(owner, _msgSender()) */\n      iszero\n        /* \"https://github.com/exo-digital-labs/ERC721R/blob/main/contracts/ERC721A.sol\":8853:8916  _msgSender() != owner && !isApprovedForAll(owner, _msgSender()) */\n    tag_201:\n        /* \"https://github.com/exo-digital-labs/ERC721R/blob/main/contracts/ERC721A.sol\":8849:8985  if (_msgSender() != owner && !isApprovedForAll(owner, _msgSender())) {... */\n      iszero\n      tag_204\n      jumpi\n        /* \"https://github.com/exo-digital-labs/ERC721R/blob/main/contracts/ERC721A.sol\":8939:8974  ApprovalCallerNotOwnerNorApproved() */\n      mload(0x40)\n      shl(0xe1, 0x67d9dca1)\n      dup2\n      mstore\n      0x04\n      add\n      mload(0x40)\n      dup1\n      swap2\n      sub\n      swap1\n      revert\n        /* \"https://github.com/exo-digital-labs/ERC721R/blob/main/contracts/ERC721A.sol\":8849:8985  if (_msgSender() != owner && !isApprovedForAll(owner, _msgSender())) {... */\n    tag_204:\n        /* \"https://github.com/exo-digital-labs/ERC721R/blob/main/contracts/ERC721A.sol\":8995:9023  _approve(to, tokenId, owner) */\n      tag_205\n        /* \"https://github.com/exo-digital-labs/ERC721R/blob/main/contracts/ERC721A.sol\":9004:9006  to */\n      dup4\n        /* \"https://github.com/exo-digital-labs/ERC721R/blob/main/contracts/ERC721A.sol\":9008:9015  tokenId */\n      dup4\n        /* \"https://github.com/exo-digital-labs/ERC721R/blob/main/contracts/ERC721A.sol\":9017:9022  owner */\n      dup4\n        /* \"https://github.com/exo-digital-labs/ERC721R/blob/main/contracts/ERC721A.sol\":8995:9003  _approve */\n      tag_206\n        /* \"https://github.com/exo-digital-labs/ERC721R/blob/main/contracts/ERC721A.sol\":8995:9023  _approve(to, tokenId, owner) */\n      jump\t// in\n    tag_205:\n        /* \"https://github.com/exo-digital-labs/ERC721R/blob/main/contracts/ERC721A.sol\":8730:9030  {... */\n      pop\n        /* \"https://github.com/exo-digital-labs/ERC721R/blob/main/contracts/ERC721A.sol\":8668:9030  function approve(address to, uint256 tokenId) public override {... */\n      pop\n      pop\n      jump\t// out\n        /* \"https://github.com/exo-digital-labs/ERC721R/blob/main/contracts/ERC721A.sol\":9930:10094  function transferFrom(... */\n    tag_81:\n        /* \"https://github.com/exo-digital-labs/ERC721R/blob/main/contracts/ERC721A.sol\":10059:10087  _transfer(from, to, tokenId) */\n      tag_205\n        /* \"https://github.com/exo-digital-labs/ERC721R/blob/main/contracts/ERC721A.sol\":10069:10073  from */\n      dup4\n        /* \"https://github.com/exo-digital-labs/ERC721R/blob/main/contracts/ERC721A.sol\":10075:10077  to */\n      dup4\n        /* \"https://github.com/exo-digital-labs/ERC721R/blob/main/contracts/ERC721A.sol\":10079:10086  tokenId */\n      dup4\n        /* \"https://github.com/exo-digital-labs/ERC721R/blob/main/contracts/ERC721A.sol\":10059:10068  _transfer */\n      tag_212\n        /* \"https://github.com/exo-digital-labs/ERC721R/blob/main/contracts/ERC721A.sol\":10059:10087  _transfer(from, to, tokenId) */\n      jump\t// in\n        /* \"contracts/ERC-721AWRefund.sol\":1724:2262  function refund(uint256 tokenId) external {... */\n    tag_85:\n        /* \"contracts/ERC-721AWRefund.sol\":1802:1828  getRefundDeadline(tokenId) */\n      tag_214\n        /* \"contracts/ERC-721AWRefund.sol\":1820:1827  tokenId */\n      dup2\n        /* \"contracts/ERC-721AWRefund.sol\":1802:1819  getRefundDeadline */\n      tag_166\n        /* \"contracts/ERC-721AWRefund.sol\":1802:1828  getRefundDeadline(tokenId) */\n      jump\t// in\n    tag_214:\n        /* \"contracts/ERC-721AWRefund.sol\":1784:1799  block.timestamp */\n      timestamp\n        /* \"contracts/ERC-721AWRefund.sol\":1784:1828  block.timestamp < getRefundDeadline(tokenId) */\n      lt\n        /* \"contracts/ERC-721AWRefund.sol\":1776:1855  require(block.timestamp < getRefundDeadline(tokenId), \"Refund Period Expired.\") */\n      tag_215\n      jumpi\n      mload(0x40)\n      shl(0xe5, 0x461bcd)\n      dup2\n      mstore\n        /* \"#utility.yul\":5363:5365   */\n      0x20\n        /* \"contracts/ERC-721AWRefund.sol\":1776:1855  require(block.timestamp < getRefundDeadline(tokenId), \"Refund Period Expired.\") */\n      0x04\n      dup3\n      add\n        /* \"#utility.yul\":5345:5366   */\n      mstore\n        /* \"#utility.yul\":5402:5404   */\n      0x16\n        /* \"#utility.yul\":5382:5400   */\n      0x24\n      dup3\n      add\n        /* \"#utility.yul\":5375:5405   */\n      mstore\n      shl(0x51, 0x2932b33ab732102832b934b7b21022bc3834b932b217)\n        /* \"#utility.yul\":5421:5439   */\n      0x44\n      dup3\n      add\n        /* \"#utility.yul\":5414:5466   */\n      mstore\n        /* \"#utility.yul\":5483:5501   */\n      0x64\n      add\n        /* \"contracts/ERC-721AWRefund.sol\":1776:1855  require(block.timestamp < getRefundDeadline(tokenId), \"Refund Period Expired.\") */\n    tag_216:\n      mload(0x40)\n      dup1\n      swap2\n      sub\n      swap1\n      revert\n    tag_215:\n        /* \"contracts/ERC-721AWRefund.sol\":1918:1934  ownerOf(tokenId) */\n      tag_218\n        /* \"contracts/ERC-721AWRefund.sol\":1926:1933  tokenId */\n      dup2\n        /* \"contracts/ERC-721AWRefund.sol\":1918:1925  ownerOf */\n      tag_99\n        /* \"contracts/ERC-721AWRefund.sol\":1918:1934  ownerOf(tokenId) */\n      jump\t// in\n    tag_218:\n      sub(shl(0xa0, 0x01), 0x01)\n        /* \"contracts/ERC-721AWRefund.sol\":1904:1934  msg.sender == ownerOf(tokenId) */\n      and\n        /* \"contracts/ERC-721AWRefund.sol\":1904:1914  msg.sender */\n      caller\n      sub(shl(0xa0, 0x01), 0x01)\n        /* \"contracts/ERC-721AWRefund.sol\":1904:1934  msg.sender == ownerOf(tokenId) */\n      and\n      eq\n        /* \"contracts/ERC-721AWRefund.sol\":1896:1951  require(msg.sender == ownerOf(tokenId), \"Not your NFT\") */\n      tag_219\n      jumpi\n      mload(0x40)\n      shl(0xe5, 0x461bcd)\n      dup2\n      mstore\n        /* \"#utility.yul\":5714:5716   */\n      0x20\n        /* \"contracts/ERC-721AWRefund.sol\":1896:1951  require(msg.sender == ownerOf(tokenId), \"Not your NFT\") */\n      0x04\n      dup3\n      add\n        /* \"#utility.yul\":5696:5717   */\n      mstore\n        /* \"#utility.yul\":5753:5755   */\n      0x0c\n        /* \"#utility.yul\":5733:5751   */\n      0x24\n      dup3\n      add\n        /* \"#utility.yul\":5726:5756   */\n      mstore\n      shl(0xa2, 0x139bdd081e5bdd5c88139195)\n        /* \"#utility.yul\":5772:5790   */\n      0x44\n      dup3\n      add\n        /* \"#utility.yul\":5765:5807   */\n      mstore\n        /* \"#utility.yul\":5824:5842   */\n      0x64\n      add\n        /* \"contracts/ERC-721AWRefund.sol\":1896:1951  require(msg.sender == ownerOf(tokenId), \"Not your NFT\") */\n      tag_216\n        /* \"#utility.yul\":5512:5848   */\n      jump\n        /* \"contracts/ERC-721AWRefund.sol\":1896:1951  require(msg.sender == ownerOf(tokenId), \"Not your NFT\") */\n    tag_219:\n        /* \"contracts/ERC-721AWRefund.sol\":1961:1981  uint256 refundAmount */\n      0x00\n        /* \"contracts/ERC-721AWRefund.sol\":1984:2008  getRefundAmount(tokenId) */\n      tag_222\n        /* \"contracts/ERC-721AWRefund.sol\":2000:2007  tokenId */\n      dup3\n        /* \"contracts/ERC-721AWRefund.sol\":1984:1999  getRefundAmount */\n      tag_50\n        /* \"contracts/ERC-721AWRefund.sol\":1984:2008  getRefundAmount(tokenId) */\n      jump\t// in\n    tag_222:\n        /* \"contracts/ERC-721AWRefund.sol\":2078:2091  refundAddress */\n      sload(0x0a)\n        /* \"contracts/ERC-721AWRefund.sol\":1961:2008  uint256 refundAmount = getRefundAmount(tokenId) */\n      swap1\n      swap2\n      pop\n        /* \"contracts/ERC-721AWRefund.sol\":2056:2101  _transfer(msg.sender, refundAddress, tokenId) */\n      tag_223\n      swap1\n        /* \"contracts/ERC-721AWRefund.sol\":2066:2076  msg.sender */\n      caller\n      swap1\n      sub(shl(0xa0, 0x01), 0x01)\n        /* \"contracts/ERC-721AWRefund.sol\":2078:2091  refundAddress */\n      and\n        /* \"contracts/ERC-721AWRefund.sol\":2093:2100  tokenId */\n      dup5\n        /* \"contracts/ERC-721AWRefund.sol\":2056:2065  _transfer */\n      tag_212\n        /* \"contracts/ERC-721AWRefund.sol\":2056:2101  _transfer(msg.sender, refundAddress, tokenId) */\n      jump\t// in\n    tag_223:\n        /* \"contracts/ERC-721AWRefund.sol\":2137:2157  hasRefunded[tokenId] */\n      0x00\n      dup3\n      dup2\n      mstore\n        /* \"contracts/ERC-721AWRefund.sol\":2137:2148  hasRefunded */\n      0x0c\n        /* \"contracts/ERC-721AWRefund.sol\":2137:2157  hasRefunded[tokenId] */\n      0x20\n      mstore\n      0x40\n      swap1\n      keccak256\n        /* \"contracts/ERC-721AWRefund.sol\":2137:2164  hasRefunded[tokenId] = true */\n      dup1\n      sload\n      not(0xff)\n      and\n        /* \"contracts/ERC-721AWRefund.sol\":2160:2164  true */\n      0x01\n        /* \"contracts/ERC-721AWRefund.sol\":2137:2164  hasRefunded[tokenId] = true */\n      or\n      swap1\n      sstore\n        /* \"contracts/ERC-721AWRefund.sol\":2203:2255  Address.sendValue(payable(msg.sender), refundAmount) */\n      tag_224\n        /* \"contracts/ERC-721AWRefund.sol\":2229:2239  msg.sender */\n      caller\n        /* \"contracts/ERC-721AWRefund.sol\":2242:2254  refundAmount */\n      dup3\n        /* \"contracts/ERC-721AWRefund.sol\":2203:2220  Address.sendValue */\n      tag_225\n        /* \"contracts/ERC-721AWRefund.sol\":2203:2255  Address.sendValue(payable(msg.sender), refundAmount) */\n      jump\t// in\n    tag_224:\n        /* \"contracts/ERC-721AWRefund.sol\":1766:2262  {... */\n      pop\n        /* \"contracts/ERC-721AWRefund.sol\":1724:2262  function refund(uint256 tokenId) external {... */\n      pop\n      jump\t// out\n        /* \"contracts/ERC-721AWRefund.sol\":1176:1718  function safeMint(uint256 quantity) public payable {... */\n    tag_88:\n        /* \"contracts/ERC-721AWRefund.sol\":1258:1278  mintPrice * quantity */\n      tag_227\n        /* \"contracts/ERC-721AWRefund.sol\":1270:1278  quantity */\n      dup2\n        /* \"contracts/ERC-721AWRefund.sol\":368:375  1 ether */\n      0x0de0b6b3a7640000\n        /* \"contracts/ERC-721AWRefund.sol\":1258:1278  mintPrice * quantity */\n      tag_228\n      jump\t// in\n    tag_227:\n        /* \"contracts/ERC-721AWRefund.sol\":1245:1254  msg.value */\n      callvalue\n        /* \"contracts/ERC-721AWRefund.sol\":1245:1278  msg.value >= mintPrice * quantity */\n      lt\n      iszero\n        /* \"contracts/ERC-721AWRefund.sol\":1237:1300  require(msg.value >= mintPrice * quantity, \"Not enough funds.\") */\n      tag_229\n      jumpi\n      mload(0x40)\n      shl(0xe5, 0x461bcd)\n      dup2\n      mstore\n        /* \"#utility.yul\":6360:6362   */\n      0x20\n        /* \"contracts/ERC-721AWRefund.sol\":1237:1300  require(msg.value >= mintPrice * quantity, \"Not enough funds.\") */\n      0x04\n      dup3\n      add\n        /* \"#utility.yul\":6342:6363   */\n      mstore\n        /* \"#utility.yul\":6399:6401   */\n      0x11\n        /* \"#utility.yul\":6379:6397   */\n      0x24\n      dup3\n      add\n        /* \"#utility.yul\":6372:6402   */\n      mstore\n      shl(0x79, 0x2737ba1032b737bab3b410333ab7323997)\n        /* \"#utility.yul\":6418:6436   */\n      0x44\n      dup3\n      add\n        /* \"#utility.yul\":6411:6458   */\n      mstore\n        /* \"#utility.yul\":6475:6493   */\n      0x64\n      add\n        /* \"contracts/ERC-721AWRefund.sol\":1237:1300  require(msg.value >= mintPrice * quantity, \"Not enough funds.\") */\n      tag_216\n        /* \"#utility.yul\":6158:6499   */\n      jump\n        /* \"contracts/ERC-721AWRefund.sol\":1237:1300  require(msg.value >= mintPrice * quantity, \"Not enough funds.\") */\n    tag_229:\n        /* \"contracts/ERC-721AWRefund.sol\":1332:1342  msg.sender */\n      caller\n        /* \"https://github.com/exo-digital-labs/ERC721R/blob/main/contracts/ERC721A.sol\":5307:5314  uint256 */\n      0x00\n        /* \"https://github.com/exo-digital-labs/ERC721R/blob/main/contracts/ERC721A.sol\":5341:5360  _addressData[owner] */\n      swap1\n      dup2\n      mstore\n        /* \"contracts/ERC-721AWRefund.sol\":422:423  5 */\n      0x05\n        /* \"https://github.com/exo-digital-labs/ERC721R/blob/main/contracts/ERC721A.sol\":5341:5360  _addressData[owner] */\n      0x20\n      dup2\n      swap1\n      mstore\n      0x40\n      swap1\n      swap2\n      keccak256\n        /* \"https://github.com/exo-digital-labs/ERC721R/blob/main/contracts/ERC721A.sol\":5341:5373  _addressData[owner].numberMinted */\n      sload\n        /* \"contracts/ERC-721AWRefund.sol\":1347:1355  quantity */\n      dup3\n      swap1\n      shl(0x40, 0x01)\n        /* \"https://github.com/exo-digital-labs/ERC721R/blob/main/contracts/ERC721A.sol\":5341:5373  _addressData[owner].numberMinted */\n      swap1\n      div\n      0xffffffffffffffff\n      and\n        /* \"contracts/ERC-721AWRefund.sol\":1318:1355  _numberMinted(msg.sender ) + quantity */\n      tag_234\n      swap2\n      swap1\n      tag_235\n      jump\t// in\n    tag_234:\n        /* \"contracts/ERC-721AWRefund.sol\":1318:1373  _numberMinted(msg.sender ) + quantity <= maxMintPerUser */\n      gt\n      iszero\n        /* \"contracts/ERC-721AWRefund.sol\":1310:1388  require(_numberMinted(msg.sender ) + quantity <= maxMintPerUser, \"Mint Limit\") */\n      tag_236\n      jumpi\n      mload(0x40)\n      shl(0xe5, 0x461bcd)\n      dup2\n      mstore\n        /* \"#utility.yul\":6836:6838   */\n      0x20\n        /* \"contracts/ERC-721AWRefund.sol\":1310:1388  require(_numberMinted(msg.sender ) + quantity <= maxMintPerUser, \"Mint Limit\") */\n      0x04\n      dup3\n      add\n        /* \"#utility.yul\":6818:6839   */\n      mstore\n        /* \"#utility.yul\":6875:6877   */\n      0x0a\n        /* \"#utility.yul\":6855:6873   */\n      0x24\n      dup3\n      add\n        /* \"#utility.yul\":6848:6878   */\n      mstore\n      shl(0xb2, 0x135a5b9d08131a5b5a5d)\n        /* \"#utility.yul\":6894:6912   */\n      0x44\n      dup3\n      add\n        /* \"#utility.yul\":6887:6927   */\n      mstore\n        /* \"#utility.yul\":6944:6962   */\n      0x64\n      add\n        /* \"contracts/ERC-721AWRefund.sol\":1310:1388  require(_numberMinted(msg.sender ) + quantity <= maxMintPerUser, \"Mint Limit\") */\n      tag_216\n        /* \"#utility.yul\":6634:6968   */\n      jump\n        /* \"contracts/ERC-721AWRefund.sol\":1310:1388  require(_numberMinted(msg.sender ) + quantity <= maxMintPerUser, \"Mint Limit\") */\n    tag_236:\n        /* \"contracts/ERC-721AWRefund.sol\":469:472  100 */\n      0x64\n        /* \"contracts/ERC-721AWRefund.sol\":1406:1420  _totalMinted() */\n      tag_239\n        /* \"https://github.com/exo-digital-labs/ERC721R/blob/main/contracts/ERC721A.sol\":4310:4317  uint256 */\n      0x00\n        /* \"https://github.com/exo-digital-labs/ERC721R/blob/main/contracts/ERC721A.sol\":4492:4505  _currentIndex */\n      sload\n      swap1\n        /* \"https://github.com/exo-digital-labs/ERC721R/blob/main/contracts/ERC721A.sol\":4263:4540  function _totalMinted() internal view returns (uint256) {... */\n      jump\n        /* \"contracts/ERC-721AWRefund.sol\":1406:1420  _totalMinted() */\n    tag_239:\n        /* \"contracts/ERC-721AWRefund.sol\":1406:1437  _totalMinted() <= maxMintSupply */\n      gt\n      iszero\n        /* \"contracts/ERC-721AWRefund.sol\":1398:1466  require(_totalMinted() <= maxMintSupply, \"Supply Exceed. Sold out.\") */\n      tag_241\n      jumpi\n      mload(0x40)\n      shl(0xe5, 0x461bcd)\n      dup2\n      mstore\n        /* \"#utility.yul\":7175:7177   */\n      0x20\n        /* \"contracts/ERC-721AWRefund.sol\":1398:1466  require(_totalMinted() <= maxMintSupply, \"Supply Exceed. Sold out.\") */\n      0x04\n      dup3\n      add\n        /* \"#utility.yul\":7157:7178   */\n      mstore\n        /* \"#utility.yul\":7214:7216   */\n      0x18\n        /* \"#utility.yul\":7194:7212   */\n      0x24\n      dup3\n      add\n        /* \"#utility.yul\":7187:7217   */\n      mstore\n        /* \"#utility.yul\":7253:7279   */\n      0x537570706c79204578636565642e20536f6c64206f75742e0000000000000000\n        /* \"#utility.yul\":7233:7251   */\n      0x44\n      dup3\n      add\n        /* \"#utility.yul\":7226:7280   */\n      mstore\n        /* \"#utility.yul\":7297:7315   */\n      0x64\n      add\n        /* \"contracts/ERC-721AWRefund.sol\":1398:1466  require(_totalMinted() <= maxMintSupply, \"Supply Exceed. Sold out.\") */\n      tag_216\n        /* \"#utility.yul\":6973:7321   */\n      jump\n        /* \"contracts/ERC-721AWRefund.sol\":1398:1466  require(_totalMinted() <= maxMintSupply, \"Supply Exceed. Sold out.\") */\n    tag_241:\n        /* \"contracts/ERC-721AWRefund.sol\":1477:1508  _safeMint(msg.sender, quantity) */\n      tag_244\n        /* \"contracts/ERC-721AWRefund.sol\":1487:1497  msg.sender */\n      caller\n        /* \"contracts/ERC-721AWRefund.sol\":1499:1507  quantity */\n      dup3\n        /* \"contracts/ERC-721AWRefund.sol\":1477:1486  _safeMint */\n      tag_245\n        /* \"contracts/ERC-721AWRefund.sol\":1477:1508  _safeMint(msg.sender, quantity) */\n      jump\t// in\n    tag_244:\n        /* \"contracts/ERC-721AWRefund.sol\":1539:1569  block.timestamp + refundPeriod */\n      tag_246\n        /* \"contracts/ERC-721AWRefund.sol\":515:524  3 minutes */\n      0xb4\n        /* \"contracts/ERC-721AWRefund.sol\":1539:1554  block.timestamp */\n      timestamp\n        /* \"contracts/ERC-721AWRefund.sol\":1539:1569  block.timestamp + refundPeriod */\n      tag_235\n      jump\t// in\n    tag_246:\n        /* \"contracts/ERC-721AWRefund.sol\":1518:1536  refundEndTimeStamp */\n      0x09\n        /* \"contracts/ERC-721AWRefund.sol\":1518:1569  refundEndTimeStamp = block.timestamp + refundPeriod */\n      sstore\n        /* \"contracts/ERC-721AWRefund.sol\":1583:1592  uint256 i */\n      0x00\n        /* \"contracts/ERC-721AWRefund.sol\":1593:1606  _currentIndex */\n      dup1\n      sload\n        /* \"contracts/ERC-721AWRefund.sol\":1593:1617  _currentIndex - quantity */\n      tag_250\n      swap1\n        /* \"contracts/ERC-721AWRefund.sol\":1609:1617  quantity */\n      dup4\n      swap1\n        /* \"contracts/ERC-721AWRefund.sol\":1593:1617  _currentIndex - quantity */\n      tag_251\n      jump\t// in\n    tag_250:\n        /* \"contracts/ERC-721AWRefund.sol\":1583:1617  uint256 i=_currentIndex - quantity */\n      swap1\n      pop\n        /* \"contracts/ERC-721AWRefund.sol\":1579:1711  for(uint256 i=_currentIndex - quantity; i < _currentIndex; i++) {... */\n    tag_247:\n        /* \"contracts/ERC-721AWRefund.sol\":1623:1636  _currentIndex */\n      sload(0x00)\n        /* \"contracts/ERC-721AWRefund.sol\":1619:1620  i */\n      dup2\n        /* \"contracts/ERC-721AWRefund.sol\":1619:1636  i < _currentIndex */\n      lt\n        /* \"contracts/ERC-721AWRefund.sol\":1579:1711  for(uint256 i=_currentIndex - quantity; i < _currentIndex; i++) {... */\n      iszero\n      tag_224\n      jumpi\n        /* \"contracts/ERC-721AWRefund.sol\":1682:1700  refundEndTimeStamp */\n      sload(0x09)\n        /* \"contracts/ERC-721AWRefund.sol\":1657:1679  refundEndTimestamps[i] */\n      0x00\n      dup3\n      dup2\n      mstore\n        /* \"contracts/ERC-721AWRefund.sol\":1657:1676  refundEndTimestamps */\n      0x0b\n        /* \"contracts/ERC-721AWRefund.sol\":1657:1679  refundEndTimestamps[i] */\n      0x20\n      mstore\n      0x40\n      swap1\n      keccak256\n        /* \"contracts/ERC-721AWRefund.sol\":1657:1700  refundEndTimestamps[i] = refundEndTimeStamp */\n      sstore\n        /* \"contracts/ERC-721AWRefund.sol\":1677:1678  i */\n      dup1\n        /* \"contracts/ERC-721AWRefund.sol\":1638:1641  i++ */\n      tag_252\n        /* \"contracts/ERC-721AWRefund.sol\":1677:1678  i */\n      dup2\n        /* \"contracts/ERC-721AWRefund.sol\":1638:1641  i++ */\n      tag_253\n      jump\t// in\n    tag_252:\n      swap2\n      pop\n      pop\n        /* \"contracts/ERC-721AWRefund.sol\":1579:1711  for(uint256 i=_currentIndex - quantity; i < _currentIndex; i++) {... */\n      jump(tag_247)\n        /* \"contracts/ERC-721AWRefund.sol\":2643:2921  function withdraw() external onlyOwner {... */\n    tag_91:\n        /* \"@openzeppelin/contracts/access/Ownable.sol\":1094:1107  _checkOwner() */\n      tag_255\n        /* \"@openzeppelin/contracts/access/Ownable.sol\":1094:1105  _checkOwner */\n      tag_256\n        /* \"@openzeppelin/contracts/access/Ownable.sol\":1094:1107  _checkOwner() */\n      jump\t// in\n    tag_255:\n        /* \"contracts/ERC-721AWRefund.sol\":2718:2736  refundEndTimeStamp */\n      sload(0x09)\n        /* \"contracts/ERC-721AWRefund.sol\":2700:2715  block.timestamp */\n      timestamp\n        /* \"contracts/ERC-721AWRefund.sol\":2700:2736  block.timestamp > refundEndTimeStamp */\n      gt\n        /* \"contracts/ERC-721AWRefund.sol\":2692:2772  require(block.timestamp > refundEndTimeStamp, \"It's not past the refund period\") */\n      tag_258\n      jumpi\n      mload(0x40)\n      shl(0xe5, 0x461bcd)\n      dup2\n      mstore\n        /* \"#utility.yul\":7801:7803   */\n      0x20\n        /* \"contracts/ERC-721AWRefund.sol\":2692:2772  require(block.timestamp > refundEndTimeStamp, \"It's not past the refund period\") */\n      0x04\n      dup3\n      add\n        /* \"#utility.yul\":7783:7804   */\n      mstore\n        /* \"#utility.yul\":7840:7842   */\n      0x1f\n        /* \"#utility.yul\":7820:7838   */\n      0x24\n      dup3\n      add\n        /* \"#utility.yul\":7813:7843   */\n      mstore\n        /* \"#utility.yul\":7879:7912   */\n      0x49742773206e6f7420706173742074686520726566756e6420706572696f6400\n        /* \"#utility.yul\":7859:7877   */\n      0x44\n      dup3\n      add\n        /* \"#utility.yul\":7852:7913   */\n      mstore\n        /* \"#utility.yul\":7930:7948   */\n      0x64\n      add\n        /* \"contracts/ERC-721AWRefund.sol\":2692:2772  require(block.timestamp > refundEndTimeStamp, \"It's not past the refund period\") */\n      tag_216\n        /* \"#utility.yul\":7599:7954   */\n      jump\n        /* \"contracts/ERC-721AWRefund.sol\":2692:2772  require(block.timestamp > refundEndTimeStamp, \"It's not past the refund period\") */\n    tag_258:\n        /* \"contracts/ERC-721AWRefund.sol\":2800:2821  address(this).balance */\n      selfbalance\n        /* \"contracts/ERC-721AWRefund.sol\":2867:2914  Address.sendValue(payable(msg.sender), balance) */\n      tag_261\n        /* \"contracts/ERC-721AWRefund.sol\":2893:2903  msg.sender */\n      caller\n        /* \"contracts/ERC-721AWRefund.sol\":2800:2821  address(this).balance */\n      dup3\n        /* \"contracts/ERC-721AWRefund.sol\":2867:2884  Address.sendValue */\n      tag_225\n        /* \"contracts/ERC-721AWRefund.sol\":2867:2914  Address.sendValue(payable(msg.sender), balance) */\n      jump\t// in\n    tag_261:\n        /* \"contracts/ERC-721AWRefund.sol\":2682:2921  {... */\n      pop\n        /* \"contracts/ERC-721AWRefund.sol\":2643:2921  function withdraw() external onlyOwner {... */\n      jump\t// out\n        /* \"https://github.com/exo-digital-labs/ERC721R/blob/main/contracts/ERC721A.sol\":10160:10339  function safeTransferFrom(... */\n    tag_95:\n        /* \"https://github.com/exo-digital-labs/ERC721R/blob/main/contracts/ERC721A.sol\":10293:10332  safeTransferFrom(from, to, tokenId, '') */\n      tag_205\n        /* \"https://github.com/exo-digital-labs/ERC721R/blob/main/contracts/ERC721A.sol\":10310:10314  from */\n      dup4\n        /* \"https://github.com/exo-digital-labs/ERC721R/blob/main/contracts/ERC721A.sol\":10316:10318  to */\n      dup4\n        /* \"https://github.com/exo-digital-labs/ERC721R/blob/main/contracts/ERC721A.sol\":10320:10327  tokenId */\n      dup4\n        /* \"https://github.com/exo-digital-labs/ERC721R/blob/main/contracts/ERC721A.sol\":10293:10332  safeTransferFrom(from, to, tokenId, '') */\n      mload(0x40)\n      dup1\n      0x20\n      add\n      0x40\n      mstore\n      dup1\n      0x00\n      dup2\n      mstore\n      pop\n        /* \"https://github.com/exo-digital-labs/ERC721R/blob/main/contracts/ERC721A.sol\":10293:10309  safeTransferFrom */\n      tag_139\n        /* \"https://github.com/exo-digital-labs/ERC721R/blob/main/contracts/ERC721A.sol\":10293:10332  safeTransferFrom(from, to, tokenId, '') */\n      jump\t// in\n        /* \"https://github.com/exo-digital-labs/ERC721R/blob/main/contracts/ERC721A.sol\":7450:7573  function ownerOf(uint256 tokenId) public view override returns (address) {... */\n    tag_99:\n        /* \"https://github.com/exo-digital-labs/ERC721R/blob/main/contracts/ERC721A.sol\":7514:7521  address */\n      0x00\n        /* \"https://github.com/exo-digital-labs/ERC721R/blob/main/contracts/ERC721A.sol\":7540:7561  _ownershipOf(tokenId) */\n      tag_265\n        /* \"https://github.com/exo-digital-labs/ERC721R/blob/main/contracts/ERC721A.sol\":7553:7560  tokenId */\n      dup3\n        /* \"https://github.com/exo-digital-labs/ERC721R/blob/main/contracts/ERC721A.sol\":7540:7552  _ownershipOf */\n      tag_266\n        /* \"https://github.com/exo-digital-labs/ERC721R/blob/main/contracts/ERC721A.sol\":7540:7561  _ownershipOf(tokenId) */\n      jump\t// in\n    tag_265:\n        /* \"https://github.com/exo-digital-labs/ERC721R/blob/main/contracts/ERC721A.sol\":7540:7566  _ownershipOf(tokenId).addr */\n      mload\n      swap3\n        /* \"https://github.com/exo-digital-labs/ERC721R/blob/main/contracts/ERC721A.sol\":7450:7573  function ownerOf(uint256 tokenId) public view override returns (address) {... */\n      swap2\n      pop\n      pop\n      jump\t// out\n        /* \"https://github.com/exo-digital-labs/ERC721R/blob/main/contracts/ERC721A.sol\":4966:5169  function balanceOf(address owner) public view override returns (uint256) {... */\n    tag_113:\n        /* \"https://github.com/exo-digital-labs/ERC721R/blob/main/contracts/ERC721A.sol\":5030:5037  uint256 */\n      0x00\n      sub(shl(0xa0, 0x01), 0x01)\n        /* \"https://github.com/exo-digital-labs/ERC721R/blob/main/contracts/ERC721A.sol\":5053:5072  owner == address(0) */\n      dup3\n      and\n        /* \"https://github.com/exo-digital-labs/ERC721R/blob/main/contracts/ERC721A.sol\":5049:5109  if (owner == address(0)) revert BalanceQueryForZeroAddress() */\n      tag_268\n      jumpi\n        /* \"https://github.com/exo-digital-labs/ERC721R/blob/main/contracts/ERC721A.sol\":5081:5109  BalanceQueryForZeroAddress() */\n      mload(0x40)\n      shl(0xe2, 0x23d3ad81)\n      dup2\n      mstore\n      0x04\n      add\n      mload(0x40)\n      dup1\n      swap2\n      sub\n      swap1\n      revert\n        /* \"https://github.com/exo-digital-labs/ERC721R/blob/main/contracts/ERC721A.sol\":5049:5109  if (owner == address(0)) revert BalanceQueryForZeroAddress() */\n    tag_268:\n      pop\n      sub(shl(0xa0, 0x01), 0x01)\n        /* \"https://github.com/exo-digital-labs/ERC721R/blob/main/contracts/ERC721A.sol\":5134:5153  _addressData[owner] */\n      and\n      0x00\n      swap1\n      dup2\n      mstore\n        /* \"https://github.com/exo-digital-labs/ERC721R/blob/main/contracts/ERC721A.sol\":5134:5146  _addressData */\n      0x05\n        /* \"https://github.com/exo-digital-labs/ERC721R/blob/main/contracts/ERC721A.sol\":5134:5153  _addressData[owner] */\n      0x20\n      mstore\n      0x40\n      swap1\n      keccak256\n        /* \"https://github.com/exo-digital-labs/ERC721R/blob/main/contracts/ERC721A.sol\":5134:5161  _addressData[owner].balance */\n      sload\n      0xffffffffffffffff\n      and\n      swap1\n        /* \"https://github.com/exo-digital-labs/ERC721R/blob/main/contracts/ERC721A.sol\":4966:5169  function balanceOf(address owner) public view override returns (uint256) {... */\n      jump\t// out\n        /* \"@openzeppelin/contracts/access/Ownable.sol\":1824:1925  function renounceOwnership() public virtual onlyOwner {... */\n    tag_117:\n        /* \"@openzeppelin/contracts/access/Ownable.sol\":1094:1107  _checkOwner() */\n      tag_270\n        /* \"@openzeppelin/contracts/access/Ownable.sol\":1094:1105  _checkOwner */\n      tag_256\n        /* \"@openzeppelin/contracts/access/Ownable.sol\":1094:1107  _checkOwner() */\n      jump\t// in\n    tag_270:\n        /* \"@openzeppelin/contracts/access/Ownable.sol\":1888:1918  _transferOwnership(address(0)) */\n      tag_272\n        /* \"@openzeppelin/contracts/access/Ownable.sol\":1915:1916  0 */\n      0x00\n        /* \"@openzeppelin/contracts/access/Ownable.sol\":1888:1906  _transferOwnership */\n      tag_273\n        /* \"@openzeppelin/contracts/access/Ownable.sol\":1888:1918  _transferOwnership(address(0)) */\n      jump\t// in\n    tag_272:\n        /* \"@openzeppelin/contracts/access/Ownable.sol\":1824:1925  function renounceOwnership() public virtual onlyOwner {... */\n      jump\t// out\n        /* \"https://github.com/exo-digital-labs/ERC721R/blob/main/contracts/ERC721A.sol\":7797:7899  function symbol() public view virtual override returns (string memory) {... */\n    tag_124:\n        /* \"https://github.com/exo-digital-labs/ERC721R/blob/main/contracts/ERC721A.sol\":7853:7866  string memory */\n      0x60\n        /* \"https://github.com/exo-digital-labs/ERC721R/blob/main/contracts/ERC721A.sol\":7885:7892  _symbol */\n      0x03\n        /* \"https://github.com/exo-digital-labs/ERC721R/blob/main/contracts/ERC721A.sol\":7878:7892  return _symbol */\n      dup1\n      sload\n      tag_186\n      swap1\n      tag_187\n      jump\t// in\n        /* \"https://github.com/exo-digital-labs/ERC721R/blob/main/contracts/ERC721A.sol\":9358:9640  function setApprovalForAll(address operator, bool approved) public virtual override {... */\n    tag_130:\n        /* \"@openzeppelin/contracts/utils/Context.sol\":719:729  msg.sender */\n      caller\n      sub(shl(0xa0, 0x01), 0x01)\n        /* \"https://github.com/exo-digital-labs/ERC721R/blob/main/contracts/ERC721A.sol\":9456:9480  operator == _msgSender() */\n      dup4\n      and\n      sub\n        /* \"https://github.com/exo-digital-labs/ERC721R/blob/main/contracts/ERC721A.sol\":9452:9506  if (operator == _msgSender()) revert ApproveToCaller() */\n      tag_283\n      jumpi\n        /* \"https://github.com/exo-digital-labs/ERC721R/blob/main/contracts/ERC721A.sol\":9489:9506  ApproveToCaller() */\n      mload(0x40)\n      shl(0xe0, 0xb06307db)\n      dup2\n      mstore\n      0x04\n      add\n      mload(0x40)\n      dup1\n      swap2\n      sub\n      swap1\n      revert\n        /* \"https://github.com/exo-digital-labs/ERC721R/blob/main/contracts/ERC721A.sol\":9452:9506  if (operator == _msgSender()) revert ApproveToCaller() */\n    tag_283:\n        /* \"@openzeppelin/contracts/utils/Context.sol\":719:729  msg.sender */\n      caller\n        /* \"https://github.com/exo-digital-labs/ERC721R/blob/main/contracts/ERC721A.sol\":9517:9549  _operatorApprovals[_msgSender()] */\n      0x00\n      dup2\n      dup2\n      mstore\n        /* \"https://github.com/exo-digital-labs/ERC721R/blob/main/contracts/ERC721A.sol\":9517:9535  _operatorApprovals */\n      0x07\n        /* \"https://github.com/exo-digital-labs/ERC721R/blob/main/contracts/ERC721A.sol\":9517:9549  _operatorApprovals[_msgSender()] */\n      0x20\n      swap1\n      dup2\n      mstore\n      0x40\n      dup1\n      dup4\n      keccak256\n      sub(shl(0xa0, 0x01), 0x01)\n        /* \"https://github.com/exo-digital-labs/ERC721R/blob/main/contracts/ERC721A.sol\":9517:9559  _operatorApprovals[_msgSender()][operator] */\n      dup8\n      and\n      dup1\n      dup6\n      mstore\n      swap1\n      dup4\n      mstore\n      swap3\n      dup2\n      swap1\n      keccak256\n        /* \"https://github.com/exo-digital-labs/ERC721R/blob/main/contracts/ERC721A.sol\":9517:9570  _operatorApprovals[_msgSender()][operator] = approved */\n      dup1\n      sload\n      not(0xff)\n      and\n      dup7\n      iszero\n      iszero\n      swap1\n      dup2\n      or\n      swap1\n      swap2\n      sstore\n        /* \"https://github.com/exo-digital-labs/ERC721R/blob/main/contracts/ERC721A.sol\":9585:9633  ApprovalForAll(_msgSender(), operator, approved) */\n      swap1\n      mload\n        /* \"#utility.yul\":540:581   */\n      swap1\n      dup2\n      mstore\n        /* \"https://github.com/exo-digital-labs/ERC721R/blob/main/contracts/ERC721A.sol\":9517:9559  _operatorApprovals[_msgSender()][operator] */\n      swap2\n      swap3\n        /* \"@openzeppelin/contracts/utils/Context.sol\":719:729  msg.sender */\n      swap2\n        /* \"https://github.com/exo-digital-labs/ERC721R/blob/main/contracts/ERC721A.sol\":9585:9633  ApprovalForAll(_msgSender(), operator, approved) */\n      0x17307eab39ab6107e8899845ad3d59bd9653f200f220920489ca2b5937696c31\n      swap2\n        /* \"#utility.yul\":513:531   */\n      add\n        /* \"https://github.com/exo-digital-labs/ERC721R/blob/main/contracts/ERC721A.sol\":9585:9633  ApprovalForAll(_msgSender(), operator, approved) */\n      mload(0x40)\n      dup1\n      swap2\n      sub\n      swap1\n      log3\n        /* \"https://github.com/exo-digital-labs/ERC721R/blob/main/contracts/ERC721A.sol\":9358:9640  function setApprovalForAll(address operator, bool approved) public virtual override {... */\n      pop\n      pop\n      jump\t// out\n        /* \"https://github.com/exo-digital-labs/ERC721R/blob/main/contracts/ERC721A.sol\":10405:10764  function safeTransferFrom(... */\n    tag_139:\n        /* \"https://github.com/exo-digital-labs/ERC721R/blob/main/contracts/ERC721A.sol\":10566:10594  _transfer(from, to, tokenId) */\n      tag_288\n        /* \"https://github.com/exo-digital-labs/ERC721R/blob/main/contracts/ERC721A.sol\":10576:10580  from */\n      dup5\n        /* \"https://github.com/exo-digital-labs/ERC721R/blob/main/contracts/ERC721A.sol\":10582:10584  to */\n      dup5\n        /* \"https://github.com/exo-digital-labs/ERC721R/blob/main/contracts/ERC721A.sol\":10586:10593  tokenId */\n      dup5\n        /* \"https://github.com/exo-digital-labs/ERC721R/blob/main/contracts/ERC721A.sol\":10566:10575  _transfer */\n      tag_212\n        /* \"https://github.com/exo-digital-labs/ERC721R/blob/main/contracts/ERC721A.sol\":10566:10594  _transfer(from, to, tokenId) */\n      jump\t// in\n    tag_288:\n      sub(shl(0xa0, 0x01), 0x01)\n        /* \"https://github.com/exo-digital-labs/ERC721R/blob/main/contracts/ERC721A.sol\":10608:10621  to.isContract */\n      dup4\n      and\n        /* \"@openzeppelin/contracts/utils/Address.sol\":1702:1721  account.code.length */\n      extcodesize\n        /* \"@openzeppelin/contracts/utils/Address.sol\":1702:1725  account.code.length > 0 */\n      iszero\n      iszero\n        /* \"https://github.com/exo-digital-labs/ERC721R/blob/main/contracts/ERC721A.sol\":10608:10684  to.isContract() && !_checkContractOnERC721Received(from, to, tokenId, _data) */\n      dup1\n      iszero\n      tag_291\n      jumpi\n      pop\n        /* \"https://github.com/exo-digital-labs/ERC721R/blob/main/contracts/ERC721A.sol\":10628:10684  _checkContractOnERC721Received(from, to, tokenId, _data) */\n      tag_292\n        /* \"https://github.com/exo-digital-labs/ERC721R/blob/main/contracts/ERC721A.sol\":10659:10663  from */\n      dup5\n        /* \"https://github.com/exo-digital-labs/ERC721R/blob/main/contracts/ERC721A.sol\":10665:10667  to */\n      dup5\n        /* \"https://github.com/exo-digital-labs/ERC721R/blob/main/contracts/ERC721A.sol\":10669:10676  tokenId */\n      dup5\n        /* \"https://github.com/exo-digital-labs/ERC721R/blob/main/contracts/ERC721A.sol\":10678:10683  _data */\n      dup5\n        /* \"https://github.com/exo-digital-labs/ERC721R/blob/main/contracts/ERC721A.sol\":10628:10658  _checkContractOnERC721Received */\n      tag_293\n        /* \"https://github.com/exo-digital-labs/ERC721R/blob/main/contracts/ERC721A.sol\":10628:10684  _checkContractOnERC721Received(from, to, tokenId, _data) */\n      jump\t// in\n    tag_292:\n        /* \"https://github.com/exo-digital-labs/ERC721R/blob/main/contracts/ERC721A.sol\":10627:10684  !_checkContractOnERC721Received(from, to, tokenId, _data) */\n      iszero\n        /* \"https://github.com/exo-digital-labs/ERC721R/blob/main/contracts/ERC721A.sol\":10608:10684  to.isContract() && !_checkContractOnERC721Received(from, to, tokenId, _data) */\n    tag_291:\n        /* \"https://github.com/exo-digital-labs/ERC721R/blob/main/contracts/ERC721A.sol\":10604:10758  if (to.isContract() && !_checkContractOnERC721Received(from, to, tokenId, _data)) {... */\n      iszero\n      tag_294\n      jumpi\n        /* \"https://github.com/exo-digital-labs/ERC721R/blob/main/contracts/ERC721A.sol\":10707:10747  TransferToNonERC721ReceiverImplementer() */\n      mload(0x40)\n      shl(0xe1, 0x68d2bf6b)\n      dup2\n      mstore\n      0x04\n      add\n      mload(0x40)\n      dup1\n      swap2\n      sub\n      swap1\n      revert\n        /* \"https://github.com/exo-digital-labs/ERC721R/blob/main/contracts/ERC721A.sol\":10604:10758  if (to.isContract() && !_checkContractOnERC721Received(from, to, tokenId, _data)) {... */\n    tag_294:\n        /* \"https://github.com/exo-digital-labs/ERC721R/blob/main/contracts/ERC721A.sol\":10405:10764  function safeTransferFrom(... */\n      pop\n      pop\n      pop\n      pop\n      jump\t// out\n        /* \"https://github.com/exo-digital-labs/ERC721R/blob/main/contracts/ERC721A.sol\":7965:8278  function tokenURI(uint256 tokenId) public view virtual override returns (string memory) {... */\n    tag_152:\n        /* \"https://github.com/exo-digital-labs/ERC721R/blob/main/contracts/ERC721A.sol\":8038:8051  string memory */\n      0x60\n        /* \"https://github.com/exo-digital-labs/ERC721R/blob/main/contracts/ERC721A.sol\":8068:8084  _exists(tokenId) */\n      tag_296\n        /* \"https://github.com/exo-digital-labs/ERC721R/blob/main/contracts/ERC721A.sol\":8076:8083  tokenId */\n      dup3\n        /* \"https://github.com/exo-digital-labs/ERC721R/blob/main/contracts/ERC721A.sol\":8068:8075  _exists */\n      tag_194\n        /* \"https://github.com/exo-digital-labs/ERC721R/blob/main/contracts/ERC721A.sol\":8068:8084  _exists(tokenId) */\n      jump\t// in\n    tag_296:\n        /* \"https://github.com/exo-digital-labs/ERC721R/blob/main/contracts/ERC721A.sol\":8063:8122  if (!_exists(tokenId)) revert URIQueryForNonexistentToken() */\n      tag_297\n      jumpi\n        /* \"https://github.com/exo-digital-labs/ERC721R/blob/main/contracts/ERC721A.sol\":8093:8122  URIQueryForNonexistentToken() */\n      mload(0x40)\n      shl(0xe4, 0x0a14c4b5)\n      dup2\n      mstore\n      0x04\n      add\n      mload(0x40)\n      dup1\n      swap2\n      sub\n      swap1\n      revert\n        /* \"https://github.com/exo-digital-labs/ERC721R/blob/main/contracts/ERC721A.sol\":8063:8122  if (!_exists(tokenId)) revert URIQueryForNonexistentToken() */\n    tag_297:\n        /* \"https://github.com/exo-digital-labs/ERC721R/blob/main/contracts/ERC721A.sol\":8133:8154  string memory baseURI */\n      0x00\n        /* \"https://github.com/exo-digital-labs/ERC721R/blob/main/contracts/ERC721A.sol\":8157:8167  _baseURI() */\n      tag_298\n        /* \"https://github.com/exo-digital-labs/ERC721R/blob/main/contracts/ERC721A.sol\":8157:8165  _baseURI */\n      tag_299\n        /* \"https://github.com/exo-digital-labs/ERC721R/blob/main/contracts/ERC721A.sol\":8157:8167  _baseURI() */\n      jump\t// in\n    tag_298:\n        /* \"https://github.com/exo-digital-labs/ERC721R/blob/main/contracts/ERC721A.sol\":8133:8167  string memory baseURI = _baseURI() */\n      swap1\n      pop\n        /* \"https://github.com/exo-digital-labs/ERC721R/blob/main/contracts/ERC721A.sol\":8190:8197  baseURI */\n      dup1\n        /* \"https://github.com/exo-digital-labs/ERC721R/blob/main/contracts/ERC721A.sol\":8184:8205  bytes(baseURI).length */\n      mload\n        /* \"https://github.com/exo-digital-labs/ERC721R/blob/main/contracts/ERC721A.sol\":8209:8210  0 */\n      0x00\n        /* \"https://github.com/exo-digital-labs/ERC721R/blob/main/contracts/ERC721A.sol\":8184:8210  bytes(baseURI).length != 0 */\n      sub\n        /* \"https://github.com/exo-digital-labs/ERC721R/blob/main/contracts/ERC721A.sol\":8184:8271  bytes(baseURI).length != 0 ? string(abi.encodePacked(baseURI, tokenId.toString())) : '' */\n      tag_300\n      jumpi\n      mload(0x40)\n      dup1\n      0x20\n      add\n      0x40\n      mstore\n      dup1\n      0x00\n      dup2\n      mstore\n      pop\n      jump(tag_301)\n    tag_300:\n        /* \"https://github.com/exo-digital-labs/ERC721R/blob/main/contracts/ERC721A.sol\":8237:8244  baseURI */\n      dup1\n        /* \"https://github.com/exo-digital-labs/ERC721R/blob/main/contracts/ERC721A.sol\":8246:8264  tokenId.toString() */\n      tag_302\n        /* \"https://github.com/exo-digital-labs/ERC721R/blob/main/contracts/ERC721A.sol\":8246:8253  tokenId */\n      dup5\n        /* \"https://github.com/exo-digital-labs/ERC721R/blob/main/contracts/ERC721A.sol\":8246:8262  tokenId.toString */\n      tag_303\n        /* \"https://github.com/exo-digital-labs/ERC721R/blob/main/contracts/ERC721A.sol\":8246:8264  tokenId.toString() */\n      jump\t// in\n    tag_302:\n        /* \"https://github.com/exo-digital-labs/ERC721R/blob/main/contracts/ERC721A.sol\":8220:8265  abi.encodePacked(baseURI, tokenId.toString()) */\n      add(0x20, mload(0x40))\n      tag_304\n      swap3\n      swap2\n      swap1\n      tag_305\n      jump\t// in\n    tag_304:\n      mload(0x40)\n      0x20\n      dup2\n      dup4\n      sub\n      sub\n      dup2\n      mstore\n      swap1\n      0x40\n      mstore\n        /* \"https://github.com/exo-digital-labs/ERC721R/blob/main/contracts/ERC721A.sol\":8184:8271  bytes(baseURI).length != 0 ? string(abi.encodePacked(baseURI, tokenId.toString())) : '' */\n    tag_301:\n        /* \"https://github.com/exo-digital-labs/ERC721R/blob/main/contracts/ERC721A.sol\":8177:8271  return bytes(baseURI).length != 0 ? string(abi.encodePacked(baseURI, tokenId.toString())) : '' */\n      swap4\n        /* \"https://github.com/exo-digital-labs/ERC721R/blob/main/contracts/ERC721A.sol\":7965:8278  function tokenURI(uint256 tokenId) public view virtual override returns (string memory) {... */\n      swap3\n      pop\n      pop\n      pop\n      jump\t// out\n        /* \"contracts/ERC-721AWRefund.sol\":2268:2460  function getRefundDeadline(uint256 tokenId) public view returns(uint256) {... */\n    tag_166:\n        /* \"contracts/ERC-721AWRefund.sol\":2332:2339  uint256 */\n      0x00\n        /* \"contracts/ERC-721AWRefund.sol\":2354:2374  hasRefunded[tokenId] */\n      dup2\n      dup2\n      mstore\n        /* \"contracts/ERC-721AWRefund.sol\":2354:2365  hasRefunded */\n      0x0c\n        /* \"contracts/ERC-721AWRefund.sol\":2354:2374  hasRefunded[tokenId] */\n      0x20\n      mstore\n      0x40\n      dup2\n      keccak256\n      sload\n      0xff\n      and\n        /* \"contracts/ERC-721AWRefund.sol\":2351:2409  if(hasRefunded[tokenId]) {... */\n      iszero\n      tag_307\n      jumpi\n      pop\n        /* \"contracts/ERC-721AWRefund.sol\":2397:2398  0 */\n      0x00\n      swap2\n        /* \"contracts/ERC-721AWRefund.sol\":2268:2460  function getRefundDeadline(uint256 tokenId) public view returns(uint256) {... */\n      swap1\n      pop\n      jump\t// out\n        /* \"contracts/ERC-721AWRefund.sol\":2351:2409  if(hasRefunded[tokenId]) {... */\n    tag_307:\n      pop\n        /* \"contracts/ERC-721AWRefund.sol\":2425:2453  refundEndTimestamps[tokenId] */\n      0x00\n      swap1\n      dup2\n      mstore\n        /* \"contracts/ERC-721AWRefund.sol\":2425:2444  refundEndTimestamps */\n      0x0b\n        /* \"contracts/ERC-721AWRefund.sol\":2425:2453  refundEndTimestamps[tokenId] */\n      0x20\n      mstore\n      0x40\n      swap1\n      keccak256\n      sload\n      swap1\n        /* \"contracts/ERC-721AWRefund.sol\":2268:2460  function getRefundDeadline(uint256 tokenId) public view returns(uint256) {... */\n      jump\t// out\n        /* \"https://github.com/exo-digital-labs/ERC721R/blob/main/contracts/ERC721A.sol\":9706:9868  function isApprovedForAll(address owner, address operator) public view virtual override returns (bool) {... */\n    tag_172:\n      sub(shl(0xa0, 0x01), 0x01)\n        /* \"https://github.com/exo-digital-labs/ERC721R/blob/main/contracts/ERC721A.sol\":9826:9851  _operatorApprovals[owner] */\n      swap2\n      dup3\n      and\n        /* \"https://github.com/exo-digital-labs/ERC721R/blob/main/contracts/ERC721A.sol\":9803:9807  bool */\n      0x00\n        /* \"https://github.com/exo-digital-labs/ERC721R/blob/main/contracts/ERC721A.sol\":9826:9851  _operatorApprovals[owner] */\n      swap1\n      dup2\n      mstore\n        /* \"https://github.com/exo-digital-labs/ERC721R/blob/main/contracts/ERC721A.sol\":9826:9844  _operatorApprovals */\n      0x07\n        /* \"https://github.com/exo-digital-labs/ERC721R/blob/main/contracts/ERC721A.sol\":9826:9851  _operatorApprovals[owner] */\n      0x20\n      swap1\n      dup2\n      mstore\n      0x40\n      dup1\n      dup4\n      keccak256\n        /* \"https://github.com/exo-digital-labs/ERC721R/blob/main/contracts/ERC721A.sol\":9826:9861  _operatorApprovals[owner][operator] */\n      swap4\n      swap1\n      swap5\n      and\n      dup3\n      mstore\n      swap2\n      swap1\n      swap2\n      mstore\n      keccak256\n      sload\n      0xff\n      and\n      swap1\n        /* \"https://github.com/exo-digital-labs/ERC721R/blob/main/contracts/ERC721A.sol\":9706:9868  function isApprovedForAll(address owner, address operator) public view virtual override returns (bool) {... */\n      jump\t// out\n        /* \"@openzeppelin/contracts/access/Ownable.sol\":2074:2272  function transferOwnership(address newOwner) public virtual onlyOwner {... */\n    tag_177:\n        /* \"@openzeppelin/contracts/access/Ownable.sol\":1094:1107  _checkOwner() */\n      tag_310\n        /* \"@openzeppelin/contracts/access/Ownable.sol\":1094:1105  _checkOwner */\n      tag_256\n        /* \"@openzeppelin/contracts/access/Ownable.sol\":1094:1107  _checkOwner() */\n      jump\t// in\n    tag_310:\n      sub(shl(0xa0, 0x01), 0x01)\n        /* \"@openzeppelin/contracts/access/Ownable.sol\":2162:2184  newOwner != address(0) */\n      dup2\n      and\n        /* \"@openzeppelin/contracts/access/Ownable.sol\":2154:2227  require(newOwner != address(0), \"Ownable: new owner is the zero address\") */\n      tag_312\n      jumpi\n      mload(0x40)\n      shl(0xe5, 0x461bcd)\n      dup2\n      mstore\n        /* \"#utility.yul\":8662:8664   */\n      0x20\n        /* \"@openzeppelin/contracts/access/Ownable.sol\":2154:2227  require(newOwner != address(0), \"Ownable: new owner is the zero address\") */\n      0x04\n      dup3\n      add\n        /* \"#utility.yul\":8644:8665   */\n      mstore\n        /* \"#utility.yul\":8701:8703   */\n      0x26\n        /* \"#utility.yul\":8681:8699   */\n      0x24\n      dup3\n      add\n        /* \"#utility.yul\":8674:8704   */\n      mstore\n        /* \"#utility.yul\":8740:8774   */\n      0x4f776e61626c653a206e6577206f776e657220697320746865207a65726f2061\n        /* \"#utility.yul\":8720:8738   */\n      0x44\n      dup3\n      add\n        /* \"#utility.yul\":8713:8775   */\n      mstore\n      shl(0xd0, 0x646472657373)\n        /* \"#utility.yul\":8791:8809   */\n      0x64\n      dup3\n      add\n        /* \"#utility.yul\":8784:8820   */\n      mstore\n        /* \"#utility.yul\":8837:8856   */\n      0x84\n      add\n        /* \"@openzeppelin/contracts/access/Ownable.sol\":2154:2227  require(newOwner != address(0), \"Ownable: new owner is the zero address\") */\n      tag_216\n        /* \"#utility.yul\":8460:8862   */\n      jump\n        /* \"@openzeppelin/contracts/access/Ownable.sol\":2154:2227  require(newOwner != address(0), \"Ownable: new owner is the zero address\") */\n    tag_312:\n        /* \"@openzeppelin/contracts/access/Ownable.sol\":2237:2265  _transferOwnership(newOwner) */\n      tag_261\n        /* \"@openzeppelin/contracts/access/Ownable.sol\":2256:2264  newOwner */\n      dup2\n        /* \"@openzeppelin/contracts/access/Ownable.sol\":2237:2255  _transferOwnership */\n      tag_273\n        /* \"@openzeppelin/contracts/access/Ownable.sol\":2237:2265  _transferOwnership(newOwner) */\n      jump\t// in\n        /* \"https://github.com/exo-digital-labs/ERC721R/blob/main/contracts/ERC721A.sol\":11010:11194  function _exists(uint256 tokenId) internal view returns (bool) {... */\n    tag_194:\n        /* \"https://github.com/exo-digital-labs/ERC721R/blob/main/contracts/ERC721A.sol\":11067:11071  bool */\n      0x00\n        /* \"https://github.com/exo-digital-labs/ERC721R/blob/main/contracts/ERC721A.sol\":11130:11143  _currentIndex */\n      dup1\n      sload\n        /* \"https://github.com/exo-digital-labs/ERC721R/blob/main/contracts/ERC721A.sol\":11120:11127  tokenId */\n      dup3\n        /* \"https://github.com/exo-digital-labs/ERC721R/blob/main/contracts/ERC721A.sol\":11120:11143  tokenId < _currentIndex */\n      lt\n        /* \"https://github.com/exo-digital-labs/ERC721R/blob/main/contracts/ERC721A.sol\":11090:11187  _startTokenId() <= tokenId && tokenId < _currentIndex &&... */\n      dup1\n      iszero\n      tag_181\n      jumpi\n      pop\n      pop\n        /* \"https://github.com/exo-digital-labs/ERC721R/blob/main/contracts/ERC721A.sol\":11160:11180  _ownerships[tokenId] */\n      0x00\n      swap1\n      dup2\n      mstore\n        /* \"https://github.com/exo-digital-labs/ERC721R/blob/main/contracts/ERC721A.sol\":11160:11171  _ownerships */\n      0x04\n        /* \"https://github.com/exo-digital-labs/ERC721R/blob/main/contracts/ERC721A.sol\":11160:11180  _ownerships[tokenId] */\n      0x20\n      mstore\n      0x40\n      swap1\n      keccak256\n        /* \"https://github.com/exo-digital-labs/ERC721R/blob/main/contracts/ERC721A.sol\":11160:11187  _ownerships[tokenId].burned */\n      sload\n      shl(0xe0, 0x01)\n      swap1\n      div\n      0xff\n      and\n        /* \"https://github.com/exo-digital-labs/ERC721R/blob/main/contracts/ERC721A.sol\":11159:11187  !_ownerships[tokenId].burned */\n      iszero\n      swap1\n        /* \"https://github.com/exo-digital-labs/ERC721R/blob/main/contracts/ERC721A.sol\":11010:11194  function _exists(uint256 tokenId) internal view returns (bool) {... */\n      jump\t// out\n        /* \"https://github.com/exo-digital-labs/ERC721R/blob/main/contracts/ERC721A.sol\":18963:19153  function _approve(... */\n    tag_206:\n        /* \"https://github.com/exo-digital-labs/ERC721R/blob/main/contracts/ERC721A.sol\":19074:19098  _tokenApprovals[tokenId] */\n      0x00\n      dup3\n      dup2\n      mstore\n        /* \"https://github.com/exo-digital-labs/ERC721R/blob/main/contracts/ERC721A.sol\":19074:19089  _tokenApprovals */\n      0x06\n        /* \"https://github.com/exo-digital-labs/ERC721R/blob/main/contracts/ERC721A.sol\":19074:19098  _tokenApprovals[tokenId] */\n      0x20\n      mstore\n      0x40\n      dup1\n      dup3\n      keccak256\n        /* \"https://github.com/exo-digital-labs/ERC721R/blob/main/contracts/ERC721A.sol\":19074:19103  _tokenApprovals[tokenId] = to */\n      dup1\n      sload\n      not(sub(shl(0xa0, 0x01), 0x01))\n      and\n      sub(shl(0xa0, 0x01), 0x01)\n      dup8\n      dup2\n      and\n      swap2\n      dup3\n      or\n      swap1\n      swap3\n      sstore\n        /* \"https://github.com/exo-digital-labs/ERC721R/blob/main/contracts/ERC721A.sol\":19118:19146  Approval(owner, to, tokenId) */\n      swap2\n      mload\n        /* \"https://github.com/exo-digital-labs/ERC721R/blob/main/contracts/ERC721A.sol\":19074:19098  _tokenApprovals[tokenId] */\n      dup6\n      swap4\n        /* \"https://github.com/exo-digital-labs/ERC721R/blob/main/contracts/ERC721A.sol\":19118:19146  Approval(owner, to, tokenId) */\n      swap2\n      dup6\n      and\n      swap2\n      0x8c5be1e5ebec7d5bd14f71427d1e84f3dd0314c0f7b2291e5b200ac8c7c3b925\n      swap2\n      log4\n        /* \"https://github.com/exo-digital-labs/ERC721R/blob/main/contracts/ERC721A.sol\":18963:19153  function _approve(... */\n      pop\n      pop\n      pop\n      jump\t// out\n        /* \"https://github.com/exo-digital-labs/ERC721R/blob/main/contracts/ERC721A.sol\":14032:16115  function _transfer(... */\n    tag_212:\n        /* \"https://github.com/exo-digital-labs/ERC721R/blob/main/contracts/ERC721A.sol\":14143:14178  TokenOwnership memory prevOwnership */\n      0x00\n        /* \"https://github.com/exo-digital-labs/ERC721R/blob/main/contracts/ERC721A.sol\":14181:14202  _ownershipOf(tokenId) */\n      tag_325\n        /* \"https://github.com/exo-digital-labs/ERC721R/blob/main/contracts/ERC721A.sol\":14194:14201  tokenId */\n      dup3\n        /* \"https://github.com/exo-digital-labs/ERC721R/blob/main/contracts/ERC721A.sol\":14181:14193  _ownershipOf */\n      tag_266\n        /* \"https://github.com/exo-digital-labs/ERC721R/blob/main/contracts/ERC721A.sol\":14181:14202  _ownershipOf(tokenId) */\n      jump\t// in\n    tag_325:\n        /* \"https://github.com/exo-digital-labs/ERC721R/blob/main/contracts/ERC721A.sol\":14143:14202  TokenOwnership memory prevOwnership = _ownershipOf(tokenId) */\n      swap1\n      pop\n        /* \"https://github.com/exo-digital-labs/ERC721R/blob/main/contracts/ERC721A.sol\":14239:14243  from */\n      dup4\n      sub(shl(0xa0, 0x01), 0x01)\n        /* \"https://github.com/exo-digital-labs/ERC721R/blob/main/contracts/ERC721A.sol\":14217:14243  prevOwnership.addr != from */\n      and\n        /* \"https://github.com/exo-digital-labs/ERC721R/blob/main/contracts/ERC721A.sol\":14217:14230  prevOwnership */\n      dup2\n        /* \"https://github.com/exo-digital-labs/ERC721R/blob/main/contracts/ERC721A.sol\":14217:14235  prevOwnership.addr */\n      0x00\n      add\n      mload\n      sub(shl(0xa0, 0x01), 0x01)\n        /* \"https://github.com/exo-digital-labs/ERC721R/blob/main/contracts/ERC721A.sol\":14217:14243  prevOwnership.addr != from */\n      and\n      eq\n        /* \"https://github.com/exo-digital-labs/ERC721R/blob/main/contracts/ERC721A.sol\":14213:14280  if (prevOwnership.addr != from) revert TransferFromIncorrectOwner() */\n      tag_326\n      jumpi\n        /* \"https://github.com/exo-digital-labs/ERC721R/blob/main/contracts/ERC721A.sol\":14252:14280  TransferFromIncorrectOwner() */\n      mload(0x40)\n      shl(0xe8, 0xa11481)\n      dup2\n      mstore\n      0x04\n      add\n      mload(0x40)\n      dup1\n      swap2\n      sub\n      swap1\n      revert\n        /* \"https://github.com/exo-digital-labs/ERC721R/blob/main/contracts/ERC721A.sol\":14213:14280  if (prevOwnership.addr != from) revert TransferFromIncorrectOwner() */\n    tag_326:\n        /* \"https://github.com/exo-digital-labs/ERC721R/blob/main/contracts/ERC721A.sol\":14291:14313  bool isApprovedOrOwner */\n      0x00\n        /* \"@openzeppelin/contracts/utils/Context.sol\":719:729  msg.sender */\n      caller\n      sub(shl(0xa0, 0x01), 0x01)\n        /* \"https://github.com/exo-digital-labs/ERC721R/blob/main/contracts/ERC721A.sol\":14317:14337  _msgSender() == from */\n      dup7\n      and\n      eq\n      dup1\n        /* \"https://github.com/exo-digital-labs/ERC721R/blob/main/contracts/ERC721A.sol\":14317:14389  _msgSender() == from ||... */\n      tag_329\n      jumpi\n      pop\n        /* \"https://github.com/exo-digital-labs/ERC721R/blob/main/contracts/ERC721A.sol\":14353:14389  isApprovedForAll(from, _msgSender()) */\n      tag_329\n        /* \"https://github.com/exo-digital-labs/ERC721R/blob/main/contracts/ERC721A.sol\":14370:14374  from */\n      dup6\n        /* \"@openzeppelin/contracts/utils/Context.sol\":719:729  msg.sender */\n      caller\n        /* \"https://github.com/exo-digital-labs/ERC721R/blob/main/contracts/ERC721A.sol\":9706:9868  function isApprovedForAll(address owner, address operator) public view virtual override returns (bool) {... */\n      tag_172\n      jump\t// in\n        /* \"https://github.com/exo-digital-labs/ERC721R/blob/main/contracts/ERC721A.sol\":14353:14389  isApprovedForAll(from, _msgSender()) */\n    tag_329:\n        /* \"https://github.com/exo-digital-labs/ERC721R/blob/main/contracts/ERC721A.sol\":14317:14441  _msgSender() == from ||... */\n      dup1\n      tag_331\n      jumpi\n      pop\n        /* \"@openzeppelin/contracts/utils/Context.sol\":719:729  msg.sender */\n      caller\n        /* \"https://github.com/exo-digital-labs/ERC721R/blob/main/contracts/ERC721A.sol\":14405:14425  getApproved(tokenId) */\n      tag_333\n        /* \"https://github.com/exo-digital-labs/ERC721R/blob/main/contracts/ERC721A.sol\":14417:14424  tokenId */\n      dup5\n        /* \"https://github.com/exo-digital-labs/ERC721R/blob/main/contracts/ERC721A.sol\":14405:14416  getApproved */\n      tag_61\n        /* \"https://github.com/exo-digital-labs/ERC721R/blob/main/contracts/ERC721A.sol\":14405:14425  getApproved(tokenId) */\n      jump\t// in\n    tag_333:\n      sub(shl(0xa0, 0x01), 0x01)\n        /* \"https://github.com/exo-digital-labs/ERC721R/blob/main/contracts/ERC721A.sol\":14405:14441  getApproved(tokenId) == _msgSender() */\n      and\n      eq\n        /* \"https://github.com/exo-digital-labs/ERC721R/blob/main/contracts/ERC721A.sol\":14317:14441  _msgSender() == from ||... */\n    tag_331:\n        /* \"https://github.com/exo-digital-labs/ERC721R/blob/main/contracts/ERC721A.sol\":14291:14442  bool isApprovedOrOwner = (_msgSender() == from ||... */\n      swap1\n      pop\n        /* \"https://github.com/exo-digital-labs/ERC721R/blob/main/contracts/ERC721A.sol\":14458:14475  isApprovedOrOwner */\n      dup1\n        /* \"https://github.com/exo-digital-labs/ERC721R/blob/main/contracts/ERC721A.sol\":14453:14519  if (!isApprovedOrOwner) revert TransferCallerNotOwnerNorApproved() */\n      tag_334\n      jumpi\n        /* \"https://github.com/exo-digital-labs/ERC721R/blob/main/contracts/ERC721A.sol\":14484:14519  TransferCallerNotOwnerNorApproved() */\n      mload(0x40)\n      shl(0xe1, 0x2ce44b5f)\n      dup2\n      mstore\n      0x04\n      add\n      mload(0x40)\n      dup1\n      swap2\n      sub\n      swap1\n      revert\n        /* \"https://github.com/exo-digital-labs/ERC721R/blob/main/contracts/ERC721A.sol\":14453:14519  if (!isApprovedOrOwner) revert TransferCallerNotOwnerNorApproved() */\n    tag_334:\n      sub(shl(0xa0, 0x01), 0x01)\n        /* \"https://github.com/exo-digital-labs/ERC721R/blob/main/contracts/ERC721A.sol\":14533:14549  to == address(0) */\n      dup5\n      and\n        /* \"https://github.com/exo-digital-labs/ERC721R/blob/main/contracts/ERC721A.sol\":14529:14581  if (to == address(0)) revert TransferToZeroAddress() */\n      tag_335\n      jumpi\n        /* \"https://github.com/exo-digital-labs/ERC721R/blob/main/contracts/ERC721A.sol\":14558:14581  TransferToZeroAddress() */\n      mload(0x40)\n      shl(0xe2, 0x3a954ecd)\n      dup2\n      mstore\n      0x04\n      add\n      mload(0x40)\n      dup1\n      swap2\n      sub\n      swap1\n      revert\n        /* \"https://github.com/exo-digital-labs/ERC721R/blob/main/contracts/ERC721A.sol\":14529:14581  if (to == address(0)) revert TransferToZeroAddress() */\n    tag_335:\n        /* \"https://github.com/exo-digital-labs/ERC721R/blob/main/contracts/ERC721A.sol\":14697:14732  _approve(address(0), tokenId, from) */\n      tag_338\n        /* \"https://github.com/exo-digital-labs/ERC721R/blob/main/contracts/ERC721A.sol\":14714:14715  0 */\n      0x00\n        /* \"https://github.com/exo-digital-labs/ERC721R/blob/main/contracts/ERC721A.sol\":14718:14725  tokenId */\n      dup5\n        /* \"https://github.com/exo-digital-labs/ERC721R/blob/main/contracts/ERC721A.sol\":14727:14731  from */\n      dup8\n        /* \"https://github.com/exo-digital-labs/ERC721R/blob/main/contracts/ERC721A.sol\":14697:14705  _approve */\n      tag_206\n        /* \"https://github.com/exo-digital-labs/ERC721R/blob/main/contracts/ERC721A.sol\":14697:14732  _approve(address(0), tokenId, from) */\n      jump\t// in\n    tag_338:\n      sub(shl(0xa0, 0x01), 0x01)\n        /* \"https://github.com/exo-digital-labs/ERC721R/blob/main/contracts/ERC721A.sol\":15022:15040  _addressData[from] */\n      dup6\n      dup2\n      and\n      0x00\n      swap1\n      dup2\n      mstore\n        /* \"https://github.com/exo-digital-labs/ERC721R/blob/main/contracts/ERC721A.sol\":15022:15034  _addressData */\n      0x05\n        /* \"https://github.com/exo-digital-labs/ERC721R/blob/main/contracts/ERC721A.sol\":15022:15040  _addressData[from] */\n      0x20\n      swap1\n      dup2\n      mstore\n      0x40\n      dup1\n      dup4\n      keccak256\n        /* \"https://github.com/exo-digital-labs/ERC721R/blob/main/contracts/ERC721A.sol\":15022:15053  _addressData[from].balance -= 1 */\n      dup1\n      sload\n      not(0xffffffffffffffff)\n      dup1\n      dup3\n      and\n      0xffffffffffffffff\n      swap3\n      dup4\n      and\n      not(0x00)\n      add\n      dup4\n      and\n      or\n      swap1\n      swap3\n      sstore\n        /* \"https://github.com/exo-digital-labs/ERC721R/blob/main/contracts/ERC721A.sol\":15067:15083  _addressData[to] */\n      dup10\n      dup7\n      and\n      dup1\n      dup7\n      mstore\n      dup4\n      dup7\n      keccak256\n        /* \"https://github.com/exo-digital-labs/ERC721R/blob/main/contracts/ERC721A.sol\":15067:15096  _addressData[to].balance += 1 */\n      dup1\n      sload\n      swap4\n      dup5\n      and\n      swap4\n      dup4\n      and\n      0x01\n      swap1\n      dup2\n      add\n      dup5\n      and\n      swap5\n      swap1\n      swap5\n      or\n      swap1\n      sstore\n        /* \"https://github.com/exo-digital-labs/ERC721R/blob/main/contracts/ERC721A.sol\":15145:15165  _ownerships[tokenId] */\n      dup10\n      dup7\n      mstore\n        /* \"https://github.com/exo-digital-labs/ERC721R/blob/main/contracts/ERC721A.sol\":15145:15156  _ownerships */\n      0x04\n        /* \"https://github.com/exo-digital-labs/ERC721R/blob/main/contracts/ERC721A.sol\":15145:15165  _ownerships[tokenId] */\n      swap1\n      swap5\n      mstore\n      dup3\n      dup6\n      keccak256\n        /* \"https://github.com/exo-digital-labs/ERC721R/blob/main/contracts/ERC721A.sol\":15179:15197  currSlot.addr = to */\n      dup1\n      sload\n      not(sub(shl(0xe0, 0x01), 0x01))\n        /* \"https://github.com/exo-digital-labs/ERC721R/blob/main/contracts/ERC721A.sol\":15211:15260  currSlot.startTimestamp = uint64(block.timestamp) */\n      and\n      swap1\n      swap5\n      or\n      shl(0xa0, 0x01)\n        /* \"https://github.com/exo-digital-labs/ERC721R/blob/main/contracts/ERC721A.sol\":15244:15259  block.timestamp */\n      timestamp\n        /* \"https://github.com/exo-digital-labs/ERC721R/blob/main/contracts/ERC721A.sol\":15211:15260  currSlot.startTimestamp = uint64(block.timestamp) */\n      swap1\n      swap3\n      and\n      swap2\n      swap1\n      swap2\n      mul\n      or\n      dup4\n      sstore\n        /* \"https://github.com/exo-digital-labs/ERC721R/blob/main/contracts/ERC721A.sol\":15530:15541  tokenId + 1 */\n      dup8\n      add\n        /* \"https://github.com/exo-digital-labs/ERC721R/blob/main/contracts/ERC721A.sol\":15589:15613  _ownerships[nextTokenId] */\n      dup1\n      dup5\n      mstore\n      swap3\n      keccak256\n        /* \"https://github.com/exo-digital-labs/ERC721R/blob/main/contracts/ERC721A.sol\":15631:15644  nextSlot.addr */\n      dup1\n      sload\n        /* \"https://github.com/exo-digital-labs/ERC721R/blob/main/contracts/ERC721A.sol\":15145:15165  _ownerships[tokenId] */\n      swap2\n      swap4\n        /* \"https://github.com/exo-digital-labs/ERC721R/blob/main/contracts/ERC721A.sol\":15589:15613  _ownerships[nextTokenId] */\n      swap1\n      swap2\n        /* \"https://github.com/exo-digital-labs/ERC721R/blob/main/contracts/ERC721A.sol\":15631:15644  nextSlot.addr */\n      and\n        /* \"https://github.com/exo-digital-labs/ERC721R/blob/main/contracts/ERC721A.sol\":15627:16004  if (nextSlot.addr == address(0)) {... */\n      tag_340\n      jumpi\n        /* \"https://github.com/exo-digital-labs/ERC721R/blob/main/contracts/ERC721A.sol\":15838:15851  _currentIndex */\n      sload(0x00)\n        /* \"https://github.com/exo-digital-labs/ERC721R/blob/main/contracts/ERC721A.sol\":15823:15834  nextTokenId */\n      dup3\n        /* \"https://github.com/exo-digital-labs/ERC721R/blob/main/contracts/ERC721A.sol\":15823:15851  nextTokenId != _currentIndex */\n      eq\n        /* \"https://github.com/exo-digital-labs/ERC721R/blob/main/contracts/ERC721A.sol\":15819:15990  if (nextTokenId != _currentIndex) {... */\n      tag_340\n      jumpi\n        /* \"https://github.com/exo-digital-labs/ERC721R/blob/main/contracts/ERC721A.sol\":15875:15895  nextSlot.addr = from */\n      dup1\n      sload\n        /* \"https://github.com/exo-digital-labs/ERC721R/blob/main/contracts/ERC721A.sol\":15943:15971  prevOwnership.startTimestamp */\n      0x20\n      dup7\n      add\n      mload\n        /* \"https://github.com/exo-digital-labs/ERC721R/blob/main/contracts/ERC721A.sol\":15917:15971  nextSlot.startTimestamp = prevOwnership.startTimestamp */\n      0xffffffffffffffff\n      and\n      shl(0xa0, 0x01)\n      mul\n      not(sub(shl(0xe0, 0x01), 0x01))\n      swap1\n      swap2\n      and\n      sub(shl(0xa0, 0x01), 0x01)\n        /* \"https://github.com/exo-digital-labs/ERC721R/blob/main/contracts/ERC721A.sol\":15875:15895  nextSlot.addr = from */\n      dup11\n      and\n        /* \"https://github.com/exo-digital-labs/ERC721R/blob/main/contracts/ERC721A.sol\":15917:15971  nextSlot.startTimestamp = prevOwnership.startTimestamp */\n      or\n      or\n      dup2\n      sstore\n        /* \"https://github.com/exo-digital-labs/ERC721R/blob/main/contracts/ERC721A.sol\":15819:15990  if (nextTokenId != _currentIndex) {... */\n    tag_340:\n        /* \"https://github.com/exo-digital-labs/ERC721R/blob/main/contracts/ERC721A.sol\":14998:16014  unchecked {... */\n      pop\n      pop\n      pop\n        /* \"https://github.com/exo-digital-labs/ERC721R/blob/main/contracts/ERC721A.sol\":16048:16055  tokenId */\n      dup3\n        /* \"https://github.com/exo-digital-labs/ERC721R/blob/main/contracts/ERC721A.sol\":16044:16046  to */\n      dup5\n      sub(shl(0xa0, 0x01), 0x01)\n        /* \"https://github.com/exo-digital-labs/ERC721R/blob/main/contracts/ERC721A.sol\":16029:16056  Transfer(from, to, tokenId) */\n      and\n        /* \"https://github.com/exo-digital-labs/ERC721R/blob/main/contracts/ERC721A.sol\":16038:16042  from */\n      dup7\n      sub(shl(0xa0, 0x01), 0x01)\n        /* \"https://github.com/exo-digital-labs/ERC721R/blob/main/contracts/ERC721A.sol\":16029:16056  Transfer(from, to, tokenId) */\n      and\n      0xddf252ad1be2c89b69c2b068fc378daa952ba7f163c4a11628f55a4df523b3ef\n      mload(0x40)\n      mload(0x40)\n      dup1\n      swap2\n      sub\n      swap1\n      log4\n        /* \"https://github.com/exo-digital-labs/ERC721R/blob/main/contracts/ERC721A.sol\":16066:16108  _afterTokenTransfers(from, to, tokenId, 1) */\n    tag_341:\n        /* \"https://github.com/exo-digital-labs/ERC721R/blob/main/contracts/ERC721A.sol\":14133:16115  {... */\n      pop\n      pop\n        /* \"https://github.com/exo-digital-labs/ERC721R/blob/main/contracts/ERC721A.sol\":14032:16115  function _transfer(... */\n      pop\n      pop\n      pop\n      jump\t// out\n        /* \"@openzeppelin/contracts/utils/Address.sol\":2647:2959  function sendValue(address payable recipient, uint256 amount) internal {... */\n    tag_225:\n        /* \"@openzeppelin/contracts/utils/Address.sol\":2761:2767  amount */\n      dup1\n        /* \"@openzeppelin/contracts/utils/Address.sol\":2736:2757  address(this).balance */\n      selfbalance\n        /* \"@openzeppelin/contracts/utils/Address.sol\":2736:2767  address(this).balance >= amount */\n      lt\n      iszero\n        /* \"@openzeppelin/contracts/utils/Address.sol\":2728:2801  require(address(this).balance >= amount, \"Address: insufficient balance\") */\n      tag_344\n      jumpi\n      mload(0x40)\n      shl(0xe5, 0x461bcd)\n      dup2\n      mstore\n        /* \"#utility.yul\":9069:9071   */\n      0x20\n        /* \"@openzeppelin/contracts/utils/Address.sol\":2728:2801  require(address(this).balance >= amount, \"Address: insufficient balance\") */\n      0x04\n      dup3\n      add\n        /* \"#utility.yul\":9051:9072   */\n      mstore\n        /* \"#utility.yul\":9108:9110   */\n      0x1d\n        /* \"#utility.yul\":9088:9106   */\n      0x24\n      dup3\n      add\n        /* \"#utility.yul\":9081:9111   */\n      mstore\n        /* \"#utility.yul\":9147:9178   */\n      0x416464726573733a20696e73756666696369656e742062616c616e6365000000\n        /* \"#utility.yul\":9127:9145   */\n      0x44\n      dup3\n      add\n        /* \"#utility.yul\":9120:9179   */\n      mstore\n        /* \"#utility.yul\":9196:9214   */\n      0x64\n      add\n        /* \"@openzeppelin/contracts/utils/Address.sol\":2728:2801  require(address(this).balance >= amount, \"Address: insufficient balance\") */\n      tag_216\n        /* \"#utility.yul\":8867:9220   */\n      jump\n        /* \"@openzeppelin/contracts/utils/Address.sol\":2728:2801  require(address(this).balance >= amount, \"Address: insufficient balance\") */\n    tag_344:\n        /* \"@openzeppelin/contracts/utils/Address.sol\":2813:2825  bool success */\n      0x00\n        /* \"@openzeppelin/contracts/utils/Address.sol\":2831:2840  recipient */\n      dup3\n      sub(shl(0xa0, 0x01), 0x01)\n        /* \"@openzeppelin/contracts/utils/Address.sol\":2831:2845  recipient.call */\n      and\n        /* \"@openzeppelin/contracts/utils/Address.sol\":2853:2859  amount */\n      dup3\n        /* \"@openzeppelin/contracts/utils/Address.sol\":2831:2864  recipient.call{value: amount}(\"\") */\n      mload(0x40)\n      0x00\n      mload(0x40)\n      dup1\n      dup4\n      sub\n      dup2\n      dup6\n      dup8\n      gas\n      call\n      swap3\n      pop\n      pop\n      pop\n      returndatasize\n      dup1\n      0x00\n      dup2\n      eq\n      tag_351\n      jumpi\n      mload(0x40)\n      swap2\n      pop\n      and(add(returndatasize, 0x3f), not(0x1f))\n      dup3\n      add\n      0x40\n      mstore\n      returndatasize\n      dup3\n      mstore\n      returndatasize\n      0x00\n      0x20\n      dup5\n      add\n      returndatacopy\n      jump(tag_350)\n    tag_351:\n      0x60\n      swap2\n      pop\n    tag_350:\n      pop\n        /* \"@openzeppelin/contracts/utils/Address.sol\":2812:2864  (bool success, ) = recipient.call{value: amount}(\"\") */\n      pop\n      swap1\n      pop\n        /* \"@openzeppelin/contracts/utils/Address.sol\":2882:2889  success */\n      dup1\n        /* \"@openzeppelin/contracts/utils/Address.sol\":2874:2952  require(success, \"Address: unable to send value, recipient may have reverted\") */\n      tag_205\n      jumpi\n      mload(0x40)\n      shl(0xe5, 0x461bcd)\n      dup2\n      mstore\n        /* \"#utility.yul\":9637:9639   */\n      0x20\n        /* \"@openzeppelin/contracts/utils/Address.sol\":2874:2952  require(success, \"Address: unable to send value, recipient may have reverted\") */\n      0x04\n      dup3\n      add\n        /* \"#utility.yul\":9619:9640   */\n      mstore\n        /* \"#utility.yul\":9676:9678   */\n      0x3a\n        /* \"#utility.yul\":9656:9674   */\n      0x24\n      dup3\n      add\n        /* \"#utility.yul\":9649:9679   */\n      mstore\n        /* \"#utility.yul\":9715:9749   */\n      0x416464726573733a20756e61626c6520746f2073656e642076616c75652c2072\n        /* \"#utility.yul\":9695:9713   */\n      0x44\n      dup3\n      add\n        /* \"#utility.yul\":9688:9750   */\n      mstore\n        /* \"#utility.yul\":9786:9814   */\n      0x6563697069656e74206d61792068617665207265766572746564000000000000\n        /* \"#utility.yul\":9766:9784   */\n      0x64\n      dup3\n      add\n        /* \"#utility.yul\":9759:9815   */\n      mstore\n        /* \"#utility.yul\":9832:9851   */\n      0x84\n      add\n        /* \"@openzeppelin/contracts/utils/Address.sol\":2874:2952  require(success, \"Address: unable to send value, recipient may have reverted\") */\n      tag_216\n        /* \"#utility.yul\":9435:9857   */\n      jump\n        /* \"https://github.com/exo-digital-labs/ERC721R/blob/main/contracts/ERC721A.sol\":11200:11302  function _safeMint(address to, uint256 quantity) internal {... */\n    tag_245:\n        /* \"https://github.com/exo-digital-labs/ERC721R/blob/main/contracts/ERC721A.sol\":11268:11295  _safeMint(to, quantity, '') */\n      tag_224\n        /* \"https://github.com/exo-digital-labs/ERC721R/blob/main/contracts/ERC721A.sol\":11278:11280  to */\n      dup3\n        /* \"https://github.com/exo-digital-labs/ERC721R/blob/main/contracts/ERC721A.sol\":11282:11290  quantity */\n      dup3\n        /* \"https://github.com/exo-digital-labs/ERC721R/blob/main/contracts/ERC721A.sol\":11268:11295  _safeMint(to, quantity, '') */\n      mload(0x40)\n      dup1\n      0x20\n      add\n      0x40\n      mstore\n      dup1\n      0x00\n      dup2\n      mstore\n      pop\n        /* \"https://github.com/exo-digital-labs/ERC721R/blob/main/contracts/ERC721A.sol\":11268:11277  _safeMint */\n      tag_360\n        /* \"https://github.com/exo-digital-labs/ERC721R/blob/main/contracts/ERC721A.sol\":11268:11295  _safeMint(to, quantity, '') */\n      jump\t// in\n        /* \"@openzeppelin/contracts/access/Ownable.sol\":1359:1489  function _checkOwner() internal view virtual {... */\n    tag_256:\n        /* \"@openzeppelin/contracts/access/Ownable.sol\":1273:1279  _owner */\n      and(sub(shl(0xa0, 0x01), 0x01), sload(0x08))\n        /* \"@openzeppelin/contracts/utils/Context.sol\":719:729  msg.sender */\n      caller\n        /* \"@openzeppelin/contracts/access/Ownable.sol\":1422:1445  owner() == _msgSender() */\n      eq\n        /* \"@openzeppelin/contracts/access/Ownable.sol\":1414:1482  require(owner() == _msgSender(), \"Ownable: caller is not the owner\") */\n      tag_272\n      jumpi\n      mload(0x40)\n      shl(0xe5, 0x461bcd)\n      dup2\n      mstore\n        /* \"#utility.yul\":10064:10066   */\n      0x20\n        /* \"@openzeppelin/contracts/access/Ownable.sol\":1414:1482  require(owner() == _msgSender(), \"Ownable: caller is not the owner\") */\n      0x04\n      dup3\n      add\n        /* \"#utility.yul\":10046:10067   */\n      dup2\n      swap1\n      mstore\n        /* \"#utility.yul\":10083:10101   */\n      0x24\n      dup3\n      add\n        /* \"#utility.yul\":10076:10106   */\n      mstore\n        /* \"#utility.yul\":10142:10176   */\n      0x4f776e61626c653a2063616c6c6572206973206e6f7420746865206f776e6572\n        /* \"#utility.yul\":10122:10140   */\n      0x44\n      dup3\n      add\n        /* \"#utility.yul\":10115:10177   */\n      mstore\n        /* \"#utility.yul\":10194:10212   */\n      0x64\n      add\n        /* \"@openzeppelin/contracts/access/Ownable.sol\":1414:1482  require(owner() == _msgSender(), \"Ownable: caller is not the owner\") */\n      tag_216\n        /* \"#utility.yul\":9862:10218   */\n      jump\n        /* \"https://github.com/exo-digital-labs/ERC721R/blob/main/contracts/ERC721A.sol\":6309:7393  function _ownershipOf(uint256 tokenId) internal view returns (TokenOwnership memory) {... */\n    tag_266:\n      0x40\n      dup1\n      mload\n      0x60\n      dup2\n      add\n      dup3\n      mstore\n      0x00\n      dup1\n      dup3\n      mstore\n      0x20\n      dup3\n      add\n      dup2\n      swap1\n      mstore\n      swap2\n      dup2\n      add\n      swap2\n      swap1\n      swap2\n      mstore\n        /* \"https://github.com/exo-digital-labs/ERC721R/blob/main/contracts/ERC721A.sol\":6419:6426  tokenId */\n      dup2\n        /* \"https://github.com/exo-digital-labs/ERC721R/blob/main/contracts/ERC721A.sol\":6499:6512  _currentIndex */\n      sload(0x00)\n        /* \"https://github.com/exo-digital-labs/ERC721R/blob/main/contracts/ERC721A.sol\":6492:6496  curr */\n      dup2\n        /* \"https://github.com/exo-digital-labs/ERC721R/blob/main/contracts/ERC721A.sol\":6492:6512  curr < _currentIndex */\n      lt\n        /* \"https://github.com/exo-digital-labs/ERC721R/blob/main/contracts/ERC721A.sol\":6461:7329  if (_startTokenId() <= curr && curr < _currentIndex) {... */\n      iszero\n      tag_372\n      jumpi\n        /* \"https://github.com/exo-digital-labs/ERC721R/blob/main/contracts/ERC721A.sol\":6532:6563  TokenOwnership memory ownership */\n      0x00\n        /* \"https://github.com/exo-digital-labs/ERC721R/blob/main/contracts/ERC721A.sol\":6566:6583  _ownerships[curr] */\n      dup2\n      dup2\n      mstore\n        /* \"https://github.com/exo-digital-labs/ERC721R/blob/main/contracts/ERC721A.sol\":6566:6577  _ownerships */\n      0x04\n        /* \"https://github.com/exo-digital-labs/ERC721R/blob/main/contracts/ERC721A.sol\":6566:6583  _ownerships[curr] */\n      0x20\n      swap1\n      dup2\n      mstore\n      0x40\n      swap2\n      dup3\n      swap1\n      keccak256\n        /* \"https://github.com/exo-digital-labs/ERC721R/blob/main/contracts/ERC721A.sol\":6532:6583  TokenOwnership memory ownership = _ownerships[curr] */\n      dup3\n      mload\n      0x60\n      dup2\n      add\n      dup5\n      mstore\n      swap1\n      sload\n      sub(shl(0xa0, 0x01), 0x01)\n      dup2\n      and\n      dup3\n      mstore\n      shl(0xa0, 0x01)\n      dup2\n      div\n      0xffffffffffffffff\n      and\n      swap3\n      dup3\n      add\n      swap3\n      swap1\n      swap3\n      mstore\n      shl(0xe0, 0x01)\n      swap1\n      swap2\n      div\n      0xff\n      and\n      iszero\n      iszero\n      swap2\n      dup2\n      add\n      dup3\n      swap1\n      mstore\n      swap1\n        /* \"https://github.com/exo-digital-labs/ERC721R/blob/main/contracts/ERC721A.sol\":6601:7315  if (!ownership.burned) {... */\n      tag_376\n      jumpi\n        /* \"https://github.com/exo-digital-labs/ERC721R/blob/main/contracts/ERC721A.sol\":6650:6664  ownership.addr */\n      dup1\n      mload\n      sub(shl(0xa0, 0x01), 0x01)\n        /* \"https://github.com/exo-digital-labs/ERC721R/blob/main/contracts/ERC721A.sol\":6650:6678  ownership.addr != address(0) */\n      and\n      iszero\n        /* \"https://github.com/exo-digital-labs/ERC721R/blob/main/contracts/ERC721A.sol\":6646:6745  if (ownership.addr != address(0)) {... */\n      tag_374\n      jumpi\n        /* \"https://github.com/exo-digital-labs/ERC721R/blob/main/contracts/ERC721A.sol\":6713:6722  ownership */\n      swap4\n        /* \"https://github.com/exo-digital-labs/ERC721R/blob/main/contracts/ERC721A.sol\":6309:7393  function _ownershipOf(uint256 tokenId) internal view returns (TokenOwnership memory) {... */\n      swap3\n      pop\n      pop\n      pop\n      jump\t// out\n        /* \"https://github.com/exo-digital-labs/ERC721R/blob/main/contracts/ERC721A.sol\":6646:6745  if (ownership.addr != address(0)) {... */\n    tag_374:\n      pop\n      not(0x00)\n        /* \"https://github.com/exo-digital-labs/ERC721R/blob/main/contracts/ERC721A.sol\":7081:7087  curr-- */\n      add\n        /* \"https://github.com/exo-digital-labs/ERC721R/blob/main/contracts/ERC721A.sol\":7125:7142  _ownerships[curr] */\n      0x00\n      dup2\n      dup2\n      mstore\n        /* \"https://github.com/exo-digital-labs/ERC721R/blob/main/contracts/ERC721A.sol\":7125:7136  _ownerships */\n      0x04\n        /* \"https://github.com/exo-digital-labs/ERC721R/blob/main/contracts/ERC721A.sol\":7125:7142  _ownerships[curr] */\n      0x20\n      swap1\n      dup2\n      mstore\n      0x40\n      swap2\n      dup3\n      swap1\n      keccak256\n        /* \"https://github.com/exo-digital-labs/ERC721R/blob/main/contracts/ERC721A.sol\":7113:7142  ownership = _ownerships[curr] */\n      dup3\n      mload\n      0x60\n      dup2\n      add\n      dup5\n      mstore\n      swap1\n      sload\n      sub(shl(0xa0, 0x01), 0x01)\n      dup2\n      and\n      dup1\n      dup4\n      mstore\n      shl(0xa0, 0x01)\n      dup3\n      div\n      0xffffffffffffffff\n      and\n      swap4\n      dup4\n      add\n      swap4\n      swap1\n      swap4\n      mstore\n      shl(0xe0, 0x01)\n      swap1\n      div\n      0xff\n      and\n      iszero\n      iszero\n      swap3\n      dup2\n      add\n      swap3\n      swap1\n      swap3\n      mstore\n        /* \"https://github.com/exo-digital-labs/ERC721R/blob/main/contracts/ERC721A.sol\":7172:7200  ownership.addr != address(0) */\n      iszero\n        /* \"https://github.com/exo-digital-labs/ERC721R/blob/main/contracts/ERC721A.sol\":7168:7275  if (ownership.addr != address(0)) {... */\n      tag_377\n      jumpi\n        /* \"https://github.com/exo-digital-labs/ERC721R/blob/main/contracts/ERC721A.sol\":7239:7248  ownership */\n      swap4\n        /* \"https://github.com/exo-digital-labs/ERC721R/blob/main/contracts/ERC721A.sol\":6309:7393  function _ownershipOf(uint256 tokenId) internal view returns (TokenOwnership memory) {... */\n      swap3\n      pop\n      pop\n      pop\n      jump\t// out\n        /* \"https://github.com/exo-digital-labs/ERC721R/blob/main/contracts/ERC721A.sol\":7168:7275  if (ownership.addr != address(0)) {... */\n    tag_377:\n        /* \"https://github.com/exo-digital-labs/ERC721R/blob/main/contracts/ERC721A.sol\":7042:7297  while (true) {... */\n      jump(tag_374)\n    tag_376:\n        /* \"https://github.com/exo-digital-labs/ERC721R/blob/main/contracts/ERC721A.sol\":6514:7329  {... */\n      pop\n        /* \"https://github.com/exo-digital-labs/ERC721R/blob/main/contracts/ERC721A.sol\":6461:7329  if (_startTokenId() <= curr && curr < _currentIndex) {... */\n    tag_372:\n        /* \"https://github.com/exo-digital-labs/ERC721R/blob/main/contracts/ERC721A.sol\":7355:7386  OwnerQueryForNonexistentToken() */\n      mload(0x40)\n      shl(0xe1, 0x6f96cda1)\n      dup2\n      mstore\n      0x04\n      add\n      mload(0x40)\n      dup1\n      swap2\n      sub\n      swap1\n      revert\n        /* \"@openzeppelin/contracts/access/Ownable.sol\":2426:2613  function _transferOwnership(address newOwner) internal virtual {... */\n    tag_273:\n        /* \"@openzeppelin/contracts/access/Ownable.sol\":2518:2524  _owner */\n      0x08\n      dup1\n      sload\n      sub(shl(0xa0, 0x01), 0x01)\n        /* \"@openzeppelin/contracts/access/Ownable.sol\":2534:2551  _owner = newOwner */\n      dup4\n      dup2\n      and\n      not(sub(shl(0xa0, 0x01), 0x01))\n      dup4\n      and\n      dup2\n      or\n      swap1\n      swap4\n      sstore\n        /* \"@openzeppelin/contracts/access/Ownable.sol\":2566:2606  OwnershipTransferred(oldOwner, newOwner) */\n      mload(0x40)\n        /* \"@openzeppelin/contracts/access/Ownable.sol\":2518:2524  _owner */\n      swap2\n      and\n      swap2\n        /* \"@openzeppelin/contracts/access/Ownable.sol\":2534:2551  _owner = newOwner */\n      swap1\n        /* \"@openzeppelin/contracts/access/Ownable.sol\":2518:2524  _owner */\n      dup3\n      swap1\n        /* \"@openzeppelin/contracts/access/Ownable.sol\":2566:2606  OwnershipTransferred(oldOwner, newOwner) */\n      0x8be0079c531659141344cd1fd0a4f28419497f9722a3daafe3b4186f6b6457e0\n      swap1\n        /* \"@openzeppelin/contracts/access/Ownable.sol\":2499:2515  address oldOwner */\n      0x00\n      swap1\n        /* \"@openzeppelin/contracts/access/Ownable.sol\":2566:2606  OwnershipTransferred(oldOwner, newOwner) */\n      log3\n        /* \"@openzeppelin/contracts/access/Ownable.sol\":2489:2613  {... */\n      pop\n        /* \"@openzeppelin/contracts/access/Ownable.sol\":2426:2613  function _transferOwnership(address newOwner) internal virtual {... */\n      pop\n      jump\t// out\n        /* \"https://github.com/exo-digital-labs/ERC721R/blob/main/contracts/ERC721A.sol\":19634:20285  function _checkContractOnERC721Received(... */\n    tag_293:\n        /* \"https://github.com/exo-digital-labs/ERC721R/blob/main/contracts/ERC721A.sol\":19813:19885  IERC721Receiver(to).onERC721Received(_msgSender(), from, tokenId, _data) */\n      mload(0x40)\n      shl(0xe1, 0x0a85bd01)\n      dup2\n      mstore\n        /* \"https://github.com/exo-digital-labs/ERC721R/blob/main/contracts/ERC721A.sol\":19793:19797  bool */\n      0x00\n      swap1\n      sub(shl(0xa0, 0x01), 0x01)\n        /* \"https://github.com/exo-digital-labs/ERC721R/blob/main/contracts/ERC721A.sol\":19813:19849  IERC721Receiver(to).onERC721Received */\n      dup6\n      and\n      swap1\n      0x150b7a02\n      swap1\n        /* \"https://github.com/exo-digital-labs/ERC721R/blob/main/contracts/ERC721A.sol\":19813:19885  IERC721Receiver(to).onERC721Received(_msgSender(), from, tokenId, _data) */\n      tag_382\n      swap1\n        /* \"@openzeppelin/contracts/utils/Context.sol\":719:729  msg.sender */\n      caller\n      swap1\n        /* \"https://github.com/exo-digital-labs/ERC721R/blob/main/contracts/ERC721A.sol\":19864:19868  from */\n      dup10\n      swap1\n        /* \"https://github.com/exo-digital-labs/ERC721R/blob/main/contracts/ERC721A.sol\":19870:19877  tokenId */\n      dup9\n      swap1\n        /* \"https://github.com/exo-digital-labs/ERC721R/blob/main/contracts/ERC721A.sol\":19879:19884  _data */\n      dup9\n      swap1\n        /* \"https://github.com/exo-digital-labs/ERC721R/blob/main/contracts/ERC721A.sol\":19813:19885  IERC721Receiver(to).onERC721Received(_msgSender(), from, tokenId, _data) */\n      0x04\n      add\n      tag_383\n      jump\t// in\n    tag_382:\n      0x20\n      mload(0x40)\n      dup1\n      dup4\n      sub\n      dup2\n      0x00\n      dup8\n      gas\n      call\n      swap3\n      pop\n      pop\n      pop\n      dup1\n      iszero\n      tag_384\n      jumpi\n      pop\n      0x40\n      dup1\n      mload\n      0x1f\n      returndatasize\n      swap1\n      dup2\n      add\n      not(0x1f)\n      and\n      dup3\n      add\n      swap1\n      swap3\n      mstore\n      tag_385\n      swap2\n      dup2\n      add\n      swap1\n      tag_386\n      jump\t// in\n    tag_385:\n      0x01\n    tag_384:\n        /* \"https://github.com/exo-digital-labs/ERC721R/blob/main/contracts/ERC721A.sol\":19809:20279  try IERC721Receiver(to).onERC721Received(_msgSender(), from, tokenId, _data) returns (bytes4 retval) {... */\n      tag_387\n      jumpi\n      returndatasize\n      dup1\n      dup1\n      iszero\n      tag_392\n      jumpi\n      mload(0x40)\n      swap2\n      pop\n      and(add(returndatasize, 0x3f), not(0x1f))\n      dup3\n      add\n      0x40\n      mstore\n      returndatasize\n      dup3\n      mstore\n      returndatasize\n      0x00\n      0x20\n      dup5\n      add\n      returndatacopy\n      jump(tag_391)\n    tag_392:\n      0x60\n      swap2\n      pop\n    tag_391:\n      pop\n        /* \"https://github.com/exo-digital-labs/ERC721R/blob/main/contracts/ERC721A.sol\":20044:20050  reason */\n      dup1\n        /* \"https://github.com/exo-digital-labs/ERC721R/blob/main/contracts/ERC721A.sol\":20044:20057  reason.length */\n      mload\n        /* \"https://github.com/exo-digital-labs/ERC721R/blob/main/contracts/ERC721A.sol\":20061:20062  0 */\n      0x00\n        /* \"https://github.com/exo-digital-labs/ERC721R/blob/main/contracts/ERC721A.sol\":20044:20062  reason.length == 0 */\n      sub\n        /* \"https://github.com/exo-digital-labs/ERC721R/blob/main/contracts/ERC721A.sol\":20040:20269  if (reason.length == 0) {... */\n      tag_393\n      jumpi\n        /* \"https://github.com/exo-digital-labs/ERC721R/blob/main/contracts/ERC721A.sol\":20089:20129  TransferToNonERC721ReceiverImplementer() */\n      mload(0x40)\n      shl(0xe1, 0x68d2bf6b)\n      dup2\n      mstore\n      0x04\n      add\n      mload(0x40)\n      dup1\n      swap2\n      sub\n      swap1\n      revert\n        /* \"https://github.com/exo-digital-labs/ERC721R/blob/main/contracts/ERC721A.sol\":20040:20269  if (reason.length == 0) {... */\n    tag_393:\n        /* \"https://github.com/exo-digital-labs/ERC721R/blob/main/contracts/ERC721A.sol\":20229:20235  reason */\n      dup1\n        /* \"https://github.com/exo-digital-labs/ERC721R/blob/main/contracts/ERC721A.sol\":20223:20236  mload(reason) */\n      mload\n        /* \"https://github.com/exo-digital-labs/ERC721R/blob/main/contracts/ERC721A.sol\":20214:20220  reason */\n      dup2\n        /* \"https://github.com/exo-digital-labs/ERC721R/blob/main/contracts/ERC721A.sol\":20210:20212  32 */\n      0x20\n        /* \"https://github.com/exo-digital-labs/ERC721R/blob/main/contracts/ERC721A.sol\":20206:20221  add(32, reason) */\n      add\n        /* \"https://github.com/exo-digital-labs/ERC721R/blob/main/contracts/ERC721A.sol\":20199:20237  revert(add(32, reason), mload(reason)) */\n      revert\n        /* \"https://github.com/exo-digital-labs/ERC721R/blob/main/contracts/ERC721A.sol\":19809:20279  try IERC721Receiver(to).onERC721Received(_msgSender(), from, tokenId, _data) returns (bytes4 retval) {... */\n    tag_387:\n      not(sub(shl(0xe0, 0x01), 0x01))\n        /* \"https://github.com/exo-digital-labs/ERC721R/blob/main/contracts/ERC721A.sol\":19931:19986  retval == IERC721Receiver(to).onERC721Received.selector */\n      and\n      shl(0xe1, 0x0a85bd01)\n      eq\n      swap1\n      pop\n        /* \"https://github.com/exo-digital-labs/ERC721R/blob/main/contracts/ERC721A.sol\":19634:20285  function _checkContractOnERC721Received(... */\n      swap5\n      swap4\n      pop\n      pop\n      pop\n      pop\n      jump\t// out\n        /* \"contracts/ERC-721AWRefund.sol\":1023:1170  function _baseURI() internal pure override returns (string memory) {... */\n    tag_299:\n        /* \"contracts/ERC-721AWRefund.sol\":1075:1088  string memory */\n      0x60\n        /* \"contracts/ERC-721AWRefund.sol\":1100:1163  return \"ipfs://QmbseRTJWSsLfhsiWwuB2R7EtN93TxfoaMz1S5FXtsFEUB/\" */\n      mload(0x40)\n      dup1\n      0x60\n      add\n      0x40\n      mstore\n      dup1\n      0x36\n      dup2\n      mstore\n      0x20\n      add\n      data_bad8c5b7513efa3484aff4751176e1559e99e0aac6100695fa19afecc4f7431d\n      0x36\n      swap2\n      codecopy\n      swap1\n      pop\n        /* \"contracts/ERC-721AWRefund.sol\":1023:1170  function _baseURI() internal pure override returns (string memory) {... */\n      swap1\n      jump\t// out\n        /* \"@openzeppelin/contracts/utils/Strings.sol\":447:1143  function toString(uint256 value) internal pure returns (string memory) {... */\n    tag_303:\n        /* \"@openzeppelin/contracts/utils/Strings.sol\":503:516  string memory */\n      0x60\n        /* \"@openzeppelin/contracts/utils/Strings.sol\":552:566  uint256 length */\n      0x00\n        /* \"@openzeppelin/contracts/utils/Strings.sol\":569:586  Math.log10(value) */\n      tag_398\n        /* \"@openzeppelin/contracts/utils/Strings.sol\":580:585  value */\n      dup4\n        /* \"@openzeppelin/contracts/utils/Strings.sol\":569:579  Math.log10 */\n      tag_399\n        /* \"@openzeppelin/contracts/utils/Strings.sol\":569:586  Math.log10(value) */\n      jump\t// in\n    tag_398:\n        /* \"@openzeppelin/contracts/utils/Strings.sol\":589:590  1 */\n      0x01\n        /* \"@openzeppelin/contracts/utils/Strings.sol\":569:590  Math.log10(value) + 1 */\n      add\n        /* \"@openzeppelin/contracts/utils/Strings.sol\":552:590  uint256 length = Math.log10(value) + 1 */\n      swap1\n      pop\n        /* \"@openzeppelin/contracts/utils/Strings.sol\":604:624  string memory buffer */\n      0x00\n        /* \"@openzeppelin/contracts/utils/Strings.sol\":638:644  length */\n      dup2\n        /* \"@openzeppelin/contracts/utils/Strings.sol\":627:645  new string(length) */\n      0xffffffffffffffff\n      dup2\n      gt\n      iszero\n      tag_401\n      jumpi\n      tag_401\n      tag_402\n      jump\t// in\n    tag_401:\n      mload(0x40)\n      swap1\n      dup1\n      dup3\n      mstore\n      dup1\n      0x1f\n      add\n      not(0x1f)\n      and\n      0x20\n      add\n      dup3\n      add\n      0x40\n      mstore\n      dup1\n      iszero\n      tag_403\n      jumpi\n      0x20\n      dup3\n      add\n      dup2\n      dup1\n      calldatasize\n      dup4\n      calldatacopy\n      add\n      swap1\n      pop\n    tag_403:\n      pop\n        /* \"@openzeppelin/contracts/utils/Strings.sol\":604:645  string memory buffer = new string(length) */\n      swap1\n      pop\n        /* \"@openzeppelin/contracts/utils/Strings.sol\":765:793  add(buffer, add(32, length)) */\n      dup2\n      dup2\n      add\n        /* \"@openzeppelin/contracts/utils/Strings.sol\":781:783  32 */\n      0x20\n        /* \"@openzeppelin/contracts/utils/Strings.sol\":765:793  add(buffer, add(32, length)) */\n      add\n        /* \"@openzeppelin/contracts/utils/Strings.sol\":820:1100  while (true) {... */\n    tag_404:\n      not(0x00)\n        /* \"@openzeppelin/contracts/utils/Strings.sol\":851:856  ptr-- */\n      add\n      shl(0x81, 0x181899199a1a9b1b9c1cb0b131b232b3)\n        /* \"@openzeppelin/contracts/utils/Strings.sol\":985:987  10 */\n      0x0a\n        /* \"@openzeppelin/contracts/utils/Strings.sol\":974:988  mod(value, 10) */\n      dup7\n      mod\n        /* \"@openzeppelin/contracts/utils/Strings.sol\":969:999  byte(mod(value, 10), _SYMBOLS) */\n      byte\n        /* \"@openzeppelin/contracts/utils/Strings.sol\":851:856  ptr-- */\n      dup2\n        /* \"@openzeppelin/contracts/utils/Strings.sol\":956:1000  mstore8(ptr, byte(mod(value, 10), _SYMBOLS)) */\n      mstore8\n        /* \"@openzeppelin/contracts/utils/Strings.sol\":1044:1046  10 */\n      0x0a\n        /* \"@openzeppelin/contracts/utils/Strings.sol\":1035:1046  value /= 10 */\n      dup6\n      div\n      swap5\n      pop\n        /* \"@openzeppelin/contracts/utils/Strings.sol\":1064:1085  if (value == 0) break */\n      dup5\n        /* \"@openzeppelin/contracts/utils/Strings.sol\":820:1100  while (true) {... */\n      tag_404\n        /* \"@openzeppelin/contracts/utils/Strings.sol\":1064:1085  if (value == 0) break */\n      jumpi\n      pop\n        /* \"@openzeppelin/contracts/utils/Strings.sol\":1120:1126  buffer */\n      swap4\n        /* \"@openzeppelin/contracts/utils/Strings.sol\":447:1143  function toString(uint256 value) internal pure returns (string memory) {... */\n      swap3\n      pop\n      pop\n      pop\n      jump\t// out\n        /* \"https://github.com/exo-digital-labs/ERC721R/blob/main/contracts/ERC721A.sol\":11653:11810  function _safeMint(... */\n    tag_360:\n        /* \"https://github.com/exo-digital-labs/ERC721R/blob/main/contracts/ERC721A.sol\":11771:11803  _mint(to, quantity, _data, true) */\n      tag_205\n        /* \"https://github.com/exo-digital-labs/ERC721R/blob/main/contracts/ERC721A.sol\":11777:11779  to */\n      dup4\n        /* \"https://github.com/exo-digital-labs/ERC721R/blob/main/contracts/ERC721A.sol\":11781:11789  quantity */\n      dup4\n        /* \"https://github.com/exo-digital-labs/ERC721R/blob/main/contracts/ERC721A.sol\":11791:11796  _data */\n      dup4\n        /* \"https://github.com/exo-digital-labs/ERC721R/blob/main/contracts/ERC721A.sol\":11798:11802  true */\n      0x01\n        /* \"https://github.com/exo-digital-labs/ERC721R/blob/main/contracts/ERC721A.sol\":11771:11776  _mint */\n      tag_414\n        /* \"https://github.com/exo-digital-labs/ERC721R/blob/main/contracts/ERC721A.sol\":11771:11803  _mint(to, quantity, _data, true) */\n      jump\t// in\n        /* \"@openzeppelin/contracts/utils/math/Math.sol\":10139:11055  function log10(uint256 value) internal pure returns (uint256) {... */\n    tag_399:\n        /* \"@openzeppelin/contracts/utils/math/Math.sol\":10192:10199  uint256 */\n      0x00\n      dup1\n      shl(0x40, 0x184f03e93ff9f4daa797ed6e38ed64bf6a1f01)\n        /* \"@openzeppelin/contracts/utils/math/Math.sol\":10267:10284  value >= 10 ** 64 */\n      dup4\n      lt\n        /* \"@openzeppelin/contracts/utils/math/Math.sol\":10263:10366  if (value >= 10 ** 64) {... */\n      tag_416\n      jumpi\n      shl(0x40, 0x184f03e93ff9f4daa797ed6e38ed64bf6a1f01)\n        /* \"@openzeppelin/contracts/utils/math/Math.sol\":10304:10321  value /= 10 ** 64 */\n      dup4\n      div\n      swap3\n      pop\n        /* \"@openzeppelin/contracts/utils/math/Math.sol\":10349:10351  64 */\n      0x40\n        /* \"@openzeppelin/contracts/utils/math/Math.sol\":10339:10351  result += 64 */\n      add\n        /* \"@openzeppelin/contracts/utils/math/Math.sol\":10263:10366  if (value >= 10 ** 64) {... */\n    tag_416:\n        /* \"@openzeppelin/contracts/utils/math/Math.sol\":10392:10400  10 ** 32 */\n      0x04ee2d6d415b85acef8100000000\n        /* \"@openzeppelin/contracts/utils/math/Math.sol\":10383:10388  value */\n      dup4\n        /* \"@openzeppelin/contracts/utils/math/Math.sol\":10383:10400  value >= 10 ** 32 */\n      lt\n        /* \"@openzeppelin/contracts/utils/math/Math.sol\":10379:10482  if (value >= 10 ** 32) {... */\n      tag_419\n      jumpi\n        /* \"@openzeppelin/contracts/utils/math/Math.sol\":10429:10437  10 ** 32 */\n      0x04ee2d6d415b85acef8100000000\n        /* \"@openzeppelin/contracts/utils/math/Math.sol\":10420:10437  value /= 10 ** 32 */\n      dup4\n      div\n      swap3\n      pop\n        /* \"@openzeppelin/contracts/utils/math/Math.sol\":10465:10467  32 */\n      0x20\n        /* \"@openzeppelin/contracts/utils/math/Math.sol\":10455:10467  result += 32 */\n      add\n        /* \"@openzeppelin/contracts/utils/math/Math.sol\":10379:10482  if (value >= 10 ** 32) {... */\n    tag_419:\n        /* \"@openzeppelin/contracts/utils/math/Math.sol\":10508:10516  10 ** 16 */\n      0x2386f26fc10000\n        /* \"@openzeppelin/contracts/utils/math/Math.sol\":10499:10504  value */\n      dup4\n        /* \"@openzeppelin/contracts/utils/math/Math.sol\":10499:10516  value >= 10 ** 16 */\n      lt\n        /* \"@openzeppelin/contracts/utils/math/Math.sol\":10495:10598  if (value >= 10 ** 16) {... */\n      tag_422\n      jumpi\n        /* \"@openzeppelin/contracts/utils/math/Math.sol\":10545:10553  10 ** 16 */\n      0x2386f26fc10000\n        /* \"@openzeppelin/contracts/utils/math/Math.sol\":10536:10553  value /= 10 ** 16 */\n      dup4\n      div\n      swap3\n      pop\n        /* \"@openzeppelin/contracts/utils/math/Math.sol\":10581:10583  16 */\n      0x10\n        /* \"@openzeppelin/contracts/utils/math/Math.sol\":10571:10583  result += 16 */\n      add\n        /* \"@openzeppelin/contracts/utils/math/Math.sol\":10495:10598  if (value >= 10 ** 16) {... */\n    tag_422:\n        /* \"@openzeppelin/contracts/utils/math/Math.sol\":10624:10631  10 ** 8 */\n      0x05f5e100\n        /* \"@openzeppelin/contracts/utils/math/Math.sol\":10615:10620  value */\n      dup4\n        /* \"@openzeppelin/contracts/utils/math/Math.sol\":10615:10631  value >= 10 ** 8 */\n      lt\n        /* \"@openzeppelin/contracts/utils/math/Math.sol\":10611:10711  if (value >= 10 ** 8) {... */\n      tag_425\n      jumpi\n        /* \"@openzeppelin/contracts/utils/math/Math.sol\":10660:10667  10 ** 8 */\n      0x05f5e100\n        /* \"@openzeppelin/contracts/utils/math/Math.sol\":10651:10667  value /= 10 ** 8 */\n      dup4\n      div\n      swap3\n      pop\n        /* \"@openzeppelin/contracts/utils/math/Math.sol\":10695:10696  8 */\n      0x08\n        /* \"@openzeppelin/contracts/utils/math/Math.sol\":10685:10696  result += 8 */\n      add\n        /* \"@openzeppelin/contracts/utils/math/Math.sol\":10611:10711  if (value >= 10 ** 8) {... */\n    tag_425:\n        /* \"@openzeppelin/contracts/utils/math/Math.sol\":10737:10744  10 ** 4 */\n      0x2710\n        /* \"@openzeppelin/contracts/utils/math/Math.sol\":10728:10733  value */\n      dup4\n        /* \"@openzeppelin/contracts/utils/math/Math.sol\":10728:10744  value >= 10 ** 4 */\n      lt\n        /* \"@openzeppelin/contracts/utils/math/Math.sol\":10724:10824  if (value >= 10 ** 4) {... */\n      tag_428\n      jumpi\n        /* \"@openzeppelin/contracts/utils/math/Math.sol\":10773:10780  10 ** 4 */\n      0x2710\n        /* \"@openzeppelin/contracts/utils/math/Math.sol\":10764:10780  value /= 10 ** 4 */\n      dup4\n      div\n      swap3\n      pop\n        /* \"@openzeppelin/contracts/utils/math/Math.sol\":10808:10809  4 */\n      0x04\n        /* \"@openzeppelin/contracts/utils/math/Math.sol\":10798:10809  result += 4 */\n      add\n        /* \"@openzeppelin/contracts/utils/math/Math.sol\":10724:10824  if (value >= 10 ** 4) {... */\n    tag_428:\n        /* \"@openzeppelin/contracts/utils/math/Math.sol\":10850:10857  10 ** 2 */\n      0x64\n        /* \"@openzeppelin/contracts/utils/math/Math.sol\":10841:10846  value */\n      dup4\n        /* \"@openzeppelin/contracts/utils/math/Math.sol\":10841:10857  value >= 10 ** 2 */\n      lt\n        /* \"@openzeppelin/contracts/utils/math/Math.sol\":10837:10937  if (value >= 10 ** 2) {... */\n      tag_431\n      jumpi\n        /* \"@openzeppelin/contracts/utils/math/Math.sol\":10886:10893  10 ** 2 */\n      0x64\n        /* \"@openzeppelin/contracts/utils/math/Math.sol\":10877:10893  value /= 10 ** 2 */\n      dup4\n      div\n      swap3\n      pop\n        /* \"@openzeppelin/contracts/utils/math/Math.sol\":10921:10922  2 */\n      0x02\n        /* \"@openzeppelin/contracts/utils/math/Math.sol\":10911:10922  result += 2 */\n      add\n        /* \"@openzeppelin/contracts/utils/math/Math.sol\":10837:10937  if (value >= 10 ** 2) {... */\n    tag_431:\n        /* \"@openzeppelin/contracts/utils/math/Math.sol\":10963:10970  10 ** 1 */\n      0x0a\n        /* \"@openzeppelin/contracts/utils/math/Math.sol\":10954:10959  value */\n      dup4\n        /* \"@openzeppelin/contracts/utils/math/Math.sol\":10954:10970  value >= 10 ** 1 */\n      lt\n        /* \"@openzeppelin/contracts/utils/math/Math.sol\":10950:11016  if (value >= 10 ** 1) {... */\n      tag_181\n      jumpi\n        /* \"@openzeppelin/contracts/utils/math/Math.sol\":11000:11001  1 */\n      0x01\n        /* \"@openzeppelin/contracts/utils/math/Math.sol\":10990:11001  result += 1 */\n      add\n        /* \"@openzeppelin/contracts/utils/math/Math.sol\":11042:11048  result */\n      swap3\n        /* \"@openzeppelin/contracts/utils/math/Math.sol\":10139:11055  function log10(uint256 value) internal pure returns (uint256) {... */\n      swap2\n      pop\n      pop\n      jump\t// out\n        /* \"https://github.com/exo-digital-labs/ERC721R/blob/main/contracts/ERC721A.sol\":12057:13790  function _mint(... */\n    tag_414:\n        /* \"https://github.com/exo-digital-labs/ERC721R/blob/main/contracts/ERC721A.sol\":12190:12210  uint256 startTokenId */\n      0x00\n        /* \"https://github.com/exo-digital-labs/ERC721R/blob/main/contracts/ERC721A.sol\":12213:12226  _currentIndex */\n      sload\n      sub(shl(0xa0, 0x01), 0x01)\n        /* \"https://github.com/exo-digital-labs/ERC721R/blob/main/contracts/ERC721A.sol\":12240:12256  to == address(0) */\n      dup6\n      and\n        /* \"https://github.com/exo-digital-labs/ERC721R/blob/main/contracts/ERC721A.sol\":12236:12284  if (to == address(0)) revert MintToZeroAddress() */\n      tag_436\n      jumpi\n        /* \"https://github.com/exo-digital-labs/ERC721R/blob/main/contracts/ERC721A.sol\":12265:12284  MintToZeroAddress() */\n      mload(0x40)\n      shl(0xe8, 0x2e0763)\n      dup2\n      mstore\n      0x04\n      add\n      mload(0x40)\n      dup1\n      swap2\n      sub\n      swap1\n      revert\n        /* \"https://github.com/exo-digital-labs/ERC721R/blob/main/contracts/ERC721A.sol\":12236:12284  if (to == address(0)) revert MintToZeroAddress() */\n    tag_436:\n        /* \"https://github.com/exo-digital-labs/ERC721R/blob/main/contracts/ERC721A.sol\":12298:12306  quantity */\n      dup4\n        /* \"https://github.com/exo-digital-labs/ERC721R/blob/main/contracts/ERC721A.sol\":12310:12311  0 */\n      0x00\n        /* \"https://github.com/exo-digital-labs/ERC721R/blob/main/contracts/ERC721A.sol\":12298:12311  quantity == 0 */\n      sub\n        /* \"https://github.com/exo-digital-labs/ERC721R/blob/main/contracts/ERC721A.sol\":12294:12338  if (quantity == 0) revert MintZeroQuantity() */\n      tag_437\n      jumpi\n        /* \"https://github.com/exo-digital-labs/ERC721R/blob/main/contracts/ERC721A.sol\":12320:12338  MintZeroQuantity() */\n      mload(0x40)\n      shl(0xe0, 0xb562e8dd)\n      dup2\n      mstore\n      0x04\n      add\n      mload(0x40)\n      dup1\n      swap2\n      sub\n      swap1\n      revert\n        /* \"https://github.com/exo-digital-labs/ERC721R/blob/main/contracts/ERC721A.sol\":12294:12338  if (quantity == 0) revert MintZeroQuantity() */\n    tag_437:\n      sub(shl(0xa0, 0x01), 0x01)\n        /* \"https://github.com/exo-digital-labs/ERC721R/blob/main/contracts/ERC721A.sol\":12681:12697  _addressData[to] */\n      dup6\n      and\n      0x00\n      dup2\n      dup2\n      mstore\n        /* \"https://github.com/exo-digital-labs/ERC721R/blob/main/contracts/ERC721A.sol\":12681:12693  _addressData */\n      0x05\n        /* \"https://github.com/exo-digital-labs/ERC721R/blob/main/contracts/ERC721A.sol\":12681:12697  _addressData[to] */\n      0x20\n      swap1\n      dup2\n      mstore\n      0x40\n      dup1\n      dup4\n      keccak256\n        /* \"https://github.com/exo-digital-labs/ERC721R/blob/main/contracts/ERC721A.sol\":12681:12725  _addressData[to].balance += uint64(quantity) */\n      dup1\n      sload\n      not(0xffffffffffffffffffffffffffffffff)\n        /* \"https://github.com/exo-digital-labs/ERC721R/blob/main/contracts/ERC721A.sol\":12739:12788  _addressData[to].numberMinted += uint64(quantity) */\n      dup2\n      and\n        /* \"https://github.com/exo-digital-labs/ERC721R/blob/main/contracts/ERC721A.sol\":12681:12725  _addressData[to].balance += uint64(quantity) */\n      0xffffffffffffffff\n      dup1\n      dup4\n      and\n      dup13\n      add\n      dup2\n      and\n        /* \"https://github.com/exo-digital-labs/ERC721R/blob/main/contracts/ERC721A.sol\":12739:12788  _addressData[to].numberMinted += uint64(quantity) */\n      swap2\n      dup3\n      or\n      shl(0x40, 0x01)\n      not(0xffffffffffffffff)\n        /* \"https://github.com/exo-digital-labs/ERC721R/blob/main/contracts/ERC721A.sol\":12681:12725  _addressData[to].balance += uint64(quantity) */\n      swap1\n      swap5\n      and\n      swap1\n      swap3\n      or\n        /* \"https://github.com/exo-digital-labs/ERC721R/blob/main/contracts/ERC721A.sol\":12739:12788  _addressData[to].numberMinted += uint64(quantity) */\n      dup4\n      swap1\n      div\n      dup2\n      and\n      dup13\n      add\n      dup2\n      and\n      swap1\n      swap3\n      mul\n      or\n      swap1\n      swap2\n      sstore\n        /* \"https://github.com/exo-digital-labs/ERC721R/blob/main/contracts/ERC721A.sol\":12803:12828  _ownerships[startTokenId] */\n      dup6\n      dup5\n      mstore\n        /* \"https://github.com/exo-digital-labs/ERC721R/blob/main/contracts/ERC721A.sol\":12803:12814  _ownerships */\n      0x04\n        /* \"https://github.com/exo-digital-labs/ERC721R/blob/main/contracts/ERC721A.sol\":12803:12828  _ownerships[startTokenId] */\n      swap1\n      swap3\n      mstore\n      swap1\n      swap2\n      keccak256\n        /* \"https://github.com/exo-digital-labs/ERC721R/blob/main/contracts/ERC721A.sol\":12803:12838  _ownerships[startTokenId].addr = to */\n      dup1\n      sload\n      not(sub(shl(0xe0, 0x01), 0x01))\n        /* \"https://github.com/exo-digital-labs/ERC721R/blob/main/contracts/ERC721A.sol\":12852:12918  _ownerships[startTokenId].startTimestamp = uint64(block.timestamp) */\n      and\n      swap1\n      swap3\n      or\n      shl(0xa0, 0x01)\n        /* \"https://github.com/exo-digital-labs/ERC721R/blob/main/contracts/ERC721A.sol\":12902:12917  block.timestamp */\n      timestamp\n        /* \"https://github.com/exo-digital-labs/ERC721R/blob/main/contracts/ERC721A.sol\":12852:12918  _ownerships[startTokenId].startTimestamp = uint64(block.timestamp) */\n      swap1\n      swap3\n      and\n      swap2\n      swap1\n      swap2\n      mul\n      or\n      swap1\n      sstore\n        /* \"https://github.com/exo-digital-labs/ERC721R/blob/main/contracts/ERC721A.sol\":12803:12828  _ownerships[startTokenId] */\n      dup1\n        /* \"https://github.com/exo-digital-labs/ERC721R/blob/main/contracts/ERC721A.sol\":12996:13019  updatedIndex + quantity */\n      dup1\n      dup6\n      add\n        /* \"https://github.com/exo-digital-labs/ERC721R/blob/main/contracts/ERC721A.sol\":13038:13042  safe */\n      dup4\n        /* \"https://github.com/exo-digital-labs/ERC721R/blob/main/contracts/ERC721A.sol\":13038:13061  safe && to.isContract() */\n      dup1\n      iszero\n      tag_440\n      jumpi\n      pop\n      sub(shl(0xa0, 0x01), 0x01)\n        /* \"https://github.com/exo-digital-labs/ERC721R/blob/main/contracts/ERC721A.sol\":13046:13059  to.isContract */\n      dup8\n      and\n        /* \"@openzeppelin/contracts/utils/Address.sol\":1702:1721  account.code.length */\n      extcodesize\n        /* \"@openzeppelin/contracts/utils/Address.sol\":1702:1725  account.code.length > 0 */\n      iszero\n      iszero\n        /* \"https://github.com/exo-digital-labs/ERC721R/blob/main/contracts/ERC721A.sol\":13046:13061  to.isContract() */\n    tag_440:\n        /* \"https://github.com/exo-digital-labs/ERC721R/blob/main/contracts/ERC721A.sol\":13034:13662  if (safe && to.isContract()) {... */\n      iszero\n      tag_441\n      jumpi\n        /* \"https://github.com/exo-digital-labs/ERC721R/blob/main/contracts/ERC721A.sol\":13081:13390  do {... */\n    tag_442:\n        /* \"https://github.com/exo-digital-labs/ERC721R/blob/main/contracts/ERC721A.sol\":13111:13149  Transfer(address(0), to, updatedIndex) */\n      mload(0x40)\n        /* \"https://github.com/exo-digital-labs/ERC721R/blob/main/contracts/ERC721A.sol\":13136:13148  updatedIndex */\n      dup3\n      swap1\n      sub(shl(0xa0, 0x01), 0x01)\n        /* \"https://github.com/exo-digital-labs/ERC721R/blob/main/contracts/ERC721A.sol\":13111:13149  Transfer(address(0), to, updatedIndex) */\n      dup10\n      and\n      swap1\n        /* \"https://github.com/exo-digital-labs/ERC721R/blob/main/contracts/ERC721A.sol\":13128:13129  0 */\n      0x00\n      swap1\n        /* \"https://github.com/exo-digital-labs/ERC721R/blob/main/contracts/ERC721A.sol\":13111:13149  Transfer(address(0), to, updatedIndex) */\n      0xddf252ad1be2c89b69c2b068fc378daa952ba7f163c4a11628f55a4df523b3ef\n      swap1\n        /* \"https://github.com/exo-digital-labs/ERC721R/blob/main/contracts/ERC721A.sol\":13128:13129  0 */\n      dup3\n      swap1\n        /* \"https://github.com/exo-digital-labs/ERC721R/blob/main/contracts/ERC721A.sol\":13111:13149  Transfer(address(0), to, updatedIndex) */\n      log4\n        /* \"https://github.com/exo-digital-labs/ERC721R/blob/main/contracts/ERC721A.sol\":13176:13245  _checkContractOnERC721Received(address(0), to, updatedIndex++, _data) */\n      tag_445\n        /* \"https://github.com/exo-digital-labs/ERC721R/blob/main/contracts/ERC721A.sol\":13215:13216  0 */\n      0x00\n        /* \"https://github.com/exo-digital-labs/ERC721R/blob/main/contracts/ERC721A.sol\":13219:13221  to */\n      dup9\n        /* \"https://github.com/exo-digital-labs/ERC721R/blob/main/contracts/ERC721A.sol\":13223:13237  updatedIndex++ */\n      dup5\n      dup1\n      0x01\n      add\n      swap6\n      pop\n        /* \"https://github.com/exo-digital-labs/ERC721R/blob/main/contracts/ERC721A.sol\":13239:13244  _data */\n      dup9\n        /* \"https://github.com/exo-digital-labs/ERC721R/blob/main/contracts/ERC721A.sol\":13176:13206  _checkContractOnERC721Received */\n      tag_293\n        /* \"https://github.com/exo-digital-labs/ERC721R/blob/main/contracts/ERC721A.sol\":13176:13245  _checkContractOnERC721Received(address(0), to, updatedIndex++, _data) */\n      jump\t// in\n    tag_445:\n        /* \"https://github.com/exo-digital-labs/ERC721R/blob/main/contracts/ERC721A.sol\":13171:13343  if (!_checkContractOnERC721Received(address(0), to, updatedIndex++, _data)) {... */\n      tag_446\n      jumpi\n        /* \"https://github.com/exo-digital-labs/ERC721R/blob/main/contracts/ERC721A.sol\":13280:13320  TransferToNonERC721ReceiverImplementer() */\n      mload(0x40)\n      shl(0xe1, 0x68d2bf6b)\n      dup2\n      mstore\n      0x04\n      add\n      mload(0x40)\n      dup1\n      swap2\n      sub\n      swap1\n      revert\n        /* \"https://github.com/exo-digital-labs/ERC721R/blob/main/contracts/ERC721A.sol\":13171:13343  if (!_checkContractOnERC721Received(address(0), to, updatedIndex++, _data)) {... */\n    tag_446:\n        /* \"https://github.com/exo-digital-labs/ERC721R/blob/main/contracts/ERC721A.sol\":13385:13388  end */\n      dup1\n        /* \"https://github.com/exo-digital-labs/ERC721R/blob/main/contracts/ERC721A.sol\":13369:13381  updatedIndex */\n      dup3\n        /* \"https://github.com/exo-digital-labs/ERC721R/blob/main/contracts/ERC721A.sol\":13369:13388  updatedIndex != end */\n      sub\n        /* \"https://github.com/exo-digital-labs/ERC721R/blob/main/contracts/ERC721A.sol\":13081:13390  do {... */\n      tag_442\n      jumpi\n        /* \"https://github.com/exo-digital-labs/ERC721R/blob/main/contracts/ERC721A.sol\":13469:13481  startTokenId */\n      dup3\n        /* \"https://github.com/exo-digital-labs/ERC721R/blob/main/contracts/ERC721A.sol\":13452:13465  _currentIndex */\n      sload(0x00)\n        /* \"https://github.com/exo-digital-labs/ERC721R/blob/main/contracts/ERC721A.sol\":13452:13481  _currentIndex != startTokenId */\n      eq\n        /* \"https://github.com/exo-digital-labs/ERC721R/blob/main/contracts/ERC721A.sol\":13448:13491  if (_currentIndex != startTokenId) revert() */\n      tag_447\n      jumpi\n        /* \"https://github.com/exo-digital-labs/ERC721R/blob/main/contracts/ERC721A.sol\":13483:13491  revert() */\n      0x00\n      dup1\n      revert\n        /* \"https://github.com/exo-digital-labs/ERC721R/blob/main/contracts/ERC721A.sol\":13448:13491  if (_currentIndex != startTokenId) revert() */\n    tag_447:\n        /* \"https://github.com/exo-digital-labs/ERC721R/blob/main/contracts/ERC721A.sol\":13034:13662  if (safe && to.isContract()) {... */\n      jump(tag_448)\n    tag_441:\n        /* \"https://github.com/exo-digital-labs/ERC721R/blob/main/contracts/ERC721A.sol\":13530:13648  do {... */\n    tag_449:\n        /* \"https://github.com/exo-digital-labs/ERC721R/blob/main/contracts/ERC721A.sol\":13560:13600  Transfer(address(0), to, updatedIndex++) */\n      mload(0x40)\n        /* \"https://github.com/exo-digital-labs/ERC721R/blob/main/contracts/ERC721A.sol\":13585:13599  updatedIndex++ */\n      0x01\n      dup4\n      add\n      swap3\n      swap1\n      sub(shl(0xa0, 0x01), 0x01)\n        /* \"https://github.com/exo-digital-labs/ERC721R/blob/main/contracts/ERC721A.sol\":13560:13600  Transfer(address(0), to, updatedIndex++) */\n      dup10\n      and\n      swap1\n        /* \"https://github.com/exo-digital-labs/ERC721R/blob/main/contracts/ERC721A.sol\":13577:13578  0 */\n      0x00\n      swap1\n        /* \"https://github.com/exo-digital-labs/ERC721R/blob/main/contracts/ERC721A.sol\":13560:13600  Transfer(address(0), to, updatedIndex++) */\n      0xddf252ad1be2c89b69c2b068fc378daa952ba7f163c4a11628f55a4df523b3ef\n      swap1\n        /* \"https://github.com/exo-digital-labs/ERC721R/blob/main/contracts/ERC721A.sol\":13577:13578  0 */\n      dup3\n      swap1\n        /* \"https://github.com/exo-digital-labs/ERC721R/blob/main/contracts/ERC721A.sol\":13560:13600  Transfer(address(0), to, updatedIndex++) */\n      log4\n        /* \"https://github.com/exo-digital-labs/ERC721R/blob/main/contracts/ERC721A.sol\":13643:13646  end */\n      dup1\n        /* \"https://github.com/exo-digital-labs/ERC721R/blob/main/contracts/ERC721A.sol\":13627:13639  updatedIndex */\n      dup3\n        /* \"https://github.com/exo-digital-labs/ERC721R/blob/main/contracts/ERC721A.sol\":13627:13646  updatedIndex != end */\n      sub\n        /* \"https://github.com/exo-digital-labs/ERC721R/blob/main/contracts/ERC721A.sol\":13530:13648  do {... */\n      tag_449\n      jumpi\n        /* \"https://github.com/exo-digital-labs/ERC721R/blob/main/contracts/ERC721A.sol\":13034:13662  if (safe && to.isContract()) {... */\n    tag_448:\n      pop\n        /* \"https://github.com/exo-digital-labs/ERC721R/blob/main/contracts/ERC721A.sol\":13675:13688  _currentIndex */\n      0x00\n        /* \"https://github.com/exo-digital-labs/ERC721R/blob/main/contracts/ERC721A.sol\":13675:13703  _currentIndex = updatedIndex */\n      sstore\n        /* \"https://github.com/exo-digital-labs/ERC721R/blob/main/contracts/ERC721A.sol\":13723:13783  _afterTokenTransfers(address(0), to, startTokenId, quantity) */\n      tag_341\n        /* \"https://github.com/exo-digital-labs/ERC721R/blob/main/contracts/ERC721A.sol\":10405:10764  function safeTransferFrom(... */\n      jump\n        /* \"#utility.yul\":14:145   */\n    tag_453:\n      not(sub(shl(0xe0, 0x01), 0x01))\n        /* \"#utility.yul\":88:120   */\n      dup2\n      and\n        /* \"#utility.yul\":78:121   */\n      dup2\n      eq\n        /* \"#utility.yul\":68:139   */\n      tag_261\n      jumpi\n        /* \"#utility.yul\":135:136   */\n      0x00\n        /* \"#utility.yul\":132:133   */\n      dup1\n        /* \"#utility.yul\":125:137   */\n      revert\n        /* \"#utility.yul\":150:395   */\n    tag_42:\n        /* \"#utility.yul\":208:214   */\n      0x00\n        /* \"#utility.yul\":261:263   */\n      0x20\n        /* \"#utility.yul\":249:258   */\n      dup3\n        /* \"#utility.yul\":240:247   */\n      dup5\n        /* \"#utility.yul\":236:259   */\n      sub\n        /* \"#utility.yul\":232:264   */\n      slt\n        /* \"#utility.yul\":229:281   */\n      iszero\n      tag_462\n      jumpi\n        /* \"#utility.yul\":277:278   */\n      0x00\n        /* \"#utility.yul\":274:275   */\n      dup1\n        /* \"#utility.yul\":267:279   */\n      revert\n        /* \"#utility.yul\":229:281   */\n    tag_462:\n        /* \"#utility.yul\":316:325   */\n      dup2\n        /* \"#utility.yul\":303:326   */\n      calldataload\n        /* \"#utility.yul\":335:365   */\n      tag_301\n        /* \"#utility.yul\":359:364   */\n      dup2\n        /* \"#utility.yul\":335:365   */\n      tag_453\n      jump\t// in\n        /* \"#utility.yul\":592:772   */\n    tag_49:\n        /* \"#utility.yul\":651:657   */\n      0x00\n        /* \"#utility.yul\":704:706   */\n      0x20\n        /* \"#utility.yul\":692:701   */\n      dup3\n        /* \"#utility.yul\":683:690   */\n      dup5\n        /* \"#utility.yul\":679:702   */\n      sub\n        /* \"#utility.yul\":675:707   */\n      slt\n        /* \"#utility.yul\":672:724   */\n      iszero\n      tag_466\n      jumpi\n        /* \"#utility.yul\":720:721   */\n      0x00\n        /* \"#utility.yul\":717:718   */\n      dup1\n        /* \"#utility.yul\":710:722   */\n      revert\n        /* \"#utility.yul\":672:724   */\n    tag_466:\n      pop\n        /* \"#utility.yul\":743:766   */\n      calldataload\n      swap2\n        /* \"#utility.yul\":592:772   */\n      swap1\n      pop\n      jump\t// out\n        /* \"#utility.yul\":959:1209   */\n    tag_454:\n        /* \"#utility.yul\":1044:1045   */\n      0x00\n        /* \"#utility.yul\":1054:1167   */\n    tag_469:\n        /* \"#utility.yul\":1068:1074   */\n      dup4\n        /* \"#utility.yul\":1065:1066   */\n      dup2\n        /* \"#utility.yul\":1062:1075   */\n      lt\n        /* \"#utility.yul\":1054:1167   */\n      iszero\n      tag_471\n      jumpi\n        /* \"#utility.yul\":1144:1155   */\n      dup2\n      dup2\n      add\n        /* \"#utility.yul\":1138:1156   */\n      mload\n        /* \"#utility.yul\":1125:1136   */\n      dup4\n      dup3\n      add\n        /* \"#utility.yul\":1118:1157   */\n      mstore\n        /* \"#utility.yul\":1090:1092   */\n      0x20\n        /* \"#utility.yul\":1083:1093   */\n      add\n        /* \"#utility.yul\":1054:1167   */\n      jump(tag_469)\n    tag_471:\n      pop\n      pop\n        /* \"#utility.yul\":1201:1202   */\n      0x00\n        /* \"#utility.yul\":1183:1199   */\n      swap2\n      add\n        /* \"#utility.yul\":1176:1203   */\n      mstore\n        /* \"#utility.yul\":959:1209   */\n      jump\t// out\n        /* \"#utility.yul\":1214:1485   */\n    tag_455:\n        /* \"#utility.yul\":1256:1259   */\n      0x00\n        /* \"#utility.yul\":1294:1299   */\n      dup2\n        /* \"#utility.yul\":1288:1300   */\n      mload\n        /* \"#utility.yul\":1321:1327   */\n      dup1\n        /* \"#utility.yul\":1316:1319   */\n      dup5\n        /* \"#utility.yul\":1309:1328   */\n      mstore\n        /* \"#utility.yul\":1337:1413   */\n      tag_473\n        /* \"#utility.yul\":1406:1412   */\n      dup2\n        /* \"#utility.yul\":1399:1403   */\n      0x20\n        /* \"#utility.yul\":1394:1397   */\n      dup7\n        /* \"#utility.yul\":1390:1404   */\n      add\n        /* \"#utility.yul\":1383:1387   */\n      0x20\n        /* \"#utility.yul\":1376:1381   */\n      dup7\n        /* \"#utility.yul\":1372:1388   */\n      add\n        /* \"#utility.yul\":1337:1413   */\n      tag_454\n      jump\t// in\n    tag_473:\n        /* \"#utility.yul\":1467:1469   */\n      0x1f\n        /* \"#utility.yul\":1446:1461   */\n      add\n      not(0x1f)\n        /* \"#utility.yul\":1442:1471   */\n      and\n        /* \"#utility.yul\":1433:1472   */\n      swap3\n      swap1\n      swap3\n      add\n        /* \"#utility.yul\":1474:1478   */\n      0x20\n        /* \"#utility.yul\":1429:1479   */\n      add\n      swap3\n        /* \"#utility.yul\":1214:1485   */\n      swap2\n      pop\n      pop\n      jump\t// out\n        /* \"#utility.yul\":1490:1710   */\n    tag_57:\n        /* \"#utility.yul\":1639:1641   */\n      0x20\n        /* \"#utility.yul\":1628:1637   */\n      dup2\n        /* \"#utility.yul\":1621:1642   */\n      mstore\n        /* \"#utility.yul\":1602:1606   */\n      0x00\n        /* \"#utility.yul\":1659:1704   */\n      tag_301\n        /* \"#utility.yul\":1700:1702   */\n      0x20\n        /* \"#utility.yul\":1689:1698   */\n      dup4\n        /* \"#utility.yul\":1685:1703   */\n      add\n        /* \"#utility.yul\":1677:1683   */\n      dup5\n        /* \"#utility.yul\":1659:1704   */\n      tag_455\n      jump\t// in\n        /* \"#utility.yul\":1923:2096   */\n    tag_456:\n        /* \"#utility.yul\":1991:2011   */\n      dup1\n      calldataload\n      sub(shl(0xa0, 0x01), 0x01)\n        /* \"#utility.yul\":2040:2071   */\n      dup2\n      and\n        /* \"#utility.yul\":2030:2072   */\n      dup2\n      eq\n        /* \"#utility.yul\":2020:2090   */\n      tag_478\n      jumpi\n        /* \"#utility.yul\":2086:2087   */\n      0x00\n        /* \"#utility.yul\":2083:2084   */\n      dup1\n        /* \"#utility.yul\":2076:2088   */\n      revert\n        /* \"#utility.yul\":2020:2090   */\n    tag_478:\n        /* \"#utility.yul\":1923:2096   */\n      swap2\n      swap1\n      pop\n      jump\t// out\n        /* \"#utility.yul\":2101:2355   */\n    tag_67:\n        /* \"#utility.yul\":2169:2175   */\n      0x00\n        /* \"#utility.yul\":2177:2183   */\n      dup1\n        /* \"#utility.yul\":2230:2232   */\n      0x40\n        /* \"#utility.yul\":2218:2227   */\n      dup4\n        /* \"#utility.yul\":2209:2216   */\n      dup6\n        /* \"#utility.yul\":2205:2228   */\n      sub\n        /* \"#utility.yul\":2201:2233   */\n      slt\n        /* \"#utility.yul\":2198:2250   */\n      iszero\n      tag_480\n      jumpi\n        /* \"#utility.yul\":2246:2247   */\n      0x00\n        /* \"#utility.yul\":2243:2244   */\n      dup1\n        /* \"#utility.yul\":2236:2248   */\n      revert\n        /* \"#utility.yul\":2198:2250   */\n    tag_480:\n        /* \"#utility.yul\":2269:2298   */\n      tag_481\n        /* \"#utility.yul\":2288:2297   */\n      dup4\n        /* \"#utility.yul\":2269:2298   */\n      tag_456\n      jump\t// in\n    tag_481:\n        /* \"#utility.yul\":2259:2298   */\n      swap5\n        /* \"#utility.yul\":2345:2347   */\n      0x20\n        /* \"#utility.yul\":2330:2348   */\n      swap4\n      swap1\n      swap4\n      add\n        /* \"#utility.yul\":2317:2349   */\n      calldataload\n      swap4\n      pop\n      pop\n      pop\n        /* \"#utility.yul\":2101:2355   */\n      jump\t// out\n        /* \"#utility.yul\":2360:2688   */\n    tag_80:\n        /* \"#utility.yul\":2437:2443   */\n      0x00\n        /* \"#utility.yul\":2445:2451   */\n      dup1\n        /* \"#utility.yul\":2453:2459   */\n      0x00\n        /* \"#utility.yul\":2506:2508   */\n      0x60\n        /* \"#utility.yul\":2494:2503   */\n      dup5\n        /* \"#utility.yul\":2485:2492   */\n      dup7\n        /* \"#utility.yul\":2481:2504   */\n      sub\n        /* \"#utility.yul\":2477:2509   */\n      slt\n        /* \"#utility.yul\":2474:2526   */\n      iszero\n      tag_483\n      jumpi\n        /* \"#utility.yul\":2522:2523   */\n      0x00\n        /* \"#utility.yul\":2519:2520   */\n      dup1\n        /* \"#utility.yul\":2512:2524   */\n      revert\n        /* \"#utility.yul\":2474:2526   */\n    tag_483:\n        /* \"#utility.yul\":2545:2574   */\n      tag_484\n        /* \"#utility.yul\":2564:2573   */\n      dup5\n        /* \"#utility.yul\":2545:2574   */\n      tag_456\n      jump\t// in\n    tag_484:\n        /* \"#utility.yul\":2535:2574   */\n      swap3\n      pop\n        /* \"#utility.yul\":2593:2631   */\n      tag_485\n        /* \"#utility.yul\":2627:2629   */\n      0x20\n        /* \"#utility.yul\":2616:2625   */\n      dup6\n        /* \"#utility.yul\":2612:2630   */\n      add\n        /* \"#utility.yul\":2593:2631   */\n      tag_456\n      jump\t// in\n    tag_485:\n        /* \"#utility.yul\":2583:2631   */\n      swap2\n      pop\n        /* \"#utility.yul\":2678:2680   */\n      0x40\n        /* \"#utility.yul\":2667:2676   */\n      dup5\n        /* \"#utility.yul\":2663:2681   */\n      add\n        /* \"#utility.yul\":2650:2682   */\n      calldataload\n        /* \"#utility.yul\":2640:2682   */\n      swap1\n      pop\n        /* \"#utility.yul\":2360:2688   */\n      swap3\n      pop\n      swap3\n      pop\n      swap3\n      jump\t// out\n        /* \"#utility.yul\":2693:2879   */\n    tag_112:\n        /* \"#utility.yul\":2752:2758   */\n      0x00\n        /* \"#utility.yul\":2805:2807   */\n      0x20\n        /* \"#utility.yul\":2793:2802   */\n      dup3\n        /* \"#utility.yul\":2784:2791   */\n      dup5\n        /* \"#utility.yul\":2780:2803   */\n      sub\n        /* \"#utility.yul\":2776:2808   */\n      slt\n        /* \"#utility.yul\":2773:2825   */\n      iszero\n      tag_487\n      jumpi\n        /* \"#utility.yul\":2821:2822   */\n      0x00\n        /* \"#utility.yul\":2818:2819   */\n      dup1\n        /* \"#utility.yul\":2811:2823   */\n      revert\n        /* \"#utility.yul\":2773:2825   */\n    tag_487:\n        /* \"#utility.yul\":2844:2873   */\n      tag_301\n        /* \"#utility.yul\":2863:2872   */\n      dup3\n        /* \"#utility.yul\":2844:2873   */\n      tag_456\n      jump\t// in\n        /* \"#utility.yul\":2884:3231   */\n    tag_129:\n        /* \"#utility.yul\":2949:2955   */\n      0x00\n        /* \"#utility.yul\":2957:2963   */\n      dup1\n        /* \"#utility.yul\":3010:3012   */\n      0x40\n        /* \"#utility.yul\":2998:3007   */\n      dup4\n        /* \"#utility.yul\":2989:2996   */\n      dup6\n        /* \"#utility.yul\":2985:3008   */\n      sub\n        /* \"#utility.yul\":2981:3013   */\n      slt\n        /* \"#utility.yul\":2978:3030   */\n      iszero\n      tag_490\n      jumpi\n        /* \"#utility.yul\":3026:3027   */\n      0x00\n        /* \"#utility.yul\":3023:3024   */\n      dup1\n        /* \"#utility.yul\":3016:3028   */\n      revert\n        /* \"#utility.yul\":2978:3030   */\n    tag_490:\n        /* \"#utility.yul\":3049:3078   */\n      tag_491\n        /* \"#utility.yul\":3068:3077   */\n      dup4\n        /* \"#utility.yul\":3049:3078   */\n      tag_456\n      jump\t// in\n    tag_491:\n        /* \"#utility.yul\":3039:3078   */\n      swap2\n      pop\n        /* \"#utility.yul\":3128:3130   */\n      0x20\n        /* \"#utility.yul\":3117:3126   */\n      dup4\n        /* \"#utility.yul\":3113:3131   */\n      add\n        /* \"#utility.yul\":3100:3132   */\n      calldataload\n        /* \"#utility.yul\":3175:3180   */\n      dup1\n        /* \"#utility.yul\":3168:3181   */\n      iszero\n        /* \"#utility.yul\":3161:3182   */\n      iszero\n        /* \"#utility.yul\":3154:3159   */\n      dup2\n        /* \"#utility.yul\":3151:3183   */\n      eq\n        /* \"#utility.yul\":3141:3201   */\n      tag_492\n      jumpi\n        /* \"#utility.yul\":3197:3198   */\n      0x00\n        /* \"#utility.yul\":3194:3195   */\n      dup1\n        /* \"#utility.yul\":3187:3199   */\n      revert\n        /* \"#utility.yul\":3141:3201   */\n    tag_492:\n        /* \"#utility.yul\":3220:3225   */\n      dup1\n        /* \"#utility.yul\":3210:3225   */\n      swap2\n      pop\n      pop\n        /* \"#utility.yul\":2884:3231   */\n      swap3\n      pop\n      swap3\n      swap1\n      pop\n      jump\t// out\n        /* \"#utility.yul\":3236:3363   */\n    tag_402:\n        /* \"#utility.yul\":3297:3307   */\n      0x4e487b71\n        /* \"#utility.yul\":3292:3295   */\n      0xe0\n        /* \"#utility.yul\":3288:3308   */\n      shl\n        /* \"#utility.yul\":3285:3286   */\n      0x00\n        /* \"#utility.yul\":3278:3309   */\n      mstore\n        /* \"#utility.yul\":3328:3332   */\n      0x41\n        /* \"#utility.yul\":3325:3326   */\n      0x04\n        /* \"#utility.yul\":3318:3333   */\n      mstore\n        /* \"#utility.yul\":3352:3356   */\n      0x24\n        /* \"#utility.yul\":3349:3350   */\n      0x00\n        /* \"#utility.yul\":3342:3357   */\n      revert\n        /* \"#utility.yul\":3368:4506   */\n    tag_138:\n        /* \"#utility.yul\":3463:3469   */\n      0x00\n        /* \"#utility.yul\":3471:3477   */\n      dup1\n        /* \"#utility.yul\":3479:3485   */\n      0x00\n        /* \"#utility.yul\":3487:3493   */\n      dup1\n        /* \"#utility.yul\":3540:3543   */\n      0x80\n        /* \"#utility.yul\":3528:3537   */\n      dup6\n        /* \"#utility.yul\":3519:3526   */\n      dup8\n        /* \"#utility.yul\":3515:3538   */\n      sub\n        /* \"#utility.yul\":3511:3544   */\n      slt\n        /* \"#utility.yul\":3508:3561   */\n      iszero\n      tag_495\n      jumpi\n        /* \"#utility.yul\":3557:3558   */\n      0x00\n        /* \"#utility.yul\":3554:3555   */\n      dup1\n        /* \"#utility.yul\":3547:3559   */\n      revert\n        /* \"#utility.yul\":3508:3561   */\n    tag_495:\n        /* \"#utility.yul\":3580:3609   */\n      tag_496\n        /* \"#utility.yul\":3599:3608   */\n      dup6\n        /* \"#utility.yul\":3580:3609   */\n      tag_456\n      jump\t// in\n    tag_496:\n        /* \"#utility.yul\":3570:3609   */\n      swap4\n      pop\n        /* \"#utility.yul\":3628:3666   */\n      tag_497\n        /* \"#utility.yul\":3662:3664   */\n      0x20\n        /* \"#utility.yul\":3651:3660   */\n      dup7\n        /* \"#utility.yul\":3647:3665   */\n      add\n        /* \"#utility.yul\":3628:3666   */\n      tag_456\n      jump\t// in\n    tag_497:\n        /* \"#utility.yul\":3618:3666   */\n      swap3\n      pop\n        /* \"#utility.yul\":3713:3715   */\n      0x40\n        /* \"#utility.yul\":3702:3711   */\n      dup6\n        /* \"#utility.yul\":3698:3716   */\n      add\n        /* \"#utility.yul\":3685:3717   */\n      calldataload\n        /* \"#utility.yul\":3675:3717   */\n      swap2\n      pop\n        /* \"#utility.yul\":3768:3770   */\n      0x60\n        /* \"#utility.yul\":3757:3766   */\n      dup6\n        /* \"#utility.yul\":3753:3771   */\n      add\n        /* \"#utility.yul\":3740:3772   */\n      calldataload\n        /* \"#utility.yul\":3791:3809   */\n      0xffffffffffffffff\n        /* \"#utility.yul\":3832:3834   */\n      dup1\n        /* \"#utility.yul\":3824:3830   */\n      dup3\n        /* \"#utility.yul\":3821:3835   */\n      gt\n        /* \"#utility.yul\":3818:3852   */\n      iszero\n      tag_498\n      jumpi\n        /* \"#utility.yul\":3848:3849   */\n      0x00\n        /* \"#utility.yul\":3845:3846   */\n      dup1\n        /* \"#utility.yul\":3838:3850   */\n      revert\n        /* \"#utility.yul\":3818:3852   */\n    tag_498:\n        /* \"#utility.yul\":3886:3892   */\n      dup2\n        /* \"#utility.yul\":3875:3884   */\n      dup8\n        /* \"#utility.yul\":3871:3893   */\n      add\n        /* \"#utility.yul\":3861:3893   */\n      swap2\n      pop\n        /* \"#utility.yul\":3931:3938   */\n      dup8\n        /* \"#utility.yul\":3924:3928   */\n      0x1f\n        /* \"#utility.yul\":3920:3922   */\n      dup4\n        /* \"#utility.yul\":3916:3929   */\n      add\n        /* \"#utility.yul\":3912:3939   */\n      slt\n        /* \"#utility.yul\":3902:3957   */\n      tag_499\n      jumpi\n        /* \"#utility.yul\":3953:3954   */\n      0x00\n        /* \"#utility.yul\":3950:3951   */\n      dup1\n        /* \"#utility.yul\":3943:3955   */\n      revert\n        /* \"#utility.yul\":3902:3957   */\n    tag_499:\n        /* \"#utility.yul\":3989:3991   */\n      dup2\n        /* \"#utility.yul\":3976:3992   */\n      calldataload\n        /* \"#utility.yul\":4011:4013   */\n      dup2\n        /* \"#utility.yul\":4007:4009   */\n      dup2\n        /* \"#utility.yul\":4004:4014   */\n      gt\n        /* \"#utility.yul\":4001:4037   */\n      iszero\n      tag_501\n      jumpi\n        /* \"#utility.yul\":4017:4035   */\n      tag_501\n      tag_402\n      jump\t// in\n    tag_501:\n        /* \"#utility.yul\":4092:4094   */\n      0x40\n        /* \"#utility.yul\":4086:4095   */\n      mload\n        /* \"#utility.yul\":4060:4062   */\n      0x1f\n        /* \"#utility.yul\":4146:4159   */\n      dup3\n      add\n      not(0x1f)\n        /* \"#utility.yul\":4142:4164   */\n      swap1\n      dup2\n      and\n        /* \"#utility.yul\":4166:4168   */\n      0x3f\n        /* \"#utility.yul\":4138:4169   */\n      add\n        /* \"#utility.yul\":4134:4174   */\n      and\n        /* \"#utility.yul\":4122:4175   */\n      dup2\n      add\n      swap1\n        /* \"#utility.yul\":4190:4208   */\n      dup4\n      dup3\n      gt\n        /* \"#utility.yul\":4210:4232   */\n      dup2\n      dup4\n      lt\n        /* \"#utility.yul\":4187:4233   */\n      or\n        /* \"#utility.yul\":4184:4256   */\n      iszero\n      tag_503\n      jumpi\n        /* \"#utility.yul\":4236:4254   */\n      tag_503\n      tag_402\n      jump\t// in\n    tag_503:\n        /* \"#utility.yul\":4276:4286   */\n      dup2\n        /* \"#utility.yul\":4272:4274   */\n      0x40\n        /* \"#utility.yul\":4265:4287   */\n      mstore\n        /* \"#utility.yul\":4311:4313   */\n      dup3\n        /* \"#utility.yul\":4303:4309   */\n      dup2\n        /* \"#utility.yul\":4296:4314   */\n      mstore\n        /* \"#utility.yul\":4351:4358   */\n      dup11\n        /* \"#utility.yul\":4346:4348   */\n      0x20\n        /* \"#utility.yul\":4341:4343   */\n      dup5\n        /* \"#utility.yul\":4337:4339   */\n      dup8\n        /* \"#utility.yul\":4333:4344   */\n      add\n        /* \"#utility.yul\":4329:4349   */\n      add\n        /* \"#utility.yul\":4326:4359   */\n      gt\n        /* \"#utility.yul\":4323:4376   */\n      iszero\n      tag_504\n      jumpi\n        /* \"#utility.yul\":4372:4373   */\n      0x00\n        /* \"#utility.yul\":4369:4370   */\n      dup1\n        /* \"#utility.yul\":4362:4374   */\n      revert\n        /* \"#utility.yul\":4323:4376   */\n    tag_504:\n        /* \"#utility.yul\":4428:4430   */\n      dup3\n        /* \"#utility.yul\":4423:4425   */\n      0x20\n        /* \"#utility.yul\":4419:4421   */\n      dup7\n        /* \"#utility.yul\":4415:4426   */\n      add\n        /* \"#utility.yul\":4410:4412   */\n      0x20\n        /* \"#utility.yul\":4402:4408   */\n      dup4\n        /* \"#utility.yul\":4398:4413   */\n      add\n        /* \"#utility.yul\":4385:4431   */\n      calldatacopy\n        /* \"#utility.yul\":4473:4474   */\n      0x00\n        /* \"#utility.yul\":4468:4470   */\n      0x20\n        /* \"#utility.yul\":4463:4465   */\n      dup5\n        /* \"#utility.yul\":4455:4461   */\n      dup4\n        /* \"#utility.yul\":4451:4466   */\n      add\n        /* \"#utility.yul\":4447:4471   */\n      add\n        /* \"#utility.yul\":4440:4475   */\n      mstore\n        /* \"#utility.yul\":4494:4500   */\n      dup1\n        /* \"#utility.yul\":4484:4500   */\n      swap6\n      pop\n      pop\n      pop\n      pop\n      pop\n      pop\n        /* \"#utility.yul\":3368:4506   */\n      swap3\n      swap6\n      swap2\n      swap5\n      pop\n      swap3\n      pop\n      jump\t// out\n        /* \"#utility.yul\":4511:4771   */\n    tag_171:\n        /* \"#utility.yul\":4579:4585   */\n      0x00\n        /* \"#utility.yul\":4587:4593   */\n      dup1\n        /* \"#utility.yul\":4640:4642   */\n      0x40\n        /* \"#utility.yul\":4628:4637   */\n      dup4\n        /* \"#utility.yul\":4619:4626   */\n      dup6\n        /* \"#utility.yul\":4615:4638   */\n      sub\n        /* \"#utility.yul\":4611:4643   */\n      slt\n        /* \"#utility.yul\":4608:4660   */\n      iszero\n      tag_506\n      jumpi\n        /* \"#utility.yul\":4656:4657   */\n      0x00\n        /* \"#utility.yul\":4653:4654   */\n      dup1\n        /* \"#utility.yul\":4646:4658   */\n      revert\n        /* \"#utility.yul\":4608:4660   */\n    tag_506:\n        /* \"#utility.yul\":4679:4708   */\n      tag_507\n        /* \"#utility.yul\":4698:4707   */\n      dup4\n        /* \"#utility.yul\":4679:4708   */\n      tag_456\n      jump\t// in\n    tag_507:\n        /* \"#utility.yul\":4669:4708   */\n      swap2\n      pop\n        /* \"#utility.yul\":4727:4765   */\n      tag_508\n        /* \"#utility.yul\":4761:4763   */\n      0x20\n        /* \"#utility.yul\":4750:4759   */\n      dup5\n        /* \"#utility.yul\":4746:4764   */\n      add\n        /* \"#utility.yul\":4727:4765   */\n      tag_456\n      jump\t// in\n    tag_508:\n        /* \"#utility.yul\":4717:4765   */\n      swap1\n      pop\n        /* \"#utility.yul\":4511:4771   */\n      swap3\n      pop\n      swap3\n      swap1\n      pop\n      jump\t// out\n        /* \"#utility.yul\":4776:5156   */\n    tag_187:\n        /* \"#utility.yul\":4855:4856   */\n      0x01\n        /* \"#utility.yul\":4851:4863   */\n      dup2\n      dup2\n      shr\n      swap1\n        /* \"#utility.yul\":4898:4910   */\n      dup3\n      and\n      dup1\n        /* \"#utility.yul\":4919:4980   */\n      tag_510\n      jumpi\n        /* \"#utility.yul\":4973:4977   */\n      0x7f\n        /* \"#utility.yul\":4965:4971   */\n      dup3\n        /* \"#utility.yul\":4961:4978   */\n      and\n        /* \"#utility.yul\":4951:4978   */\n      swap2\n      pop\n        /* \"#utility.yul\":4919:4980   */\n    tag_510:\n        /* \"#utility.yul\":5026:5028   */\n      0x20\n        /* \"#utility.yul\":5018:5024   */\n      dup3\n        /* \"#utility.yul\":5015:5029   */\n      lt\n        /* \"#utility.yul\":4995:5013   */\n      dup2\n        /* \"#utility.yul\":4992:5030   */\n      sub\n        /* \"#utility.yul\":4989:5150   */\n      tag_511\n      jumpi\n        /* \"#utility.yul\":5072:5082   */\n      0x4e487b71\n        /* \"#utility.yul\":5067:5070   */\n      0xe0\n        /* \"#utility.yul\":5063:5083   */\n      shl\n        /* \"#utility.yul\":5060:5061   */\n      0x00\n        /* \"#utility.yul\":5053:5084   */\n      mstore\n        /* \"#utility.yul\":5107:5111   */\n      0x22\n        /* \"#utility.yul\":5104:5105   */\n      0x04\n        /* \"#utility.yul\":5097:5112   */\n      mstore\n        /* \"#utility.yul\":5135:5139   */\n      0x24\n        /* \"#utility.yul\":5132:5133   */\n      0x00\n        /* \"#utility.yul\":5125:5140   */\n      revert\n        /* \"#utility.yul\":4989:5150   */\n    tag_511:\n      pop\n        /* \"#utility.yul\":4776:5156   */\n      swap2\n      swap1\n      pop\n      jump\t// out\n        /* \"#utility.yul\":5853:5980   */\n    tag_457:\n        /* \"#utility.yul\":5914:5924   */\n      0x4e487b71\n        /* \"#utility.yul\":5909:5912   */\n      0xe0\n        /* \"#utility.yul\":5905:5925   */\n      shl\n        /* \"#utility.yul\":5902:5903   */\n      0x00\n        /* \"#utility.yul\":5895:5926   */\n      mstore\n        /* \"#utility.yul\":5945:5949   */\n      0x11\n        /* \"#utility.yul\":5942:5943   */\n      0x04\n        /* \"#utility.yul\":5935:5950   */\n      mstore\n        /* \"#utility.yul\":5969:5973   */\n      0x24\n        /* \"#utility.yul\":5966:5967   */\n      0x00\n        /* \"#utility.yul\":5959:5974   */\n      revert\n        /* \"#utility.yul\":5985:6153   */\n    tag_228:\n        /* \"#utility.yul\":6058:6067   */\n      dup1\n      dup3\n      mul\n        /* \"#utility.yul\":6089:6098   */\n      dup2\n      iszero\n        /* \"#utility.yul\":6106:6121   */\n      dup3\n      dup3\n      div\n        /* \"#utility.yul\":6100:6122   */\n      dup5\n      eq\n        /* \"#utility.yul\":6086:6123   */\n      or\n        /* \"#utility.yul\":6076:6147   */\n      tag_181\n      jumpi\n        /* \"#utility.yul\":6127:6145   */\n      tag_181\n      tag_457\n      jump\t// in\n        /* \"#utility.yul\":6504:6629   */\n    tag_235:\n        /* \"#utility.yul\":6569:6578   */\n      dup1\n      dup3\n      add\n        /* \"#utility.yul\":6590:6600   */\n      dup1\n      dup3\n      gt\n        /* \"#utility.yul\":6587:6623   */\n      iszero\n      tag_181\n      jumpi\n        /* \"#utility.yul\":6603:6621   */\n      tag_181\n      tag_457\n      jump\t// in\n        /* \"#utility.yul\":7326:7454   */\n    tag_251:\n        /* \"#utility.yul\":7393:7402   */\n      dup2\n      dup2\n      sub\n        /* \"#utility.yul\":7414:7425   */\n      dup2\n      dup2\n      gt\n        /* \"#utility.yul\":7411:7448   */\n      iszero\n      tag_181\n      jumpi\n        /* \"#utility.yul\":7428:7446   */\n      tag_181\n      tag_457\n      jump\t// in\n        /* \"#utility.yul\":7459:7594   */\n    tag_253:\n        /* \"#utility.yul\":7498:7501   */\n      0x00\n        /* \"#utility.yul\":7519:7536   */\n      0x01\n      dup3\n      add\n        /* \"#utility.yul\":7516:7559   */\n      tag_529\n      jumpi\n        /* \"#utility.yul\":7539:7557   */\n      tag_529\n      tag_457\n      jump\t// in\n    tag_529:\n      pop\n        /* \"#utility.yul\":7586:7587   */\n      0x01\n        /* \"#utility.yul\":7575:7588   */\n      add\n      swap1\n        /* \"#utility.yul\":7459:7594   */\n      jump\t// out\n        /* \"#utility.yul\":7959:8455   */\n    tag_305:\n        /* \"#utility.yul\":8138:8141   */\n      0x00\n        /* \"#utility.yul\":8176:8182   */\n      dup4\n        /* \"#utility.yul\":8170:8183   */\n      mload\n        /* \"#utility.yul\":8192:8258   */\n      tag_532\n        /* \"#utility.yul\":8251:8257   */\n      dup2\n        /* \"#utility.yul\":8246:8249   */\n      dup5\n        /* \"#utility.yul\":8239:8243   */\n      0x20\n        /* \"#utility.yul\":8231:8237   */\n      dup9\n        /* \"#utility.yul\":8227:8244   */\n      add\n        /* \"#utility.yul\":8192:8258   */\n      tag_454\n      jump\t// in\n    tag_532:\n        /* \"#utility.yul\":8321:8334   */\n      dup4\n      mload\n        /* \"#utility.yul\":8280:8296   */\n      swap1\n      dup4\n      add\n      swap1\n        /* \"#utility.yul\":8343:8413   */\n      tag_533\n        /* \"#utility.yul\":8321:8334   */\n      dup2\n        /* \"#utility.yul\":8280:8296   */\n      dup4\n        /* \"#utility.yul\":8390:8394   */\n      0x20\n        /* \"#utility.yul\":8378:8395   */\n      dup9\n      add\n        /* \"#utility.yul\":8343:8413   */\n      tag_454\n      jump\t// in\n    tag_533:\n        /* \"#utility.yul\":8429:8449   */\n      add\n      swap5\n        /* \"#utility.yul\":7959:8455   */\n      swap4\n      pop\n      pop\n      pop\n      pop\n      jump\t// out\n        /* \"#utility.yul\":10223:10712   */\n    tag_383:\n      sub(shl(0xa0, 0x01), 0x01)\n        /* \"#utility.yul\":10492:10507   */\n      dup6\n      dup2\n      and\n        /* \"#utility.yul\":10474:10508   */\n      dup3\n      mstore\n        /* \"#utility.yul\":10544:10559   */\n      dup5\n      and\n        /* \"#utility.yul\":10539:10541   */\n      0x20\n        /* \"#utility.yul\":10524:10542   */\n      dup3\n      add\n        /* \"#utility.yul\":10517:10560   */\n      mstore\n        /* \"#utility.yul\":10591:10593   */\n      0x40\n        /* \"#utility.yul\":10576:10594   */\n      dup2\n      add\n        /* \"#utility.yul\":10569:10603   */\n      dup4\n      swap1\n      mstore\n        /* \"#utility.yul\":10639:10642   */\n      0x80\n        /* \"#utility.yul\":10634:10636   */\n      0x60\n        /* \"#utility.yul\":10619:10637   */\n      dup3\n      add\n        /* \"#utility.yul\":10612:10643   */\n      dup2\n      swap1\n      mstore\n        /* \"#utility.yul\":10417:10421   */\n      0x00\n      swap1\n        /* \"#utility.yul\":10660:10706   */\n      tag_540\n      swap1\n        /* \"#utility.yul\":10686:10705   */\n      dup4\n      add\n        /* \"#utility.yul\":10678:10684   */\n      dup5\n        /* \"#utility.yul\":10660:10706   */\n      tag_455\n      jump\t// in\n    tag_540:\n        /* \"#utility.yul\":10652:10706   */\n      swap7\n        /* \"#utility.yul\":10223:10712   */\n      swap6\n      pop\n      pop\n      pop\n      pop\n      pop\n      pop\n      jump\t// out\n        /* \"#utility.yul\":10717:10966   */\n    tag_386:\n        /* \"#utility.yul\":10786:10792   */\n      0x00\n        /* \"#utility.yul\":10839:10841   */\n      0x20\n        /* \"#utility.yul\":10827:10836   */\n      dup3\n        /* \"#utility.yul\":10818:10825   */\n      dup5\n        /* \"#utility.yul\":10814:10837   */\n      sub\n        /* \"#utility.yul\":10810:10842   */\n      slt\n        /* \"#utility.yul\":10807:10859   */\n      iszero\n      tag_542\n      jumpi\n        /* \"#utility.yul\":10855:10856   */\n      0x00\n        /* \"#utility.yul\":10852:10853   */\n      dup1\n        /* \"#utility.yul\":10845:10857   */\n      revert\n        /* \"#utility.yul\":10807:10859   */\n    tag_542:\n        /* \"#utility.yul\":10887:10896   */\n      dup2\n        /* \"#utility.yul\":10881:10897   */\n      mload\n        /* \"#utility.yul\":10906:10936   */\n      tag_301\n        /* \"#utility.yul\":10930:10935   */\n      dup2\n        /* \"#utility.yul\":10906:10936   */\n      tag_453\n      jump\t// in\n    stop\n    data_bad8c5b7513efa3484aff4751176e1559e99e0aac6100695fa19afecc4f7431d 697066733a2f2f516d62736552544a5753734c666873695777754232523745744e39335478666f614d7a31533546587473464555422f\n\n    auxdata: 0xa2646970667358221220828fc8003228577cd24ee510aba51fdc6fa0ba9917fdf4227456a06df9a78d0064736f6c63430008120033\n}\n",
				"bytecode": {
					"linkReferences": {},
					"object": "60806040523480156200001157600080fd5b506040518060400160405280600c81526020016b576562334275696c6465727360a01b8152506040518060400160405280600381526020016257453360e81b8152508160029081620000649190620001a4565b506003620000738282620001a4565b505060008055506200008533620000ad565b600a80546001600160a01b03191630179055620000a460b44262000270565b60095562000298565b600880546001600160a01b038381166001600160a01b0319831681179093556040519116919082907f8be0079c531659141344cd1fd0a4f28419497f9722a3daafe3b4186f6b6457e090600090a35050565b634e487b7160e01b600052604160045260246000fd5b600181811c908216806200012a57607f821691505b6020821081036200014b57634e487b7160e01b600052602260045260246000fd5b50919050565b601f8211156200019f57600081815260208120601f850160051c810160208610156200017a5750805b601f850160051c820191505b818110156200019b5782815560010162000186565b5050505b505050565b81516001600160401b03811115620001c057620001c0620000ff565b620001d881620001d1845462000115565b8462000151565b602080601f831160018114620002105760008415620001f75750858301515b600019600386901b1c1916600185901b1785556200019b565b600085815260208120601f198616915b82811015620002415788860151825594840194600190910190840162000220565b5085821015620002605787850151600019600388901b60f8161c191681555b5050505050600190811b01905550565b808201808211156200029257634e487b7160e01b600052601160045260246000fd5b92915050565b611b3180620002a86000396000f3fe6080604052600436106101cd5760003560e01c806370a08231116100f7578063c23fcdef11610095578063d64297f911610064578063d64297f9146104fb578063e5496fc814610528578063e985e9c514610548578063f2fde38b1461056857600080fd5b8063c23fcdef14610481578063c285e107146104b1578063c87b56dd146104c6578063d304c4bc146104e657600080fd5b806395d89b41116100d157806395d89b4114610417578063a22cb4651461042c578063a6a3b5b41461044c578063b88d4fde1461046157600080fd5b806370a08231146103c4578063715018a6146103e45780638da5cb5b146103f957600080fd5b806323b872dd1161016f57806342842e0e1161013e57806342842e0e146103525780636352211e146103725780636817c76c146103925780636f1d10ce146103ae57600080fd5b806323b872dd146102ea578063278ecde11461030a57806331c864e81461032a5780633ccfd60b1461033d57600080fd5b8063081812fc116101ab578063081812fc14610257578063095ea7b31461028f5780630cb61f6c146102b157806318160ddd146102d157600080fd5b806301ffc9a7146101d257806304cd52941461020757806306fdde0314610235575b600080fd5b3480156101de57600080fd5b506101f26101ed3660046116ff565b610588565b60405190151581526020015b60405180910390f35b34801561021357600080fd5b5061022761022236600461171c565b6105da565b6040519081526020016101fe565b34801561024157600080fd5b5061024a610608565b6040516101fe9190611785565b34801561026357600080fd5b5061027761027236600461171c565b61069a565b6040516001600160a01b0390911681526020016101fe565b34801561029b57600080fd5b506102af6102aa3660046117b4565b6106de565b005b3480156102bd57600080fd5b50600a54610277906001600160a01b031681565b3480156102dd57600080fd5b5060015460005403610227565b3480156102f657600080fd5b506102af6103053660046117de565b61076b565b34801561031657600080fd5b506102af61032536600461171c565b610776565b6102af61033836600461171c565b610870565b34801561034957600080fd5b506102af6109e1565b34801561035e57600080fd5b506102af61036d3660046117de565b610a48565b34801561037e57600080fd5b5061027761038d36600461171c565b610a63565b34801561039e57600080fd5b50610227670de0b6b3a764000081565b3480156103ba57600080fd5b5061022760095481565b3480156103d057600080fd5b506102276103df36600461181a565b610a75565b3480156103f057600080fd5b506102af610ac4565b34801561040557600080fd5b506008546001600160a01b0316610277565b34801561042357600080fd5b5061024a610ad8565b34801561043857600080fd5b506102af610447366004611835565b610ae7565b34801561045857600080fd5b5061022760b481565b34801561046d57600080fd5b506102af61047c366004611887565b610b7c565b34801561048d57600080fd5b506101f261049c36600461171c565b600c6020526000908152604090205460ff1681565b3480156104bd57600080fd5b50610227606481565b3480156104d257600080fd5b5061024a6104e136600461171c565b610bcd565b3480156104f257600080fd5b50610227600581565b34801561050757600080fd5b5061022761051636600461171c565b600b6020526000908152604090205481565b34801561053457600080fd5b5061022761054336600461171c565b610c51565b34801561055457600080fd5b506101f2610563366004611963565b610c83565b34801561057457600080fd5b506102af61058336600461181a565b610cb1565b60006001600160e01b031982166380ac58cd60e01b14806105b957506001600160e01b03198216635b5e139f60e01b145b806105d457506301ffc9a760e01b6001600160e01b03198316145b92915050565b6000818152600c602052604081205460ff16156105f957506000919050565b50670de0b6b3a7640000919050565b60606002805461061790611996565b80601f016020809104026020016040519081016040528092919081815260200182805461064390611996565b80156106905780601f1061066557610100808354040283529160200191610690565b820191906000526020600020905b81548152906001019060200180831161067357829003601f168201915b5050505050905090565b60006106a582610d27565b6106c2576040516333d1c03960e21b815260040160405180910390fd5b506000908152600660205260409020546001600160a01b031690565b60006106e982610a63565b9050806001600160a01b0316836001600160a01b03160361071d5760405163250fdee360e21b815260040160405180910390fd5b336001600160a01b0382161480159061073d575061073b8133610c83565b155b1561075b576040516367d9dca160e11b815260040160405180910390fd5b610766838383610d52565b505050565b610766838383610dae565b61077f81610c51565b42106107cb5760405162461bcd60e51b81526020600482015260166024820152752932b33ab732102832b934b7b21022bc3834b932b21760511b60448201526064015b60405180910390fd5b6107d481610a63565b6001600160a01b0316336001600160a01b0316146108235760405162461bcd60e51b815260206004820152600c60248201526b139bdd081e5bdd5c8813919560a21b60448201526064016107c2565b600061082e826105da565b600a549091506108499033906001600160a01b031684610dae565b6000828152600c60205260409020805460ff1916600117905561086c3382610f9e565b5050565b61088281670de0b6b3a76400006119e6565b3410156108c55760405162461bcd60e51b81526020600482015260116024820152702737ba1032b737bab3b410333ab732399760791b60448201526064016107c2565b336000908152600560208190526040909120548290600160401b900467ffffffffffffffff166108f591906119fd565b11156109305760405162461bcd60e51b815260206004820152600a602482015269135a5b9d08131a5b5a5d60b21b60448201526064016107c2565b606461093b60005490565b11156109895760405162461bcd60e51b815260206004820152601860248201527f537570706c79204578636565642e20536f6c64206f75742e000000000000000060448201526064016107c2565b61099333826110b7565b61099e60b4426119fd565b600955600080546109b0908390611a10565b90505b60005481101561086c576009546000828152600b6020526040902055806109d981611a23565b9150506109b3565b6109e96110d1565b6009544211610a3a5760405162461bcd60e51b815260206004820152601f60248201527f49742773206e6f7420706173742074686520726566756e6420706572696f640060448201526064016107c2565b47610a453382610f9e565b50565b61076683838360405180602001604052806000815250610b7c565b6000610a6e8261112b565b5192915050565b60006001600160a01b038216610a9e576040516323d3ad8160e21b815260040160405180910390fd5b506001600160a01b031660009081526005602052604090205467ffffffffffffffff1690565b610acc6110d1565b610ad66000611247565b565b60606003805461061790611996565b336001600160a01b03831603610b105760405163b06307db60e01b815260040160405180910390fd5b3360008181526007602090815260408083206001600160a01b03871680855290835292819020805460ff191686151590811790915590519081529192917f17307eab39ab6107e8899845ad3d59bd9653f200f220920489ca2b5937696c31910160405180910390a35050565b610b87848484610dae565b6001600160a01b0383163b15158015610ba95750610ba784848484611299565b155b15610bc7576040516368d2bf6b60e11b815260040160405180910390fd5b50505050565b6060610bd882610d27565b610bf557604051630a14c4b560e41b815260040160405180910390fd5b6000610bff611384565b90508051600003610c1f5760405180602001604052806000815250610c4a565b80610c29846113a4565b604051602001610c3a929190611a3c565b6040516020818303038152906040525b9392505050565b6000818152600c602052604081205460ff1615610c7057506000919050565b506000908152600b602052604090205490565b6001600160a01b03918216600090815260076020908152604080832093909416825291909152205460ff1690565b610cb96110d1565b6001600160a01b038116610d1e5760405162461bcd60e51b815260206004820152602660248201527f4f776e61626c653a206e6577206f776e657220697320746865207a65726f206160448201526564647265737360d01b60648201526084016107c2565b610a4581611247565b60008054821080156105d4575050600090815260046020526040902054600160e01b900460ff161590565b60008281526006602052604080822080546001600160a01b0319166001600160a01b0387811691821790925591518593918516917f8c5be1e5ebec7d5bd14f71427d1e84f3dd0314c0f7b2291e5b200ac8c7c3b92591a4505050565b6000610db98261112b565b9050836001600160a01b031681600001516001600160a01b031614610df05760405162a1148160e81b815260040160405180910390fd5b6000336001600160a01b0386161480610e0e5750610e0e8533610c83565b80610e29575033610e1e8461069a565b6001600160a01b0316145b905080610e4957604051632ce44b5f60e11b815260040160405180910390fd5b6001600160a01b038416610e7057604051633a954ecd60e21b815260040160405180910390fd5b610e7c60008487610d52565b6001600160a01b038581166000908152600560209081526040808320805467ffffffffffffffff1980821667ffffffffffffffff92831660001901831617909255898616808652838620805493841693831660019081018416949094179055898652600490945282852080546001600160e01b031916909417600160a01b42909216919091021783558701808452922080549193909116610f52576000548214610f52578054602086015167ffffffffffffffff16600160a01b026001600160e01b03199091166001600160a01b038a16171781555b50505082846001600160a01b0316866001600160a01b03167fddf252ad1be2c89b69c2b068fc378daa952ba7f163c4a11628f55a4df523b3ef60405160405180910390a45b5050505050565b80471015610fee5760405162461bcd60e51b815260206004820152601d60248201527f416464726573733a20696e73756666696369656e742062616c616e636500000060448201526064016107c2565b6000826001600160a01b03168260405160006040518083038185875af1925050503d806000811461103b576040519150601f19603f3d011682016040523d82523d6000602084013e611040565b606091505b50509050806107665760405162461bcd60e51b815260206004820152603a60248201527f416464726573733a20756e61626c6520746f2073656e642076616c75652c207260448201527f6563697069656e74206d6179206861766520726576657274656400000000000060648201526084016107c2565b61086c828260405180602001604052806000815250611437565b6008546001600160a01b03163314610ad65760405162461bcd60e51b815260206004820181905260248201527f4f776e61626c653a2063616c6c6572206973206e6f7420746865206f776e657260448201526064016107c2565b60408051606081018252600080825260208201819052918101919091528160005481101561122e57600081815260046020908152604091829020825160608101845290546001600160a01b0381168252600160a01b810467ffffffffffffffff1692820192909252600160e01b90910460ff1615159181018290529061122c5780516001600160a01b0316156111c2579392505050565b5060001901600081815260046020908152604091829020825160608101845290546001600160a01b038116808352600160a01b820467ffffffffffffffff1693830193909352600160e01b900460ff1615159281019290925215611227579392505050565b6111c2565b505b604051636f96cda160e11b815260040160405180910390fd5b600880546001600160a01b038381166001600160a01b0319831681179093556040519116919082907f8be0079c531659141344cd1fd0a4f28419497f9722a3daafe3b4186f6b6457e090600090a35050565b604051630a85bd0160e11b81526000906001600160a01b0385169063150b7a02906112ce903390899088908890600401611a6b565b6020604051808303816000875af1925050508015611309575060408051601f3d908101601f1916820190925261130691810190611aa8565b60015b611367573d808015611337576040519150601f19603f3d011682016040523d82523d6000602084013e61133c565b606091505b50805160000361135f576040516368d2bf6b60e11b815260040160405180910390fd5b805181602001fd5b6001600160e01b031916630a85bd0160e11b149050949350505050565b6060604051806060016040528060368152602001611ac660369139905090565b606060006113b183611444565b600101905060008167ffffffffffffffff8111156113d1576113d1611871565b6040519080825280601f01601f1916602001820160405280156113fb576020820181803683370190505b5090508181016020015b600019016f181899199a1a9b1b9c1cb0b131b232b360811b600a86061a8153600a850494508461140557509392505050565b610766838383600161151c565b60008072184f03e93ff9f4daa797ed6e38ed64bf6a1f0160401b83106114835772184f03e93ff9f4daa797ed6e38ed64bf6a1f0160401b830492506040015b6d04ee2d6d415b85acef810000000083106114af576d04ee2d6d415b85acef8100000000830492506020015b662386f26fc1000083106114cd57662386f26fc10000830492506010015b6305f5e10083106114e5576305f5e100830492506008015b61271083106114f957612710830492506004015b6064831061150b576064830492506002015b600a83106105d45760010192915050565b6000546001600160a01b03851661154557604051622e076360e81b815260040160405180910390fd5b836000036115665760405163b562e8dd60e01b815260040160405180910390fd5b6001600160a01b038516600081815260056020908152604080832080546fffffffffffffffffffffffffffffffff19811667ffffffffffffffff8083168c018116918217600160401b67ffffffffffffffff1990941690921783900481168c01811690920217909155858452600490925290912080546001600160e01b031916909217600160a01b42909216919091021790558080850183801561161357506001600160a01b0387163b15155b1561169b575b60405182906001600160a01b038916906000907fddf252ad1be2c89b69c2b068fc378daa952ba7f163c4a11628f55a4df523b3ef908290a46116646000888480600101955088611299565b611681576040516368d2bf6b60e11b815260040160405180910390fd5b80820361161957826000541461169657600080fd5b6116e0565b5b6040516001830192906001600160a01b038916906000907fddf252ad1be2c89b69c2b068fc378daa952ba7f163c4a11628f55a4df523b3ef908290a480820361169c575b50600055610f97565b6001600160e01b031981168114610a4557600080fd5b60006020828403121561171157600080fd5b8135610c4a816116e9565b60006020828403121561172e57600080fd5b5035919050565b60005b83811015611750578181015183820152602001611738565b50506000910152565b60008151808452611771816020860160208601611735565b601f01601f19169290920160200192915050565b602081526000610c4a6020830184611759565b80356001600160a01b03811681146117af57600080fd5b919050565b600080604083850312156117c757600080fd5b6117d083611798565b946020939093013593505050565b6000806000606084860312156117f357600080fd5b6117fc84611798565b925061180a60208501611798565b9150604084013590509250925092565b60006020828403121561182c57600080fd5b610c4a82611798565b6000806040838503121561184857600080fd5b61185183611798565b91506020830135801515811461186657600080fd5b809150509250929050565b634e487b7160e01b600052604160045260246000fd5b6000806000806080858703121561189d57600080fd5b6118a685611798565b93506118b460208601611798565b925060408501359150606085013567ffffffffffffffff808211156118d857600080fd5b818701915087601f8301126118ec57600080fd5b8135818111156118fe576118fe611871565b604051601f8201601f19908116603f0116810190838211818310171561192657611926611871565b816040528281528a602084870101111561193f57600080fd5b82602086016020830137600060208483010152809550505050505092959194509250565b6000806040838503121561197657600080fd5b61197f83611798565b915061198d60208401611798565b90509250929050565b600181811c908216806119aa57607f821691505b6020821081036119ca57634e487b7160e01b600052602260045260246000fd5b50919050565b634e487b7160e01b600052601160045260246000fd5b80820281158282048414176105d4576105d46119d0565b808201808211156105d4576105d46119d0565b818103818111156105d4576105d46119d0565b600060018201611a3557611a356119d0565b5060010190565b60008351611a4e818460208801611735565b835190830190611a62818360208801611735565b01949350505050565b6001600160a01b0385811682528416602082015260408101839052608060608201819052600090611a9e90830184611759565b9695505050505050565b600060208284031215611aba57600080fd5b8151610c4a816116e956fe697066733a2f2f516d62736552544a5753734c666873695777754232523745744e39335478666f614d7a31533546587473464555422fa2646970667358221220828fc8003228577cd24ee510aba51fdc6fa0ba9917fdf4227456a06df9a78d0064736f6c63430008120033",
					"opcodes": "PUSH1 0x80 PUSH1 0x40 MSTORE CALLVALUE DUP1 ISZERO PUSH3 0x11 JUMPI PUSH1 0x0 DUP1 REVERT JUMPDEST POP PUSH1 0x40 MLOAD DUP1 PUSH1 0x40 ADD PUSH1 0x40 MSTORE DUP1 PUSH1 0xC DUP2 MSTORE PUSH1 0x20 ADD PUSH12 0x576562334275696C64657273 PUSH1 0xA0 SHL DUP2 MSTORE POP PUSH1 0x40 MLOAD DUP1 PUSH1 0x40 ADD PUSH1 0x40 MSTORE DUP1 PUSH1 0x3 DUP2 MSTORE PUSH1 0x20 ADD PUSH3 0x574533 PUSH1 0xE8 SHL DUP2 MSTORE POP DUP2 PUSH1 0x2 SWAP1 DUP2 PUSH3 0x64 SWAP2 SWAP1 PUSH3 0x1A4 JUMP JUMPDEST POP PUSH1 0x3 PUSH3 0x73 DUP3 DUP3 PUSH3 0x1A4 JUMP JUMPDEST POP POP PUSH1 0x0 DUP1 SSTORE POP PUSH3 0x85 CALLER PUSH3 0xAD JUMP JUMPDEST PUSH1 0xA DUP1 SLOAD PUSH1 0x1 PUSH1 0x1 PUSH1 0xA0 SHL SUB NOT AND ADDRESS OR SWAP1 SSTORE PUSH3 0xA4 PUSH1 0xB4 TIMESTAMP PUSH3 0x270 JUMP JUMPDEST PUSH1 0x9 SSTORE PUSH3 0x298 JUMP JUMPDEST PUSH1 0x8 DUP1 SLOAD PUSH1 0x1 PUSH1 0x1 PUSH1 0xA0 SHL SUB DUP4 DUP2 AND PUSH1 0x1 PUSH1 0x1 PUSH1 0xA0 SHL SUB NOT DUP4 AND DUP2 OR SWAP1 SWAP4 SSTORE PUSH1 0x40 MLOAD SWAP2 AND SWAP2 SWAP1 DUP3 SWAP1 PUSH32 0x8BE0079C531659141344CD1FD0A4F28419497F9722A3DAAFE3B4186F6B6457E0 SWAP1 PUSH1 0x0 SWAP1 LOG3 POP POP JUMP JUMPDEST PUSH4 0x4E487B71 PUSH1 0xE0 SHL PUSH1 0x0 MSTORE PUSH1 0x41 PUSH1 0x4 MSTORE PUSH1 0x24 PUSH1 0x0 REVERT JUMPDEST PUSH1 0x1 DUP2 DUP2 SHR SWAP1 DUP3 AND DUP1 PUSH3 0x12A JUMPI PUSH1 0x7F DUP3 AND SWAP2 POP JUMPDEST PUSH1 0x20 DUP3 LT DUP2 SUB PUSH3 0x14B JUMPI PUSH4 0x4E487B71 PUSH1 0xE0 SHL PUSH1 0x0 MSTORE PUSH1 0x22 PUSH1 0x4 MSTORE PUSH1 0x24 PUSH1 0x0 REVERT JUMPDEST POP SWAP2 SWAP1 POP JUMP JUMPDEST PUSH1 0x1F DUP3 GT ISZERO PUSH3 0x19F JUMPI PUSH1 0x0 DUP2 DUP2 MSTORE PUSH1 0x20 DUP2 KECCAK256 PUSH1 0x1F DUP6 ADD PUSH1 0x5 SHR DUP2 ADD PUSH1 0x20 DUP7 LT ISZERO PUSH3 0x17A JUMPI POP DUP1 JUMPDEST PUSH1 0x1F DUP6 ADD PUSH1 0x5 SHR DUP3 ADD SWAP2 POP JUMPDEST DUP2 DUP2 LT ISZERO PUSH3 0x19B JUMPI DUP3 DUP2 SSTORE PUSH1 0x1 ADD PUSH3 0x186 JUMP JUMPDEST POP POP POP JUMPDEST POP POP POP JUMP JUMPDEST DUP2 MLOAD PUSH1 0x1 PUSH1 0x1 PUSH1 0x40 SHL SUB DUP2 GT ISZERO PUSH3 0x1C0 JUMPI PUSH3 0x1C0 PUSH3 0xFF JUMP JUMPDEST PUSH3 0x1D8 DUP2 PUSH3 0x1D1 DUP5 SLOAD PUSH3 0x115 JUMP JUMPDEST DUP5 PUSH3 0x151 JUMP JUMPDEST PUSH1 0x20 DUP1 PUSH1 0x1F DUP4 GT PUSH1 0x1 DUP2 EQ PUSH3 0x210 JUMPI PUSH1 0x0 DUP5 ISZERO PUSH3 0x1F7 JUMPI POP DUP6 DUP4 ADD MLOAD JUMPDEST PUSH1 0x0 NOT PUSH1 0x3 DUP7 SWAP1 SHL SHR NOT AND PUSH1 0x1 DUP6 SWAP1 SHL OR DUP6 SSTORE PUSH3 0x19B JUMP JUMPDEST PUSH1 0x0 DUP6 DUP2 MSTORE PUSH1 0x20 DUP2 KECCAK256 PUSH1 0x1F NOT DUP7 AND SWAP2 JUMPDEST DUP3 DUP2 LT ISZERO PUSH3 0x241 JUMPI DUP9 DUP7 ADD MLOAD DUP3 SSTORE SWAP5 DUP5 ADD SWAP5 PUSH1 0x1 SWAP1 SWAP2 ADD SWAP1 DUP5 ADD PUSH3 0x220 JUMP JUMPDEST POP DUP6 DUP3 LT ISZERO PUSH3 0x260 JUMPI DUP8 DUP6 ADD MLOAD PUSH1 0x0 NOT PUSH1 0x3 DUP9 SWAP1 SHL PUSH1 0xF8 AND SHR NOT AND DUP2 SSTORE JUMPDEST POP POP POP POP POP PUSH1 0x1 SWAP1 DUP2 SHL ADD SWAP1 SSTORE POP JUMP JUMPDEST DUP1 DUP3 ADD DUP1 DUP3 GT ISZERO PUSH3 0x292 JUMPI PUSH4 0x4E487B71 PUSH1 0xE0 SHL PUSH1 0x0 MSTORE PUSH1 0x11 PUSH1 0x4 MSTORE PUSH1 0x24 PUSH1 0x0 REVERT JUMPDEST SWAP3 SWAP2 POP POP JUMP JUMPDEST PUSH2 0x1B31 DUP1 PUSH3 0x2A8 PUSH1 0x0 CODECOPY PUSH1 0x0 RETURN INVALID PUSH1 0x80 PUSH1 0x40 MSTORE PUSH1 0x4 CALLDATASIZE LT PUSH2 0x1CD JUMPI PUSH1 0x0 CALLDATALOAD PUSH1 0xE0 SHR DUP1 PUSH4 0x70A08231 GT PUSH2 0xF7 JUMPI DUP1 PUSH4 0xC23FCDEF GT PUSH2 0x95 JUMPI DUP1 PUSH4 0xD64297F9 GT PUSH2 0x64 JUMPI DUP1 PUSH4 0xD64297F9 EQ PUSH2 0x4FB JUMPI DUP1 PUSH4 0xE5496FC8 EQ PUSH2 0x528 JUMPI DUP1 PUSH4 0xE985E9C5 EQ PUSH2 0x548 JUMPI DUP1 PUSH4 0xF2FDE38B EQ PUSH2 0x568 JUMPI PUSH1 0x0 DUP1 REVERT JUMPDEST DUP1 PUSH4 0xC23FCDEF EQ PUSH2 0x481 JUMPI DUP1 PUSH4 0xC285E107 EQ PUSH2 0x4B1 JUMPI DUP1 PUSH4 0xC87B56DD EQ PUSH2 0x4C6 JUMPI DUP1 PUSH4 0xD304C4BC EQ PUSH2 0x4E6 JUMPI PUSH1 0x0 DUP1 REVERT JUMPDEST DUP1 PUSH4 0x95D89B41 GT PUSH2 0xD1 JUMPI DUP1 PUSH4 0x95D89B41 EQ PUSH2 0x417 JUMPI DUP1 PUSH4 0xA22CB465 EQ PUSH2 0x42C JUMPI DUP1 PUSH4 0xA6A3B5B4 EQ PUSH2 0x44C JUMPI DUP1 PUSH4 0xB88D4FDE EQ PUSH2 0x461 JUMPI PUSH1 0x0 DUP1 REVERT JUMPDEST DUP1 PUSH4 0x70A08231 EQ PUSH2 0x3C4 JUMPI DUP1 PUSH4 0x715018A6 EQ PUSH2 0x3E4 JUMPI DUP1 PUSH4 0x8DA5CB5B EQ PUSH2 0x3F9 JUMPI PUSH1 0x0 DUP1 REVERT JUMPDEST DUP1 PUSH4 0x23B872DD GT PUSH2 0x16F JUMPI DUP1 PUSH4 0x42842E0E GT PUSH2 0x13E JUMPI DUP1 PUSH4 0x42842E0E EQ PUSH2 0x352 JUMPI DUP1 PUSH4 0x6352211E EQ PUSH2 0x372 JUMPI DUP1 PUSH4 0x6817C76C EQ PUSH2 0x392 JUMPI DUP1 PUSH4 0x6F1D10CE EQ PUSH2 0x3AE JUMPI PUSH1 0x0 DUP1 REVERT JUMPDEST DUP1 PUSH4 0x23B872DD EQ PUSH2 0x2EA JUMPI DUP1 PUSH4 0x278ECDE1 EQ PUSH2 0x30A JUMPI DUP1 PUSH4 0x31C864E8 EQ PUSH2 0x32A JUMPI DUP1 PUSH4 0x3CCFD60B EQ PUSH2 0x33D JUMPI PUSH1 0x0 DUP1 REVERT JUMPDEST DUP1 PUSH4 0x81812FC GT PUSH2 0x1AB JUMPI DUP1 PUSH4 0x81812FC EQ PUSH2 0x257 JUMPI DUP1 PUSH4 0x95EA7B3 EQ PUSH2 0x28F JUMPI DUP1 PUSH4 0xCB61F6C EQ PUSH2 0x2B1 JUMPI DUP1 PUSH4 0x18160DDD EQ PUSH2 0x2D1 JUMPI PUSH1 0x0 DUP1 REVERT JUMPDEST DUP1 PUSH4 0x1FFC9A7 EQ PUSH2 0x1D2 JUMPI DUP1 PUSH4 0x4CD5294 EQ PUSH2 0x207 JUMPI DUP1 PUSH4 0x6FDDE03 EQ PUSH2 0x235 JUMPI JUMPDEST PUSH1 0x0 DUP1 REVERT JUMPDEST CALLVALUE DUP1 ISZERO PUSH2 0x1DE JUMPI PUSH1 0x0 DUP1 REVERT JUMPDEST POP PUSH2 0x1F2 PUSH2 0x1ED CALLDATASIZE PUSH1 0x4 PUSH2 0x16FF JUMP JUMPDEST PUSH2 0x588 JUMP JUMPDEST PUSH1 0x40 MLOAD SWAP1 ISZERO ISZERO DUP2 MSTORE PUSH1 0x20 ADD JUMPDEST PUSH1 0x40 MLOAD DUP1 SWAP2 SUB SWAP1 RETURN JUMPDEST CALLVALUE DUP1 ISZERO PUSH2 0x213 JUMPI PUSH1 0x0 DUP1 REVERT JUMPDEST POP PUSH2 0x227 PUSH2 0x222 CALLDATASIZE PUSH1 0x4 PUSH2 0x171C JUMP JUMPDEST PUSH2 0x5DA JUMP JUMPDEST PUSH1 0x40 MLOAD SWAP1 DUP2 MSTORE PUSH1 0x20 ADD PUSH2 0x1FE JUMP JUMPDEST CALLVALUE DUP1 ISZERO PUSH2 0x241 JUMPI PUSH1 0x0 DUP1 REVERT JUMPDEST POP PUSH2 0x24A PUSH2 0x608 JUMP JUMPDEST PUSH1 0x40 MLOAD PUSH2 0x1FE SWAP2 SWAP1 PUSH2 0x1785 JUMP JUMPDEST CALLVALUE DUP1 ISZERO PUSH2 0x263 JUMPI PUSH1 0x0 DUP1 REVERT JUMPDEST POP PUSH2 0x277 PUSH2 0x272 CALLDATASIZE PUSH1 0x4 PUSH2 0x171C JUMP JUMPDEST PUSH2 0x69A JUMP JUMPDEST PUSH1 0x40 MLOAD PUSH1 0x1 PUSH1 0x1 PUSH1 0xA0 SHL SUB SWAP1 SWAP2 AND DUP2 MSTORE PUSH1 0x20 ADD PUSH2 0x1FE JUMP JUMPDEST CALLVALUE DUP1 ISZERO PUSH2 0x29B JUMPI PUSH1 0x0 DUP1 REVERT JUMPDEST POP PUSH2 0x2AF PUSH2 0x2AA CALLDATASIZE PUSH1 0x4 PUSH2 0x17B4 JUMP JUMPDEST PUSH2 0x6DE JUMP JUMPDEST STOP JUMPDEST CALLVALUE DUP1 ISZERO PUSH2 0x2BD JUMPI PUSH1 0x0 DUP1 REVERT JUMPDEST POP PUSH1 0xA SLOAD PUSH2 0x277 SWAP1 PUSH1 0x1 PUSH1 0x1 PUSH1 0xA0 SHL SUB AND DUP2 JUMP JUMPDEST CALLVALUE DUP1 ISZERO PUSH2 0x2DD JUMPI PUSH1 0x0 DUP1 REVERT JUMPDEST POP PUSH1 0x1 SLOAD PUSH1 0x0 SLOAD SUB PUSH2 0x227 JUMP JUMPDEST CALLVALUE DUP1 ISZERO PUSH2 0x2F6 JUMPI PUSH1 0x0 DUP1 REVERT JUMPDEST POP PUSH2 0x2AF PUSH2 0x305 CALLDATASIZE PUSH1 0x4 PUSH2 0x17DE JUMP JUMPDEST PUSH2 0x76B JUMP JUMPDEST CALLVALUE DUP1 ISZERO PUSH2 0x316 JUMPI PUSH1 0x0 DUP1 REVERT JUMPDEST POP PUSH2 0x2AF PUSH2 0x325 CALLDATASIZE PUSH1 0x4 PUSH2 0x171C JUMP JUMPDEST PUSH2 0x776 JUMP JUMPDEST PUSH2 0x2AF PUSH2 0x338 CALLDATASIZE PUSH1 0x4 PUSH2 0x171C JUMP JUMPDEST PUSH2 0x870 JUMP JUMPDEST CALLVALUE DUP1 ISZERO PUSH2 0x349 JUMPI PUSH1 0x0 DUP1 REVERT JUMPDEST POP PUSH2 0x2AF PUSH2 0x9E1 JUMP JUMPDEST CALLVALUE DUP1 ISZERO PUSH2 0x35E JUMPI PUSH1 0x0 DUP1 REVERT JUMPDEST POP PUSH2 0x2AF PUSH2 0x36D CALLDATASIZE PUSH1 0x4 PUSH2 0x17DE JUMP JUMPDEST PUSH2 0xA48 JUMP JUMPDEST CALLVALUE DUP1 ISZERO PUSH2 0x37E JUMPI PUSH1 0x0 DUP1 REVERT JUMPDEST POP PUSH2 0x277 PUSH2 0x38D CALLDATASIZE PUSH1 0x4 PUSH2 0x171C JUMP JUMPDEST PUSH2 0xA63 JUMP JUMPDEST CALLVALUE DUP1 ISZERO PUSH2 0x39E JUMPI PUSH1 0x0 DUP1 REVERT JUMPDEST POP PUSH2 0x227 PUSH8 0xDE0B6B3A7640000 DUP2 JUMP JUMPDEST CALLVALUE DUP1 ISZERO PUSH2 0x3BA JUMPI PUSH1 0x0 DUP1 REVERT JUMPDEST POP PUSH2 0x227 PUSH1 0x9 SLOAD DUP2 JUMP JUMPDEST CALLVALUE DUP1 ISZERO PUSH2 0x3D0 JUMPI PUSH1 0x0 DUP1 REVERT JUMPDEST POP PUSH2 0x227 PUSH2 0x3DF CALLDATASIZE PUSH1 0x4 PUSH2 0x181A JUMP JUMPDEST PUSH2 0xA75 JUMP JUMPDEST CALLVALUE DUP1 ISZERO PUSH2 0x3F0 JUMPI PUSH1 0x0 DUP1 REVERT JUMPDEST POP PUSH2 0x2AF PUSH2 0xAC4 JUMP JUMPDEST CALLVALUE DUP1 ISZERO PUSH2 0x405 JUMPI PUSH1 0x0 DUP1 REVERT JUMPDEST POP PUSH1 0x8 SLOAD PUSH1 0x1 PUSH1 0x1 PUSH1 0xA0 SHL SUB AND PUSH2 0x277 JUMP JUMPDEST CALLVALUE DUP1 ISZERO PUSH2 0x423 JUMPI PUSH1 0x0 DUP1 REVERT JUMPDEST POP PUSH2 0x24A PUSH2 0xAD8 JUMP JUMPDEST CALLVALUE DUP1 ISZERO PUSH2 0x438 JUMPI PUSH1 0x0 DUP1 REVERT JUMPDEST POP PUSH2 0x2AF PUSH2 0x447 CALLDATASIZE PUSH1 0x4 PUSH2 0x1835 JUMP JUMPDEST PUSH2 0xAE7 JUMP JUMPDEST CALLVALUE DUP1 ISZERO PUSH2 0x458 JUMPI PUSH1 0x0 DUP1 REVERT JUMPDEST POP PUSH2 0x227 PUSH1 0xB4 DUP2 JUMP JUMPDEST CALLVALUE DUP1 ISZERO PUSH2 0x46D JUMPI PUSH1 0x0 DUP1 REVERT JUMPDEST POP PUSH2 0x2AF PUSH2 0x47C CALLDATASIZE PUSH1 0x4 PUSH2 0x1887 JUMP JUMPDEST PUSH2 0xB7C JUMP JUMPDEST CALLVALUE DUP1 ISZERO PUSH2 0x48D JUMPI PUSH1 0x0 DUP1 REVERT JUMPDEST POP PUSH2 0x1F2 PUSH2 0x49C CALLDATASIZE PUSH1 0x4 PUSH2 0x171C JUMP JUMPDEST PUSH1 0xC PUSH1 0x20 MSTORE PUSH1 0x0 SWAP1 DUP2 MSTORE PUSH1 0x40 SWAP1 KECCAK256 SLOAD PUSH1 0xFF AND DUP2 JUMP JUMPDEST CALLVALUE DUP1 ISZERO PUSH2 0x4BD JUMPI PUSH1 0x0 DUP1 REVERT JUMPDEST POP PUSH2 0x227 PUSH1 0x64 DUP2 JUMP JUMPDEST CALLVALUE DUP1 ISZERO PUSH2 0x4D2 JUMPI PUSH1 0x0 DUP1 REVERT JUMPDEST POP PUSH2 0x24A PUSH2 0x4E1 CALLDATASIZE PUSH1 0x4 PUSH2 0x171C JUMP JUMPDEST PUSH2 0xBCD JUMP JUMPDEST CALLVALUE DUP1 ISZERO PUSH2 0x4F2 JUMPI PUSH1 0x0 DUP1 REVERT JUMPDEST POP PUSH2 0x227 PUSH1 0x5 DUP2 JUMP JUMPDEST CALLVALUE DUP1 ISZERO PUSH2 0x507 JUMPI PUSH1 0x0 DUP1 REVERT JUMPDEST POP PUSH2 0x227 PUSH2 0x516 CALLDATASIZE PUSH1 0x4 PUSH2 0x171C JUMP JUMPDEST PUSH1 0xB PUSH1 0x20 MSTORE PUSH1 0x0 SWAP1 DUP2 MSTORE PUSH1 0x40 SWAP1 KECCAK256 SLOAD DUP2 JUMP JUMPDEST CALLVALUE DUP1 ISZERO PUSH2 0x534 JUMPI PUSH1 0x0 DUP1 REVERT JUMPDEST POP PUSH2 0x227 PUSH2 0x543 CALLDATASIZE PUSH1 0x4 PUSH2 0x171C JUMP JUMPDEST PUSH2 0xC51 JUMP JUMPDEST CALLVALUE DUP1 ISZERO PUSH2 0x554 JUMPI PUSH1 0x0 DUP1 REVERT JUMPDEST POP PUSH2 0x1F2 PUSH2 0x563 CALLDATASIZE PUSH1 0x4 PUSH2 0x1963 JUMP JUMPDEST PUSH2 0xC83 JUMP JUMPDEST CALLVALUE DUP1 ISZERO PUSH2 0x574 JUMPI PUSH1 0x0 DUP1 REVERT JUMPDEST POP PUSH2 0x2AF PUSH2 0x583 CALLDATASIZE PUSH1 0x4 PUSH2 0x181A JUMP JUMPDEST PUSH2 0xCB1 JUMP JUMPDEST PUSH1 0x0 PUSH1 0x1 PUSH1 0x1 PUSH1 0xE0 SHL SUB NOT DUP3 AND PUSH4 0x80AC58CD PUSH1 0xE0 SHL EQ DUP1 PUSH2 0x5B9 JUMPI POP PUSH1 0x1 PUSH1 0x1 PUSH1 0xE0 SHL SUB NOT DUP3 AND PUSH4 0x5B5E139F PUSH1 0xE0 SHL EQ JUMPDEST DUP1 PUSH2 0x5D4 JUMPI POP PUSH4 0x1FFC9A7 PUSH1 0xE0 SHL PUSH1 0x1 PUSH1 0x1 PUSH1 0xE0 SHL SUB NOT DUP4 AND EQ JUMPDEST SWAP3 SWAP2 POP POP JUMP JUMPDEST PUSH1 0x0 DUP2 DUP2 MSTORE PUSH1 0xC PUSH1 0x20 MSTORE PUSH1 0x40 DUP2 KECCAK256 SLOAD PUSH1 0xFF AND ISZERO PUSH2 0x5F9 JUMPI POP PUSH1 0x0 SWAP2 SWAP1 POP JUMP JUMPDEST POP PUSH8 0xDE0B6B3A7640000 SWAP2 SWAP1 POP JUMP JUMPDEST PUSH1 0x60 PUSH1 0x2 DUP1 SLOAD PUSH2 0x617 SWAP1 PUSH2 0x1996 JUMP JUMPDEST DUP1 PUSH1 0x1F ADD PUSH1 0x20 DUP1 SWAP2 DIV MUL PUSH1 0x20 ADD PUSH1 0x40 MLOAD SWAP1 DUP2 ADD PUSH1 0x40 MSTORE DUP1 SWAP3 SWAP2 SWAP1 DUP2 DUP2 MSTORE PUSH1 0x20 ADD DUP3 DUP1 SLOAD PUSH2 0x643 SWAP1 PUSH2 0x1996 JUMP JUMPDEST DUP1 ISZERO PUSH2 0x690 JUMPI DUP1 PUSH1 0x1F LT PUSH2 0x665 JUMPI PUSH2 0x100 DUP1 DUP4 SLOAD DIV MUL DUP4 MSTORE SWAP2 PUSH1 0x20 ADD SWAP2 PUSH2 0x690 JUMP JUMPDEST DUP3 ADD SWAP2 SWAP1 PUSH1 0x0 MSTORE PUSH1 0x20 PUSH1 0x0 KECCAK256 SWAP1 JUMPDEST DUP2 SLOAD DUP2 MSTORE SWAP1 PUSH1 0x1 ADD SWAP1 PUSH1 0x20 ADD DUP1 DUP4 GT PUSH2 0x673 JUMPI DUP3 SWAP1 SUB PUSH1 0x1F AND DUP3 ADD SWAP2 JUMPDEST POP POP POP POP POP SWAP1 POP SWAP1 JUMP JUMPDEST PUSH1 0x0 PUSH2 0x6A5 DUP3 PUSH2 0xD27 JUMP JUMPDEST PUSH2 0x6C2 JUMPI PUSH1 0x40 MLOAD PUSH4 0x33D1C039 PUSH1 0xE2 SHL DUP2 MSTORE PUSH1 0x4 ADD PUSH1 0x40 MLOAD DUP1 SWAP2 SUB SWAP1 REVERT JUMPDEST POP PUSH1 0x0 SWAP1 DUP2 MSTORE PUSH1 0x6 PUSH1 0x20 MSTORE PUSH1 0x40 SWAP1 KECCAK256 SLOAD PUSH1 0x1 PUSH1 0x1 PUSH1 0xA0 SHL SUB AND SWAP1 JUMP JUMPDEST PUSH1 0x0 PUSH2 0x6E9 DUP3 PUSH2 0xA63 JUMP JUMPDEST SWAP1 POP DUP1 PUSH1 0x1 PUSH1 0x1 PUSH1 0xA0 SHL SUB AND DUP4 PUSH1 0x1 PUSH1 0x1 PUSH1 0xA0 SHL SUB AND SUB PUSH2 0x71D JUMPI PUSH1 0x40 MLOAD PUSH4 0x250FDEE3 PUSH1 0xE2 SHL DUP2 MSTORE PUSH1 0x4 ADD PUSH1 0x40 MLOAD DUP1 SWAP2 SUB SWAP1 REVERT JUMPDEST CALLER PUSH1 0x1 PUSH1 0x1 PUSH1 0xA0 SHL SUB DUP3 AND EQ DUP1 ISZERO SWAP1 PUSH2 0x73D JUMPI POP PUSH2 0x73B DUP2 CALLER PUSH2 0xC83 JUMP JUMPDEST ISZERO JUMPDEST ISZERO PUSH2 0x75B JUMPI PUSH1 0x40 MLOAD PUSH4 0x67D9DCA1 PUSH1 0xE1 SHL DUP2 MSTORE PUSH1 0x4 ADD PUSH1 0x40 MLOAD DUP1 SWAP2 SUB SWAP1 REVERT JUMPDEST PUSH2 0x766 DUP4 DUP4 DUP4 PUSH2 0xD52 JUMP JUMPDEST POP POP POP JUMP JUMPDEST PUSH2 0x766 DUP4 DUP4 DUP4 PUSH2 0xDAE JUMP JUMPDEST PUSH2 0x77F DUP2 PUSH2 0xC51 JUMP JUMPDEST TIMESTAMP LT PUSH2 0x7CB JUMPI PUSH1 0x40 MLOAD PUSH3 0x461BCD PUSH1 0xE5 SHL DUP2 MSTORE PUSH1 0x20 PUSH1 0x4 DUP3 ADD MSTORE PUSH1 0x16 PUSH1 0x24 DUP3 ADD MSTORE PUSH22 0x2932B33AB732102832B934B7B21022BC3834B932B217 PUSH1 0x51 SHL PUSH1 0x44 DUP3 ADD MSTORE PUSH1 0x64 ADD JUMPDEST PUSH1 0x40 MLOAD DUP1 SWAP2 SUB SWAP1 REVERT JUMPDEST PUSH2 0x7D4 DUP2 PUSH2 0xA63 JUMP JUMPDEST PUSH1 0x1 PUSH1 0x1 PUSH1 0xA0 SHL SUB AND CALLER PUSH1 0x1 PUSH1 0x1 PUSH1 0xA0 SHL SUB AND EQ PUSH2 0x823 JUMPI PUSH1 0x40 MLOAD PUSH3 0x461BCD PUSH1 0xE5 SHL DUP2 MSTORE PUSH1 0x20 PUSH1 0x4 DUP3 ADD MSTORE PUSH1 0xC PUSH1 0x24 DUP3 ADD MSTORE PUSH12 0x139BDD081E5BDD5C88139195 PUSH1 0xA2 SHL PUSH1 0x44 DUP3 ADD MSTORE PUSH1 0x64 ADD PUSH2 0x7C2 JUMP JUMPDEST PUSH1 0x0 PUSH2 0x82E DUP3 PUSH2 0x5DA JUMP JUMPDEST PUSH1 0xA SLOAD SWAP1 SWAP2 POP PUSH2 0x849 SWAP1 CALLER SWAP1 PUSH1 0x1 PUSH1 0x1 PUSH1 0xA0 SHL SUB AND DUP5 PUSH2 0xDAE JUMP JUMPDEST PUSH1 0x0 DUP3 DUP2 MSTORE PUSH1 0xC PUSH1 0x20 MSTORE PUSH1 0x40 SWAP1 KECCAK256 DUP1 SLOAD PUSH1 0xFF NOT AND PUSH1 0x1 OR SWAP1 SSTORE PUSH2 0x86C CALLER DUP3 PUSH2 0xF9E JUMP JUMPDEST POP POP JUMP JUMPDEST PUSH2 0x882 DUP2 PUSH8 0xDE0B6B3A7640000 PUSH2 0x19E6 JUMP JUMPDEST CALLVALUE LT ISZERO PUSH2 0x8C5 JUMPI PUSH1 0x40 MLOAD PUSH3 0x461BCD PUSH1 0xE5 SHL DUP2 MSTORE PUSH1 0x20 PUSH1 0x4 DUP3 ADD MSTORE PUSH1 0x11 PUSH1 0x24 DUP3 ADD MSTORE PUSH17 0x2737BA1032B737BAB3B410333AB7323997 PUSH1 0x79 SHL PUSH1 0x44 DUP3 ADD MSTORE PUSH1 0x64 ADD PUSH2 0x7C2 JUMP JUMPDEST CALLER PUSH1 0x0 SWAP1 DUP2 MSTORE PUSH1 0x5 PUSH1 0x20 DUP2 SWAP1 MSTORE PUSH1 0x40 SWAP1 SWAP2 KECCAK256 SLOAD DUP3 SWAP1 PUSH1 0x1 PUSH1 0x40 SHL SWAP1 DIV PUSH8 0xFFFFFFFFFFFFFFFF AND PUSH2 0x8F5 SWAP2 SWAP1 PUSH2 0x19FD JUMP JUMPDEST GT ISZERO PUSH2 0x930 JUMPI PUSH1 0x40 MLOAD PUSH3 0x461BCD PUSH1 0xE5 SHL DUP2 MSTORE PUSH1 0x20 PUSH1 0x4 DUP3 ADD MSTORE PUSH1 0xA PUSH1 0x24 DUP3 ADD MSTORE PUSH10 0x135A5B9D08131A5B5A5D PUSH1 0xB2 SHL PUSH1 0x44 DUP3 ADD MSTORE PUSH1 0x64 ADD PUSH2 0x7C2 JUMP JUMPDEST PUSH1 0x64 PUSH2 0x93B PUSH1 0x0 SLOAD SWAP1 JUMP JUMPDEST GT ISZERO PUSH2 0x989 JUMPI PUSH1 0x40 MLOAD PUSH3 0x461BCD PUSH1 0xE5 SHL DUP2 MSTORE PUSH1 0x20 PUSH1 0x4 DUP3 ADD MSTORE PUSH1 0x18 PUSH1 0x24 DUP3 ADD MSTORE PUSH32 0x537570706C79204578636565642E20536F6C64206F75742E0000000000000000 PUSH1 0x44 DUP3 ADD MSTORE PUSH1 0x64 ADD PUSH2 0x7C2 JUMP JUMPDEST PUSH2 0x993 CALLER DUP3 PUSH2 0x10B7 JUMP JUMPDEST PUSH2 0x99E PUSH1 0xB4 TIMESTAMP PUSH2 0x19FD JUMP JUMPDEST PUSH1 0x9 SSTORE PUSH1 0x0 DUP1 SLOAD PUSH2 0x9B0 SWAP1 DUP4 SWAP1 PUSH2 0x1A10 JUMP JUMPDEST SWAP1 POP JUMPDEST PUSH1 0x0 SLOAD DUP2 LT ISZERO PUSH2 0x86C JUMPI PUSH1 0x9 SLOAD PUSH1 0x0 DUP3 DUP2 MSTORE PUSH1 0xB PUSH1 0x20 MSTORE PUSH1 0x40 SWAP1 KECCAK256 SSTORE DUP1 PUSH2 0x9D9 DUP2 PUSH2 0x1A23 JUMP JUMPDEST SWAP2 POP POP PUSH2 0x9B3 JUMP JUMPDEST PUSH2 0x9E9 PUSH2 0x10D1 JUMP JUMPDEST PUSH1 0x9 SLOAD TIMESTAMP GT PUSH2 0xA3A JUMPI PUSH1 0x40 MLOAD PUSH3 0x461BCD PUSH1 0xE5 SHL DUP2 MSTORE PUSH1 0x20 PUSH1 0x4 DUP3 ADD MSTORE PUSH1 0x1F PUSH1 0x24 DUP3 ADD MSTORE PUSH32 0x49742773206E6F7420706173742074686520726566756E6420706572696F6400 PUSH1 0x44 DUP3 ADD MSTORE PUSH1 0x64 ADD PUSH2 0x7C2 JUMP JUMPDEST SELFBALANCE PUSH2 0xA45 CALLER DUP3 PUSH2 0xF9E JUMP JUMPDEST POP JUMP JUMPDEST PUSH2 0x766 DUP4 DUP4 DUP4 PUSH1 0x40 MLOAD DUP1 PUSH1 0x20 ADD PUSH1 0x40 MSTORE DUP1 PUSH1 0x0 DUP2 MSTORE POP PUSH2 0xB7C JUMP JUMPDEST PUSH1 0x0 PUSH2 0xA6E DUP3 PUSH2 0x112B JUMP JUMPDEST MLOAD SWAP3 SWAP2 POP POP JUMP JUMPDEST PUSH1 0x0 PUSH1 0x1 PUSH1 0x1 PUSH1 0xA0 SHL SUB DUP3 AND PUSH2 0xA9E JUMPI PUSH1 0x40 MLOAD PUSH4 0x23D3AD81 PUSH1 0xE2 SHL DUP2 MSTORE PUSH1 0x4 ADD PUSH1 0x40 MLOAD DUP1 SWAP2 SUB SWAP1 REVERT JUMPDEST POP PUSH1 0x1 PUSH1 0x1 PUSH1 0xA0 SHL SUB AND PUSH1 0x0 SWAP1 DUP2 MSTORE PUSH1 0x5 PUSH1 0x20 MSTORE PUSH1 0x40 SWAP1 KECCAK256 SLOAD PUSH8 0xFFFFFFFFFFFFFFFF AND SWAP1 JUMP JUMPDEST PUSH2 0xACC PUSH2 0x10D1 JUMP JUMPDEST PUSH2 0xAD6 PUSH1 0x0 PUSH2 0x1247 JUMP JUMPDEST JUMP JUMPDEST PUSH1 0x60 PUSH1 0x3 DUP1 SLOAD PUSH2 0x617 SWAP1 PUSH2 0x1996 JUMP JUMPDEST CALLER PUSH1 0x1 PUSH1 0x1 PUSH1 0xA0 SHL SUB DUP4 AND SUB PUSH2 0xB10 JUMPI PUSH1 0x40 MLOAD PUSH4 0xB06307DB PUSH1 0xE0 SHL DUP2 MSTORE PUSH1 0x4 ADD PUSH1 0x40 MLOAD DUP1 SWAP2 SUB SWAP1 REVERT JUMPDEST CALLER PUSH1 0x0 DUP2 DUP2 MSTORE PUSH1 0x7 PUSH1 0x20 SWAP1 DUP2 MSTORE PUSH1 0x40 DUP1 DUP4 KECCAK256 PUSH1 0x1 PUSH1 0x1 PUSH1 0xA0 SHL SUB DUP8 AND DUP1 DUP6 MSTORE SWAP1 DUP4 MSTORE SWAP3 DUP2 SWAP1 KECCAK256 DUP1 SLOAD PUSH1 0xFF NOT AND DUP7 ISZERO ISZERO SWAP1 DUP2 OR SWAP1 SWAP2 SSTORE SWAP1 MLOAD SWAP1 DUP2 MSTORE SWAP2 SWAP3 SWAP2 PUSH32 0x17307EAB39AB6107E8899845AD3D59BD9653F200F220920489CA2B5937696C31 SWAP2 ADD PUSH1 0x40 MLOAD DUP1 SWAP2 SUB SWAP1 LOG3 POP POP JUMP JUMPDEST PUSH2 0xB87 DUP5 DUP5 DUP5 PUSH2 0xDAE JUMP JUMPDEST PUSH1 0x1 PUSH1 0x1 PUSH1 0xA0 SHL SUB DUP4 AND EXTCODESIZE ISZERO ISZERO DUP1 ISZERO PUSH2 0xBA9 JUMPI POP PUSH2 0xBA7 DUP5 DUP5 DUP5 DUP5 PUSH2 0x1299 JUMP JUMPDEST ISZERO JUMPDEST ISZERO PUSH2 0xBC7 JUMPI PUSH1 0x40 MLOAD PUSH4 0x68D2BF6B PUSH1 0xE1 SHL DUP2 MSTORE PUSH1 0x4 ADD PUSH1 0x40 MLOAD DUP1 SWAP2 SUB SWAP1 REVERT JUMPDEST POP POP POP POP JUMP JUMPDEST PUSH1 0x60 PUSH2 0xBD8 DUP3 PUSH2 0xD27 JUMP JUMPDEST PUSH2 0xBF5 JUMPI PUSH1 0x40 MLOAD PUSH4 0xA14C4B5 PUSH1 0xE4 SHL DUP2 MSTORE PUSH1 0x4 ADD PUSH1 0x40 MLOAD DUP1 SWAP2 SUB SWAP1 REVERT JUMPDEST PUSH1 0x0 PUSH2 0xBFF PUSH2 0x1384 JUMP JUMPDEST SWAP1 POP DUP1 MLOAD PUSH1 0x0 SUB PUSH2 0xC1F JUMPI PUSH1 0x40 MLOAD DUP1 PUSH1 0x20 ADD PUSH1 0x40 MSTORE DUP1 PUSH1 0x0 DUP2 MSTORE POP PUSH2 0xC4A JUMP JUMPDEST DUP1 PUSH2 0xC29 DUP5 PUSH2 0x13A4 JUMP JUMPDEST PUSH1 0x40 MLOAD PUSH1 0x20 ADD PUSH2 0xC3A SWAP3 SWAP2 SWAP1 PUSH2 0x1A3C JUMP JUMPDEST PUSH1 0x40 MLOAD PUSH1 0x20 DUP2 DUP4 SUB SUB DUP2 MSTORE SWAP1 PUSH1 0x40 MSTORE JUMPDEST SWAP4 SWAP3 POP POP POP JUMP JUMPDEST PUSH1 0x0 DUP2 DUP2 MSTORE PUSH1 0xC PUSH1 0x20 MSTORE PUSH1 0x40 DUP2 KECCAK256 SLOAD PUSH1 0xFF AND ISZERO PUSH2 0xC70 JUMPI POP PUSH1 0x0 SWAP2 SWAP1 POP JUMP JUMPDEST POP PUSH1 0x0 SWAP1 DUP2 MSTORE PUSH1 0xB PUSH1 0x20 MSTORE PUSH1 0x40 SWAP1 KECCAK256 SLOAD SWAP1 JUMP JUMPDEST PUSH1 0x1 PUSH1 0x1 PUSH1 0xA0 SHL SUB SWAP2 DUP3 AND PUSH1 0x0 SWAP1 DUP2 MSTORE PUSH1 0x7 PUSH1 0x20 SWAP1 DUP2 MSTORE PUSH1 0x40 DUP1 DUP4 KECCAK256 SWAP4 SWAP1 SWAP5 AND DUP3 MSTORE SWAP2 SWAP1 SWAP2 MSTORE KECCAK256 SLOAD PUSH1 0xFF AND SWAP1 JUMP JUMPDEST PUSH2 0xCB9 PUSH2 0x10D1 JUMP JUMPDEST PUSH1 0x1 PUSH1 0x1 PUSH1 0xA0 SHL SUB DUP2 AND PUSH2 0xD1E JUMPI PUSH1 0x40 MLOAD PUSH3 0x461BCD PUSH1 0xE5 SHL DUP2 MSTORE PUSH1 0x20 PUSH1 0x4 DUP3 ADD MSTORE PUSH1 0x26 PUSH1 0x24 DUP3 ADD MSTORE PUSH32 0x4F776E61626C653A206E6577206F776E657220697320746865207A65726F2061 PUSH1 0x44 DUP3 ADD MSTORE PUSH6 0x646472657373 PUSH1 0xD0 SHL PUSH1 0x64 DUP3 ADD MSTORE PUSH1 0x84 ADD PUSH2 0x7C2 JUMP JUMPDEST PUSH2 0xA45 DUP2 PUSH2 0x1247 JUMP JUMPDEST PUSH1 0x0 DUP1 SLOAD DUP3 LT DUP1 ISZERO PUSH2 0x5D4 JUMPI POP POP PUSH1 0x0 SWAP1 DUP2 MSTORE PUSH1 0x4 PUSH1 0x20 MSTORE PUSH1 0x40 SWAP1 KECCAK256 SLOAD PUSH1 0x1 PUSH1 0xE0 SHL SWAP1 DIV PUSH1 0xFF AND ISZERO SWAP1 JUMP JUMPDEST PUSH1 0x0 DUP3 DUP2 MSTORE PUSH1 0x6 PUSH1 0x20 MSTORE PUSH1 0x40 DUP1 DUP3 KECCAK256 DUP1 SLOAD PUSH1 0x1 PUSH1 0x1 PUSH1 0xA0 SHL SUB NOT AND PUSH1 0x1 PUSH1 0x1 PUSH1 0xA0 SHL SUB DUP8 DUP2 AND SWAP2 DUP3 OR SWAP1 SWAP3 SSTORE SWAP2 MLOAD DUP6 SWAP4 SWAP2 DUP6 AND SWAP2 PUSH32 0x8C5BE1E5EBEC7D5BD14F71427D1E84F3DD0314C0F7B2291E5B200AC8C7C3B925 SWAP2 LOG4 POP POP POP JUMP JUMPDEST PUSH1 0x0 PUSH2 0xDB9 DUP3 PUSH2 0x112B JUMP JUMPDEST SWAP1 POP DUP4 PUSH1 0x1 PUSH1 0x1 PUSH1 0xA0 SHL SUB AND DUP2 PUSH1 0x0 ADD MLOAD PUSH1 0x1 PUSH1 0x1 PUSH1 0xA0 SHL SUB AND EQ PUSH2 0xDF0 JUMPI PUSH1 0x40 MLOAD PUSH3 0xA11481 PUSH1 0xE8 SHL DUP2 MSTORE PUSH1 0x4 ADD PUSH1 0x40 MLOAD DUP1 SWAP2 SUB SWAP1 REVERT JUMPDEST PUSH1 0x0 CALLER PUSH1 0x1 PUSH1 0x1 PUSH1 0xA0 SHL SUB DUP7 AND EQ DUP1 PUSH2 0xE0E JUMPI POP PUSH2 0xE0E DUP6 CALLER PUSH2 0xC83 JUMP JUMPDEST DUP1 PUSH2 0xE29 JUMPI POP CALLER PUSH2 0xE1E DUP5 PUSH2 0x69A JUMP JUMPDEST PUSH1 0x1 PUSH1 0x1 PUSH1 0xA0 SHL SUB AND EQ JUMPDEST SWAP1 POP DUP1 PUSH2 0xE49 JUMPI PUSH1 0x40 MLOAD PUSH4 0x2CE44B5F PUSH1 0xE1 SHL DUP2 MSTORE PUSH1 0x4 ADD PUSH1 0x40 MLOAD DUP1 SWAP2 SUB SWAP1 REVERT JUMPDEST PUSH1 0x1 PUSH1 0x1 PUSH1 0xA0 SHL SUB DUP5 AND PUSH2 0xE70 JUMPI PUSH1 0x40 MLOAD PUSH4 0x3A954ECD PUSH1 0xE2 SHL DUP2 MSTORE PUSH1 0x4 ADD PUSH1 0x40 MLOAD DUP1 SWAP2 SUB SWAP1 REVERT JUMPDEST PUSH2 0xE7C PUSH1 0x0 DUP5 DUP8 PUSH2 0xD52 JUMP JUMPDEST PUSH1 0x1 PUSH1 0x1 PUSH1 0xA0 SHL SUB DUP6 DUP2 AND PUSH1 0x0 SWAP1 DUP2 MSTORE PUSH1 0x5 PUSH1 0x20 SWAP1 DUP2 MSTORE PUSH1 0x40 DUP1 DUP4 KECCAK256 DUP1 SLOAD PUSH8 0xFFFFFFFFFFFFFFFF NOT DUP1 DUP3 AND PUSH8 0xFFFFFFFFFFFFFFFF SWAP3 DUP4 AND PUSH1 0x0 NOT ADD DUP4 AND OR SWAP1 SWAP3 SSTORE DUP10 DUP7 AND DUP1 DUP7 MSTORE DUP4 DUP7 KECCAK256 DUP1 SLOAD SWAP4 DUP5 AND SWAP4 DUP4 AND PUSH1 0x1 SWAP1 DUP2 ADD DUP5 AND SWAP5 SWAP1 SWAP5 OR SWAP1 SSTORE DUP10 DUP7 MSTORE PUSH1 0x4 SWAP1 SWAP5 MSTORE DUP3 DUP6 KECCAK256 DUP1 SLOAD PUSH1 0x1 PUSH1 0x1 PUSH1 0xE0 SHL SUB NOT AND SWAP1 SWAP5 OR PUSH1 0x1 PUSH1 0xA0 SHL TIMESTAMP SWAP1 SWAP3 AND SWAP2 SWAP1 SWAP2 MUL OR DUP4 SSTORE DUP8 ADD DUP1 DUP5 MSTORE SWAP3 KECCAK256 DUP1 SLOAD SWAP2 SWAP4 SWAP1 SWAP2 AND PUSH2 0xF52 JUMPI PUSH1 0x0 SLOAD DUP3 EQ PUSH2 0xF52 JUMPI DUP1 SLOAD PUSH1 0x20 DUP7 ADD MLOAD PUSH8 0xFFFFFFFFFFFFFFFF AND PUSH1 0x1 PUSH1 0xA0 SHL MUL PUSH1 0x1 PUSH1 0x1 PUSH1 0xE0 SHL SUB NOT SWAP1 SWAP2 AND PUSH1 0x1 PUSH1 0x1 PUSH1 0xA0 SHL SUB DUP11 AND OR OR DUP2 SSTORE JUMPDEST POP POP POP DUP3 DUP5 PUSH1 0x1 PUSH1 0x1 PUSH1 0xA0 SHL SUB AND DUP7 PUSH1 0x1 PUSH1 0x1 PUSH1 0xA0 SHL SUB AND PUSH32 0xDDF252AD1BE2C89B69C2B068FC378DAA952BA7F163C4A11628F55A4DF523B3EF PUSH1 0x40 MLOAD PUSH1 0x40 MLOAD DUP1 SWAP2 SUB SWAP1 LOG4 JUMPDEST POP POP POP POP POP JUMP JUMPDEST DUP1 SELFBALANCE LT ISZERO PUSH2 0xFEE JUMPI PUSH1 0x40 MLOAD PUSH3 0x461BCD PUSH1 0xE5 SHL DUP2 MSTORE PUSH1 0x20 PUSH1 0x4 DUP3 ADD MSTORE PUSH1 0x1D PUSH1 0x24 DUP3 ADD MSTORE PUSH32 0x416464726573733A20696E73756666696369656E742062616C616E6365000000 PUSH1 0x44 DUP3 ADD MSTORE PUSH1 0x64 ADD PUSH2 0x7C2 JUMP JUMPDEST PUSH1 0x0 DUP3 PUSH1 0x1 PUSH1 0x1 PUSH1 0xA0 SHL SUB AND DUP3 PUSH1 0x40 MLOAD PUSH1 0x0 PUSH1 0x40 MLOAD DUP1 DUP4 SUB DUP2 DUP6 DUP8 GAS CALL SWAP3 POP POP POP RETURNDATASIZE DUP1 PUSH1 0x0 DUP2 EQ PUSH2 0x103B JUMPI PUSH1 0x40 MLOAD SWAP2 POP PUSH1 0x1F NOT PUSH1 0x3F RETURNDATASIZE ADD AND DUP3 ADD PUSH1 0x40 MSTORE RETURNDATASIZE DUP3 MSTORE RETURNDATASIZE PUSH1 0x0 PUSH1 0x20 DUP5 ADD RETURNDATACOPY PUSH2 0x1040 JUMP JUMPDEST PUSH1 0x60 SWAP2 POP JUMPDEST POP POP SWAP1 POP DUP1 PUSH2 0x766 JUMPI PUSH1 0x40 MLOAD PUSH3 0x461BCD PUSH1 0xE5 SHL DUP2 MSTORE PUSH1 0x20 PUSH1 0x4 DUP3 ADD MSTORE PUSH1 0x3A PUSH1 0x24 DUP3 ADD MSTORE PUSH32 0x416464726573733A20756E61626C6520746F2073656E642076616C75652C2072 PUSH1 0x44 DUP3 ADD MSTORE PUSH32 0x6563697069656E74206D61792068617665207265766572746564000000000000 PUSH1 0x64 DUP3 ADD MSTORE PUSH1 0x84 ADD PUSH2 0x7C2 JUMP JUMPDEST PUSH2 0x86C DUP3 DUP3 PUSH1 0x40 MLOAD DUP1 PUSH1 0x20 ADD PUSH1 0x40 MSTORE DUP1 PUSH1 0x0 DUP2 MSTORE POP PUSH2 0x1437 JUMP JUMPDEST PUSH1 0x8 SLOAD PUSH1 0x1 PUSH1 0x1 PUSH1 0xA0 SHL SUB AND CALLER EQ PUSH2 0xAD6 JUMPI PUSH1 0x40 MLOAD PUSH3 0x461BCD PUSH1 0xE5 SHL DUP2 MSTORE PUSH1 0x20 PUSH1 0x4 DUP3 ADD DUP2 SWAP1 MSTORE PUSH1 0x24 DUP3 ADD MSTORE PUSH32 0x4F776E61626C653A2063616C6C6572206973206E6F7420746865206F776E6572 PUSH1 0x44 DUP3 ADD MSTORE PUSH1 0x64 ADD PUSH2 0x7C2 JUMP JUMPDEST PUSH1 0x40 DUP1 MLOAD PUSH1 0x60 DUP2 ADD DUP3 MSTORE PUSH1 0x0 DUP1 DUP3 MSTORE PUSH1 0x20 DUP3 ADD DUP2 SWAP1 MSTORE SWAP2 DUP2 ADD SWAP2 SWAP1 SWAP2 MSTORE DUP2 PUSH1 0x0 SLOAD DUP2 LT ISZERO PUSH2 0x122E JUMPI PUSH1 0x0 DUP2 DUP2 MSTORE PUSH1 0x4 PUSH1 0x20 SWAP1 DUP2 MSTORE PUSH1 0x40 SWAP2 DUP3 SWAP1 KECCAK256 DUP3 MLOAD PUSH1 0x60 DUP2 ADD DUP5 MSTORE SWAP1 SLOAD PUSH1 0x1 PUSH1 0x1 PUSH1 0xA0 SHL SUB DUP2 AND DUP3 MSTORE PUSH1 0x1 PUSH1 0xA0 SHL DUP2 DIV PUSH8 0xFFFFFFFFFFFFFFFF AND SWAP3 DUP3 ADD SWAP3 SWAP1 SWAP3 MSTORE PUSH1 0x1 PUSH1 0xE0 SHL SWAP1 SWAP2 DIV PUSH1 0xFF AND ISZERO ISZERO SWAP2 DUP2 ADD DUP3 SWAP1 MSTORE SWAP1 PUSH2 0x122C JUMPI DUP1 MLOAD PUSH1 0x1 PUSH1 0x1 PUSH1 0xA0 SHL SUB AND ISZERO PUSH2 0x11C2 JUMPI SWAP4 SWAP3 POP POP POP JUMP JUMPDEST POP PUSH1 0x0 NOT ADD PUSH1 0x0 DUP2 DUP2 MSTORE PUSH1 0x4 PUSH1 0x20 SWAP1 DUP2 MSTORE PUSH1 0x40 SWAP2 DUP3 SWAP1 KECCAK256 DUP3 MLOAD PUSH1 0x60 DUP2 ADD DUP5 MSTORE SWAP1 SLOAD PUSH1 0x1 PUSH1 0x1 PUSH1 0xA0 SHL SUB DUP2 AND DUP1 DUP4 MSTORE PUSH1 0x1 PUSH1 0xA0 SHL DUP3 DIV PUSH8 0xFFFFFFFFFFFFFFFF AND SWAP4 DUP4 ADD SWAP4 SWAP1 SWAP4 MSTORE PUSH1 0x1 PUSH1 0xE0 SHL SWAP1 DIV PUSH1 0xFF AND ISZERO ISZERO SWAP3 DUP2 ADD SWAP3 SWAP1 SWAP3 MSTORE ISZERO PUSH2 0x1227 JUMPI SWAP4 SWAP3 POP POP POP JUMP JUMPDEST PUSH2 0x11C2 JUMP JUMPDEST POP JUMPDEST PUSH1 0x40 MLOAD PUSH4 0x6F96CDA1 PUSH1 0xE1 SHL DUP2 MSTORE PUSH1 0x4 ADD PUSH1 0x40 MLOAD DUP1 SWAP2 SUB SWAP1 REVERT JUMPDEST PUSH1 0x8 DUP1 SLOAD PUSH1 0x1 PUSH1 0x1 PUSH1 0xA0 SHL SUB DUP4 DUP2 AND PUSH1 0x1 PUSH1 0x1 PUSH1 0xA0 SHL SUB NOT DUP4 AND DUP2 OR SWAP1 SWAP4 SSTORE PUSH1 0x40 MLOAD SWAP2 AND SWAP2 SWAP1 DUP3 SWAP1 PUSH32 0x8BE0079C531659141344CD1FD0A4F28419497F9722A3DAAFE3B4186F6B6457E0 SWAP1 PUSH1 0x0 SWAP1 LOG3 POP POP JUMP JUMPDEST PUSH1 0x40 MLOAD PUSH4 0xA85BD01 PUSH1 0xE1 SHL DUP2 MSTORE PUSH1 0x0 SWAP1 PUSH1 0x1 PUSH1 0x1 PUSH1 0xA0 SHL SUB DUP6 AND SWAP1 PUSH4 0x150B7A02 SWAP1 PUSH2 0x12CE SWAP1 CALLER SWAP1 DUP10 SWAP1 DUP9 SWAP1 DUP9 SWAP1 PUSH1 0x4 ADD PUSH2 0x1A6B JUMP JUMPDEST PUSH1 0x20 PUSH1 0x40 MLOAD DUP1 DUP4 SUB DUP2 PUSH1 0x0 DUP8 GAS CALL SWAP3 POP POP POP DUP1 ISZERO PUSH2 0x1309 JUMPI POP PUSH1 0x40 DUP1 MLOAD PUSH1 0x1F RETURNDATASIZE SWAP1 DUP2 ADD PUSH1 0x1F NOT AND DUP3 ADD SWAP1 SWAP3 MSTORE PUSH2 0x1306 SWAP2 DUP2 ADD SWAP1 PUSH2 0x1AA8 JUMP JUMPDEST PUSH1 0x1 JUMPDEST PUSH2 0x1367 JUMPI RETURNDATASIZE DUP1 DUP1 ISZERO PUSH2 0x1337 JUMPI PUSH1 0x40 MLOAD SWAP2 POP PUSH1 0x1F NOT PUSH1 0x3F RETURNDATASIZE ADD AND DUP3 ADD PUSH1 0x40 MSTORE RETURNDATASIZE DUP3 MSTORE RETURNDATASIZE PUSH1 0x0 PUSH1 0x20 DUP5 ADD RETURNDATACOPY PUSH2 0x133C JUMP JUMPDEST PUSH1 0x60 SWAP2 POP JUMPDEST POP DUP1 MLOAD PUSH1 0x0 SUB PUSH2 0x135F JUMPI PUSH1 0x40 MLOAD PUSH4 0x68D2BF6B PUSH1 0xE1 SHL DUP2 MSTORE PUSH1 0x4 ADD PUSH1 0x40 MLOAD DUP1 SWAP2 SUB SWAP1 REVERT JUMPDEST DUP1 MLOAD DUP2 PUSH1 0x20 ADD REVERT JUMPDEST PUSH1 0x1 PUSH1 0x1 PUSH1 0xE0 SHL SUB NOT AND PUSH4 0xA85BD01 PUSH1 0xE1 SHL EQ SWAP1 POP SWAP5 SWAP4 POP POP POP POP JUMP JUMPDEST PUSH1 0x60 PUSH1 0x40 MLOAD DUP1 PUSH1 0x60 ADD PUSH1 0x40 MSTORE DUP1 PUSH1 0x36 DUP2 MSTORE PUSH1 0x20 ADD PUSH2 0x1AC6 PUSH1 0x36 SWAP2 CODECOPY SWAP1 POP SWAP1 JUMP JUMPDEST PUSH1 0x60 PUSH1 0x0 PUSH2 0x13B1 DUP4 PUSH2 0x1444 JUMP JUMPDEST PUSH1 0x1 ADD SWAP1 POP PUSH1 0x0 DUP2 PUSH8 0xFFFFFFFFFFFFFFFF DUP2 GT ISZERO PUSH2 0x13D1 JUMPI PUSH2 0x13D1 PUSH2 0x1871 JUMP JUMPDEST PUSH1 0x40 MLOAD SWAP1 DUP1 DUP3 MSTORE DUP1 PUSH1 0x1F ADD PUSH1 0x1F NOT AND PUSH1 0x20 ADD DUP3 ADD PUSH1 0x40 MSTORE DUP1 ISZERO PUSH2 0x13FB JUMPI PUSH1 0x20 DUP3 ADD DUP2 DUP1 CALLDATASIZE DUP4 CALLDATACOPY ADD SWAP1 POP JUMPDEST POP SWAP1 POP DUP2 DUP2 ADD PUSH1 0x20 ADD JUMPDEST PUSH1 0x0 NOT ADD PUSH16 0x181899199A1A9B1B9C1CB0B131B232B3 PUSH1 0x81 SHL PUSH1 0xA DUP7 MOD BYTE DUP2 MSTORE8 PUSH1 0xA DUP6 DIV SWAP5 POP DUP5 PUSH2 0x1405 JUMPI POP SWAP4 SWAP3 POP POP POP JUMP JUMPDEST PUSH2 0x766 DUP4 DUP4 DUP4 PUSH1 0x1 PUSH2 0x151C JUMP JUMPDEST PUSH1 0x0 DUP1 PUSH19 0x184F03E93FF9F4DAA797ED6E38ED64BF6A1F01 PUSH1 0x40 SHL DUP4 LT PUSH2 0x1483 JUMPI PUSH19 0x184F03E93FF9F4DAA797ED6E38ED64BF6A1F01 PUSH1 0x40 SHL DUP4 DIV SWAP3 POP PUSH1 0x40 ADD JUMPDEST PUSH14 0x4EE2D6D415B85ACEF8100000000 DUP4 LT PUSH2 0x14AF JUMPI PUSH14 0x4EE2D6D415B85ACEF8100000000 DUP4 DIV SWAP3 POP PUSH1 0x20 ADD JUMPDEST PUSH7 0x2386F26FC10000 DUP4 LT PUSH2 0x14CD JUMPI PUSH7 0x2386F26FC10000 DUP4 DIV SWAP3 POP PUSH1 0x10 ADD JUMPDEST PUSH4 0x5F5E100 DUP4 LT PUSH2 0x14E5 JUMPI PUSH4 0x5F5E100 DUP4 DIV SWAP3 POP PUSH1 0x8 ADD JUMPDEST PUSH2 0x2710 DUP4 LT PUSH2 0x14F9 JUMPI PUSH2 0x2710 DUP4 DIV SWAP3 POP PUSH1 0x4 ADD JUMPDEST PUSH1 0x64 DUP4 LT PUSH2 0x150B JUMPI PUSH1 0x64 DUP4 DIV SWAP3 POP PUSH1 0x2 ADD JUMPDEST PUSH1 0xA DUP4 LT PUSH2 0x5D4 JUMPI PUSH1 0x1 ADD SWAP3 SWAP2 POP POP JUMP JUMPDEST PUSH1 0x0 SLOAD PUSH1 0x1 PUSH1 0x1 PUSH1 0xA0 SHL SUB DUP6 AND PUSH2 0x1545 JUMPI PUSH1 0x40 MLOAD PUSH3 0x2E0763 PUSH1 0xE8 SHL DUP2 MSTORE PUSH1 0x4 ADD PUSH1 0x40 MLOAD DUP1 SWAP2 SUB SWAP1 REVERT JUMPDEST DUP4 PUSH1 0x0 SUB PUSH2 0x1566 JUMPI PUSH1 0x40 MLOAD PUSH4 0xB562E8DD PUSH1 0xE0 SHL DUP2 MSTORE PUSH1 0x4 ADD PUSH1 0x40 MLOAD DUP1 SWAP2 SUB SWAP1 REVERT JUMPDEST PUSH1 0x1 PUSH1 0x1 PUSH1 0xA0 SHL SUB DUP6 AND PUSH1 0x0 DUP2 DUP2 MSTORE PUSH1 0x5 PUSH1 0x20 SWAP1 DUP2 MSTORE PUSH1 0x40 DUP1 DUP4 KECCAK256 DUP1 SLOAD PUSH16 0xFFFFFFFFFFFFFFFFFFFFFFFFFFFFFFFF NOT DUP2 AND PUSH8 0xFFFFFFFFFFFFFFFF DUP1 DUP4 AND DUP13 ADD DUP2 AND SWAP2 DUP3 OR PUSH1 0x1 PUSH1 0x40 SHL PUSH8 0xFFFFFFFFFFFFFFFF NOT SWAP1 SWAP5 AND SWAP1 SWAP3 OR DUP4 SWAP1 DIV DUP2 AND DUP13 ADD DUP2 AND SWAP1 SWAP3 MUL OR SWAP1 SWAP2 SSTORE DUP6 DUP5 MSTORE PUSH1 0x4 SWAP1 SWAP3 MSTORE SWAP1 SWAP2 KECCAK256 DUP1 SLOAD PUSH1 0x1 PUSH1 0x1 PUSH1 0xE0 SHL SUB NOT AND SWAP1 SWAP3 OR PUSH1 0x1 PUSH1 0xA0 SHL TIMESTAMP SWAP1 SWAP3 AND SWAP2 SWAP1 SWAP2 MUL OR SWAP1 SSTORE DUP1 DUP1 DUP6 ADD DUP4 DUP1 ISZERO PUSH2 0x1613 JUMPI POP PUSH1 0x1 PUSH1 0x1 PUSH1 0xA0 SHL SUB DUP8 AND EXTCODESIZE ISZERO ISZERO JUMPDEST ISZERO PUSH2 0x169B JUMPI JUMPDEST PUSH1 0x40 MLOAD DUP3 SWAP1 PUSH1 0x1 PUSH1 0x1 PUSH1 0xA0 SHL SUB DUP10 AND SWAP1 PUSH1 0x0 SWAP1 PUSH32 0xDDF252AD1BE2C89B69C2B068FC378DAA952BA7F163C4A11628F55A4DF523B3EF SWAP1 DUP3 SWAP1 LOG4 PUSH2 0x1664 PUSH1 0x0 DUP9 DUP5 DUP1 PUSH1 0x1 ADD SWAP6 POP DUP9 PUSH2 0x1299 JUMP JUMPDEST PUSH2 0x1681 JUMPI PUSH1 0x40 MLOAD PUSH4 0x68D2BF6B PUSH1 0xE1 SHL DUP2 MSTORE PUSH1 0x4 ADD PUSH1 0x40 MLOAD DUP1 SWAP2 SUB SWAP1 REVERT JUMPDEST DUP1 DUP3 SUB PUSH2 0x1619 JUMPI DUP3 PUSH1 0x0 SLOAD EQ PUSH2 0x1696 JUMPI PUSH1 0x0 DUP1 REVERT JUMPDEST PUSH2 0x16E0 JUMP JUMPDEST JUMPDEST PUSH1 0x40 MLOAD PUSH1 0x1 DUP4 ADD SWAP3 SWAP1 PUSH1 0x1 PUSH1 0x1 PUSH1 0xA0 SHL SUB DUP10 AND SWAP1 PUSH1 0x0 SWAP1 PUSH32 0xDDF252AD1BE2C89B69C2B068FC378DAA952BA7F163C4A11628F55A4DF523B3EF SWAP1 DUP3 SWAP1 LOG4 DUP1 DUP3 SUB PUSH2 0x169C JUMPI JUMPDEST POP PUSH1 0x0 SSTORE PUSH2 0xF97 JUMP JUMPDEST PUSH1 0x1 PUSH1 0x1 PUSH1 0xE0 SHL SUB NOT DUP2 AND DUP2 EQ PUSH2 0xA45 JUMPI PUSH1 0x0 DUP1 REVERT JUMPDEST PUSH1 0x0 PUSH1 0x20 DUP3 DUP5 SUB SLT ISZERO PUSH2 0x1711 JUMPI PUSH1 0x0 DUP1 REVERT JUMPDEST DUP2 CALLDATALOAD PUSH2 0xC4A DUP2 PUSH2 0x16E9 JUMP JUMPDEST PUSH1 0x0 PUSH1 0x20 DUP3 DUP5 SUB SLT ISZERO PUSH2 0x172E JUMPI PUSH1 0x0 DUP1 REVERT JUMPDEST POP CALLDATALOAD SWAP2 SWAP1 POP JUMP JUMPDEST PUSH1 0x0 JUMPDEST DUP4 DUP2 LT ISZERO PUSH2 0x1750 JUMPI DUP2 DUP2 ADD MLOAD DUP4 DUP3 ADD MSTORE PUSH1 0x20 ADD PUSH2 0x1738 JUMP JUMPDEST POP POP PUSH1 0x0 SWAP2 ADD MSTORE JUMP JUMPDEST PUSH1 0x0 DUP2 MLOAD DUP1 DUP5 MSTORE PUSH2 0x1771 DUP2 PUSH1 0x20 DUP7 ADD PUSH1 0x20 DUP7 ADD PUSH2 0x1735 JUMP JUMPDEST PUSH1 0x1F ADD PUSH1 0x1F NOT AND SWAP3 SWAP1 SWAP3 ADD PUSH1 0x20 ADD SWAP3 SWAP2 POP POP JUMP JUMPDEST PUSH1 0x20 DUP2 MSTORE PUSH1 0x0 PUSH2 0xC4A PUSH1 0x20 DUP4 ADD DUP5 PUSH2 0x1759 JUMP JUMPDEST DUP1 CALLDATALOAD PUSH1 0x1 PUSH1 0x1 PUSH1 0xA0 SHL SUB DUP2 AND DUP2 EQ PUSH2 0x17AF JUMPI PUSH1 0x0 DUP1 REVERT JUMPDEST SWAP2 SWAP1 POP JUMP JUMPDEST PUSH1 0x0 DUP1 PUSH1 0x40 DUP4 DUP6 SUB SLT ISZERO PUSH2 0x17C7 JUMPI PUSH1 0x0 DUP1 REVERT JUMPDEST PUSH2 0x17D0 DUP4 PUSH2 0x1798 JUMP JUMPDEST SWAP5 PUSH1 0x20 SWAP4 SWAP1 SWAP4 ADD CALLDATALOAD SWAP4 POP POP POP JUMP JUMPDEST PUSH1 0x0 DUP1 PUSH1 0x0 PUSH1 0x60 DUP5 DUP7 SUB SLT ISZERO PUSH2 0x17F3 JUMPI PUSH1 0x0 DUP1 REVERT JUMPDEST PUSH2 0x17FC DUP5 PUSH2 0x1798 JUMP JUMPDEST SWAP3 POP PUSH2 0x180A PUSH1 0x20 DUP6 ADD PUSH2 0x1798 JUMP JUMPDEST SWAP2 POP PUSH1 0x40 DUP5 ADD CALLDATALOAD SWAP1 POP SWAP3 POP SWAP3 POP SWAP3 JUMP JUMPDEST PUSH1 0x0 PUSH1 0x20 DUP3 DUP5 SUB SLT ISZERO PUSH2 0x182C JUMPI PUSH1 0x0 DUP1 REVERT JUMPDEST PUSH2 0xC4A DUP3 PUSH2 0x1798 JUMP JUMPDEST PUSH1 0x0 DUP1 PUSH1 0x40 DUP4 DUP6 SUB SLT ISZERO PUSH2 0x1848 JUMPI PUSH1 0x0 DUP1 REVERT JUMPDEST PUSH2 0x1851 DUP4 PUSH2 0x1798 JUMP JUMPDEST SWAP2 POP PUSH1 0x20 DUP4 ADD CALLDATALOAD DUP1 ISZERO ISZERO DUP2 EQ PUSH2 0x1866 JUMPI PUSH1 0x0 DUP1 REVERT JUMPDEST DUP1 SWAP2 POP POP SWAP3 POP SWAP3 SWAP1 POP JUMP JUMPDEST PUSH4 0x4E487B71 PUSH1 0xE0 SHL PUSH1 0x0 MSTORE PUSH1 0x41 PUSH1 0x4 MSTORE PUSH1 0x24 PUSH1 0x0 REVERT JUMPDEST PUSH1 0x0 DUP1 PUSH1 0x0 DUP1 PUSH1 0x80 DUP6 DUP8 SUB SLT ISZERO PUSH2 0x189D JUMPI PUSH1 0x0 DUP1 REVERT JUMPDEST PUSH2 0x18A6 DUP6 PUSH2 0x1798 JUMP JUMPDEST SWAP4 POP PUSH2 0x18B4 PUSH1 0x20 DUP7 ADD PUSH2 0x1798 JUMP JUMPDEST SWAP3 POP PUSH1 0x40 DUP6 ADD CALLDATALOAD SWAP2 POP PUSH1 0x60 DUP6 ADD CALLDATALOAD PUSH8 0xFFFFFFFFFFFFFFFF DUP1 DUP3 GT ISZERO PUSH2 0x18D8 JUMPI PUSH1 0x0 DUP1 REVERT JUMPDEST DUP2 DUP8 ADD SWAP2 POP DUP8 PUSH1 0x1F DUP4 ADD SLT PUSH2 0x18EC JUMPI PUSH1 0x0 DUP1 REVERT JUMPDEST DUP2 CALLDATALOAD DUP2 DUP2 GT ISZERO PUSH2 0x18FE JUMPI PUSH2 0x18FE PUSH2 0x1871 JUMP JUMPDEST PUSH1 0x40 MLOAD PUSH1 0x1F DUP3 ADD PUSH1 0x1F NOT SWAP1 DUP2 AND PUSH1 0x3F ADD AND DUP2 ADD SWAP1 DUP4 DUP3 GT DUP2 DUP4 LT OR ISZERO PUSH2 0x1926 JUMPI PUSH2 0x1926 PUSH2 0x1871 JUMP JUMPDEST DUP2 PUSH1 0x40 MSTORE DUP3 DUP2 MSTORE DUP11 PUSH1 0x20 DUP5 DUP8 ADD ADD GT ISZERO PUSH2 0x193F JUMPI PUSH1 0x0 DUP1 REVERT JUMPDEST DUP3 PUSH1 0x20 DUP7 ADD PUSH1 0x20 DUP4 ADD CALLDATACOPY PUSH1 0x0 PUSH1 0x20 DUP5 DUP4 ADD ADD MSTORE DUP1 SWAP6 POP POP POP POP POP POP SWAP3 SWAP6 SWAP2 SWAP5 POP SWAP3 POP JUMP JUMPDEST PUSH1 0x0 DUP1 PUSH1 0x40 DUP4 DUP6 SUB SLT ISZERO PUSH2 0x1976 JUMPI PUSH1 0x0 DUP1 REVERT JUMPDEST PUSH2 0x197F DUP4 PUSH2 0x1798 JUMP JUMPDEST SWAP2 POP PUSH2 0x198D PUSH1 0x20 DUP5 ADD PUSH2 0x1798 JUMP JUMPDEST SWAP1 POP SWAP3 POP SWAP3 SWAP1 POP JUMP JUMPDEST PUSH1 0x1 DUP2 DUP2 SHR SWAP1 DUP3 AND DUP1 PUSH2 0x19AA JUMPI PUSH1 0x7F DUP3 AND SWAP2 POP JUMPDEST PUSH1 0x20 DUP3 LT DUP2 SUB PUSH2 0x19CA JUMPI PUSH4 0x4E487B71 PUSH1 0xE0 SHL PUSH1 0x0 MSTORE PUSH1 0x22 PUSH1 0x4 MSTORE PUSH1 0x24 PUSH1 0x0 REVERT JUMPDEST POP SWAP2 SWAP1 POP JUMP JUMPDEST PUSH4 0x4E487B71 PUSH1 0xE0 SHL PUSH1 0x0 MSTORE PUSH1 0x11 PUSH1 0x4 MSTORE PUSH1 0x24 PUSH1 0x0 REVERT JUMPDEST DUP1 DUP3 MUL DUP2 ISZERO DUP3 DUP3 DIV DUP5 EQ OR PUSH2 0x5D4 JUMPI PUSH2 0x5D4 PUSH2 0x19D0 JUMP JUMPDEST DUP1 DUP3 ADD DUP1 DUP3 GT ISZERO PUSH2 0x5D4 JUMPI PUSH2 0x5D4 PUSH2 0x19D0 JUMP JUMPDEST DUP2 DUP2 SUB DUP2 DUP2 GT ISZERO PUSH2 0x5D4 JUMPI PUSH2 0x5D4 PUSH2 0x19D0 JUMP JUMPDEST PUSH1 0x0 PUSH1 0x1 DUP3 ADD PUSH2 0x1A35 JUMPI PUSH2 0x1A35 PUSH2 0x19D0 JUMP JUMPDEST POP PUSH1 0x1 ADD SWAP1 JUMP JUMPDEST PUSH1 0x0 DUP4 MLOAD PUSH2 0x1A4E DUP2 DUP5 PUSH1 0x20 DUP9 ADD PUSH2 0x1735 JUMP JUMPDEST DUP4 MLOAD SWAP1 DUP4 ADD SWAP1 PUSH2 0x1A62 DUP2 DUP4 PUSH1 0x20 DUP9 ADD PUSH2 0x1735 JUMP JUMPDEST ADD SWAP5 SWAP4 POP POP POP POP JUMP JUMPDEST PUSH1 0x1 PUSH1 0x1 PUSH1 0xA0 SHL SUB DUP6 DUP2 AND DUP3 MSTORE DUP5 AND PUSH1 0x20 DUP3 ADD MSTORE PUSH1 0x40 DUP2 ADD DUP4 SWAP1 MSTORE PUSH1 0x80 PUSH1 0x60 DUP3 ADD DUP2 SWAP1 MSTORE PUSH1 0x0 SWAP1 PUSH2 0x1A9E SWAP1 DUP4 ADD DUP5 PUSH2 0x1759 JUMP JUMPDEST SWAP7 SWAP6 POP POP POP POP POP POP JUMP JUMPDEST PUSH1 0x0 PUSH1 0x20 DUP3 DUP5 SUB SLT ISZERO PUSH2 0x1ABA JUMPI PUSH1 0x0 DUP1 REVERT JUMPDEST DUP2 MLOAD PUSH2 0xC4A DUP2 PUSH2 0x16E9 JUMP INVALID PUSH10 0x7066733A2F2F516D6273 PUSH6 0x52544A575373 0x4C PUSH7 0x68736957777542 ORIGIN MSTORE CALLDATACOPY GASLIMIT PUSH21 0x4E39335478666F614D7A3153354658747346455542 0x2F LOG2 PUSH5 0x6970667358 0x22 SLT KECCAK256 DUP3 DUP16 0xC8 STOP ORIGIN 0x28 JUMPI PUSH29 0xD24EE510ABA51FDC6FA0BA9917FDF4227456A06DF9A78D0064736F6C63 NUMBER STOP ADDMOD SLT STOP CALLER "
				},
				"gasEstimates": {
					"creation": {
						"codeDepositCost": "1392200",
						"executionCost": "infinite",
						"totalCost": "infinite"
					},
					"external": {
						"approve(address,uint256)": "infinite",
						"balanceOf(address)": "2641",
						"getApproved(uint256)": "6914",
						"getRefundAmount(uint256)": "2552",
						"getRefundDeadline(uint256)": "4710",
						"hasRefunded(uint256)": "2484",
						"isApprovedForAll(address,address)": "infinite",
						"maxMintPerUser()": "306",
						"maxMintSupply()": "262",
						"mintPrice()": "284",
						"name()": "infinite",
						"owner()": "2421",
						"ownerOf(uint256)": "infinite",
						"refund(uint256)": "infinite",
						"refundAddress()": "2427",
						"refundEndTimeStamp()": "2406",
						"refundEndTimestamps(uint256)": "2482",
						"refundPeriod()": "284",
						"renounceOwnership()": "infinite",
						"safeMint(uint256)": "infinite",
						"safeTransferFrom(address,address,uint256)": "infinite",
						"safeTransferFrom(address,address,uint256,bytes)": "infinite",
						"setApprovalForAll(address,bool)": "26692",
						"supportsInterface(bytes4)": "557",
						"symbol()": "infinite",
						"tokenURI(uint256)": "infinite",
						"totalSupply()": "4510",
						"transferFrom(address,address,uint256)": "infinite",
						"transferOwnership(address)": "28446",
						"withdraw()": "infinite"
					},
					"internal": {
						"_baseURI()": "infinite"
					}
				},
				"methodIdentifiers": {
					"approve(address,uint256)": "095ea7b3",
					"balanceOf(address)": "70a08231",
					"getApproved(uint256)": "081812fc",
					"getRefundAmount(uint256)": "04cd5294",
					"getRefundDeadline(uint256)": "e5496fc8",
					"hasRefunded(uint256)": "c23fcdef",
					"isApprovedForAll(address,address)": "e985e9c5",
					"maxMintPerUser()": "d304c4bc",
					"maxMintSupply()": "c285e107",
					"mintPrice()": "6817c76c",
					"name()": "06fdde03",
					"owner()": "8da5cb5b",
					"ownerOf(uint256)": "6352211e",
					"refund(uint256)": "278ecde1",
					"refundAddress()": "0cb61f6c",
					"refundEndTimeStamp()": "6f1d10ce",
					"refundEndTimestamps(uint256)": "d64297f9",
					"refundPeriod()": "a6a3b5b4",
					"renounceOwnership()": "715018a6",
					"safeMint(uint256)": "31c864e8",
					"safeTransferFrom(address,address,uint256)": "42842e0e",
					"safeTransferFrom(address,address,uint256,bytes)": "b88d4fde",
					"setApprovalForAll(address,bool)": "a22cb465",
					"supportsInterface(bytes4)": "01ffc9a7",
					"symbol()": "95d89b41",
					"tokenURI(uint256)": "c87b56dd",
					"totalSupply()": "18160ddd",
					"transferFrom(address,address,uint256)": "23b872dd",
					"transferOwnership(address)": "f2fde38b",
					"withdraw()": "3ccfd60b"
				}
			},
			"storageLayout": {
				"storage": [
					{
						"astId": 2188,
						"contract": "contracts/ERC-721AWRefund.sol:Web3Builders",
						"label": "_currentIndex",
						"offset": 0,
						"slot": "0",
						"type": "t_uint256"
					},
					{
						"astId": 2190,
						"contract": "contracts/ERC-721AWRefund.sol:Web3Builders",
						"label": "_burnCounter",
						"offset": 0,
						"slot": "1",
						"type": "t_uint256"
					},
					{
						"astId": 2192,
						"contract": "contracts/ERC-721AWRefund.sol:Web3Builders",
						"label": "_name",
						"offset": 0,
						"slot": "2",
						"type": "t_string_storage"
					},
					{
						"astId": 2194,
						"contract": "contracts/ERC-721AWRefund.sol:Web3Builders",
						"label": "_symbol",
						"offset": 0,
						"slot": "3",
						"type": "t_string_storage"
					},
					{
						"astId": 2199,
						"contract": "contracts/ERC-721AWRefund.sol:Web3Builders",
						"label": "_ownerships",
						"offset": 0,
						"slot": "4",
						"type": "t_mapping(t_uint256,t_struct(TokenOwnership)2177_storage)"
					},
					{
						"astId": 2204,
						"contract": "contracts/ERC-721AWRefund.sol:Web3Builders",
						"label": "_addressData",
						"offset": 0,
						"slot": "5",
						"type": "t_mapping(t_address,t_struct(AddressData)2186_storage)"
					},
					{
						"astId": 2208,
						"contract": "contracts/ERC-721AWRefund.sol:Web3Builders",
						"label": "_tokenApprovals",
						"offset": 0,
						"slot": "6",
						"type": "t_mapping(t_uint256,t_address)"
					},
					{
						"astId": 2214,
						"contract": "contracts/ERC-721AWRefund.sol:Web3Builders",
						"label": "_operatorApprovals",
						"offset": 0,
						"slot": "7",
						"type": "t_mapping(t_address,t_mapping(t_address,t_bool))"
					},
					{
						"astId": 7,
						"contract": "contracts/ERC-721AWRefund.sol:Web3Builders",
						"label": "_owner",
						"offset": 0,
						"slot": "8",
						"type": "t_address"
					},
					{
						"astId": 1884,
						"contract": "contracts/ERC-721AWRefund.sol:Web3Builders",
						"label": "refundEndTimeStamp",
						"offset": 0,
						"slot": "9",
						"type": "t_uint256"
					},
					{
						"astId": 1886,
						"contract": "contracts/ERC-721AWRefund.sol:Web3Builders",
						"label": "refundAddress",
						"offset": 0,
						"slot": "10",
						"type": "t_address"
					},
					{
						"astId": 1890,
						"contract": "contracts/ERC-721AWRefund.sol:Web3Builders",
						"label": "refundEndTimestamps",
						"offset": 0,
						"slot": "11",
						"type": "t_mapping(t_uint256,t_uint256)"
					},
					{
						"astId": 1894,
						"contract": "contracts/ERC-721AWRefund.sol:Web3Builders",
						"label": "hasRefunded",
						"offset": 0,
						"slot": "12",
						"type": "t_mapping(t_uint256,t_bool)"
					}
				],
				"types": {
					"t_address": {
						"encoding": "inplace",
						"label": "address",
						"numberOfBytes": "20"
					},
					"t_bool": {
						"encoding": "inplace",
						"label": "bool",
						"numberOfBytes": "1"
					},
					"t_mapping(t_address,t_bool)": {
						"encoding": "mapping",
						"key": "t_address",
						"label": "mapping(address => bool)",
						"numberOfBytes": "32",
						"value": "t_bool"
					},
					"t_mapping(t_address,t_mapping(t_address,t_bool))": {
						"encoding": "mapping",
						"key": "t_address",
						"label": "mapping(address => mapping(address => bool))",
						"numberOfBytes": "32",
						"value": "t_mapping(t_address,t_bool)"
					},
					"t_mapping(t_address,t_struct(AddressData)2186_storage)": {
						"encoding": "mapping",
						"key": "t_address",
						"label": "mapping(address => struct ERC721A.AddressData)",
						"numberOfBytes": "32",
						"value": "t_struct(AddressData)2186_storage"
					},
					"t_mapping(t_uint256,t_address)": {
						"encoding": "mapping",
						"key": "t_uint256",
						"label": "mapping(uint256 => address)",
						"numberOfBytes": "32",
						"value": "t_address"
					},
					"t_mapping(t_uint256,t_bool)": {
						"encoding": "mapping",
						"key": "t_uint256",
						"label": "mapping(uint256 => bool)",
						"numberOfBytes": "32",
						"value": "t_bool"
					},
					"t_mapping(t_uint256,t_struct(TokenOwnership)2177_storage)": {
						"encoding": "mapping",
						"key": "t_uint256",
						"label": "mapping(uint256 => struct ERC721A.TokenOwnership)",
						"numberOfBytes": "32",
						"value": "t_struct(TokenOwnership)2177_storage"
					},
					"t_mapping(t_uint256,t_uint256)": {
						"encoding": "mapping",
						"key": "t_uint256",
						"label": "mapping(uint256 => uint256)",
						"numberOfBytes": "32",
						"value": "t_uint256"
					},
					"t_string_storage": {
						"encoding": "bytes",
						"label": "string",
						"numberOfBytes": "32"
					},
					"t_struct(AddressData)2186_storage": {
						"encoding": "inplace",
						"label": "struct ERC721A.AddressData",
						"members": [
							{
								"astId": 2179,
								"contract": "contracts/ERC-721AWRefund.sol:Web3Builders",
								"label": "balance",
								"offset": 0,
								"slot": "0",
								"type": "t_uint64"
							},
							{
								"astId": 2181,
								"contract": "contracts/ERC-721AWRefund.sol:Web3Builders",
								"label": "numberMinted",
								"offset": 8,
								"slot": "0",
								"type": "t_uint64"
							},
							{
								"astId": 2183,
								"contract": "contracts/ERC-721AWRefund.sol:Web3Builders",
								"label": "numberBurned",
								"offset": 16,
								"slot": "0",
								"type": "t_uint64"
							},
							{
								"astId": 2185,
								"contract": "contracts/ERC-721AWRefund.sol:Web3Builders",
								"label": "aux",
								"offset": 24,
								"slot": "0",
								"type": "t_uint64"
							}
						],
						"numberOfBytes": "32"
					},
					"t_struct(TokenOwnership)2177_storage": {
						"encoding": "inplace",
						"label": "struct ERC721A.TokenOwnership",
						"members": [
							{
								"astId": 2172,
								"contract": "contracts/ERC-721AWRefund.sol:Web3Builders",
								"label": "addr",
								"offset": 0,
								"slot": "0",
								"type": "t_address"
							},
							{
								"astId": 2174,
								"contract": "contracts/ERC-721AWRefund.sol:Web3Builders",
								"label": "startTimestamp",
								"offset": 20,
								"slot": "0",
								"type": "t_uint64"
							},
							{
								"astId": 2176,
								"contract": "contracts/ERC-721AWRefund.sol:Web3Builders",
								"label": "burned",
								"offset": 28,
								"slot": "0",
								"type": "t_bool"
							}
						],
						"numberOfBytes": "32"
					},
					"t_uint256": {
						"encoding": "inplace",
						"label": "uint256",
						"numberOfBytes": "32"
					},
					"t_uint64": {
						"encoding": "inplace",
						"label": "uint64",
						"numberOfBytes": "8"
					}
				}
			},
			"userdoc": {
				"kind": "user",
				"methods": {},
				"version": 1
			}
		}
	}
}