{
	"data": {
		"bytecode": {
			"linkReferences": {},
			"object": "608060405266470de4df820000600c55662386f26fc10000600d556014600e556003600f556000601060006101000a81548160ff0219169083151502179055506001601060016101000a81548160ff0219169083151502179055503480156200006757600080fd5b5060405162006d2c38038062006d2c83398181016040528101906200008d919062000819565b818160405180606001604052806036815260200162006cf660369139620000ba81620001fe60201b60201c565b50620000db620000cf6200021360201b60201c565b6200021b60201b60201c565b6000600360146101000a81548160ff02191690831515021790555080518251146200013d576040517f08c379a0000000000000000000000000000000000000000000000000000000008152600401620001349062000925565b60405180910390fd5b600082511162000184576040517f08c379a00000000000000000000000000000000000000000000000000000000081526004016200017b9062000997565b60405180910390fd5b60005b8251811015620001f357620001dd838281518110620001ab57620001aa620009b9565b5b6020026020010151838381518110620001c957620001c8620009b9565b5b6020026020010151620002e160201b60201c565b8080620001ea9062000a17565b91505062000187565b505050505062000fb8565b80600290816200020f919062000ca5565b5050565b600033905090565b6000600360009054906101000a900473ffffffffffffffffffffffffffffffffffffffff16905081600360006101000a81548173ffffffffffffffffffffffffffffffffffffffff021916908373ffffffffffffffffffffffffffffffffffffffff1602179055508173ffffffffffffffffffffffffffffffffffffffff168173ffffffffffffffffffffffffffffffffffffffff167f8be0079c531659141344cd1fd0a4f28419497f9722a3daafe3b4186f6b6457e060405160405180910390a35050565b600073ffffffffffffffffffffffffffffffffffffffff168273ffffffffffffffffffffffffffffffffffffffff160362000353576040517f08c379a00000000000000000000000000000000000000000000000000000000081526004016200034a9062000e02565b60405180910390fd5b6000811162000399576040517f08c379a0000000000000000000000000000000000000000000000000000000008152600401620003909062000e74565b60405180910390fd5b6000600760008473ffffffffffffffffffffffffffffffffffffffff1673ffffffffffffffffffffffffffffffffffffffff16815260200190815260200160002054146200041e576040517f08c379a0000000000000000000000000000000000000000000000000000000008152600401620004159062000f0c565b60405180910390fd5b6009829080600181540180825580915050600190039060005260206000200160009091909190916101000a81548173ffffffffffffffffffffffffffffffffffffffff021916908373ffffffffffffffffffffffffffffffffffffffff16021790555080600760008473ffffffffffffffffffffffffffffffffffffffff1673ffffffffffffffffffffffffffffffffffffffff1681526020019081526020016000208190555080600554620004d5919062000f2e565b6005819055507f40c340f65e17194d14ddddb073d3c9f888e3cb52b5aae0c6c7706b4fbc905fac82826040516200050e92919062000f8b565b60405180910390a15050565b6000604051905090565b600080fd5b600080fd5b600080fd5b6000601f19601f8301169050919050565b7f4e487b7100000000000000000000000000000000000000000000000000000000600052604160045260246000fd5b6200057e8262000533565b810181811067ffffffffffffffff82111715620005a0576200059f62000544565b5b80604052505050565b6000620005b56200051a565b9050620005c3828262000573565b919050565b600067ffffffffffffffff821115620005e657620005e562000544565b5b602082029050602081019050919050565b600080fd5b600073ffffffffffffffffffffffffffffffffffffffff82169050919050565b60006200062982620005fc565b9050919050565b6200063b816200061c565b81146200064757600080fd5b50565b6000815190506200065b8162000630565b92915050565b6000620006786200067284620005c8565b620005a9565b905080838252602082019050602084028301858111156200069e576200069d620005f7565b5b835b81811015620006cb5780620006b688826200064a565b845260208401935050602081019050620006a0565b5050509392505050565b600082601f830112620006ed57620006ec6200052e565b5b8151620006ff84826020860162000661565b91505092915050565b600067ffffffffffffffff82111562000726576200072562000544565b5b602082029050602081019050919050565b6000819050919050565b6200074c8162000737565b81146200075857600080fd5b50565b6000815190506200076c8162000741565b92915050565b600062000789620007838462000708565b620005a9565b90508083825260208201905060208402830185811115620007af57620007ae620005f7565b5b835b81811015620007dc5780620007c788826200075b565b845260208401935050602081019050620007b1565b5050509392505050565b600082601f830112620007fe57620007fd6200052e565b5b81516200081084826020860162000772565b91505092915050565b6000806040838503121562000833576200083262000524565b5b600083015167ffffffffffffffff81111562000854576200085362000529565b5b6200086285828601620006d5565b925050602083015167ffffffffffffffff81111562000886576200088562000529565b5b6200089485828601620007e6565b9150509250929050565b600082825260208201905092915050565b7f5061796d656e7453706c69747465723a2070617965657320616e64207368617260008201527f6573206c656e677468206d69736d617463680000000000000000000000000000602082015250565b60006200090d6032836200089e565b91506200091a82620008af565b604082019050919050565b600060208201905081810360008301526200094081620008fe565b9050919050565b7f5061796d656e7453706c69747465723a206e6f20706179656573000000000000600082015250565b60006200097f601a836200089e565b91506200098c8262000947565b602082019050919050565b60006020820190508181036000830152620009b28162000970565b9050919050565b7f4e487b7100000000000000000000000000000000000000000000000000000000600052603260045260246000fd5b7f4e487b7100000000000000000000000000000000000000000000000000000000600052601160045260246000fd5b600062000a248262000737565b91507fffffffffffffffffffffffffffffffffffffffffffffffffffffffffffffffff820362000a595762000a58620009e8565b5b600182019050919050565b600081519050919050565b7f4e487b7100000000000000000000000000000000000000000000000000000000600052602260045260246000fd5b6000600282049050600182168062000ab757607f821691505b60208210810362000acd5762000acc62000a6f565b5b50919050565b60008190508160005260206000209050919050565b60006020601f8301049050919050565b600082821b905092915050565b60006008830262000b377fffffffffffffffffffffffffffffffffffffffffffffffffffffffffffffffff8262000af8565b62000b43868362000af8565b95508019841693508086168417925050509392505050565b6000819050919050565b600062000b8662000b8062000b7a8462000737565b62000b5b565b62000737565b9050919050565b6000819050919050565b62000ba28362000b65565b62000bba62000bb18262000b8d565b84845462000b05565b825550505050565b600090565b62000bd162000bc2565b62000bde81848462000b97565b505050565b5b8181101562000c065762000bfa60008262000bc7565b60018101905062000be4565b5050565b601f82111562000c555762000c1f8162000ad3565b62000c2a8462000ae8565b8101602085101562000c3a578190505b62000c5262000c498562000ae8565b83018262000be3565b50505b505050565b600082821c905092915050565b600062000c7a6000198460080262000c5a565b1980831691505092915050565b600062000c95838362000c67565b9150826002028217905092915050565b62000cb08262000a64565b67ffffffffffffffff81111562000ccc5762000ccb62000544565b5b62000cd8825462000a9e565b62000ce582828562000c0a565b600060209050601f83116001811462000d1d576000841562000d08578287015190505b62000d14858262000c87565b86555062000d84565b601f19841662000d2d8662000ad3565b60005b8281101562000d575784890151825560018201915060208501945060208101905062000d30565b8683101562000d77578489015162000d73601f89168262000c67565b8355505b6001600288020188555050505b505050505050565b7f5061796d656e7453706c69747465723a206163636f756e74206973207468652060008201527f7a65726f20616464726573730000000000000000000000000000000000000000602082015250565b600062000dea602c836200089e565b915062000df78262000d8c565b604082019050919050565b6000602082019050818103600083015262000e1d8162000ddb565b9050919050565b7f5061796d656e7453706c69747465723a20736861726573206172652030000000600082015250565b600062000e5c601d836200089e565b915062000e698262000e24565b602082019050919050565b6000602082019050818103600083015262000e8f8162000e4d565b9050919050565b7f5061796d656e7453706c69747465723a206163636f756e7420616c726561647960008201527f2068617320736861726573000000000000000000000000000000000000000000602082015250565b600062000ef4602b836200089e565b915062000f018262000e96565b604082019050919050565b6000602082019050818103600083015262000f278162000ee5565b9050919050565b600062000f3b8262000737565b915062000f488362000737565b925082820190508082111562000f635762000f62620009e8565b5b92915050565b62000f74816200061c565b82525050565b62000f858162000737565b82525050565b600060408201905062000fa2600083018562000f69565b62000fb1602083018462000f7a565b9392505050565b615d2e8062000fc86000396000f3fe60806040526004361061023e5760003560e01c8063715018a61161012e578063bcc9ca5b116100ab578063d79779b21161006f578063d79779b2146108d7578063e33b7de314610914578063e985e9c51461093f578063f242432a1461097c578063f2fde38b146109a557610285565b8063bcc9ca5b146107ca578063bd85b039146107f5578063c45ac05014610832578063ce7c2ac21461086f578063d5abeb01146108ac57610285565b806398ae99a8116100f257806398ae99a8146106f2578063a22cb4651461070e578063a24e515314610737578063a3f8eace14610762578063a945bf801461079f57610285565b8063715018a61461061f5780638456cb59146106365780638b83209b1461064d5780638da5cb5b1461068a5780639852595c146106b557610285565b80633a98ef39116101bc5780634e1273f4116101805780634e1273f4146105285780634f558e791461056557806351cff8d9146105a25780635c975abb146105cb5780636447c35d146105f657610285565b80633a98ef39146104555780633f4ba83a14610480578063406072a914610497578063453c2310146104d457806348b75044146104ff57610285565b8063128ac91b11610203578063128ac91b1461039557806319165587146103b15780631f7fdffa146103da5780632eb2c2d6146104035780632f48de791461042c57610285565b8062fdd58e1461028a57806301ffc9a7146102c757806302fe530514610304578063085c9bac1461032d5780630e89341c1461035857610285565b36610285577f6ef95f06320e7a25a04a175ca677b7052bdd97131872c2192525a629f51be77061026c6109ce565b3460405161027b929190613778565b60405180910390a1005b600080fd5b34801561029657600080fd5b506102b160048036038101906102ac919061380d565b6109d6565b6040516102be919061384d565b60405180910390f35b3480156102d357600080fd5b506102ee60048036038101906102e991906138c0565b610a9e565b6040516102fb9190613908565b60405180910390f35b34801561031057600080fd5b5061032b60048036038101906103269190613a69565b610b80565b005b34801561033957600080fd5b50610342610b94565b60405161034f9190613908565b60405180910390f35b34801561036457600080fd5b5061037f600480360381019061037a9190613ab2565b610ba7565b60405161038c9190613b5e565b60405180910390f35b6103af60048036038101906103aa9190613b80565b610c2a565b005b3480156103bd57600080fd5b506103d860048036038101906103d39190613bfe565b610d13565b005b3480156103e657600080fd5b5061040160048036038101906103fc9190613d94565b610e92565b005b34801561040f57600080fd5b5061042a60048036038101906104259190613e4f565b610eac565b005b34801561043857600080fd5b50610453600480360381019061044e9190613f4a565b610f4d565b005b34801561046157600080fd5b5061046a610f8d565b604051610477919061384d565b60405180910390f35b34801561048c57600080fd5b50610495610f97565b005b3480156104a357600080fd5b506104be60048036038101906104b99190613fc8565b610fa9565b6040516104cb919061384d565b60405180910390f35b3480156104e057600080fd5b506104e9611030565b6040516104f6919061384d565b60405180910390f35b34801561050b57600080fd5b5061052660048036038101906105219190613fc8565b611036565b005b34801561053457600080fd5b5061054f600480360381019061054a91906140cb565b611249565b60405161055c9190614201565b60405180910390f35b34801561057157600080fd5b5061058c60048036038101906105879190613ab2565b611362565b6040516105999190613908565b60405180910390f35b3480156105ae57600080fd5b506105c960048036038101906105c49190614223565b611376565b005b3480156105d757600080fd5b506105e06113ce565b6040516105ed9190613908565b60405180910390f35b34801561060257600080fd5b5061061d600480360381019061061891906142ab565b6113e5565b005b34801561062b57600080fd5b50610634611492565b005b34801561064257600080fd5b5061064b6114a6565b005b34801561065957600080fd5b50610674600480360381019061066f9190613ab2565b6114b8565b60405161068191906142f8565b60405180910390f35b34801561069657600080fd5b5061069f611500565b6040516106ac91906142f8565b60405180910390f35b3480156106c157600080fd5b506106dc60048036038101906106d79190614223565b61152a565b6040516106e9919061384d565b60405180910390f35b61070c60048036038101906107079190613b80565b611573565b005b34801561071a57600080fd5b5061073560048036038101906107309190614313565b611662565b005b34801561074357600080fd5b5061074c611678565b604051610759919061384d565b60405180910390f35b34801561076e57600080fd5b5061078960048036038101906107849190614223565b61167e565b604051610796919061384d565b60405180910390f35b3480156107ab57600080fd5b506107b46116b1565b6040516107c1919061384d565b60405180910390f35b3480156107d657600080fd5b506107df6116b7565b6040516107ec9190613908565b60405180910390f35b34801561080157600080fd5b5061081c60048036038101906108179190613ab2565b6116ca565b604051610829919061384d565b60405180910390f35b34801561083e57600080fd5b5061085960048036038101906108549190613fc8565b6116e7565b604051610866919061384d565b60405180910390f35b34801561087b57600080fd5b5061089660048036038101906108919190614223565b611796565b6040516108a3919061384d565b60405180910390f35b3480156108b857600080fd5b506108c16117df565b6040516108ce919061384d565b60405180910390f35b3480156108e357600080fd5b506108fe60048036038101906108f99190614353565b6117e5565b60405161090b919061384d565b60405180910390f35b34801561092057600080fd5b5061092961182e565b604051610936919061384d565b60405180910390f35b34801561094b57600080fd5b5061096660048036038101906109619190614380565b611838565b6040516109739190613908565b60405180910390f35b34801561098857600080fd5b506109a3600480360381019061099e91906143c0565b6118cc565b005b3480156109b157600080fd5b506109cc60048036038101906109c79190614223565b61196d565b005b600033905090565b60008073ffffffffffffffffffffffffffffffffffffffff168373ffffffffffffffffffffffffffffffffffffffff1603610a46576040517f08c379a0000000000000000000000000000000000000000000000000000000008152600401610a3d906144c9565b60405180910390fd5b60008083815260200190815260200160002060008473ffffffffffffffffffffffffffffffffffffffff1673ffffffffffffffffffffffffffffffffffffffff16815260200190815260200160002054905092915050565b60007fd9b67a26000000000000000000000000000000000000000000000000000000007bffffffffffffffffffffffffffffffffffffffffffffffffffffffff1916827bffffffffffffffffffffffffffffffffffffffffffffffffffffffff19161480610b6957507f0e89341c000000000000000000000000000000000000000000000000000000007bffffffffffffffffffffffffffffffffffffffffffffffffffffffff1916827bffffffffffffffffffffffffffffffffffffffffffffffffffffffff1916145b80610b795750610b78826119f0565b5b9050919050565b610b88611a5a565b610b9181611ad8565b50565b601060019054906101000a900460ff1681565b6060610bb282611362565b610bf1576040517f08c379a0000000000000000000000000000000000000000000000000000000008152600401610be890614535565b60405180910390fd5b610bfa82611aeb565b610c0383611b7f565b604051602001610c149291906145dd565b6040516020818303038152906040529050919050565b601060019054906101000a900460ff16610c79576040517f08c379a0000000000000000000000000000000000000000000000000000000008152600401610c7090614658565b60405180910390fd5b601160003373ffffffffffffffffffffffffffffffffffffffff1673ffffffffffffffffffffffffffffffffffffffff16815260200190815260200160002060009054906101000a900460ff16610d05576040517f08c379a0000000000000000000000000000000000000000000000000000000008152600401610cfc906146c4565b60405180910390fd5b610d0f8282611c4d565b5050565b6000600760008373ffffffffffffffffffffffffffffffffffffffff1673ffffffffffffffffffffffffffffffffffffffff1681526020019081526020016000205411610d95576040517f08c379a0000000000000000000000000000000000000000000000000000000008152600401610d8c90614756565b60405180910390fd5b6000610da08261167e565b905060008103610de5576040517f08c379a0000000000000000000000000000000000000000000000000000000008152600401610ddc906147e8565b60405180910390fd5b8060066000828254610df79190614837565b9250508190555080600860008473ffffffffffffffffffffffffffffffffffffffff1673ffffffffffffffffffffffffffffffffffffffff16815260200190815260200160002060008282540192505081905550610e558282611e05565b7fdf20fd1e76bc69d672e4814fafb2c449bba3a5369d8359adf9e05e6fde87b0568282604051610e869291906148ca565b60405180910390a15050565b610e9a611a5a565b610ea684848484611ef9565b50505050565b610eb46109ce565b73ffffffffffffffffffffffffffffffffffffffff168573ffffffffffffffffffffffffffffffffffffffff161480610efa5750610ef985610ef46109ce565b611838565b5b610f39576040517f08c379a0000000000000000000000000000000000000000000000000000000008152600401610f3090614965565b60405180910390fd5b610f468585858585612125565b5050505050565b610f55611a5a565b81601060006101000a81548160ff02191690831515021790555080601060016101000a81548160ff0219169083151502179055505050565b6000600554905090565b610f9f611a5a565b610fa7612446565b565b6000600b60008473ffffffffffffffffffffffffffffffffffffffff1673ffffffffffffffffffffffffffffffffffffffff16815260200190815260200160002060008373ffffffffffffffffffffffffffffffffffffffff1673ffffffffffffffffffffffffffffffffffffffff16815260200190815260200160002054905092915050565b600f5481565b6000600760008373ffffffffffffffffffffffffffffffffffffffff1673ffffffffffffffffffffffffffffffffffffffff16815260200190815260200160002054116110b8576040517f08c379a00000000000000000000000000000000000000000000000000000000081526004016110af90614756565b60405180910390fd5b60006110c483836116e7565b905060008103611109576040517f08c379a0000000000000000000000000000000000000000000000000000000008152600401611100906147e8565b60405180910390fd5b80600a60008573ffffffffffffffffffffffffffffffffffffffff1673ffffffffffffffffffffffffffffffffffffffff16815260200190815260200160002060008282546111589190614837565b9250508190555080600b60008573ffffffffffffffffffffffffffffffffffffffff1673ffffffffffffffffffffffffffffffffffffffff16815260200190815260200160002060008473ffffffffffffffffffffffffffffffffffffffff1673ffffffffffffffffffffffffffffffffffffffff168152602001908152602001600020600082825401925050819055506111f48383836124a9565b8273ffffffffffffffffffffffffffffffffffffffff167f3be5b7a71e84ed12875d241991c70855ac5817d847039e17a9d895c1ceb0f18a838360405161123c929190613778565b60405180910390a2505050565b6060815183511461128f576040517f08c379a0000000000000000000000000000000000000000000000000000000008152600401611286906149f7565b60405180910390fd5b6000835167ffffffffffffffff8111156112ac576112ab61393e565b5b6040519080825280602002602001820160405280156112da5781602001602082028036833780820191505090505b50905060005b8451811015611357576113278582815181106112ff576112fe614a17565b5b602002602001015185838151811061131a57611319614a17565b5b60200260200101516109d6565b82828151811061133a57611339614a17565b5b6020026020010181815250508061135090614a46565b90506112e0565b508091505092915050565b60008061136e836116ca565b119050919050565b61137e611a5a565b60004790508173ffffffffffffffffffffffffffffffffffffffff166108fc829081150290604051600060405180830381858888f193505050501580156113c9573d6000803e3d6000fd5b505050565b6000600360149054906101000a900460ff16905090565b6113ed611a5a565b60005b8282905081101561148d5760016011600085858581811061141457611413614a17565b5b90506020020160208101906114299190614223565b73ffffffffffffffffffffffffffffffffffffffff1673ffffffffffffffffffffffffffffffffffffffff16815260200190815260200160002060006101000a81548160ff021916908315150217905550808061148590614a46565b9150506113f0565b505050565b61149a611a5a565b6114a4600061252f565b565b6114ae611a5a565b6114b66125f5565b565b6000600982815481106114ce576114cd614a17565b5b9060005260206000200160009054906101000a900473ffffffffffffffffffffffffffffffffffffffff169050919050565b6000600360009054906101000a900473ffffffffffffffffffffffffffffffffffffffff16905090565b6000600860008373ffffffffffffffffffffffffffffffffffffffff1673ffffffffffffffffffffffffffffffffffffffff168152602001908152602001600020549050919050565b601060009054906101000a900460ff166115c2576040517f08c379a00000000000000000000000000000000000000000000000000000000081526004016115b990614ada565b60405180910390fd5b60028210611605576040517f08c379a00000000000000000000000000000000000000000000000000000000081526004016115fc90614b6c565b60405180910390fd5b80600c546116139190614b8c565b3414611654576040517f08c379a000000000000000000000000000000000000000000000000000000000815260040161164b90614c1a565b60405180910390fd5b61165e8282611c4d565b5050565b61167461166d6109ce565b8383612658565b5050565b600d5481565b60008061168961182e565b476116949190614837565b90506116a983826116a48661152a565b6127c4565b915050919050565b600c5481565b601060009054906101000a900460ff1681565b600060046000838152602001908152602001600020549050919050565b6000806116f3846117e5565b8473ffffffffffffffffffffffffffffffffffffffff166370a08231306040518263ffffffff1660e01b815260040161172c91906142f8565b602060405180830381865afa158015611749573d6000803e3d6000fd5b505050506040513d601f19601f8201168201806040525081019061176d9190614c4f565b6117779190614837565b905061178d83826117888787610fa9565b6127c4565b91505092915050565b6000600760008373ffffffffffffffffffffffffffffffffffffffff1673ffffffffffffffffffffffffffffffffffffffff168152602001908152602001600020549050919050565b600e5481565b6000600a60008373ffffffffffffffffffffffffffffffffffffffff1673ffffffffffffffffffffffffffffffffffffffff168152602001908152602001600020549050919050565b6000600654905090565b6000600160008473ffffffffffffffffffffffffffffffffffffffff1673ffffffffffffffffffffffffffffffffffffffff16815260200190815260200160002060008373ffffffffffffffffffffffffffffffffffffffff1673ffffffffffffffffffffffffffffffffffffffff16815260200190815260200160002060009054906101000a900460ff16905092915050565b6118d46109ce565b73ffffffffffffffffffffffffffffffffffffffff168573ffffffffffffffffffffffffffffffffffffffff16148061191a5750611919856119146109ce565b611838565b5b611959576040517f08c379a000000000000000000000000000000000000000000000000000000000815260040161195090614965565b60405180910390fd5b6119668585858585612832565b5050505050565b611975611a5a565b600073ffffffffffffffffffffffffffffffffffffffff168173ffffffffffffffffffffffffffffffffffffffff16036119e4576040517f08c379a00000000000000000000000000000000000000000000000000000000081526004016119db90614cee565b60405180910390fd5b6119ed8161252f565b50565b60007f01ffc9a7000000000000000000000000000000000000000000000000000000007bffffffffffffffffffffffffffffffffffffffffffffffffffffffff1916827bffffffffffffffffffffffffffffffffffffffffffffffffffffffff1916149050919050565b611a626109ce565b73ffffffffffffffffffffffffffffffffffffffff16611a80611500565b73ffffffffffffffffffffffffffffffffffffffff1614611ad6576040517f08c379a0000000000000000000000000000000000000000000000000000000008152600401611acd90614d5a565b60405180910390fd5b565b8060029081611ae79190614f7c565b5050565b606060028054611afa90614da9565b80601f0160208091040260200160405190810160405280929190818152602001828054611b2690614da9565b8015611b735780601f10611b4857610100808354040283529160200191611b73565b820191906000526020600020905b815481529060010190602001808311611b5657829003601f168201915b50505050509050919050565b606060006001611b8e84612acd565b01905060008167ffffffffffffffff811115611bad57611bac61393e565b5b6040519080825280601f01601f191660200182016040528015611bdf5781602001600182028036833780820191505090505b509050600082602001820190505b600115611c42578080600190039150507f3031323334353637383961626364656600000000000000000000000000000000600a86061a8153600a8581611c3657611c3561504e565b5b04945060008503611bed575b819350505050919050565b600f5481601260003373ffffffffffffffffffffffffffffffffffffffff1673ffffffffffffffffffffffffffffffffffffffff16815260200190815260200160002054611c9b9190614837565b1115611cdc576040517f08c379a0000000000000000000000000000000000000000000000000000000008152600401611cd3906150c9565b60405180910390fd5b60028210611d1f576040517f08c379a0000000000000000000000000000000000000000000000000000000008152600401611d1690614b6c565b60405180910390fd5b80600d54611d2d9190614b8c565b3414611d3857600080fd5b600e5481611d45846116ca565b611d4f9190614837565b1115611d90576040517f08c379a0000000000000000000000000000000000000000000000000000000008152600401611d8790615135565b60405180910390fd5b611dab33838360405180602001604052806000815250612c20565b80601260003373ffffffffffffffffffffffffffffffffffffffff1673ffffffffffffffffffffffffffffffffffffffff1681526020019081526020016000206000828254611dfa9190614837565b925050819055505050565b80471015611e48576040517f08c379a0000000000000000000000000000000000000000000000000000000008152600401611e3f906151a1565b60405180910390fd5b60008273ffffffffffffffffffffffffffffffffffffffff1682604051611e6e906151f2565b60006040518083038185875af1925050503d8060008114611eab576040519150601f19603f3d011682016040523d82523d6000602084013e611eb0565b606091505b5050905080611ef4576040517f08c379a0000000000000000000000000000000000000000000000000000000008152600401611eeb90615279565b60405180910390fd5b505050565b600073ffffffffffffffffffffffffffffffffffffffff168473ffffffffffffffffffffffffffffffffffffffff1603611f68576040517f08c379a0000000000000000000000000000000000000000000000000000000008152600401611f5f9061530b565b60405180910390fd5b8151835114611fac576040517f08c379a0000000000000000000000000000000000000000000000000000000008152600401611fa39061539d565b60405180910390fd5b6000611fb66109ce565b9050611fc781600087878787612dd0565b60005b845181101561208057838181518110611fe657611fe5614a17565b5b602002602001015160008087848151811061200457612003614a17565b5b6020026020010151815260200190815260200160002060008873ffffffffffffffffffffffffffffffffffffffff1673ffffffffffffffffffffffffffffffffffffffff16815260200190815260200160002060008282546120669190614837565b92505081905550808061207890614a46565b915050611fca565b508473ffffffffffffffffffffffffffffffffffffffff16600073ffffffffffffffffffffffffffffffffffffffff168273ffffffffffffffffffffffffffffffffffffffff167f4a39dc06d4c0dbc64b70af90fd698a233a518aa5d07e595d983b8c0526c8f7fb87876040516120f89291906153bd565b60405180910390a461210f81600087878787612dee565b61211e81600087878787612df6565b5050505050565b8151835114612169576040517f08c379a00000000000000000000000000000000000000000000000000000000081526004016121609061539d565b60405180910390fd5b600073ffffffffffffffffffffffffffffffffffffffff168473ffffffffffffffffffffffffffffffffffffffff16036121d8576040517f08c379a00000000000000000000000000000000000000000000000000000000081526004016121cf90615466565b60405180910390fd5b60006121e26109ce565b90506121f2818787878787612dd0565b60005b84518110156123a357600085828151811061221357612212614a17565b5b60200260200101519050600085838151811061223257612231614a17565b5b60200260200101519050600080600084815260200190815260200160002060008b73ffffffffffffffffffffffffffffffffffffffff1673ffffffffffffffffffffffffffffffffffffffff168152602001908152602001600020549050818110156122d3576040517f08c379a00000000000000000000000000000000000000000000000000000000081526004016122ca906154f8565b60405180910390fd5b81810360008085815260200190815260200160002060008c73ffffffffffffffffffffffffffffffffffffffff1673ffffffffffffffffffffffffffffffffffffffff168152602001908152602001600020819055508160008085815260200190815260200160002060008b73ffffffffffffffffffffffffffffffffffffffff1673ffffffffffffffffffffffffffffffffffffffff16815260200190815260200160002060008282546123889190614837565b925050819055505050508061239c90614a46565b90506121f5565b508473ffffffffffffffffffffffffffffffffffffffff168673ffffffffffffffffffffffffffffffffffffffff168273ffffffffffffffffffffffffffffffffffffffff167f4a39dc06d4c0dbc64b70af90fd698a233a518aa5d07e595d983b8c0526c8f7fb878760405161241a9291906153bd565b60405180910390a4612430818787878787612dee565b61243e818787878787612df6565b505050505050565b61244e612fcd565b6000600360146101000a81548160ff0219169083151502179055507f5db9ee0a495bf2e6ff9c91a7834c1ba4fdd244a5e8aa4e537bd38aeae4b073aa6124926109ce565b60405161249f91906142f8565b60405180910390a1565b61252a8363a9059cbb60e01b84846040516024016124c8929190613778565b604051602081830303815290604052907bffffffffffffffffffffffffffffffffffffffffffffffffffffffff19166020820180517bffffffffffffffffffffffffffffffffffffffffffffffffffffffff8381831617835250505050613016565b505050565b6000600360009054906101000a900473ffffffffffffffffffffffffffffffffffffffff16905081600360006101000a81548173ffffffffffffffffffffffffffffffffffffffff021916908373ffffffffffffffffffffffffffffffffffffffff1602179055508173ffffffffffffffffffffffffffffffffffffffff168173ffffffffffffffffffffffffffffffffffffffff167f8be0079c531659141344cd1fd0a4f28419497f9722a3daafe3b4186f6b6457e060405160405180910390a35050565b6125fd6130de565b6001600360146101000a81548160ff0219169083151502179055507f62e78cea01bee320cd4e420270b5ea74000d11b0c9f74754ebdbfc544b05a2586126416109ce565b60405161264e91906142f8565b60405180910390a1565b8173ffffffffffffffffffffffffffffffffffffffff168373ffffffffffffffffffffffffffffffffffffffff16036126c6576040517f08c379a00000000000000000000000000000000000000000000000000000000081526004016126bd9061558a565b60405180910390fd5b80600160008573ffffffffffffffffffffffffffffffffffffffff1673ffffffffffffffffffffffffffffffffffffffff16815260200190815260200160002060008473ffffffffffffffffffffffffffffffffffffffff1673ffffffffffffffffffffffffffffffffffffffff16815260200190815260200160002060006101000a81548160ff0219169083151502179055508173ffffffffffffffffffffffffffffffffffffffff168373ffffffffffffffffffffffffffffffffffffffff167f17307eab39ab6107e8899845ad3d59bd9653f200f220920489ca2b5937696c31836040516127b79190613908565b60405180910390a3505050565b600081600554600760008773ffffffffffffffffffffffffffffffffffffffff1673ffffffffffffffffffffffffffffffffffffffff16815260200190815260200160002054856128159190614b8c565b61281f91906155aa565b61282991906155db565b90509392505050565b600073ffffffffffffffffffffffffffffffffffffffff168473ffffffffffffffffffffffffffffffffffffffff16036128a1576040517f08c379a000000000000000000000000000000000000000000000000000000000815260040161289890615466565b60405180910390fd5b60006128ab6109ce565b905060006128b885613128565b905060006128c585613128565b90506128d5838989858589612dd0565b600080600088815260200190815260200160002060008a73ffffffffffffffffffffffffffffffffffffffff1673ffffffffffffffffffffffffffffffffffffffff1681526020019081526020016000205490508581101561296c576040517f08c379a0000000000000000000000000000000000000000000000000000000008152600401612963906154f8565b60405180910390fd5b85810360008089815260200190815260200160002060008b73ffffffffffffffffffffffffffffffffffffffff1673ffffffffffffffffffffffffffffffffffffffff168152602001908152602001600020819055508560008089815260200190815260200160002060008a73ffffffffffffffffffffffffffffffffffffffff1673ffffffffffffffffffffffffffffffffffffffff1681526020019081526020016000206000828254612a219190614837565b925050819055508773ffffffffffffffffffffffffffffffffffffffff168973ffffffffffffffffffffffffffffffffffffffff168573ffffffffffffffffffffffffffffffffffffffff167fc3d58168c5ae7397731d063d5bbf3d657854427343f4c083240f7aacaa2d0f628a8a604051612a9e92919061560f565b60405180910390a4612ab4848a8a86868a612dee565b612ac2848a8a8a8a8a6131a2565b505050505050505050565b600080600090507a184f03e93ff9f4daa797ed6e38ed64bf6a1f0100000000000000008310612b2b577a184f03e93ff9f4daa797ed6e38ed64bf6a1f0100000000000000008381612b2157612b2061504e565b5b0492506040810190505b6d04ee2d6d415b85acef81000000008310612b68576d04ee2d6d415b85acef81000000008381612b5e57612b5d61504e565b5b0492506020810190505b662386f26fc100008310612b9757662386f26fc100008381612b8d57612b8c61504e565b5b0492506010810190505b6305f5e1008310612bc0576305f5e1008381612bb657612bb561504e565b5b0492506008810190505b6127108310612be5576127108381612bdb57612bda61504e565b5b0492506004810190505b60648310612c085760648381612bfe57612bfd61504e565b5b0492506002810190505b600a8310612c17576001810190505b80915050919050565b600073ffffffffffffffffffffffffffffffffffffffff168473ffffffffffffffffffffffffffffffffffffffff1603612c8f576040517f08c379a0000000000000000000000000000000000000000000000000000000008152600401612c869061530b565b60405180910390fd5b6000612c996109ce565b90506000612ca685613128565b90506000612cb385613128565b9050612cc483600089858589612dd0565b8460008088815260200190815260200160002060008973ffffffffffffffffffffffffffffffffffffffff1673ffffffffffffffffffffffffffffffffffffffff1681526020019081526020016000206000828254612d239190614837565b925050819055508673ffffffffffffffffffffffffffffffffffffffff16600073ffffffffffffffffffffffffffffffffffffffff168473ffffffffffffffffffffffffffffffffffffffff167fc3d58168c5ae7397731d063d5bbf3d657854427343f4c083240f7aacaa2d0f628989604051612da192919061560f565b60405180910390a4612db883600089858589612dee565b612dc7836000898989896131a2565b50505050505050565b612dd86130de565b612de6868686868686613379565b505050505050565b505050505050565b612e158473ffffffffffffffffffffffffffffffffffffffff16613549565b15612fc5578373ffffffffffffffffffffffffffffffffffffffff1663bc197c8187878686866040518663ffffffff1660e01b8152600401612e5b95949392919061568d565b6020604051808303816000875af1925050508015612e9757506040513d601f19601f82011682018060405250810190612e94919061570a565b60015b612f3c57612ea3615744565b806308c379a003612eff5750612eb7615766565b80612ec25750612f01565b806040517f08c379a0000000000000000000000000000000000000000000000000000000008152600401612ef69190613b5e565b60405180910390fd5b505b6040517f08c379a0000000000000000000000000000000000000000000000000000000008152600401612f3390615868565b60405180910390fd5b63bc197c8160e01b7bffffffffffffffffffffffffffffffffffffffffffffffffffffffff1916817bffffffffffffffffffffffffffffffffffffffffffffffffffffffff191614612fc3576040517f08c379a0000000000000000000000000000000000000000000000000000000008152600401612fba906158fa565b60405180910390fd5b505b505050505050565b612fd56113ce565b613014576040517f08c379a000000000000000000000000000000000000000000000000000000000815260040161300b90615966565b60405180910390fd5b565b6000613078826040518060400160405280602081526020017f5361666545524332303a206c6f772d6c6576656c2063616c6c206661696c65648152508573ffffffffffffffffffffffffffffffffffffffff1661356c9092919063ffffffff16565b905060008151148061309a575080806020019051810190613099919061599b565b5b6130d9576040517f08c379a00000000000000000000000000000000000000000000000000000000081526004016130d090615a3a565b60405180910390fd5b505050565b6130e66113ce565b15613126576040517f08c379a000000000000000000000000000000000000000000000000000000000815260040161311d90615aa6565b60405180910390fd5b565b60606000600167ffffffffffffffff8111156131475761314661393e565b5b6040519080825280602002602001820160405280156131755781602001602082028036833780820191505090505b509050828160008151811061318d5761318c614a17565b5b60200260200101818152505080915050919050565b6131c18473ffffffffffffffffffffffffffffffffffffffff16613549565b15613371578373ffffffffffffffffffffffffffffffffffffffff1663f23a6e6187878686866040518663ffffffff1660e01b8152600401613207959493929190615ac6565b6020604051808303816000875af192505050801561324357506040513d601f19601f82011682018060405250810190613240919061570a565b60015b6132e85761324f615744565b806308c379a0036132ab5750613263615766565b8061326e57506132ad565b806040517f08c379a00000000000000000000000000000000000000000000000000000000081526004016132a29190613b5e565b60405180910390fd5b505b6040517f08c379a00000000000000000000000000000000000000000000000000000000081526004016132df90615868565b60405180910390fd5b63f23a6e6160e01b7bffffffffffffffffffffffffffffffffffffffffffffffffffffffff1916817bffffffffffffffffffffffffffffffffffffffffffffffffffffffff19161461336f576040517f08c379a0000000000000000000000000000000000000000000000000000000008152600401613366906158fa565b60405180910390fd5b505b505050505050565b613387868686868686613584565b600073ffffffffffffffffffffffffffffffffffffffff168573ffffffffffffffffffffffffffffffffffffffff16036134385760005b8351811015613436578281815181106133da576133d9614a17565b5b6020026020010151600460008684815181106133f9576133f8614a17565b5b60200260200101518152602001908152602001600020600082825461341e9190614837565b925050819055508061342f90614a46565b90506133be565b505b600073ffffffffffffffffffffffffffffffffffffffff168473ffffffffffffffffffffffffffffffffffffffff16036135415760005b835181101561353f57600084828151811061348d5761348c614a17565b5b6020026020010151905060008483815181106134ac576134ab614a17565b5b6020026020010151905060006004600084815260200190815260200160002054905081811015613511576040517f08c379a000000000000000000000000000000000000000000000000000000000815260040161350890615b92565b60405180910390fd5b81810360046000858152602001908152602001600020819055505050508061353890614a46565b905061346f565b505b505050505050565b6000808273ffffffffffffffffffffffffffffffffffffffff163b119050919050565b606061357b848460008561358c565b90509392505050565b505050505050565b6060824710156135d1576040517f08c379a00000000000000000000000000000000000000000000000000000000081526004016135c890615c24565b60405180910390fd5b6000808673ffffffffffffffffffffffffffffffffffffffff1685876040516135fa9190615c75565b60006040518083038185875af1925050503d8060008114613637576040519150601f19603f3d011682016040523d82523d6000602084013e61363c565b606091505b509150915061364d87838387613659565b92505050949350505050565b606083156136bb5760008351036136b35761367385613549565b6136b2576040517f08c379a00000000000000000000000000000000000000000000000000000000081526004016136a990615cd8565b60405180910390fd5b5b8290506136c6565b6136c583836136ce565b5b949350505050565b6000825111156136e15781518083602001fd5b806040517f08c379a00000000000000000000000000000000000000000000000000000000081526004016137159190613b5e565b60405180910390fd5b600073ffffffffffffffffffffffffffffffffffffffff82169050919050565b60006137498261371e565b9050919050565b6137598161373e565b82525050565b6000819050919050565b6137728161375f565b82525050565b600060408201905061378d6000830185613750565b61379a6020830184613769565b9392505050565b6000604051905090565b600080fd5b600080fd5b6137be8161373e565b81146137c957600080fd5b50565b6000813590506137db816137b5565b92915050565b6137ea8161375f565b81146137f557600080fd5b50565b600081359050613807816137e1565b92915050565b60008060408385031215613824576138236137ab565b5b6000613832858286016137cc565b9250506020613843858286016137f8565b9150509250929050565b60006020820190506138626000830184613769565b92915050565b60007fffffffff0000000000000000000000000000000000000000000000000000000082169050919050565b61389d81613868565b81146138a857600080fd5b50565b6000813590506138ba81613894565b92915050565b6000602082840312156138d6576138d56137ab565b5b60006138e4848285016138ab565b91505092915050565b60008115159050919050565b613902816138ed565b82525050565b600060208201905061391d60008301846138f9565b92915050565b600080fd5b600080fd5b6000601f19601f8301169050919050565b7f4e487b7100000000000000000000000000000000000000000000000000000000600052604160045260246000fd5b6139768261392d565b810181811067ffffffffffffffff821117156139955761399461393e565b5b80604052505050565b60006139a86137a1565b90506139b4828261396d565b919050565b600067ffffffffffffffff8211156139d4576139d361393e565b5b6139dd8261392d565b9050602081019050919050565b82818337600083830152505050565b6000613a0c613a07846139b9565b61399e565b905082815260208101848484011115613a2857613a27613928565b5b613a338482856139ea565b509392505050565b600082601f830112613a5057613a4f613923565b5b8135613a608482602086016139f9565b91505092915050565b600060208284031215613a7f57613a7e6137ab565b5b600082013567ffffffffffffffff811115613a9d57613a9c6137b0565b5b613aa984828501613a3b565b91505092915050565b600060208284031215613ac857613ac76137ab565b5b6000613ad6848285016137f8565b91505092915050565b600081519050919050565b600082825260208201905092915050565b60005b83811015613b19578082015181840152602081019050613afe565b60008484015250505050565b6000613b3082613adf565b613b3a8185613aea565b9350613b4a818560208601613afb565b613b538161392d565b840191505092915050565b60006020820190508181036000830152613b788184613b25565b905092915050565b60008060408385031215613b9757613b966137ab565b5b6000613ba5858286016137f8565b9250506020613bb6858286016137f8565b9150509250929050565b6000613bcb8261371e565b9050919050565b613bdb81613bc0565b8114613be657600080fd5b50565b600081359050613bf881613bd2565b92915050565b600060208284031215613c1457613c136137ab565b5b6000613c2284828501613be9565b91505092915050565b600067ffffffffffffffff821115613c4657613c4561393e565b5b602082029050602081019050919050565b600080fd5b6000613c6f613c6a84613c2b565b61399e565b90508083825260208201905060208402830185811115613c9257613c91613c57565b5b835b81811015613cbb5780613ca788826137f8565b845260208401935050602081019050613c94565b5050509392505050565b600082601f830112613cda57613cd9613923565b5b8135613cea848260208601613c5c565b91505092915050565b600067ffffffffffffffff821115613d0e57613d0d61393e565b5b613d178261392d565b9050602081019050919050565b6000613d37613d3284613cf3565b61399e565b905082815260208101848484011115613d5357613d52613928565b5b613d5e8482856139ea565b509392505050565b600082601f830112613d7b57613d7a613923565b5b8135613d8b848260208601613d24565b91505092915050565b60008060008060808587031215613dae57613dad6137ab565b5b6000613dbc878288016137cc565b945050602085013567ffffffffffffffff811115613ddd57613ddc6137b0565b5b613de987828801613cc5565b935050604085013567ffffffffffffffff811115613e0a57613e096137b0565b5b613e1687828801613cc5565b925050606085013567ffffffffffffffff811115613e3757613e366137b0565b5b613e4387828801613d66565b91505092959194509250565b600080600080600060a08688031215613e6b57613e6a6137ab565b5b6000613e79888289016137cc565b9550506020613e8a888289016137cc565b945050604086013567ffffffffffffffff811115613eab57613eaa6137b0565b5b613eb788828901613cc5565b935050606086013567ffffffffffffffff811115613ed857613ed76137b0565b5b613ee488828901613cc5565b925050608086013567ffffffffffffffff811115613f0557613f046137b0565b5b613f1188828901613d66565b9150509295509295909350565b613f27816138ed565b8114613f3257600080fd5b50565b600081359050613f4481613f1e565b92915050565b60008060408385031215613f6157613f606137ab565b5b6000613f6f85828601613f35565b9250506020613f8085828601613f35565b9150509250929050565b6000613f958261373e565b9050919050565b613fa581613f8a565b8114613fb057600080fd5b50565b600081359050613fc281613f9c565b92915050565b60008060408385031215613fdf57613fde6137ab565b5b6000613fed85828601613fb3565b9250506020613ffe858286016137cc565b9150509250929050565b600067ffffffffffffffff8211156140235761402261393e565b5b602082029050602081019050919050565b600061404761404284614008565b61399e565b9050808382526020820190506020840283018581111561406a57614069613c57565b5b835b81811015614093578061407f88826137cc565b84526020840193505060208101905061406c565b5050509392505050565b600082601f8301126140b2576140b1613923565b5b81356140c2848260208601614034565b91505092915050565b600080604083850312156140e2576140e16137ab565b5b600083013567ffffffffffffffff811115614100576140ff6137b0565b5b61410c8582860161409d565b925050602083013567ffffffffffffffff81111561412d5761412c6137b0565b5b61413985828601613cc5565b9150509250929050565b600081519050919050565b600082825260208201905092915050565b6000819050602082019050919050565b6141788161375f565b82525050565b600061418a838361416f565b60208301905092915050565b6000602082019050919050565b60006141ae82614143565b6141b8818561414e565b93506141c38361415f565b8060005b838110156141f45781516141db888261417e565b97506141e683614196565b9250506001810190506141c7565b5085935050505092915050565b6000602082019050818103600083015261421b81846141a3565b905092915050565b600060208284031215614239576142386137ab565b5b6000614247848285016137cc565b91505092915050565b600080fd5b60008083601f84011261426b5761426a613923565b5b8235905067ffffffffffffffff81111561428857614287614250565b5b6020830191508360208202830111156142a4576142a3613c57565b5b9250929050565b600080602083850312156142c2576142c16137ab565b5b600083013567ffffffffffffffff8111156142e0576142df6137b0565b5b6142ec85828601614255565b92509250509250929050565b600060208201905061430d6000830184613750565b92915050565b6000806040838503121561432a576143296137ab565b5b6000614338858286016137cc565b925050602061434985828601613f35565b9150509250929050565b600060208284031215614369576143686137ab565b5b600061437784828501613fb3565b91505092915050565b60008060408385031215614397576143966137ab565b5b60006143a5858286016137cc565b92505060206143b6858286016137cc565b9150509250929050565b600080600080600060a086880312156143dc576143db6137ab565b5b60006143ea888289016137cc565b95505060206143fb888289016137cc565b945050604061440c888289016137f8565b935050606061441d888289016137f8565b925050608086013567ffffffffffffffff81111561443e5761443d6137b0565b5b61444a88828901613d66565b9150509295509295909350565b7f455243313135353a2061646472657373207a65726f206973206e6f742061207660008201527f616c6964206f776e657200000000000000000000000000000000000000000000602082015250565b60006144b3602a83613aea565b91506144be82614457565b604082019050919050565b600060208201905081810360008301526144e2816144a6565b9050919050565b7f5552493a206e6f6e6578697374656e7420746f6b656e00000000000000000000600082015250565b600061451f601683613aea565b915061452a826144e9565b602082019050919050565b6000602082019050818103600083015261454e81614512565b9050919050565b600081905092915050565b600061456b82613adf565b6145758185614555565b9350614585818560208601613afb565b80840191505092915050565b7f2e6a736f6e000000000000000000000000000000000000000000000000000000600082015250565b60006145c7600583614555565b91506145d282614591565b600582019050919050565b60006145e98285614560565b91506145f58284614560565b9150614600826145ba565b91508190509392505050565b7f416c6c6f77204c697374206d696e7420697320636c6f7365642e000000000000600082015250565b6000614642601a83613aea565b915061464d8261460c565b602082019050919050565b6000602082019050818103600083015261467181614635565b9050919050565b7f596f7520617265206e6f74206f6e2074686520616c6c6f774c69737400000000600082015250565b60006146ae601c83613aea565b91506146b982614678565b602082019050919050565b600060208201905081810360008301526146dd816146a1565b9050919050565b7f5061796d656e7453706c69747465723a206163636f756e7420686173206e6f2060008201527f7368617265730000000000000000000000000000000000000000000000000000602082015250565b6000614740602683613aea565b915061474b826146e4565b604082019050919050565b6000602082019050818103600083015261476f81614733565b9050919050565b7f5061796d656e7453706c69747465723a206163636f756e74206973206e6f742060008201527f647565207061796d656e74000000000000000000000000000000000000000000602082015250565b60006147d2602b83613aea565b91506147dd82614776565b604082019050919050565b60006020820190508181036000830152614801816147c5565b9050919050565b7f4e487b7100000000000000000000000000000000000000000000000000000000600052601160045260246000fd5b60006148428261375f565b915061484d8361375f565b925082820190508082111561486557614864614808565b5b92915050565b6000819050919050565b600061489061488b6148868461371e565b61486b565b61371e565b9050919050565b60006148a282614875565b9050919050565b60006148b482614897565b9050919050565b6148c4816148a9565b82525050565b60006040820190506148df60008301856148bb565b6148ec6020830184613769565b9392505050565b7f455243313135353a2063616c6c6572206973206e6f7420746f6b656e206f776e60008201527f6572206f7220617070726f766564000000000000000000000000000000000000602082015250565b600061494f602e83613aea565b915061495a826148f3565b604082019050919050565b6000602082019050818103600083015261497e81614942565b9050919050565b7f455243313135353a206163636f756e747320616e6420696473206c656e67746860008201527f206d69736d617463680000000000000000000000000000000000000000000000602082015250565b60006149e1602983613aea565b91506149ec82614985565b604082019050919050565b60006020820190508181036000830152614a10816149d4565b9050919050565b7f4e487b7100000000000000000000000000000000000000000000000000000000600052603260045260246000fd5b6000614a518261375f565b91507fffffffffffffffffffffffffffffffffffffffffffffffffffffffffffffffff8203614a8357614a82614808565b5b600182019050919050565b7f5075626c6963206d696e7420636c6f7365642e00000000000000000000000000600082015250565b6000614ac4601383613aea565b9150614acf82614a8e565b602082019050919050565b60006020820190508181036000830152614af381614ab7565b9050919050565b7f536f727279206c6f6f6b73206c696b6520796f752061726520747279696e672060008201527f746f206d696e74207468652077726f6e67204e46542e00000000000000000000602082015250565b6000614b56603683613aea565b9150614b6182614afa565b604082019050919050565b60006020820190508181036000830152614b8581614b49565b9050919050565b6000614b978261375f565b9150614ba28361375f565b9250828202614bb08161375f565b91508282048414831517614bc757614bc6614808565b5b5092915050565b7f57726f6e6721204e6f7420656e6f756768206d6f6e65792073656e742e000000600082015250565b6000614c04601d83613aea565b9150614c0f82614bce565b602082019050919050565b60006020820190508181036000830152614c3381614bf7565b9050919050565b600081519050614c49816137e1565b92915050565b600060208284031215614c6557614c646137ab565b5b6000614c7384828501614c3a565b91505092915050565b7f4f776e61626c653a206e6577206f776e657220697320746865207a65726f206160008201527f6464726573730000000000000000000000000000000000000000000000000000602082015250565b6000614cd8602683613aea565b9150614ce382614c7c565b604082019050919050565b60006020820190508181036000830152614d0781614ccb565b9050919050565b7f4f776e61626c653a2063616c6c6572206973206e6f7420746865206f776e6572600082015250565b6000614d44602083613aea565b9150614d4f82614d0e565b602082019050919050565b60006020820190508181036000830152614d7381614d37565b9050919050565b7f4e487b7100000000000000000000000000000000000000000000000000000000600052602260045260246000fd5b60006002820490506001821680614dc157607f821691505b602082108103614dd457614dd3614d7a565b5b50919050565b60008190508160005260206000209050919050565b60006020601f8301049050919050565b600082821b905092915050565b600060088302614e3c7fffffffffffffffffffffffffffffffffffffffffffffffffffffffffffffffff82614dff565b614e468683614dff565b95508019841693508086168417925050509392505050565b6000614e79614e74614e6f8461375f565b61486b565b61375f565b9050919050565b6000819050919050565b614e9383614e5e565b614ea7614e9f82614e80565b848454614e0c565b825550505050565b600090565b614ebc614eaf565b614ec7818484614e8a565b505050565b5b81811015614eeb57614ee0600082614eb4565b600181019050614ecd565b5050565b601f821115614f3057614f0181614dda565b614f0a84614def565b81016020851015614f19578190505b614f2d614f2585614def565b830182614ecc565b50505b505050565b600082821c905092915050565b6000614f5360001984600802614f35565b1980831691505092915050565b6000614f6c8383614f42565b9150826002028217905092915050565b614f8582613adf565b67ffffffffffffffff811115614f9e57614f9d61393e565b5b614fa88254614da9565b614fb3828285614eef565b600060209050601f831160018114614fe65760008415614fd4578287015190505b614fde8582614f60565b865550615046565b601f198416614ff486614dda565b60005b8281101561501c57848901518255600182019150602085019450602081019050614ff7565b868310156150395784890151615035601f891682614f42565b8355505b6001600288020188555050505b505050505050565b7f4e487b7100000000000000000000000000000000000000000000000000000000600052601260045260246000fd5b7f57616c6c6574206c696d69742072656163686564000000000000000000000000600082015250565b60006150b3601483613aea565b91506150be8261507d565b602082019050919050565b600060208201905081810360008301526150e2816150a6565b9050919050565b7f536f7272792077652068617665206d696e746564206f75742100000000000000600082015250565b600061511f601983613aea565b915061512a826150e9565b602082019050919050565b6000602082019050818103600083015261514e81615112565b9050919050565b7f416464726573733a20696e73756666696369656e742062616c616e6365000000600082015250565b600061518b601d83613aea565b915061519682615155565b602082019050919050565b600060208201905081810360008301526151ba8161517e565b9050919050565b600081905092915050565b50565b60006151dc6000836151c1565b91506151e7826151cc565b600082019050919050565b60006151fd826151cf565b9150819050919050565b7f416464726573733a20756e61626c6520746f2073656e642076616c75652c207260008201527f6563697069656e74206d61792068617665207265766572746564000000000000602082015250565b6000615263603a83613aea565b915061526e82615207565b604082019050919050565b6000602082019050818103600083015261529281615256565b9050919050565b7f455243313135353a206d696e7420746f20746865207a65726f2061646472657360008201527f7300000000000000000000000000000000000000000000000000000000000000602082015250565b60006152f5602183613aea565b915061530082615299565b604082019050919050565b60006020820190508181036000830152615324816152e8565b9050919050565b7f455243313135353a2069647320616e6420616d6f756e7473206c656e6774682060008201527f6d69736d61746368000000000000000000000000000000000000000000000000602082015250565b6000615387602883613aea565b91506153928261532b565b604082019050919050565b600060208201905081810360008301526153b68161537a565b9050919050565b600060408201905081810360008301526153d781856141a3565b905081810360208301526153eb81846141a3565b90509392505050565b7f455243313135353a207472616e7366657220746f20746865207a65726f20616460008201527f6472657373000000000000000000000000000000000000000000000000000000602082015250565b6000615450602583613aea565b915061545b826153f4565b604082019050919050565b6000602082019050818103600083015261547f81615443565b9050919050565b7f455243313135353a20696e73756666696369656e742062616c616e636520666f60008201527f72207472616e7366657200000000000000000000000000000000000000000000602082015250565b60006154e2602a83613aea565b91506154ed82615486565b604082019050919050565b60006020820190508181036000830152615511816154d5565b9050919050565b7f455243313135353a2073657474696e6720617070726f76616c2073746174757360008201527f20666f722073656c660000000000000000000000000000000000000000000000602082015250565b6000615574602983613aea565b915061557f82615518565b604082019050919050565b600060208201905081810360008301526155a381615567565b9050919050565b60006155b58261375f565b91506155c08361375f565b9250826155d0576155cf61504e565b5b828204905092915050565b60006155e68261375f565b91506155f18361375f565b925082820390508181111561560957615608614808565b5b92915050565b60006040820190506156246000830185613769565b6156316020830184613769565b9392505050565b600081519050919050565b600082825260208201905092915050565b600061565f82615638565b6156698185615643565b9350615679818560208601613afb565b6156828161392d565b840191505092915050565b600060a0820190506156a26000830188613750565b6156af6020830187613750565b81810360408301526156c181866141a3565b905081810360608301526156d581856141a3565b905081810360808301526156e98184615654565b90509695505050505050565b60008151905061570481613894565b92915050565b6000602082840312156157205761571f6137ab565b5b600061572e848285016156f5565b91505092915050565b60008160e01c9050919050565b600060033d11156157635760046000803e615760600051615737565b90505b90565b600060443d106157f3576157786137a1565b60043d036004823e80513d602482011167ffffffffffffffff821117156157a05750506157f3565b808201805167ffffffffffffffff8111156157be57505050506157f3565b80602083010160043d0385018111156157db5750505050506157f3565b6157ea8260200185018661396d565b82955050505050505b90565b7f455243313135353a207472616e7366657220746f206e6f6e2d4552433131353560008201527f526563656976657220696d706c656d656e746572000000000000000000000000602082015250565b6000615852603483613aea565b915061585d826157f6565b604082019050919050565b6000602082019050818103600083015261588181615845565b9050919050565b7f455243313135353a204552433131353552656365697665722072656a6563746560008201527f6420746f6b656e73000000000000000000000000000000000000000000000000602082015250565b60006158e4602883613aea565b91506158ef82615888565b604082019050919050565b60006020820190508181036000830152615913816158d7565b9050919050565b7f5061757361626c653a206e6f7420706175736564000000000000000000000000600082015250565b6000615950601483613aea565b915061595b8261591a565b602082019050919050565b6000602082019050818103600083015261597f81615943565b9050919050565b60008151905061599581613f1e565b92915050565b6000602082840312156159b1576159b06137ab565b5b60006159bf84828501615986565b91505092915050565b7f5361666545524332303a204552433230206f7065726174696f6e20646964206e60008201527f6f74207375636365656400000000000000000000000000000000000000000000602082015250565b6000615a24602a83613aea565b9150615a2f826159c8565b604082019050919050565b60006020820190508181036000830152615a5381615a17565b9050919050565b7f5061757361626c653a2070617573656400000000000000000000000000000000600082015250565b6000615a90601083613aea565b9150615a9b82615a5a565b602082019050919050565b60006020820190508181036000830152615abf81615a83565b9050919050565b600060a082019050615adb6000830188613750565b615ae86020830187613750565b615af56040830186613769565b615b026060830185613769565b8181036080830152615b148184615654565b90509695505050505050565b7f455243313135353a206275726e20616d6f756e74206578636565647320746f7460008201527f616c537570706c79000000000000000000000000000000000000000000000000602082015250565b6000615b7c602883613aea565b9150615b8782615b20565b604082019050919050565b60006020820190508181036000830152615bab81615b6f565b9050919050565b7f416464726573733a20696e73756666696369656e742062616c616e636520666f60008201527f722063616c6c0000000000000000000000000000000000000000000000000000602082015250565b6000615c0e602683613aea565b9150615c1982615bb2565b604082019050919050565b60006020820190508181036000830152615c3d81615c01565b9050919050565b6000615c4f82615638565b615c5981856151c1565b9350615c69818560208601613afb565b80840191505092915050565b6000615c818284615c44565b915081905092915050565b7f416464726573733a2063616c6c20746f206e6f6e2d636f6e7472616374000000600082015250565b6000615cc2601d83613aea565b9150615ccd82615c8c565b602082019050919050565b60006020820190508181036000830152615cf181615cb5565b905091905056fea26469706673582212205df8e169997e7ebaf2c4e90792e18b45cec085ae7c8b4cf01a57b9a86246622964736f6c63430008120033697066733a2f2f516d61613654755032733970534b637a48463472775768544b556479677272447338526d595971436a50334879652f",
			"opcodes": "PUSH1 0x80 PUSH1 0x40 MSTORE PUSH7 0x470DE4DF820000 PUSH1 0xC SSTORE PUSH7 0x2386F26FC10000 PUSH1 0xD SSTORE PUSH1 0x14 PUSH1 0xE SSTORE PUSH1 0x3 PUSH1 0xF SSTORE PUSH1 0x0 PUSH1 0x10 PUSH1 0x0 PUSH2 0x100 EXP DUP2 SLOAD DUP2 PUSH1 0xFF MUL NOT AND SWAP1 DUP4 ISZERO ISZERO MUL OR SWAP1 SSTORE POP PUSH1 0x1 PUSH1 0x10 PUSH1 0x1 PUSH2 0x100 EXP DUP2 SLOAD DUP2 PUSH1 0xFF MUL NOT AND SWAP1 DUP4 ISZERO ISZERO MUL OR SWAP1 SSTORE POP CALLVALUE DUP1 ISZERO PUSH3 0x67 JUMPI PUSH1 0x0 DUP1 REVERT JUMPDEST POP PUSH1 0x40 MLOAD PUSH3 0x6D2C CODESIZE SUB DUP1 PUSH3 0x6D2C DUP4 CODECOPY DUP2 DUP2 ADD PUSH1 0x40 MSTORE DUP2 ADD SWAP1 PUSH3 0x8D SWAP2 SWAP1 PUSH3 0x819 JUMP JUMPDEST DUP2 DUP2 PUSH1 0x40 MLOAD DUP1 PUSH1 0x60 ADD PUSH1 0x40 MSTORE DUP1 PUSH1 0x36 DUP2 MSTORE PUSH1 0x20 ADD PUSH3 0x6CF6 PUSH1 0x36 SWAP2 CODECOPY PUSH3 0xBA DUP2 PUSH3 0x1FE PUSH1 0x20 SHL PUSH1 0x20 SHR JUMP JUMPDEST POP PUSH3 0xDB PUSH3 0xCF PUSH3 0x213 PUSH1 0x20 SHL PUSH1 0x20 SHR JUMP JUMPDEST PUSH3 0x21B PUSH1 0x20 SHL PUSH1 0x20 SHR JUMP JUMPDEST PUSH1 0x0 PUSH1 0x3 PUSH1 0x14 PUSH2 0x100 EXP DUP2 SLOAD DUP2 PUSH1 0xFF MUL NOT AND SWAP1 DUP4 ISZERO ISZERO MUL OR SWAP1 SSTORE POP DUP1 MLOAD DUP3 MLOAD EQ PUSH3 0x13D JUMPI PUSH1 0x40 MLOAD PUSH32 0x8C379A000000000000000000000000000000000000000000000000000000000 DUP2 MSTORE PUSH1 0x4 ADD PUSH3 0x134 SWAP1 PUSH3 0x925 JUMP JUMPDEST PUSH1 0x40 MLOAD DUP1 SWAP2 SUB SWAP1 REVERT JUMPDEST PUSH1 0x0 DUP3 MLOAD GT PUSH3 0x184 JUMPI PUSH1 0x40 MLOAD PUSH32 0x8C379A000000000000000000000000000000000000000000000000000000000 DUP2 MSTORE PUSH1 0x4 ADD PUSH3 0x17B SWAP1 PUSH3 0x997 JUMP JUMPDEST PUSH1 0x40 MLOAD DUP1 SWAP2 SUB SWAP1 REVERT JUMPDEST PUSH1 0x0 JUMPDEST DUP3 MLOAD DUP2 LT ISZERO PUSH3 0x1F3 JUMPI PUSH3 0x1DD DUP4 DUP3 DUP2 MLOAD DUP2 LT PUSH3 0x1AB JUMPI PUSH3 0x1AA PUSH3 0x9B9 JUMP JUMPDEST JUMPDEST PUSH1 0x20 MUL PUSH1 0x20 ADD ADD MLOAD DUP4 DUP4 DUP2 MLOAD DUP2 LT PUSH3 0x1C9 JUMPI PUSH3 0x1C8 PUSH3 0x9B9 JUMP JUMPDEST JUMPDEST PUSH1 0x20 MUL PUSH1 0x20 ADD ADD MLOAD PUSH3 0x2E1 PUSH1 0x20 SHL PUSH1 0x20 SHR JUMP JUMPDEST DUP1 DUP1 PUSH3 0x1EA SWAP1 PUSH3 0xA17 JUMP JUMPDEST SWAP2 POP POP PUSH3 0x187 JUMP JUMPDEST POP POP POP POP POP PUSH3 0xFB8 JUMP JUMPDEST DUP1 PUSH1 0x2 SWAP1 DUP2 PUSH3 0x20F SWAP2 SWAP1 PUSH3 0xCA5 JUMP JUMPDEST POP POP JUMP JUMPDEST PUSH1 0x0 CALLER SWAP1 POP SWAP1 JUMP JUMPDEST PUSH1 0x0 PUSH1 0x3 PUSH1 0x0 SWAP1 SLOAD SWAP1 PUSH2 0x100 EXP SWAP1 DIV PUSH20 0xFFFFFFFFFFFFFFFFFFFFFFFFFFFFFFFFFFFFFFFF AND SWAP1 POP DUP2 PUSH1 0x3 PUSH1 0x0 PUSH2 0x100 EXP DUP2 SLOAD DUP2 PUSH20 0xFFFFFFFFFFFFFFFFFFFFFFFFFFFFFFFFFFFFFFFF MUL NOT AND SWAP1 DUP4 PUSH20 0xFFFFFFFFFFFFFFFFFFFFFFFFFFFFFFFFFFFFFFFF AND MUL OR SWAP1 SSTORE POP DUP2 PUSH20 0xFFFFFFFFFFFFFFFFFFFFFFFFFFFFFFFFFFFFFFFF AND DUP2 PUSH20 0xFFFFFFFFFFFFFFFFFFFFFFFFFFFFFFFFFFFFFFFF AND PUSH32 0x8BE0079C531659141344CD1FD0A4F28419497F9722A3DAAFE3B4186F6B6457E0 PUSH1 0x40 MLOAD PUSH1 0x40 MLOAD DUP1 SWAP2 SUB SWAP1 LOG3 POP POP JUMP JUMPDEST PUSH1 0x0 PUSH20 0xFFFFFFFFFFFFFFFFFFFFFFFFFFFFFFFFFFFFFFFF AND DUP3 PUSH20 0xFFFFFFFFFFFFFFFFFFFFFFFFFFFFFFFFFFFFFFFF AND SUB PUSH3 0x353 JUMPI PUSH1 0x40 MLOAD PUSH32 0x8C379A000000000000000000000000000000000000000000000000000000000 DUP2 MSTORE PUSH1 0x4 ADD PUSH3 0x34A SWAP1 PUSH3 0xE02 JUMP JUMPDEST PUSH1 0x40 MLOAD DUP1 SWAP2 SUB SWAP1 REVERT JUMPDEST PUSH1 0x0 DUP2 GT PUSH3 0x399 JUMPI PUSH1 0x40 MLOAD PUSH32 0x8C379A000000000000000000000000000000000000000000000000000000000 DUP2 MSTORE PUSH1 0x4 ADD PUSH3 0x390 SWAP1 PUSH3 0xE74 JUMP JUMPDEST PUSH1 0x40 MLOAD DUP1 SWAP2 SUB SWAP1 REVERT JUMPDEST PUSH1 0x0 PUSH1 0x7 PUSH1 0x0 DUP5 PUSH20 0xFFFFFFFFFFFFFFFFFFFFFFFFFFFFFFFFFFFFFFFF AND PUSH20 0xFFFFFFFFFFFFFFFFFFFFFFFFFFFFFFFFFFFFFFFF AND DUP2 MSTORE PUSH1 0x20 ADD SWAP1 DUP2 MSTORE PUSH1 0x20 ADD PUSH1 0x0 KECCAK256 SLOAD EQ PUSH3 0x41E JUMPI PUSH1 0x40 MLOAD PUSH32 0x8C379A000000000000000000000000000000000000000000000000000000000 DUP2 MSTORE PUSH1 0x4 ADD PUSH3 0x415 SWAP1 PUSH3 0xF0C JUMP JUMPDEST PUSH1 0x40 MLOAD DUP1 SWAP2 SUB SWAP1 REVERT JUMPDEST PUSH1 0x9 DUP3 SWAP1 DUP1 PUSH1 0x1 DUP2 SLOAD ADD DUP1 DUP3 SSTORE DUP1 SWAP2 POP POP PUSH1 0x1 SWAP1 SUB SWAP1 PUSH1 0x0 MSTORE PUSH1 0x20 PUSH1 0x0 KECCAK256 ADD PUSH1 0x0 SWAP1 SWAP2 SWAP1 SWAP2 SWAP1 SWAP2 PUSH2 0x100 EXP DUP2 SLOAD DUP2 PUSH20 0xFFFFFFFFFFFFFFFFFFFFFFFFFFFFFFFFFFFFFFFF MUL NOT AND SWAP1 DUP4 PUSH20 0xFFFFFFFFFFFFFFFFFFFFFFFFFFFFFFFFFFFFFFFF AND MUL OR SWAP1 SSTORE POP DUP1 PUSH1 0x7 PUSH1 0x0 DUP5 PUSH20 0xFFFFFFFFFFFFFFFFFFFFFFFFFFFFFFFFFFFFFFFF AND PUSH20 0xFFFFFFFFFFFFFFFFFFFFFFFFFFFFFFFFFFFFFFFF AND DUP2 MSTORE PUSH1 0x20 ADD SWAP1 DUP2 MSTORE PUSH1 0x20 ADD PUSH1 0x0 KECCAK256 DUP2 SWAP1 SSTORE POP DUP1 PUSH1 0x5 SLOAD PUSH3 0x4D5 SWAP2 SWAP1 PUSH3 0xF2E JUMP JUMPDEST PUSH1 0x5 DUP2 SWAP1 SSTORE POP PUSH32 0x40C340F65E17194D14DDDDB073D3C9F888E3CB52B5AAE0C6C7706B4FBC905FAC DUP3 DUP3 PUSH1 0x40 MLOAD PUSH3 0x50E SWAP3 SWAP2 SWAP1 PUSH3 0xF8B JUMP JUMPDEST PUSH1 0x40 MLOAD DUP1 SWAP2 SUB SWAP1 LOG1 POP POP JUMP JUMPDEST PUSH1 0x0 PUSH1 0x40 MLOAD SWAP1 POP SWAP1 JUMP JUMPDEST PUSH1 0x0 DUP1 REVERT JUMPDEST PUSH1 0x0 DUP1 REVERT JUMPDEST PUSH1 0x0 DUP1 REVERT JUMPDEST PUSH1 0x0 PUSH1 0x1F NOT PUSH1 0x1F DUP4 ADD AND SWAP1 POP SWAP2 SWAP1 POP JUMP JUMPDEST PUSH32 0x4E487B7100000000000000000000000000000000000000000000000000000000 PUSH1 0x0 MSTORE PUSH1 0x41 PUSH1 0x4 MSTORE PUSH1 0x24 PUSH1 0x0 REVERT JUMPDEST PUSH3 0x57E DUP3 PUSH3 0x533 JUMP JUMPDEST DUP2 ADD DUP2 DUP2 LT PUSH8 0xFFFFFFFFFFFFFFFF DUP3 GT OR ISZERO PUSH3 0x5A0 JUMPI PUSH3 0x59F PUSH3 0x544 JUMP JUMPDEST JUMPDEST DUP1 PUSH1 0x40 MSTORE POP POP POP JUMP JUMPDEST PUSH1 0x0 PUSH3 0x5B5 PUSH3 0x51A JUMP JUMPDEST SWAP1 POP PUSH3 0x5C3 DUP3 DUP3 PUSH3 0x573 JUMP JUMPDEST SWAP2 SWAP1 POP JUMP JUMPDEST PUSH1 0x0 PUSH8 0xFFFFFFFFFFFFFFFF DUP3 GT ISZERO PUSH3 0x5E6 JUMPI PUSH3 0x5E5 PUSH3 0x544 JUMP JUMPDEST JUMPDEST PUSH1 0x20 DUP3 MUL SWAP1 POP PUSH1 0x20 DUP2 ADD SWAP1 POP SWAP2 SWAP1 POP JUMP JUMPDEST PUSH1 0x0 DUP1 REVERT JUMPDEST PUSH1 0x0 PUSH20 0xFFFFFFFFFFFFFFFFFFFFFFFFFFFFFFFFFFFFFFFF DUP3 AND SWAP1 POP SWAP2 SWAP1 POP JUMP JUMPDEST PUSH1 0x0 PUSH3 0x629 DUP3 PUSH3 0x5FC JUMP JUMPDEST SWAP1 POP SWAP2 SWAP1 POP JUMP JUMPDEST PUSH3 0x63B DUP2 PUSH3 0x61C JUMP JUMPDEST DUP2 EQ PUSH3 0x647 JUMPI PUSH1 0x0 DUP1 REVERT JUMPDEST POP JUMP JUMPDEST PUSH1 0x0 DUP2 MLOAD SWAP1 POP PUSH3 0x65B DUP2 PUSH3 0x630 JUMP JUMPDEST SWAP3 SWAP2 POP POP JUMP JUMPDEST PUSH1 0x0 PUSH3 0x678 PUSH3 0x672 DUP5 PUSH3 0x5C8 JUMP JUMPDEST PUSH3 0x5A9 JUMP JUMPDEST SWAP1 POP DUP1 DUP4 DUP3 MSTORE PUSH1 0x20 DUP3 ADD SWAP1 POP PUSH1 0x20 DUP5 MUL DUP4 ADD DUP6 DUP2 GT ISZERO PUSH3 0x69E JUMPI PUSH3 0x69D PUSH3 0x5F7 JUMP JUMPDEST JUMPDEST DUP4 JUMPDEST DUP2 DUP2 LT ISZERO PUSH3 0x6CB JUMPI DUP1 PUSH3 0x6B6 DUP9 DUP3 PUSH3 0x64A JUMP JUMPDEST DUP5 MSTORE PUSH1 0x20 DUP5 ADD SWAP4 POP POP PUSH1 0x20 DUP2 ADD SWAP1 POP PUSH3 0x6A0 JUMP JUMPDEST POP POP POP SWAP4 SWAP3 POP POP POP JUMP JUMPDEST PUSH1 0x0 DUP3 PUSH1 0x1F DUP4 ADD SLT PUSH3 0x6ED JUMPI PUSH3 0x6EC PUSH3 0x52E JUMP JUMPDEST JUMPDEST DUP2 MLOAD PUSH3 0x6FF DUP5 DUP3 PUSH1 0x20 DUP7 ADD PUSH3 0x661 JUMP JUMPDEST SWAP2 POP POP SWAP3 SWAP2 POP POP JUMP JUMPDEST PUSH1 0x0 PUSH8 0xFFFFFFFFFFFFFFFF DUP3 GT ISZERO PUSH3 0x726 JUMPI PUSH3 0x725 PUSH3 0x544 JUMP JUMPDEST JUMPDEST PUSH1 0x20 DUP3 MUL SWAP1 POP PUSH1 0x20 DUP2 ADD SWAP1 POP SWAP2 SWAP1 POP JUMP JUMPDEST PUSH1 0x0 DUP2 SWAP1 POP SWAP2 SWAP1 POP JUMP JUMPDEST PUSH3 0x74C DUP2 PUSH3 0x737 JUMP JUMPDEST DUP2 EQ PUSH3 0x758 JUMPI PUSH1 0x0 DUP1 REVERT JUMPDEST POP JUMP JUMPDEST PUSH1 0x0 DUP2 MLOAD SWAP1 POP PUSH3 0x76C DUP2 PUSH3 0x741 JUMP JUMPDEST SWAP3 SWAP2 POP POP JUMP JUMPDEST PUSH1 0x0 PUSH3 0x789 PUSH3 0x783 DUP5 PUSH3 0x708 JUMP JUMPDEST PUSH3 0x5A9 JUMP JUMPDEST SWAP1 POP DUP1 DUP4 DUP3 MSTORE PUSH1 0x20 DUP3 ADD SWAP1 POP PUSH1 0x20 DUP5 MUL DUP4 ADD DUP6 DUP2 GT ISZERO PUSH3 0x7AF JUMPI PUSH3 0x7AE PUSH3 0x5F7 JUMP JUMPDEST JUMPDEST DUP4 JUMPDEST DUP2 DUP2 LT ISZERO PUSH3 0x7DC JUMPI DUP1 PUSH3 0x7C7 DUP9 DUP3 PUSH3 0x75B JUMP JUMPDEST DUP5 MSTORE PUSH1 0x20 DUP5 ADD SWAP4 POP POP PUSH1 0x20 DUP2 ADD SWAP1 POP PUSH3 0x7B1 JUMP JUMPDEST POP POP POP SWAP4 SWAP3 POP POP POP JUMP JUMPDEST PUSH1 0x0 DUP3 PUSH1 0x1F DUP4 ADD SLT PUSH3 0x7FE JUMPI PUSH3 0x7FD PUSH3 0x52E JUMP JUMPDEST JUMPDEST DUP2 MLOAD PUSH3 0x810 DUP5 DUP3 PUSH1 0x20 DUP7 ADD PUSH3 0x772 JUMP JUMPDEST SWAP2 POP POP SWAP3 SWAP2 POP POP JUMP JUMPDEST PUSH1 0x0 DUP1 PUSH1 0x40 DUP4 DUP6 SUB SLT ISZERO PUSH3 0x833 JUMPI PUSH3 0x832 PUSH3 0x524 JUMP JUMPDEST JUMPDEST PUSH1 0x0 DUP4 ADD MLOAD PUSH8 0xFFFFFFFFFFFFFFFF DUP2 GT ISZERO PUSH3 0x854 JUMPI PUSH3 0x853 PUSH3 0x529 JUMP JUMPDEST JUMPDEST PUSH3 0x862 DUP6 DUP3 DUP7 ADD PUSH3 0x6D5 JUMP JUMPDEST SWAP3 POP POP PUSH1 0x20 DUP4 ADD MLOAD PUSH8 0xFFFFFFFFFFFFFFFF DUP2 GT ISZERO PUSH3 0x886 JUMPI PUSH3 0x885 PUSH3 0x529 JUMP JUMPDEST JUMPDEST PUSH3 0x894 DUP6 DUP3 DUP7 ADD PUSH3 0x7E6 JUMP JUMPDEST SWAP2 POP POP SWAP3 POP SWAP3 SWAP1 POP JUMP JUMPDEST PUSH1 0x0 DUP3 DUP3 MSTORE PUSH1 0x20 DUP3 ADD SWAP1 POP SWAP3 SWAP2 POP POP JUMP JUMPDEST PUSH32 0x5061796D656E7453706C69747465723A2070617965657320616E642073686172 PUSH1 0x0 DUP3 ADD MSTORE PUSH32 0x6573206C656E677468206D69736D617463680000000000000000000000000000 PUSH1 0x20 DUP3 ADD MSTORE POP JUMP JUMPDEST PUSH1 0x0 PUSH3 0x90D PUSH1 0x32 DUP4 PUSH3 0x89E JUMP JUMPDEST SWAP2 POP PUSH3 0x91A DUP3 PUSH3 0x8AF JUMP JUMPDEST PUSH1 0x40 DUP3 ADD SWAP1 POP SWAP2 SWAP1 POP JUMP JUMPDEST PUSH1 0x0 PUSH1 0x20 DUP3 ADD SWAP1 POP DUP2 DUP2 SUB PUSH1 0x0 DUP4 ADD MSTORE PUSH3 0x940 DUP2 PUSH3 0x8FE JUMP JUMPDEST SWAP1 POP SWAP2 SWAP1 POP JUMP JUMPDEST PUSH32 0x5061796D656E7453706C69747465723A206E6F20706179656573000000000000 PUSH1 0x0 DUP3 ADD MSTORE POP JUMP JUMPDEST PUSH1 0x0 PUSH3 0x97F PUSH1 0x1A DUP4 PUSH3 0x89E JUMP JUMPDEST SWAP2 POP PUSH3 0x98C DUP3 PUSH3 0x947 JUMP JUMPDEST PUSH1 0x20 DUP3 ADD SWAP1 POP SWAP2 SWAP1 POP JUMP JUMPDEST PUSH1 0x0 PUSH1 0x20 DUP3 ADD SWAP1 POP DUP2 DUP2 SUB PUSH1 0x0 DUP4 ADD MSTORE PUSH3 0x9B2 DUP2 PUSH3 0x970 JUMP JUMPDEST SWAP1 POP SWAP2 SWAP1 POP JUMP JUMPDEST PUSH32 0x4E487B7100000000000000000000000000000000000000000000000000000000 PUSH1 0x0 MSTORE PUSH1 0x32 PUSH1 0x4 MSTORE PUSH1 0x24 PUSH1 0x0 REVERT JUMPDEST PUSH32 0x4E487B7100000000000000000000000000000000000000000000000000000000 PUSH1 0x0 MSTORE PUSH1 0x11 PUSH1 0x4 MSTORE PUSH1 0x24 PUSH1 0x0 REVERT JUMPDEST PUSH1 0x0 PUSH3 0xA24 DUP3 PUSH3 0x737 JUMP JUMPDEST SWAP2 POP PUSH32 0xFFFFFFFFFFFFFFFFFFFFFFFFFFFFFFFFFFFFFFFFFFFFFFFFFFFFFFFFFFFFFFFF DUP3 SUB PUSH3 0xA59 JUMPI PUSH3 0xA58 PUSH3 0x9E8 JUMP JUMPDEST JUMPDEST PUSH1 0x1 DUP3 ADD SWAP1 POP SWAP2 SWAP1 POP JUMP JUMPDEST PUSH1 0x0 DUP2 MLOAD SWAP1 POP SWAP2 SWAP1 POP JUMP JUMPDEST PUSH32 0x4E487B7100000000000000000000000000000000000000000000000000000000 PUSH1 0x0 MSTORE PUSH1 0x22 PUSH1 0x4 MSTORE PUSH1 0x24 PUSH1 0x0 REVERT JUMPDEST PUSH1 0x0 PUSH1 0x2 DUP3 DIV SWAP1 POP PUSH1 0x1 DUP3 AND DUP1 PUSH3 0xAB7 JUMPI PUSH1 0x7F DUP3 AND SWAP2 POP JUMPDEST PUSH1 0x20 DUP3 LT DUP2 SUB PUSH3 0xACD JUMPI PUSH3 0xACC PUSH3 0xA6F JUMP JUMPDEST JUMPDEST POP SWAP2 SWAP1 POP JUMP JUMPDEST PUSH1 0x0 DUP2 SWAP1 POP DUP2 PUSH1 0x0 MSTORE PUSH1 0x20 PUSH1 0x0 KECCAK256 SWAP1 POP SWAP2 SWAP1 POP JUMP JUMPDEST PUSH1 0x0 PUSH1 0x20 PUSH1 0x1F DUP4 ADD DIV SWAP1 POP SWAP2 SWAP1 POP JUMP JUMPDEST PUSH1 0x0 DUP3 DUP3 SHL SWAP1 POP SWAP3 SWAP2 POP POP JUMP JUMPDEST PUSH1 0x0 PUSH1 0x8 DUP4 MUL PUSH3 0xB37 PUSH32 0xFFFFFFFFFFFFFFFFFFFFFFFFFFFFFFFFFFFFFFFFFFFFFFFFFFFFFFFFFFFFFFFF DUP3 PUSH3 0xAF8 JUMP JUMPDEST PUSH3 0xB43 DUP7 DUP4 PUSH3 0xAF8 JUMP JUMPDEST SWAP6 POP DUP1 NOT DUP5 AND SWAP4 POP DUP1 DUP7 AND DUP5 OR SWAP3 POP POP POP SWAP4 SWAP3 POP POP POP JUMP JUMPDEST PUSH1 0x0 DUP2 SWAP1 POP SWAP2 SWAP1 POP JUMP JUMPDEST PUSH1 0x0 PUSH3 0xB86 PUSH3 0xB80 PUSH3 0xB7A DUP5 PUSH3 0x737 JUMP JUMPDEST PUSH3 0xB5B JUMP JUMPDEST PUSH3 0x737 JUMP JUMPDEST SWAP1 POP SWAP2 SWAP1 POP JUMP JUMPDEST PUSH1 0x0 DUP2 SWAP1 POP SWAP2 SWAP1 POP JUMP JUMPDEST PUSH3 0xBA2 DUP4 PUSH3 0xB65 JUMP JUMPDEST PUSH3 0xBBA PUSH3 0xBB1 DUP3 PUSH3 0xB8D JUMP JUMPDEST DUP5 DUP5 SLOAD PUSH3 0xB05 JUMP JUMPDEST DUP3 SSTORE POP POP POP POP JUMP JUMPDEST PUSH1 0x0 SWAP1 JUMP JUMPDEST PUSH3 0xBD1 PUSH3 0xBC2 JUMP JUMPDEST PUSH3 0xBDE DUP2 DUP5 DUP5 PUSH3 0xB97 JUMP JUMPDEST POP POP POP JUMP JUMPDEST JUMPDEST DUP2 DUP2 LT ISZERO PUSH3 0xC06 JUMPI PUSH3 0xBFA PUSH1 0x0 DUP3 PUSH3 0xBC7 JUMP JUMPDEST PUSH1 0x1 DUP2 ADD SWAP1 POP PUSH3 0xBE4 JUMP JUMPDEST POP POP JUMP JUMPDEST PUSH1 0x1F DUP3 GT ISZERO PUSH3 0xC55 JUMPI PUSH3 0xC1F DUP2 PUSH3 0xAD3 JUMP JUMPDEST PUSH3 0xC2A DUP5 PUSH3 0xAE8 JUMP JUMPDEST DUP2 ADD PUSH1 0x20 DUP6 LT ISZERO PUSH3 0xC3A JUMPI DUP2 SWAP1 POP JUMPDEST PUSH3 0xC52 PUSH3 0xC49 DUP6 PUSH3 0xAE8 JUMP JUMPDEST DUP4 ADD DUP3 PUSH3 0xBE3 JUMP JUMPDEST POP POP JUMPDEST POP POP POP JUMP JUMPDEST PUSH1 0x0 DUP3 DUP3 SHR SWAP1 POP SWAP3 SWAP2 POP POP JUMP JUMPDEST PUSH1 0x0 PUSH3 0xC7A PUSH1 0x0 NOT DUP5 PUSH1 0x8 MUL PUSH3 0xC5A JUMP JUMPDEST NOT DUP1 DUP4 AND SWAP2 POP POP SWAP3 SWAP2 POP POP JUMP JUMPDEST PUSH1 0x0 PUSH3 0xC95 DUP4 DUP4 PUSH3 0xC67 JUMP JUMPDEST SWAP2 POP DUP3 PUSH1 0x2 MUL DUP3 OR SWAP1 POP SWAP3 SWAP2 POP POP JUMP JUMPDEST PUSH3 0xCB0 DUP3 PUSH3 0xA64 JUMP JUMPDEST PUSH8 0xFFFFFFFFFFFFFFFF DUP2 GT ISZERO PUSH3 0xCCC JUMPI PUSH3 0xCCB PUSH3 0x544 JUMP JUMPDEST JUMPDEST PUSH3 0xCD8 DUP3 SLOAD PUSH3 0xA9E JUMP JUMPDEST PUSH3 0xCE5 DUP3 DUP3 DUP6 PUSH3 0xC0A JUMP JUMPDEST PUSH1 0x0 PUSH1 0x20 SWAP1 POP PUSH1 0x1F DUP4 GT PUSH1 0x1 DUP2 EQ PUSH3 0xD1D JUMPI PUSH1 0x0 DUP5 ISZERO PUSH3 0xD08 JUMPI DUP3 DUP8 ADD MLOAD SWAP1 POP JUMPDEST PUSH3 0xD14 DUP6 DUP3 PUSH3 0xC87 JUMP JUMPDEST DUP7 SSTORE POP PUSH3 0xD84 JUMP JUMPDEST PUSH1 0x1F NOT DUP5 AND PUSH3 0xD2D DUP7 PUSH3 0xAD3 JUMP JUMPDEST PUSH1 0x0 JUMPDEST DUP3 DUP2 LT ISZERO PUSH3 0xD57 JUMPI DUP5 DUP10 ADD MLOAD DUP3 SSTORE PUSH1 0x1 DUP3 ADD SWAP2 POP PUSH1 0x20 DUP6 ADD SWAP5 POP PUSH1 0x20 DUP2 ADD SWAP1 POP PUSH3 0xD30 JUMP JUMPDEST DUP7 DUP4 LT ISZERO PUSH3 0xD77 JUMPI DUP5 DUP10 ADD MLOAD PUSH3 0xD73 PUSH1 0x1F DUP10 AND DUP3 PUSH3 0xC67 JUMP JUMPDEST DUP4 SSTORE POP JUMPDEST PUSH1 0x1 PUSH1 0x2 DUP9 MUL ADD DUP9 SSTORE POP POP POP JUMPDEST POP POP POP POP POP POP JUMP JUMPDEST PUSH32 0x5061796D656E7453706C69747465723A206163636F756E742069732074686520 PUSH1 0x0 DUP3 ADD MSTORE PUSH32 0x7A65726F20616464726573730000000000000000000000000000000000000000 PUSH1 0x20 DUP3 ADD MSTORE POP JUMP JUMPDEST PUSH1 0x0 PUSH3 0xDEA PUSH1 0x2C DUP4 PUSH3 0x89E JUMP JUMPDEST SWAP2 POP PUSH3 0xDF7 DUP3 PUSH3 0xD8C JUMP JUMPDEST PUSH1 0x40 DUP3 ADD SWAP1 POP SWAP2 SWAP1 POP JUMP JUMPDEST PUSH1 0x0 PUSH1 0x20 DUP3 ADD SWAP1 POP DUP2 DUP2 SUB PUSH1 0x0 DUP4 ADD MSTORE PUSH3 0xE1D DUP2 PUSH3 0xDDB JUMP JUMPDEST SWAP1 POP SWAP2 SWAP1 POP JUMP JUMPDEST PUSH32 0x5061796D656E7453706C69747465723A20736861726573206172652030000000 PUSH1 0x0 DUP3 ADD MSTORE POP JUMP JUMPDEST PUSH1 0x0 PUSH3 0xE5C PUSH1 0x1D DUP4 PUSH3 0x89E JUMP JUMPDEST SWAP2 POP PUSH3 0xE69 DUP3 PUSH3 0xE24 JUMP JUMPDEST PUSH1 0x20 DUP3 ADD SWAP1 POP SWAP2 SWAP1 POP JUMP JUMPDEST PUSH1 0x0 PUSH1 0x20 DUP3 ADD SWAP1 POP DUP2 DUP2 SUB PUSH1 0x0 DUP4 ADD MSTORE PUSH3 0xE8F DUP2 PUSH3 0xE4D JUMP JUMPDEST SWAP1 POP SWAP2 SWAP1 POP JUMP JUMPDEST PUSH32 0x5061796D656E7453706C69747465723A206163636F756E7420616C7265616479 PUSH1 0x0 DUP3 ADD MSTORE PUSH32 0x2068617320736861726573000000000000000000000000000000000000000000 PUSH1 0x20 DUP3 ADD MSTORE POP JUMP JUMPDEST PUSH1 0x0 PUSH3 0xEF4 PUSH1 0x2B DUP4 PUSH3 0x89E JUMP JUMPDEST SWAP2 POP PUSH3 0xF01 DUP3 PUSH3 0xE96 JUMP JUMPDEST PUSH1 0x40 DUP3 ADD SWAP1 POP SWAP2 SWAP1 POP JUMP JUMPDEST PUSH1 0x0 PUSH1 0x20 DUP3 ADD SWAP1 POP DUP2 DUP2 SUB PUSH1 0x0 DUP4 ADD MSTORE PUSH3 0xF27 DUP2 PUSH3 0xEE5 JUMP JUMPDEST SWAP1 POP SWAP2 SWAP1 POP JUMP JUMPDEST PUSH1 0x0 PUSH3 0xF3B DUP3 PUSH3 0x737 JUMP JUMPDEST SWAP2 POP PUSH3 0xF48 DUP4 PUSH3 0x737 JUMP JUMPDEST SWAP3 POP DUP3 DUP3 ADD SWAP1 POP DUP1 DUP3 GT ISZERO PUSH3 0xF63 JUMPI PUSH3 0xF62 PUSH3 0x9E8 JUMP JUMPDEST JUMPDEST SWAP3 SWAP2 POP POP JUMP JUMPDEST PUSH3 0xF74 DUP2 PUSH3 0x61C JUMP JUMPDEST DUP3 MSTORE POP POP JUMP JUMPDEST PUSH3 0xF85 DUP2 PUSH3 0x737 JUMP JUMPDEST DUP3 MSTORE POP POP JUMP JUMPDEST PUSH1 0x0 PUSH1 0x40 DUP3 ADD SWAP1 POP PUSH3 0xFA2 PUSH1 0x0 DUP4 ADD DUP6 PUSH3 0xF69 JUMP JUMPDEST PUSH3 0xFB1 PUSH1 0x20 DUP4 ADD DUP5 PUSH3 0xF7A JUMP JUMPDEST SWAP4 SWAP3 POP POP POP JUMP JUMPDEST PUSH2 0x5D2E DUP1 PUSH3 0xFC8 PUSH1 0x0 CODECOPY PUSH1 0x0 RETURN INVALID PUSH1 0x80 PUSH1 0x40 MSTORE PUSH1 0x4 CALLDATASIZE LT PUSH2 0x23E JUMPI PUSH1 0x0 CALLDATALOAD PUSH1 0xE0 SHR DUP1 PUSH4 0x715018A6 GT PUSH2 0x12E JUMPI DUP1 PUSH4 0xBCC9CA5B GT PUSH2 0xAB JUMPI DUP1 PUSH4 0xD79779B2 GT PUSH2 0x6F JUMPI DUP1 PUSH4 0xD79779B2 EQ PUSH2 0x8D7 JUMPI DUP1 PUSH4 0xE33B7DE3 EQ PUSH2 0x914 JUMPI DUP1 PUSH4 0xE985E9C5 EQ PUSH2 0x93F JUMPI DUP1 PUSH4 0xF242432A EQ PUSH2 0x97C JUMPI DUP1 PUSH4 0xF2FDE38B EQ PUSH2 0x9A5 JUMPI PUSH2 0x285 JUMP JUMPDEST DUP1 PUSH4 0xBCC9CA5B EQ PUSH2 0x7CA JUMPI DUP1 PUSH4 0xBD85B039 EQ PUSH2 0x7F5 JUMPI DUP1 PUSH4 0xC45AC050 EQ PUSH2 0x832 JUMPI DUP1 PUSH4 0xCE7C2AC2 EQ PUSH2 0x86F JUMPI DUP1 PUSH4 0xD5ABEB01 EQ PUSH2 0x8AC JUMPI PUSH2 0x285 JUMP JUMPDEST DUP1 PUSH4 0x98AE99A8 GT PUSH2 0xF2 JUMPI DUP1 PUSH4 0x98AE99A8 EQ PUSH2 0x6F2 JUMPI DUP1 PUSH4 0xA22CB465 EQ PUSH2 0x70E JUMPI DUP1 PUSH4 0xA24E5153 EQ PUSH2 0x737 JUMPI DUP1 PUSH4 0xA3F8EACE EQ PUSH2 0x762 JUMPI DUP1 PUSH4 0xA945BF80 EQ PUSH2 0x79F JUMPI PUSH2 0x285 JUMP JUMPDEST DUP1 PUSH4 0x715018A6 EQ PUSH2 0x61F JUMPI DUP1 PUSH4 0x8456CB59 EQ PUSH2 0x636 JUMPI DUP1 PUSH4 0x8B83209B EQ PUSH2 0x64D JUMPI DUP1 PUSH4 0x8DA5CB5B EQ PUSH2 0x68A JUMPI DUP1 PUSH4 0x9852595C EQ PUSH2 0x6B5 JUMPI PUSH2 0x285 JUMP JUMPDEST DUP1 PUSH4 0x3A98EF39 GT PUSH2 0x1BC JUMPI DUP1 PUSH4 0x4E1273F4 GT PUSH2 0x180 JUMPI DUP1 PUSH4 0x4E1273F4 EQ PUSH2 0x528 JUMPI DUP1 PUSH4 0x4F558E79 EQ PUSH2 0x565 JUMPI DUP1 PUSH4 0x51CFF8D9 EQ PUSH2 0x5A2 JUMPI DUP1 PUSH4 0x5C975ABB EQ PUSH2 0x5CB JUMPI DUP1 PUSH4 0x6447C35D EQ PUSH2 0x5F6 JUMPI PUSH2 0x285 JUMP JUMPDEST DUP1 PUSH4 0x3A98EF39 EQ PUSH2 0x455 JUMPI DUP1 PUSH4 0x3F4BA83A EQ PUSH2 0x480 JUMPI DUP1 PUSH4 0x406072A9 EQ PUSH2 0x497 JUMPI DUP1 PUSH4 0x453C2310 EQ PUSH2 0x4D4 JUMPI DUP1 PUSH4 0x48B75044 EQ PUSH2 0x4FF JUMPI PUSH2 0x285 JUMP JUMPDEST DUP1 PUSH4 0x128AC91B GT PUSH2 0x203 JUMPI DUP1 PUSH4 0x128AC91B EQ PUSH2 0x395 JUMPI DUP1 PUSH4 0x19165587 EQ PUSH2 0x3B1 JUMPI DUP1 PUSH4 0x1F7FDFFA EQ PUSH2 0x3DA JUMPI DUP1 PUSH4 0x2EB2C2D6 EQ PUSH2 0x403 JUMPI DUP1 PUSH4 0x2F48DE79 EQ PUSH2 0x42C JUMPI PUSH2 0x285 JUMP JUMPDEST DUP1 PUSH3 0xFDD58E EQ PUSH2 0x28A JUMPI DUP1 PUSH4 0x1FFC9A7 EQ PUSH2 0x2C7 JUMPI DUP1 PUSH4 0x2FE5305 EQ PUSH2 0x304 JUMPI DUP1 PUSH4 0x85C9BAC EQ PUSH2 0x32D JUMPI DUP1 PUSH4 0xE89341C EQ PUSH2 0x358 JUMPI PUSH2 0x285 JUMP JUMPDEST CALLDATASIZE PUSH2 0x285 JUMPI PUSH32 0x6EF95F06320E7A25A04A175CA677B7052BDD97131872C2192525A629F51BE770 PUSH2 0x26C PUSH2 0x9CE JUMP JUMPDEST CALLVALUE PUSH1 0x40 MLOAD PUSH2 0x27B SWAP3 SWAP2 SWAP1 PUSH2 0x3778 JUMP JUMPDEST PUSH1 0x40 MLOAD DUP1 SWAP2 SUB SWAP1 LOG1 STOP JUMPDEST PUSH1 0x0 DUP1 REVERT JUMPDEST CALLVALUE DUP1 ISZERO PUSH2 0x296 JUMPI PUSH1 0x0 DUP1 REVERT JUMPDEST POP PUSH2 0x2B1 PUSH1 0x4 DUP1 CALLDATASIZE SUB DUP2 ADD SWAP1 PUSH2 0x2AC SWAP2 SWAP1 PUSH2 0x380D JUMP JUMPDEST PUSH2 0x9D6 JUMP JUMPDEST PUSH1 0x40 MLOAD PUSH2 0x2BE SWAP2 SWAP1 PUSH2 0x384D JUMP JUMPDEST PUSH1 0x40 MLOAD DUP1 SWAP2 SUB SWAP1 RETURN JUMPDEST CALLVALUE DUP1 ISZERO PUSH2 0x2D3 JUMPI PUSH1 0x0 DUP1 REVERT JUMPDEST POP PUSH2 0x2EE PUSH1 0x4 DUP1 CALLDATASIZE SUB DUP2 ADD SWAP1 PUSH2 0x2E9 SWAP2 SWAP1 PUSH2 0x38C0 JUMP JUMPDEST PUSH2 0xA9E JUMP JUMPDEST PUSH1 0x40 MLOAD PUSH2 0x2FB SWAP2 SWAP1 PUSH2 0x3908 JUMP JUMPDEST PUSH1 0x40 MLOAD DUP1 SWAP2 SUB SWAP1 RETURN JUMPDEST CALLVALUE DUP1 ISZERO PUSH2 0x310 JUMPI PUSH1 0x0 DUP1 REVERT JUMPDEST POP PUSH2 0x32B PUSH1 0x4 DUP1 CALLDATASIZE SUB DUP2 ADD SWAP1 PUSH2 0x326 SWAP2 SWAP1 PUSH2 0x3A69 JUMP JUMPDEST PUSH2 0xB80 JUMP JUMPDEST STOP JUMPDEST CALLVALUE DUP1 ISZERO PUSH2 0x339 JUMPI PUSH1 0x0 DUP1 REVERT JUMPDEST POP PUSH2 0x342 PUSH2 0xB94 JUMP JUMPDEST PUSH1 0x40 MLOAD PUSH2 0x34F SWAP2 SWAP1 PUSH2 0x3908 JUMP JUMPDEST PUSH1 0x40 MLOAD DUP1 SWAP2 SUB SWAP1 RETURN JUMPDEST CALLVALUE DUP1 ISZERO PUSH2 0x364 JUMPI PUSH1 0x0 DUP1 REVERT JUMPDEST POP PUSH2 0x37F PUSH1 0x4 DUP1 CALLDATASIZE SUB DUP2 ADD SWAP1 PUSH2 0x37A SWAP2 SWAP1 PUSH2 0x3AB2 JUMP JUMPDEST PUSH2 0xBA7 JUMP JUMPDEST PUSH1 0x40 MLOAD PUSH2 0x38C SWAP2 SWAP1 PUSH2 0x3B5E JUMP JUMPDEST PUSH1 0x40 MLOAD DUP1 SWAP2 SUB SWAP1 RETURN JUMPDEST PUSH2 0x3AF PUSH1 0x4 DUP1 CALLDATASIZE SUB DUP2 ADD SWAP1 PUSH2 0x3AA SWAP2 SWAP1 PUSH2 0x3B80 JUMP JUMPDEST PUSH2 0xC2A JUMP JUMPDEST STOP JUMPDEST CALLVALUE DUP1 ISZERO PUSH2 0x3BD JUMPI PUSH1 0x0 DUP1 REVERT JUMPDEST POP PUSH2 0x3D8 PUSH1 0x4 DUP1 CALLDATASIZE SUB DUP2 ADD SWAP1 PUSH2 0x3D3 SWAP2 SWAP1 PUSH2 0x3BFE JUMP JUMPDEST PUSH2 0xD13 JUMP JUMPDEST STOP JUMPDEST CALLVALUE DUP1 ISZERO PUSH2 0x3E6 JUMPI PUSH1 0x0 DUP1 REVERT JUMPDEST POP PUSH2 0x401 PUSH1 0x4 DUP1 CALLDATASIZE SUB DUP2 ADD SWAP1 PUSH2 0x3FC SWAP2 SWAP1 PUSH2 0x3D94 JUMP JUMPDEST PUSH2 0xE92 JUMP JUMPDEST STOP JUMPDEST CALLVALUE DUP1 ISZERO PUSH2 0x40F JUMPI PUSH1 0x0 DUP1 REVERT JUMPDEST POP PUSH2 0x42A PUSH1 0x4 DUP1 CALLDATASIZE SUB DUP2 ADD SWAP1 PUSH2 0x425 SWAP2 SWAP1 PUSH2 0x3E4F JUMP JUMPDEST PUSH2 0xEAC JUMP JUMPDEST STOP JUMPDEST CALLVALUE DUP1 ISZERO PUSH2 0x438 JUMPI PUSH1 0x0 DUP1 REVERT JUMPDEST POP PUSH2 0x453 PUSH1 0x4 DUP1 CALLDATASIZE SUB DUP2 ADD SWAP1 PUSH2 0x44E SWAP2 SWAP1 PUSH2 0x3F4A JUMP JUMPDEST PUSH2 0xF4D JUMP JUMPDEST STOP JUMPDEST CALLVALUE DUP1 ISZERO PUSH2 0x461 JUMPI PUSH1 0x0 DUP1 REVERT JUMPDEST POP PUSH2 0x46A PUSH2 0xF8D JUMP JUMPDEST PUSH1 0x40 MLOAD PUSH2 0x477 SWAP2 SWAP1 PUSH2 0x384D JUMP JUMPDEST PUSH1 0x40 MLOAD DUP1 SWAP2 SUB SWAP1 RETURN JUMPDEST CALLVALUE DUP1 ISZERO PUSH2 0x48C JUMPI PUSH1 0x0 DUP1 REVERT JUMPDEST POP PUSH2 0x495 PUSH2 0xF97 JUMP JUMPDEST STOP JUMPDEST CALLVALUE DUP1 ISZERO PUSH2 0x4A3 JUMPI PUSH1 0x0 DUP1 REVERT JUMPDEST POP PUSH2 0x4BE PUSH1 0x4 DUP1 CALLDATASIZE SUB DUP2 ADD SWAP1 PUSH2 0x4B9 SWAP2 SWAP1 PUSH2 0x3FC8 JUMP JUMPDEST PUSH2 0xFA9 JUMP JUMPDEST PUSH1 0x40 MLOAD PUSH2 0x4CB SWAP2 SWAP1 PUSH2 0x384D JUMP JUMPDEST PUSH1 0x40 MLOAD DUP1 SWAP2 SUB SWAP1 RETURN JUMPDEST CALLVALUE DUP1 ISZERO PUSH2 0x4E0 JUMPI PUSH1 0x0 DUP1 REVERT JUMPDEST POP PUSH2 0x4E9 PUSH2 0x1030 JUMP JUMPDEST PUSH1 0x40 MLOAD PUSH2 0x4F6 SWAP2 SWAP1 PUSH2 0x384D JUMP JUMPDEST PUSH1 0x40 MLOAD DUP1 SWAP2 SUB SWAP1 RETURN JUMPDEST CALLVALUE DUP1 ISZERO PUSH2 0x50B JUMPI PUSH1 0x0 DUP1 REVERT JUMPDEST POP PUSH2 0x526 PUSH1 0x4 DUP1 CALLDATASIZE SUB DUP2 ADD SWAP1 PUSH2 0x521 SWAP2 SWAP1 PUSH2 0x3FC8 JUMP JUMPDEST PUSH2 0x1036 JUMP JUMPDEST STOP JUMPDEST CALLVALUE DUP1 ISZERO PUSH2 0x534 JUMPI PUSH1 0x0 DUP1 REVERT JUMPDEST POP PUSH2 0x54F PUSH1 0x4 DUP1 CALLDATASIZE SUB DUP2 ADD SWAP1 PUSH2 0x54A SWAP2 SWAP1 PUSH2 0x40CB JUMP JUMPDEST PUSH2 0x1249 JUMP JUMPDEST PUSH1 0x40 MLOAD PUSH2 0x55C SWAP2 SWAP1 PUSH2 0x4201 JUMP JUMPDEST PUSH1 0x40 MLOAD DUP1 SWAP2 SUB SWAP1 RETURN JUMPDEST CALLVALUE DUP1 ISZERO PUSH2 0x571 JUMPI PUSH1 0x0 DUP1 REVERT JUMPDEST POP PUSH2 0x58C PUSH1 0x4 DUP1 CALLDATASIZE SUB DUP2 ADD SWAP1 PUSH2 0x587 SWAP2 SWAP1 PUSH2 0x3AB2 JUMP JUMPDEST PUSH2 0x1362 JUMP JUMPDEST PUSH1 0x40 MLOAD PUSH2 0x599 SWAP2 SWAP1 PUSH2 0x3908 JUMP JUMPDEST PUSH1 0x40 MLOAD DUP1 SWAP2 SUB SWAP1 RETURN JUMPDEST CALLVALUE DUP1 ISZERO PUSH2 0x5AE JUMPI PUSH1 0x0 DUP1 REVERT JUMPDEST POP PUSH2 0x5C9 PUSH1 0x4 DUP1 CALLDATASIZE SUB DUP2 ADD SWAP1 PUSH2 0x5C4 SWAP2 SWAP1 PUSH2 0x4223 JUMP JUMPDEST PUSH2 0x1376 JUMP JUMPDEST STOP JUMPDEST CALLVALUE DUP1 ISZERO PUSH2 0x5D7 JUMPI PUSH1 0x0 DUP1 REVERT JUMPDEST POP PUSH2 0x5E0 PUSH2 0x13CE JUMP JUMPDEST PUSH1 0x40 MLOAD PUSH2 0x5ED SWAP2 SWAP1 PUSH2 0x3908 JUMP JUMPDEST PUSH1 0x40 MLOAD DUP1 SWAP2 SUB SWAP1 RETURN JUMPDEST CALLVALUE DUP1 ISZERO PUSH2 0x602 JUMPI PUSH1 0x0 DUP1 REVERT JUMPDEST POP PUSH2 0x61D PUSH1 0x4 DUP1 CALLDATASIZE SUB DUP2 ADD SWAP1 PUSH2 0x618 SWAP2 SWAP1 PUSH2 0x42AB JUMP JUMPDEST PUSH2 0x13E5 JUMP JUMPDEST STOP JUMPDEST CALLVALUE DUP1 ISZERO PUSH2 0x62B JUMPI PUSH1 0x0 DUP1 REVERT JUMPDEST POP PUSH2 0x634 PUSH2 0x1492 JUMP JUMPDEST STOP JUMPDEST CALLVALUE DUP1 ISZERO PUSH2 0x642 JUMPI PUSH1 0x0 DUP1 REVERT JUMPDEST POP PUSH2 0x64B PUSH2 0x14A6 JUMP JUMPDEST STOP JUMPDEST CALLVALUE DUP1 ISZERO PUSH2 0x659 JUMPI PUSH1 0x0 DUP1 REVERT JUMPDEST POP PUSH2 0x674 PUSH1 0x4 DUP1 CALLDATASIZE SUB DUP2 ADD SWAP1 PUSH2 0x66F SWAP2 SWAP1 PUSH2 0x3AB2 JUMP JUMPDEST PUSH2 0x14B8 JUMP JUMPDEST PUSH1 0x40 MLOAD PUSH2 0x681 SWAP2 SWAP1 PUSH2 0x42F8 JUMP JUMPDEST PUSH1 0x40 MLOAD DUP1 SWAP2 SUB SWAP1 RETURN JUMPDEST CALLVALUE DUP1 ISZERO PUSH2 0x696 JUMPI PUSH1 0x0 DUP1 REVERT JUMPDEST POP PUSH2 0x69F PUSH2 0x1500 JUMP JUMPDEST PUSH1 0x40 MLOAD PUSH2 0x6AC SWAP2 SWAP1 PUSH2 0x42F8 JUMP JUMPDEST PUSH1 0x40 MLOAD DUP1 SWAP2 SUB SWAP1 RETURN JUMPDEST CALLVALUE DUP1 ISZERO PUSH2 0x6C1 JUMPI PUSH1 0x0 DUP1 REVERT JUMPDEST POP PUSH2 0x6DC PUSH1 0x4 DUP1 CALLDATASIZE SUB DUP2 ADD SWAP1 PUSH2 0x6D7 SWAP2 SWAP1 PUSH2 0x4223 JUMP JUMPDEST PUSH2 0x152A JUMP JUMPDEST PUSH1 0x40 MLOAD PUSH2 0x6E9 SWAP2 SWAP1 PUSH2 0x384D JUMP JUMPDEST PUSH1 0x40 MLOAD DUP1 SWAP2 SUB SWAP1 RETURN JUMPDEST PUSH2 0x70C PUSH1 0x4 DUP1 CALLDATASIZE SUB DUP2 ADD SWAP1 PUSH2 0x707 SWAP2 SWAP1 PUSH2 0x3B80 JUMP JUMPDEST PUSH2 0x1573 JUMP JUMPDEST STOP JUMPDEST CALLVALUE DUP1 ISZERO PUSH2 0x71A JUMPI PUSH1 0x0 DUP1 REVERT JUMPDEST POP PUSH2 0x735 PUSH1 0x4 DUP1 CALLDATASIZE SUB DUP2 ADD SWAP1 PUSH2 0x730 SWAP2 SWAP1 PUSH2 0x4313 JUMP JUMPDEST PUSH2 0x1662 JUMP JUMPDEST STOP JUMPDEST CALLVALUE DUP1 ISZERO PUSH2 0x743 JUMPI PUSH1 0x0 DUP1 REVERT JUMPDEST POP PUSH2 0x74C PUSH2 0x1678 JUMP JUMPDEST PUSH1 0x40 MLOAD PUSH2 0x759 SWAP2 SWAP1 PUSH2 0x384D JUMP JUMPDEST PUSH1 0x40 MLOAD DUP1 SWAP2 SUB SWAP1 RETURN JUMPDEST CALLVALUE DUP1 ISZERO PUSH2 0x76E JUMPI PUSH1 0x0 DUP1 REVERT JUMPDEST POP PUSH2 0x789 PUSH1 0x4 DUP1 CALLDATASIZE SUB DUP2 ADD SWAP1 PUSH2 0x784 SWAP2 SWAP1 PUSH2 0x4223 JUMP JUMPDEST PUSH2 0x167E JUMP JUMPDEST PUSH1 0x40 MLOAD PUSH2 0x796 SWAP2 SWAP1 PUSH2 0x384D JUMP JUMPDEST PUSH1 0x40 MLOAD DUP1 SWAP2 SUB SWAP1 RETURN JUMPDEST CALLVALUE DUP1 ISZERO PUSH2 0x7AB JUMPI PUSH1 0x0 DUP1 REVERT JUMPDEST POP PUSH2 0x7B4 PUSH2 0x16B1 JUMP JUMPDEST PUSH1 0x40 MLOAD PUSH2 0x7C1 SWAP2 SWAP1 PUSH2 0x384D JUMP JUMPDEST PUSH1 0x40 MLOAD DUP1 SWAP2 SUB SWAP1 RETURN JUMPDEST CALLVALUE DUP1 ISZERO PUSH2 0x7D6 JUMPI PUSH1 0x0 DUP1 REVERT JUMPDEST POP PUSH2 0x7DF PUSH2 0x16B7 JUMP JUMPDEST PUSH1 0x40 MLOAD PUSH2 0x7EC SWAP2 SWAP1 PUSH2 0x3908 JUMP JUMPDEST PUSH1 0x40 MLOAD DUP1 SWAP2 SUB SWAP1 RETURN JUMPDEST CALLVALUE DUP1 ISZERO PUSH2 0x801 JUMPI PUSH1 0x0 DUP1 REVERT JUMPDEST POP PUSH2 0x81C PUSH1 0x4 DUP1 CALLDATASIZE SUB DUP2 ADD SWAP1 PUSH2 0x817 SWAP2 SWAP1 PUSH2 0x3AB2 JUMP JUMPDEST PUSH2 0x16CA JUMP JUMPDEST PUSH1 0x40 MLOAD PUSH2 0x829 SWAP2 SWAP1 PUSH2 0x384D JUMP JUMPDEST PUSH1 0x40 MLOAD DUP1 SWAP2 SUB SWAP1 RETURN JUMPDEST CALLVALUE DUP1 ISZERO PUSH2 0x83E JUMPI PUSH1 0x0 DUP1 REVERT JUMPDEST POP PUSH2 0x859 PUSH1 0x4 DUP1 CALLDATASIZE SUB DUP2 ADD SWAP1 PUSH2 0x854 SWAP2 SWAP1 PUSH2 0x3FC8 JUMP JUMPDEST PUSH2 0x16E7 JUMP JUMPDEST PUSH1 0x40 MLOAD PUSH2 0x866 SWAP2 SWAP1 PUSH2 0x384D JUMP JUMPDEST PUSH1 0x40 MLOAD DUP1 SWAP2 SUB SWAP1 RETURN JUMPDEST CALLVALUE DUP1 ISZERO PUSH2 0x87B JUMPI PUSH1 0x0 DUP1 REVERT JUMPDEST POP PUSH2 0x896 PUSH1 0x4 DUP1 CALLDATASIZE SUB DUP2 ADD SWAP1 PUSH2 0x891 SWAP2 SWAP1 PUSH2 0x4223 JUMP JUMPDEST PUSH2 0x1796 JUMP JUMPDEST PUSH1 0x40 MLOAD PUSH2 0x8A3 SWAP2 SWAP1 PUSH2 0x384D JUMP JUMPDEST PUSH1 0x40 MLOAD DUP1 SWAP2 SUB SWAP1 RETURN JUMPDEST CALLVALUE DUP1 ISZERO PUSH2 0x8B8 JUMPI PUSH1 0x0 DUP1 REVERT JUMPDEST POP PUSH2 0x8C1 PUSH2 0x17DF JUMP JUMPDEST PUSH1 0x40 MLOAD PUSH2 0x8CE SWAP2 SWAP1 PUSH2 0x384D JUMP JUMPDEST PUSH1 0x40 MLOAD DUP1 SWAP2 SUB SWAP1 RETURN JUMPDEST CALLVALUE DUP1 ISZERO PUSH2 0x8E3 JUMPI PUSH1 0x0 DUP1 REVERT JUMPDEST POP PUSH2 0x8FE PUSH1 0x4 DUP1 CALLDATASIZE SUB DUP2 ADD SWAP1 PUSH2 0x8F9 SWAP2 SWAP1 PUSH2 0x4353 JUMP JUMPDEST PUSH2 0x17E5 JUMP JUMPDEST PUSH1 0x40 MLOAD PUSH2 0x90B SWAP2 SWAP1 PUSH2 0x384D JUMP JUMPDEST PUSH1 0x40 MLOAD DUP1 SWAP2 SUB SWAP1 RETURN JUMPDEST CALLVALUE DUP1 ISZERO PUSH2 0x920 JUMPI PUSH1 0x0 DUP1 REVERT JUMPDEST POP PUSH2 0x929 PUSH2 0x182E JUMP JUMPDEST PUSH1 0x40 MLOAD PUSH2 0x936 SWAP2 SWAP1 PUSH2 0x384D JUMP JUMPDEST PUSH1 0x40 MLOAD DUP1 SWAP2 SUB SWAP1 RETURN JUMPDEST CALLVALUE DUP1 ISZERO PUSH2 0x94B JUMPI PUSH1 0x0 DUP1 REVERT JUMPDEST POP PUSH2 0x966 PUSH1 0x4 DUP1 CALLDATASIZE SUB DUP2 ADD SWAP1 PUSH2 0x961 SWAP2 SWAP1 PUSH2 0x4380 JUMP JUMPDEST PUSH2 0x1838 JUMP JUMPDEST PUSH1 0x40 MLOAD PUSH2 0x973 SWAP2 SWAP1 PUSH2 0x3908 JUMP JUMPDEST PUSH1 0x40 MLOAD DUP1 SWAP2 SUB SWAP1 RETURN JUMPDEST CALLVALUE DUP1 ISZERO PUSH2 0x988 JUMPI PUSH1 0x0 DUP1 REVERT JUMPDEST POP PUSH2 0x9A3 PUSH1 0x4 DUP1 CALLDATASIZE SUB DUP2 ADD SWAP1 PUSH2 0x99E SWAP2 SWAP1 PUSH2 0x43C0 JUMP JUMPDEST PUSH2 0x18CC JUMP JUMPDEST STOP JUMPDEST CALLVALUE DUP1 ISZERO PUSH2 0x9B1 JUMPI PUSH1 0x0 DUP1 REVERT JUMPDEST POP PUSH2 0x9CC PUSH1 0x4 DUP1 CALLDATASIZE SUB DUP2 ADD SWAP1 PUSH2 0x9C7 SWAP2 SWAP1 PUSH2 0x4223 JUMP JUMPDEST PUSH2 0x196D JUMP JUMPDEST STOP JUMPDEST PUSH1 0x0 CALLER SWAP1 POP SWAP1 JUMP JUMPDEST PUSH1 0x0 DUP1 PUSH20 0xFFFFFFFFFFFFFFFFFFFFFFFFFFFFFFFFFFFFFFFF AND DUP4 PUSH20 0xFFFFFFFFFFFFFFFFFFFFFFFFFFFFFFFFFFFFFFFF AND SUB PUSH2 0xA46 JUMPI PUSH1 0x40 MLOAD PUSH32 0x8C379A000000000000000000000000000000000000000000000000000000000 DUP2 MSTORE PUSH1 0x4 ADD PUSH2 0xA3D SWAP1 PUSH2 0x44C9 JUMP JUMPDEST PUSH1 0x40 MLOAD DUP1 SWAP2 SUB SWAP1 REVERT JUMPDEST PUSH1 0x0 DUP1 DUP4 DUP2 MSTORE PUSH1 0x20 ADD SWAP1 DUP2 MSTORE PUSH1 0x20 ADD PUSH1 0x0 KECCAK256 PUSH1 0x0 DUP5 PUSH20 0xFFFFFFFFFFFFFFFFFFFFFFFFFFFFFFFFFFFFFFFF AND PUSH20 0xFFFFFFFFFFFFFFFFFFFFFFFFFFFFFFFFFFFFFFFF AND DUP2 MSTORE PUSH1 0x20 ADD SWAP1 DUP2 MSTORE PUSH1 0x20 ADD PUSH1 0x0 KECCAK256 SLOAD SWAP1 POP SWAP3 SWAP2 POP POP JUMP JUMPDEST PUSH1 0x0 PUSH32 0xD9B67A2600000000000000000000000000000000000000000000000000000000 PUSH28 0xFFFFFFFFFFFFFFFFFFFFFFFFFFFFFFFFFFFFFFFFFFFFFFFFFFFFFFFF NOT AND DUP3 PUSH28 0xFFFFFFFFFFFFFFFFFFFFFFFFFFFFFFFFFFFFFFFFFFFFFFFFFFFFFFFF NOT AND EQ DUP1 PUSH2 0xB69 JUMPI POP PUSH32 0xE89341C00000000000000000000000000000000000000000000000000000000 PUSH28 0xFFFFFFFFFFFFFFFFFFFFFFFFFFFFFFFFFFFFFFFFFFFFFFFFFFFFFFFF NOT AND DUP3 PUSH28 0xFFFFFFFFFFFFFFFFFFFFFFFFFFFFFFFFFFFFFFFFFFFFFFFFFFFFFFFF NOT AND EQ JUMPDEST DUP1 PUSH2 0xB79 JUMPI POP PUSH2 0xB78 DUP3 PUSH2 0x19F0 JUMP JUMPDEST JUMPDEST SWAP1 POP SWAP2 SWAP1 POP JUMP JUMPDEST PUSH2 0xB88 PUSH2 0x1A5A JUMP JUMPDEST PUSH2 0xB91 DUP2 PUSH2 0x1AD8 JUMP JUMPDEST POP JUMP JUMPDEST PUSH1 0x10 PUSH1 0x1 SWAP1 SLOAD SWAP1 PUSH2 0x100 EXP SWAP1 DIV PUSH1 0xFF AND DUP2 JUMP JUMPDEST PUSH1 0x60 PUSH2 0xBB2 DUP3 PUSH2 0x1362 JUMP JUMPDEST PUSH2 0xBF1 JUMPI PUSH1 0x40 MLOAD PUSH32 0x8C379A000000000000000000000000000000000000000000000000000000000 DUP2 MSTORE PUSH1 0x4 ADD PUSH2 0xBE8 SWAP1 PUSH2 0x4535 JUMP JUMPDEST PUSH1 0x40 MLOAD DUP1 SWAP2 SUB SWAP1 REVERT JUMPDEST PUSH2 0xBFA DUP3 PUSH2 0x1AEB JUMP JUMPDEST PUSH2 0xC03 DUP4 PUSH2 0x1B7F JUMP JUMPDEST PUSH1 0x40 MLOAD PUSH1 0x20 ADD PUSH2 0xC14 SWAP3 SWAP2 SWAP1 PUSH2 0x45DD JUMP JUMPDEST PUSH1 0x40 MLOAD PUSH1 0x20 DUP2 DUP4 SUB SUB DUP2 MSTORE SWAP1 PUSH1 0x40 MSTORE SWAP1 POP SWAP2 SWAP1 POP JUMP JUMPDEST PUSH1 0x10 PUSH1 0x1 SWAP1 SLOAD SWAP1 PUSH2 0x100 EXP SWAP1 DIV PUSH1 0xFF AND PUSH2 0xC79 JUMPI PUSH1 0x40 MLOAD PUSH32 0x8C379A000000000000000000000000000000000000000000000000000000000 DUP2 MSTORE PUSH1 0x4 ADD PUSH2 0xC70 SWAP1 PUSH2 0x4658 JUMP JUMPDEST PUSH1 0x40 MLOAD DUP1 SWAP2 SUB SWAP1 REVERT JUMPDEST PUSH1 0x11 PUSH1 0x0 CALLER PUSH20 0xFFFFFFFFFFFFFFFFFFFFFFFFFFFFFFFFFFFFFFFF AND PUSH20 0xFFFFFFFFFFFFFFFFFFFFFFFFFFFFFFFFFFFFFFFF AND DUP2 MSTORE PUSH1 0x20 ADD SWAP1 DUP2 MSTORE PUSH1 0x20 ADD PUSH1 0x0 KECCAK256 PUSH1 0x0 SWAP1 SLOAD SWAP1 PUSH2 0x100 EXP SWAP1 DIV PUSH1 0xFF AND PUSH2 0xD05 JUMPI PUSH1 0x40 MLOAD PUSH32 0x8C379A000000000000000000000000000000000000000000000000000000000 DUP2 MSTORE PUSH1 0x4 ADD PUSH2 0xCFC SWAP1 PUSH2 0x46C4 JUMP JUMPDEST PUSH1 0x40 MLOAD DUP1 SWAP2 SUB SWAP1 REVERT JUMPDEST PUSH2 0xD0F DUP3 DUP3 PUSH2 0x1C4D JUMP JUMPDEST POP POP JUMP JUMPDEST PUSH1 0x0 PUSH1 0x7 PUSH1 0x0 DUP4 PUSH20 0xFFFFFFFFFFFFFFFFFFFFFFFFFFFFFFFFFFFFFFFF AND PUSH20 0xFFFFFFFFFFFFFFFFFFFFFFFFFFFFFFFFFFFFFFFF AND DUP2 MSTORE PUSH1 0x20 ADD SWAP1 DUP2 MSTORE PUSH1 0x20 ADD PUSH1 0x0 KECCAK256 SLOAD GT PUSH2 0xD95 JUMPI PUSH1 0x40 MLOAD PUSH32 0x8C379A000000000000000000000000000000000000000000000000000000000 DUP2 MSTORE PUSH1 0x4 ADD PUSH2 0xD8C SWAP1 PUSH2 0x4756 JUMP JUMPDEST PUSH1 0x40 MLOAD DUP1 SWAP2 SUB SWAP1 REVERT JUMPDEST PUSH1 0x0 PUSH2 0xDA0 DUP3 PUSH2 0x167E JUMP JUMPDEST SWAP1 POP PUSH1 0x0 DUP2 SUB PUSH2 0xDE5 JUMPI PUSH1 0x40 MLOAD PUSH32 0x8C379A000000000000000000000000000000000000000000000000000000000 DUP2 MSTORE PUSH1 0x4 ADD PUSH2 0xDDC SWAP1 PUSH2 0x47E8 JUMP JUMPDEST PUSH1 0x40 MLOAD DUP1 SWAP2 SUB SWAP1 REVERT JUMPDEST DUP1 PUSH1 0x6 PUSH1 0x0 DUP3 DUP3 SLOAD PUSH2 0xDF7 SWAP2 SWAP1 PUSH2 0x4837 JUMP JUMPDEST SWAP3 POP POP DUP2 SWAP1 SSTORE POP DUP1 PUSH1 0x8 PUSH1 0x0 DUP5 PUSH20 0xFFFFFFFFFFFFFFFFFFFFFFFFFFFFFFFFFFFFFFFF AND PUSH20 0xFFFFFFFFFFFFFFFFFFFFFFFFFFFFFFFFFFFFFFFF AND DUP2 MSTORE PUSH1 0x20 ADD SWAP1 DUP2 MSTORE PUSH1 0x20 ADD PUSH1 0x0 KECCAK256 PUSH1 0x0 DUP3 DUP3 SLOAD ADD SWAP3 POP POP DUP2 SWAP1 SSTORE POP PUSH2 0xE55 DUP3 DUP3 PUSH2 0x1E05 JUMP JUMPDEST PUSH32 0xDF20FD1E76BC69D672E4814FAFB2C449BBA3A5369D8359ADF9E05E6FDE87B056 DUP3 DUP3 PUSH1 0x40 MLOAD PUSH2 0xE86 SWAP3 SWAP2 SWAP1 PUSH2 0x48CA JUMP JUMPDEST PUSH1 0x40 MLOAD DUP1 SWAP2 SUB SWAP1 LOG1 POP POP JUMP JUMPDEST PUSH2 0xE9A PUSH2 0x1A5A JUMP JUMPDEST PUSH2 0xEA6 DUP5 DUP5 DUP5 DUP5 PUSH2 0x1EF9 JUMP JUMPDEST POP POP POP POP JUMP JUMPDEST PUSH2 0xEB4 PUSH2 0x9CE JUMP JUMPDEST PUSH20 0xFFFFFFFFFFFFFFFFFFFFFFFFFFFFFFFFFFFFFFFF AND DUP6 PUSH20 0xFFFFFFFFFFFFFFFFFFFFFFFFFFFFFFFFFFFFFFFF AND EQ DUP1 PUSH2 0xEFA JUMPI POP PUSH2 0xEF9 DUP6 PUSH2 0xEF4 PUSH2 0x9CE JUMP JUMPDEST PUSH2 0x1838 JUMP JUMPDEST JUMPDEST PUSH2 0xF39 JUMPI PUSH1 0x40 MLOAD PUSH32 0x8C379A000000000000000000000000000000000000000000000000000000000 DUP2 MSTORE PUSH1 0x4 ADD PUSH2 0xF30 SWAP1 PUSH2 0x4965 JUMP JUMPDEST PUSH1 0x40 MLOAD DUP1 SWAP2 SUB SWAP1 REVERT JUMPDEST PUSH2 0xF46 DUP6 DUP6 DUP6 DUP6 DUP6 PUSH2 0x2125 JUMP JUMPDEST POP POP POP POP POP JUMP JUMPDEST PUSH2 0xF55 PUSH2 0x1A5A JUMP JUMPDEST DUP2 PUSH1 0x10 PUSH1 0x0 PUSH2 0x100 EXP DUP2 SLOAD DUP2 PUSH1 0xFF MUL NOT AND SWAP1 DUP4 ISZERO ISZERO MUL OR SWAP1 SSTORE POP DUP1 PUSH1 0x10 PUSH1 0x1 PUSH2 0x100 EXP DUP2 SLOAD DUP2 PUSH1 0xFF MUL NOT AND SWAP1 DUP4 ISZERO ISZERO MUL OR SWAP1 SSTORE POP POP POP JUMP JUMPDEST PUSH1 0x0 PUSH1 0x5 SLOAD SWAP1 POP SWAP1 JUMP JUMPDEST PUSH2 0xF9F PUSH2 0x1A5A JUMP JUMPDEST PUSH2 0xFA7 PUSH2 0x2446 JUMP JUMPDEST JUMP JUMPDEST PUSH1 0x0 PUSH1 0xB PUSH1 0x0 DUP5 PUSH20 0xFFFFFFFFFFFFFFFFFFFFFFFFFFFFFFFFFFFFFFFF AND PUSH20 0xFFFFFFFFFFFFFFFFFFFFFFFFFFFFFFFFFFFFFFFF AND DUP2 MSTORE PUSH1 0x20 ADD SWAP1 DUP2 MSTORE PUSH1 0x20 ADD PUSH1 0x0 KECCAK256 PUSH1 0x0 DUP4 PUSH20 0xFFFFFFFFFFFFFFFFFFFFFFFFFFFFFFFFFFFFFFFF AND PUSH20 0xFFFFFFFFFFFFFFFFFFFFFFFFFFFFFFFFFFFFFFFF AND DUP2 MSTORE PUSH1 0x20 ADD SWAP1 DUP2 MSTORE PUSH1 0x20 ADD PUSH1 0x0 KECCAK256 SLOAD SWAP1 POP SWAP3 SWAP2 POP POP JUMP JUMPDEST PUSH1 0xF SLOAD DUP2 JUMP JUMPDEST PUSH1 0x0 PUSH1 0x7 PUSH1 0x0 DUP4 PUSH20 0xFFFFFFFFFFFFFFFFFFFFFFFFFFFFFFFFFFFFFFFF AND PUSH20 0xFFFFFFFFFFFFFFFFFFFFFFFFFFFFFFFFFFFFFFFF AND DUP2 MSTORE PUSH1 0x20 ADD SWAP1 DUP2 MSTORE PUSH1 0x20 ADD PUSH1 0x0 KECCAK256 SLOAD GT PUSH2 0x10B8 JUMPI PUSH1 0x40 MLOAD PUSH32 0x8C379A000000000000000000000000000000000000000000000000000000000 DUP2 MSTORE PUSH1 0x4 ADD PUSH2 0x10AF SWAP1 PUSH2 0x4756 JUMP JUMPDEST PUSH1 0x40 MLOAD DUP1 SWAP2 SUB SWAP1 REVERT JUMPDEST PUSH1 0x0 PUSH2 0x10C4 DUP4 DUP4 PUSH2 0x16E7 JUMP JUMPDEST SWAP1 POP PUSH1 0x0 DUP2 SUB PUSH2 0x1109 JUMPI PUSH1 0x40 MLOAD PUSH32 0x8C379A000000000000000000000000000000000000000000000000000000000 DUP2 MSTORE PUSH1 0x4 ADD PUSH2 0x1100 SWAP1 PUSH2 0x47E8 JUMP JUMPDEST PUSH1 0x40 MLOAD DUP1 SWAP2 SUB SWAP1 REVERT JUMPDEST DUP1 PUSH1 0xA PUSH1 0x0 DUP6 PUSH20 0xFFFFFFFFFFFFFFFFFFFFFFFFFFFFFFFFFFFFFFFF AND PUSH20 0xFFFFFFFFFFFFFFFFFFFFFFFFFFFFFFFFFFFFFFFF AND DUP2 MSTORE PUSH1 0x20 ADD SWAP1 DUP2 MSTORE PUSH1 0x20 ADD PUSH1 0x0 KECCAK256 PUSH1 0x0 DUP3 DUP3 SLOAD PUSH2 0x1158 SWAP2 SWAP1 PUSH2 0x4837 JUMP JUMPDEST SWAP3 POP POP DUP2 SWAP1 SSTORE POP DUP1 PUSH1 0xB PUSH1 0x0 DUP6 PUSH20 0xFFFFFFFFFFFFFFFFFFFFFFFFFFFFFFFFFFFFFFFF AND PUSH20 0xFFFFFFFFFFFFFFFFFFFFFFFFFFFFFFFFFFFFFFFF AND DUP2 MSTORE PUSH1 0x20 ADD SWAP1 DUP2 MSTORE PUSH1 0x20 ADD PUSH1 0x0 KECCAK256 PUSH1 0x0 DUP5 PUSH20 0xFFFFFFFFFFFFFFFFFFFFFFFFFFFFFFFFFFFFFFFF AND PUSH20 0xFFFFFFFFFFFFFFFFFFFFFFFFFFFFFFFFFFFFFFFF AND DUP2 MSTORE PUSH1 0x20 ADD SWAP1 DUP2 MSTORE PUSH1 0x20 ADD PUSH1 0x0 KECCAK256 PUSH1 0x0 DUP3 DUP3 SLOAD ADD SWAP3 POP POP DUP2 SWAP1 SSTORE POP PUSH2 0x11F4 DUP4 DUP4 DUP4 PUSH2 0x24A9 JUMP JUMPDEST DUP3 PUSH20 0xFFFFFFFFFFFFFFFFFFFFFFFFFFFFFFFFFFFFFFFF AND PUSH32 0x3BE5B7A71E84ED12875D241991C70855AC5817D847039E17A9D895C1CEB0F18A DUP4 DUP4 PUSH1 0x40 MLOAD PUSH2 0x123C SWAP3 SWAP2 SWAP1 PUSH2 0x3778 JUMP JUMPDEST PUSH1 0x40 MLOAD DUP1 SWAP2 SUB SWAP1 LOG2 POP POP POP JUMP JUMPDEST PUSH1 0x60 DUP2 MLOAD DUP4 MLOAD EQ PUSH2 0x128F JUMPI PUSH1 0x40 MLOAD PUSH32 0x8C379A000000000000000000000000000000000000000000000000000000000 DUP2 MSTORE PUSH1 0x4 ADD PUSH2 0x1286 SWAP1 PUSH2 0x49F7 JUMP JUMPDEST PUSH1 0x40 MLOAD DUP1 SWAP2 SUB SWAP1 REVERT JUMPDEST PUSH1 0x0 DUP4 MLOAD PUSH8 0xFFFFFFFFFFFFFFFF DUP2 GT ISZERO PUSH2 0x12AC JUMPI PUSH2 0x12AB PUSH2 0x393E JUMP JUMPDEST JUMPDEST PUSH1 0x40 MLOAD SWAP1 DUP1 DUP3 MSTORE DUP1 PUSH1 0x20 MUL PUSH1 0x20 ADD DUP3 ADD PUSH1 0x40 MSTORE DUP1 ISZERO PUSH2 0x12DA JUMPI DUP2 PUSH1 0x20 ADD PUSH1 0x20 DUP3 MUL DUP1 CALLDATASIZE DUP4 CALLDATACOPY DUP1 DUP3 ADD SWAP2 POP POP SWAP1 POP JUMPDEST POP SWAP1 POP PUSH1 0x0 JUMPDEST DUP5 MLOAD DUP2 LT ISZERO PUSH2 0x1357 JUMPI PUSH2 0x1327 DUP6 DUP3 DUP2 MLOAD DUP2 LT PUSH2 0x12FF JUMPI PUSH2 0x12FE PUSH2 0x4A17 JUMP JUMPDEST JUMPDEST PUSH1 0x20 MUL PUSH1 0x20 ADD ADD MLOAD DUP6 DUP4 DUP2 MLOAD DUP2 LT PUSH2 0x131A JUMPI PUSH2 0x1319 PUSH2 0x4A17 JUMP JUMPDEST JUMPDEST PUSH1 0x20 MUL PUSH1 0x20 ADD ADD MLOAD PUSH2 0x9D6 JUMP JUMPDEST DUP3 DUP3 DUP2 MLOAD DUP2 LT PUSH2 0x133A JUMPI PUSH2 0x1339 PUSH2 0x4A17 JUMP JUMPDEST JUMPDEST PUSH1 0x20 MUL PUSH1 0x20 ADD ADD DUP2 DUP2 MSTORE POP POP DUP1 PUSH2 0x1350 SWAP1 PUSH2 0x4A46 JUMP JUMPDEST SWAP1 POP PUSH2 0x12E0 JUMP JUMPDEST POP DUP1 SWAP2 POP POP SWAP3 SWAP2 POP POP JUMP JUMPDEST PUSH1 0x0 DUP1 PUSH2 0x136E DUP4 PUSH2 0x16CA JUMP JUMPDEST GT SWAP1 POP SWAP2 SWAP1 POP JUMP JUMPDEST PUSH2 0x137E PUSH2 0x1A5A JUMP JUMPDEST PUSH1 0x0 SELFBALANCE SWAP1 POP DUP2 PUSH20 0xFFFFFFFFFFFFFFFFFFFFFFFFFFFFFFFFFFFFFFFF AND PUSH2 0x8FC DUP3 SWAP1 DUP2 ISZERO MUL SWAP1 PUSH1 0x40 MLOAD PUSH1 0x0 PUSH1 0x40 MLOAD DUP1 DUP4 SUB DUP2 DUP6 DUP9 DUP9 CALL SWAP4 POP POP POP POP ISZERO DUP1 ISZERO PUSH2 0x13C9 JUMPI RETURNDATASIZE PUSH1 0x0 DUP1 RETURNDATACOPY RETURNDATASIZE PUSH1 0x0 REVERT JUMPDEST POP POP POP JUMP JUMPDEST PUSH1 0x0 PUSH1 0x3 PUSH1 0x14 SWAP1 SLOAD SWAP1 PUSH2 0x100 EXP SWAP1 DIV PUSH1 0xFF AND SWAP1 POP SWAP1 JUMP JUMPDEST PUSH2 0x13ED PUSH2 0x1A5A JUMP JUMPDEST PUSH1 0x0 JUMPDEST DUP3 DUP3 SWAP1 POP DUP2 LT ISZERO PUSH2 0x148D JUMPI PUSH1 0x1 PUSH1 0x11 PUSH1 0x0 DUP6 DUP6 DUP6 DUP2 DUP2 LT PUSH2 0x1414 JUMPI PUSH2 0x1413 PUSH2 0x4A17 JUMP JUMPDEST JUMPDEST SWAP1 POP PUSH1 0x20 MUL ADD PUSH1 0x20 DUP2 ADD SWAP1 PUSH2 0x1429 SWAP2 SWAP1 PUSH2 0x4223 JUMP JUMPDEST PUSH20 0xFFFFFFFFFFFFFFFFFFFFFFFFFFFFFFFFFFFFFFFF AND PUSH20 0xFFFFFFFFFFFFFFFFFFFFFFFFFFFFFFFFFFFFFFFF AND DUP2 MSTORE PUSH1 0x20 ADD SWAP1 DUP2 MSTORE PUSH1 0x20 ADD PUSH1 0x0 KECCAK256 PUSH1 0x0 PUSH2 0x100 EXP DUP2 SLOAD DUP2 PUSH1 0xFF MUL NOT AND SWAP1 DUP4 ISZERO ISZERO MUL OR SWAP1 SSTORE POP DUP1 DUP1 PUSH2 0x1485 SWAP1 PUSH2 0x4A46 JUMP JUMPDEST SWAP2 POP POP PUSH2 0x13F0 JUMP JUMPDEST POP POP POP JUMP JUMPDEST PUSH2 0x149A PUSH2 0x1A5A JUMP JUMPDEST PUSH2 0x14A4 PUSH1 0x0 PUSH2 0x252F JUMP JUMPDEST JUMP JUMPDEST PUSH2 0x14AE PUSH2 0x1A5A JUMP JUMPDEST PUSH2 0x14B6 PUSH2 0x25F5 JUMP JUMPDEST JUMP JUMPDEST PUSH1 0x0 PUSH1 0x9 DUP3 DUP2 SLOAD DUP2 LT PUSH2 0x14CE JUMPI PUSH2 0x14CD PUSH2 0x4A17 JUMP JUMPDEST JUMPDEST SWAP1 PUSH1 0x0 MSTORE PUSH1 0x20 PUSH1 0x0 KECCAK256 ADD PUSH1 0x0 SWAP1 SLOAD SWAP1 PUSH2 0x100 EXP SWAP1 DIV PUSH20 0xFFFFFFFFFFFFFFFFFFFFFFFFFFFFFFFFFFFFFFFF AND SWAP1 POP SWAP2 SWAP1 POP JUMP JUMPDEST PUSH1 0x0 PUSH1 0x3 PUSH1 0x0 SWAP1 SLOAD SWAP1 PUSH2 0x100 EXP SWAP1 DIV PUSH20 0xFFFFFFFFFFFFFFFFFFFFFFFFFFFFFFFFFFFFFFFF AND SWAP1 POP SWAP1 JUMP JUMPDEST PUSH1 0x0 PUSH1 0x8 PUSH1 0x0 DUP4 PUSH20 0xFFFFFFFFFFFFFFFFFFFFFFFFFFFFFFFFFFFFFFFF AND PUSH20 0xFFFFFFFFFFFFFFFFFFFFFFFFFFFFFFFFFFFFFFFF AND DUP2 MSTORE PUSH1 0x20 ADD SWAP1 DUP2 MSTORE PUSH1 0x20 ADD PUSH1 0x0 KECCAK256 SLOAD SWAP1 POP SWAP2 SWAP1 POP JUMP JUMPDEST PUSH1 0x10 PUSH1 0x0 SWAP1 SLOAD SWAP1 PUSH2 0x100 EXP SWAP1 DIV PUSH1 0xFF AND PUSH2 0x15C2 JUMPI PUSH1 0x40 MLOAD PUSH32 0x8C379A000000000000000000000000000000000000000000000000000000000 DUP2 MSTORE PUSH1 0x4 ADD PUSH2 0x15B9 SWAP1 PUSH2 0x4ADA JUMP JUMPDEST PUSH1 0x40 MLOAD DUP1 SWAP2 SUB SWAP1 REVERT JUMPDEST PUSH1 0x2 DUP3 LT PUSH2 0x1605 JUMPI PUSH1 0x40 MLOAD PUSH32 0x8C379A000000000000000000000000000000000000000000000000000000000 DUP2 MSTORE PUSH1 0x4 ADD PUSH2 0x15FC SWAP1 PUSH2 0x4B6C JUMP JUMPDEST PUSH1 0x40 MLOAD DUP1 SWAP2 SUB SWAP1 REVERT JUMPDEST DUP1 PUSH1 0xC SLOAD PUSH2 0x1613 SWAP2 SWAP1 PUSH2 0x4B8C JUMP JUMPDEST CALLVALUE EQ PUSH2 0x1654 JUMPI PUSH1 0x40 MLOAD PUSH32 0x8C379A000000000000000000000000000000000000000000000000000000000 DUP2 MSTORE PUSH1 0x4 ADD PUSH2 0x164B SWAP1 PUSH2 0x4C1A JUMP JUMPDEST PUSH1 0x40 MLOAD DUP1 SWAP2 SUB SWAP1 REVERT JUMPDEST PUSH2 0x165E DUP3 DUP3 PUSH2 0x1C4D JUMP JUMPDEST POP POP JUMP JUMPDEST PUSH2 0x1674 PUSH2 0x166D PUSH2 0x9CE JUMP JUMPDEST DUP4 DUP4 PUSH2 0x2658 JUMP JUMPDEST POP POP JUMP JUMPDEST PUSH1 0xD SLOAD DUP2 JUMP JUMPDEST PUSH1 0x0 DUP1 PUSH2 0x1689 PUSH2 0x182E JUMP JUMPDEST SELFBALANCE PUSH2 0x1694 SWAP2 SWAP1 PUSH2 0x4837 JUMP JUMPDEST SWAP1 POP PUSH2 0x16A9 DUP4 DUP3 PUSH2 0x16A4 DUP7 PUSH2 0x152A JUMP JUMPDEST PUSH2 0x27C4 JUMP JUMPDEST SWAP2 POP POP SWAP2 SWAP1 POP JUMP JUMPDEST PUSH1 0xC SLOAD DUP2 JUMP JUMPDEST PUSH1 0x10 PUSH1 0x0 SWAP1 SLOAD SWAP1 PUSH2 0x100 EXP SWAP1 DIV PUSH1 0xFF AND DUP2 JUMP JUMPDEST PUSH1 0x0 PUSH1 0x4 PUSH1 0x0 DUP4 DUP2 MSTORE PUSH1 0x20 ADD SWAP1 DUP2 MSTORE PUSH1 0x20 ADD PUSH1 0x0 KECCAK256 SLOAD SWAP1 POP SWAP2 SWAP1 POP JUMP JUMPDEST PUSH1 0x0 DUP1 PUSH2 0x16F3 DUP5 PUSH2 0x17E5 JUMP JUMPDEST DUP5 PUSH20 0xFFFFFFFFFFFFFFFFFFFFFFFFFFFFFFFFFFFFFFFF AND PUSH4 0x70A08231 ADDRESS PUSH1 0x40 MLOAD DUP3 PUSH4 0xFFFFFFFF AND PUSH1 0xE0 SHL DUP2 MSTORE PUSH1 0x4 ADD PUSH2 0x172C SWAP2 SWAP1 PUSH2 0x42F8 JUMP JUMPDEST PUSH1 0x20 PUSH1 0x40 MLOAD DUP1 DUP4 SUB DUP2 DUP7 GAS STATICCALL ISZERO DUP1 ISZERO PUSH2 0x1749 JUMPI RETURNDATASIZE PUSH1 0x0 DUP1 RETURNDATACOPY RETURNDATASIZE PUSH1 0x0 REVERT JUMPDEST POP POP POP POP PUSH1 0x40 MLOAD RETURNDATASIZE PUSH1 0x1F NOT PUSH1 0x1F DUP3 ADD AND DUP3 ADD DUP1 PUSH1 0x40 MSTORE POP DUP2 ADD SWAP1 PUSH2 0x176D SWAP2 SWAP1 PUSH2 0x4C4F JUMP JUMPDEST PUSH2 0x1777 SWAP2 SWAP1 PUSH2 0x4837 JUMP JUMPDEST SWAP1 POP PUSH2 0x178D DUP4 DUP3 PUSH2 0x1788 DUP8 DUP8 PUSH2 0xFA9 JUMP JUMPDEST PUSH2 0x27C4 JUMP JUMPDEST SWAP2 POP POP SWAP3 SWAP2 POP POP JUMP JUMPDEST PUSH1 0x0 PUSH1 0x7 PUSH1 0x0 DUP4 PUSH20 0xFFFFFFFFFFFFFFFFFFFFFFFFFFFFFFFFFFFFFFFF AND PUSH20 0xFFFFFFFFFFFFFFFFFFFFFFFFFFFFFFFFFFFFFFFF AND DUP2 MSTORE PUSH1 0x20 ADD SWAP1 DUP2 MSTORE PUSH1 0x20 ADD PUSH1 0x0 KECCAK256 SLOAD SWAP1 POP SWAP2 SWAP1 POP JUMP JUMPDEST PUSH1 0xE SLOAD DUP2 JUMP JUMPDEST PUSH1 0x0 PUSH1 0xA PUSH1 0x0 DUP4 PUSH20 0xFFFFFFFFFFFFFFFFFFFFFFFFFFFFFFFFFFFFFFFF AND PUSH20 0xFFFFFFFFFFFFFFFFFFFFFFFFFFFFFFFFFFFFFFFF AND DUP2 MSTORE PUSH1 0x20 ADD SWAP1 DUP2 MSTORE PUSH1 0x20 ADD PUSH1 0x0 KECCAK256 SLOAD SWAP1 POP SWAP2 SWAP1 POP JUMP JUMPDEST PUSH1 0x0 PUSH1 0x6 SLOAD SWAP1 POP SWAP1 JUMP JUMPDEST PUSH1 0x0 PUSH1 0x1 PUSH1 0x0 DUP5 PUSH20 0xFFFFFFFFFFFFFFFFFFFFFFFFFFFFFFFFFFFFFFFF AND PUSH20 0xFFFFFFFFFFFFFFFFFFFFFFFFFFFFFFFFFFFFFFFF AND DUP2 MSTORE PUSH1 0x20 ADD SWAP1 DUP2 MSTORE PUSH1 0x20 ADD PUSH1 0x0 KECCAK256 PUSH1 0x0 DUP4 PUSH20 0xFFFFFFFFFFFFFFFFFFFFFFFFFFFFFFFFFFFFFFFF AND PUSH20 0xFFFFFFFFFFFFFFFFFFFFFFFFFFFFFFFFFFFFFFFF AND DUP2 MSTORE PUSH1 0x20 ADD SWAP1 DUP2 MSTORE PUSH1 0x20 ADD PUSH1 0x0 KECCAK256 PUSH1 0x0 SWAP1 SLOAD SWAP1 PUSH2 0x100 EXP SWAP1 DIV PUSH1 0xFF AND SWAP1 POP SWAP3 SWAP2 POP POP JUMP JUMPDEST PUSH2 0x18D4 PUSH2 0x9CE JUMP JUMPDEST PUSH20 0xFFFFFFFFFFFFFFFFFFFFFFFFFFFFFFFFFFFFFFFF AND DUP6 PUSH20 0xFFFFFFFFFFFFFFFFFFFFFFFFFFFFFFFFFFFFFFFF AND EQ DUP1 PUSH2 0x191A JUMPI POP PUSH2 0x1919 DUP6 PUSH2 0x1914 PUSH2 0x9CE JUMP JUMPDEST PUSH2 0x1838 JUMP JUMPDEST JUMPDEST PUSH2 0x1959 JUMPI PUSH1 0x40 MLOAD PUSH32 0x8C379A000000000000000000000000000000000000000000000000000000000 DUP2 MSTORE PUSH1 0x4 ADD PUSH2 0x1950 SWAP1 PUSH2 0x4965 JUMP JUMPDEST PUSH1 0x40 MLOAD DUP1 SWAP2 SUB SWAP1 REVERT JUMPDEST PUSH2 0x1966 DUP6 DUP6 DUP6 DUP6 DUP6 PUSH2 0x2832 JUMP JUMPDEST POP POP POP POP POP JUMP JUMPDEST PUSH2 0x1975 PUSH2 0x1A5A JUMP JUMPDEST PUSH1 0x0 PUSH20 0xFFFFFFFFFFFFFFFFFFFFFFFFFFFFFFFFFFFFFFFF AND DUP2 PUSH20 0xFFFFFFFFFFFFFFFFFFFFFFFFFFFFFFFFFFFFFFFF AND SUB PUSH2 0x19E4 JUMPI PUSH1 0x40 MLOAD PUSH32 0x8C379A000000000000000000000000000000000000000000000000000000000 DUP2 MSTORE PUSH1 0x4 ADD PUSH2 0x19DB SWAP1 PUSH2 0x4CEE JUMP JUMPDEST PUSH1 0x40 MLOAD DUP1 SWAP2 SUB SWAP1 REVERT JUMPDEST PUSH2 0x19ED DUP2 PUSH2 0x252F JUMP JUMPDEST POP JUMP JUMPDEST PUSH1 0x0 PUSH32 0x1FFC9A700000000000000000000000000000000000000000000000000000000 PUSH28 0xFFFFFFFFFFFFFFFFFFFFFFFFFFFFFFFFFFFFFFFFFFFFFFFFFFFFFFFF NOT AND DUP3 PUSH28 0xFFFFFFFFFFFFFFFFFFFFFFFFFFFFFFFFFFFFFFFFFFFFFFFFFFFFFFFF NOT AND EQ SWAP1 POP SWAP2 SWAP1 POP JUMP JUMPDEST PUSH2 0x1A62 PUSH2 0x9CE JUMP JUMPDEST PUSH20 0xFFFFFFFFFFFFFFFFFFFFFFFFFFFFFFFFFFFFFFFF AND PUSH2 0x1A80 PUSH2 0x1500 JUMP JUMPDEST PUSH20 0xFFFFFFFFFFFFFFFFFFFFFFFFFFFFFFFFFFFFFFFF AND EQ PUSH2 0x1AD6 JUMPI PUSH1 0x40 MLOAD PUSH32 0x8C379A000000000000000000000000000000000000000000000000000000000 DUP2 MSTORE PUSH1 0x4 ADD PUSH2 0x1ACD SWAP1 PUSH2 0x4D5A JUMP JUMPDEST PUSH1 0x40 MLOAD DUP1 SWAP2 SUB SWAP1 REVERT JUMPDEST JUMP JUMPDEST DUP1 PUSH1 0x2 SWAP1 DUP2 PUSH2 0x1AE7 SWAP2 SWAP1 PUSH2 0x4F7C JUMP JUMPDEST POP POP JUMP JUMPDEST PUSH1 0x60 PUSH1 0x2 DUP1 SLOAD PUSH2 0x1AFA SWAP1 PUSH2 0x4DA9 JUMP JUMPDEST DUP1 PUSH1 0x1F ADD PUSH1 0x20 DUP1 SWAP2 DIV MUL PUSH1 0x20 ADD PUSH1 0x40 MLOAD SWAP1 DUP2 ADD PUSH1 0x40 MSTORE DUP1 SWAP3 SWAP2 SWAP1 DUP2 DUP2 MSTORE PUSH1 0x20 ADD DUP3 DUP1 SLOAD PUSH2 0x1B26 SWAP1 PUSH2 0x4DA9 JUMP JUMPDEST DUP1 ISZERO PUSH2 0x1B73 JUMPI DUP1 PUSH1 0x1F LT PUSH2 0x1B48 JUMPI PUSH2 0x100 DUP1 DUP4 SLOAD DIV MUL DUP4 MSTORE SWAP2 PUSH1 0x20 ADD SWAP2 PUSH2 0x1B73 JUMP JUMPDEST DUP3 ADD SWAP2 SWAP1 PUSH1 0x0 MSTORE PUSH1 0x20 PUSH1 0x0 KECCAK256 SWAP1 JUMPDEST DUP2 SLOAD DUP2 MSTORE SWAP1 PUSH1 0x1 ADD SWAP1 PUSH1 0x20 ADD DUP1 DUP4 GT PUSH2 0x1B56 JUMPI DUP3 SWAP1 SUB PUSH1 0x1F AND DUP3 ADD SWAP2 JUMPDEST POP POP POP POP POP SWAP1 POP SWAP2 SWAP1 POP JUMP JUMPDEST PUSH1 0x60 PUSH1 0x0 PUSH1 0x1 PUSH2 0x1B8E DUP5 PUSH2 0x2ACD JUMP JUMPDEST ADD SWAP1 POP PUSH1 0x0 DUP2 PUSH8 0xFFFFFFFFFFFFFFFF DUP2 GT ISZERO PUSH2 0x1BAD JUMPI PUSH2 0x1BAC PUSH2 0x393E JUMP JUMPDEST JUMPDEST PUSH1 0x40 MLOAD SWAP1 DUP1 DUP3 MSTORE DUP1 PUSH1 0x1F ADD PUSH1 0x1F NOT AND PUSH1 0x20 ADD DUP3 ADD PUSH1 0x40 MSTORE DUP1 ISZERO PUSH2 0x1BDF JUMPI DUP2 PUSH1 0x20 ADD PUSH1 0x1 DUP3 MUL DUP1 CALLDATASIZE DUP4 CALLDATACOPY DUP1 DUP3 ADD SWAP2 POP POP SWAP1 POP JUMPDEST POP SWAP1 POP PUSH1 0x0 DUP3 PUSH1 0x20 ADD DUP3 ADD SWAP1 POP JUMPDEST PUSH1 0x1 ISZERO PUSH2 0x1C42 JUMPI DUP1 DUP1 PUSH1 0x1 SWAP1 SUB SWAP2 POP POP PUSH32 0x3031323334353637383961626364656600000000000000000000000000000000 PUSH1 0xA DUP7 MOD BYTE DUP2 MSTORE8 PUSH1 0xA DUP6 DUP2 PUSH2 0x1C36 JUMPI PUSH2 0x1C35 PUSH2 0x504E JUMP JUMPDEST JUMPDEST DIV SWAP5 POP PUSH1 0x0 DUP6 SUB PUSH2 0x1BED JUMPI JUMPDEST DUP2 SWAP4 POP POP POP POP SWAP2 SWAP1 POP JUMP JUMPDEST PUSH1 0xF SLOAD DUP2 PUSH1 0x12 PUSH1 0x0 CALLER PUSH20 0xFFFFFFFFFFFFFFFFFFFFFFFFFFFFFFFFFFFFFFFF AND PUSH20 0xFFFFFFFFFFFFFFFFFFFFFFFFFFFFFFFFFFFFFFFF AND DUP2 MSTORE PUSH1 0x20 ADD SWAP1 DUP2 MSTORE PUSH1 0x20 ADD PUSH1 0x0 KECCAK256 SLOAD PUSH2 0x1C9B SWAP2 SWAP1 PUSH2 0x4837 JUMP JUMPDEST GT ISZERO PUSH2 0x1CDC JUMPI PUSH1 0x40 MLOAD PUSH32 0x8C379A000000000000000000000000000000000000000000000000000000000 DUP2 MSTORE PUSH1 0x4 ADD PUSH2 0x1CD3 SWAP1 PUSH2 0x50C9 JUMP JUMPDEST PUSH1 0x40 MLOAD DUP1 SWAP2 SUB SWAP1 REVERT JUMPDEST PUSH1 0x2 DUP3 LT PUSH2 0x1D1F JUMPI PUSH1 0x40 MLOAD PUSH32 0x8C379A000000000000000000000000000000000000000000000000000000000 DUP2 MSTORE PUSH1 0x4 ADD PUSH2 0x1D16 SWAP1 PUSH2 0x4B6C JUMP JUMPDEST PUSH1 0x40 MLOAD DUP1 SWAP2 SUB SWAP1 REVERT JUMPDEST DUP1 PUSH1 0xD SLOAD PUSH2 0x1D2D SWAP2 SWAP1 PUSH2 0x4B8C JUMP JUMPDEST CALLVALUE EQ PUSH2 0x1D38 JUMPI PUSH1 0x0 DUP1 REVERT JUMPDEST PUSH1 0xE SLOAD DUP2 PUSH2 0x1D45 DUP5 PUSH2 0x16CA JUMP JUMPDEST PUSH2 0x1D4F SWAP2 SWAP1 PUSH2 0x4837 JUMP JUMPDEST GT ISZERO PUSH2 0x1D90 JUMPI PUSH1 0x40 MLOAD PUSH32 0x8C379A000000000000000000000000000000000000000000000000000000000 DUP2 MSTORE PUSH1 0x4 ADD PUSH2 0x1D87 SWAP1 PUSH2 0x5135 JUMP JUMPDEST PUSH1 0x40 MLOAD DUP1 SWAP2 SUB SWAP1 REVERT JUMPDEST PUSH2 0x1DAB CALLER DUP4 DUP4 PUSH1 0x40 MLOAD DUP1 PUSH1 0x20 ADD PUSH1 0x40 MSTORE DUP1 PUSH1 0x0 DUP2 MSTORE POP PUSH2 0x2C20 JUMP JUMPDEST DUP1 PUSH1 0x12 PUSH1 0x0 CALLER PUSH20 0xFFFFFFFFFFFFFFFFFFFFFFFFFFFFFFFFFFFFFFFF AND PUSH20 0xFFFFFFFFFFFFFFFFFFFFFFFFFFFFFFFFFFFFFFFF AND DUP2 MSTORE PUSH1 0x20 ADD SWAP1 DUP2 MSTORE PUSH1 0x20 ADD PUSH1 0x0 KECCAK256 PUSH1 0x0 DUP3 DUP3 SLOAD PUSH2 0x1DFA SWAP2 SWAP1 PUSH2 0x4837 JUMP JUMPDEST SWAP3 POP POP DUP2 SWAP1 SSTORE POP POP POP JUMP JUMPDEST DUP1 SELFBALANCE LT ISZERO PUSH2 0x1E48 JUMPI PUSH1 0x40 MLOAD PUSH32 0x8C379A000000000000000000000000000000000000000000000000000000000 DUP2 MSTORE PUSH1 0x4 ADD PUSH2 0x1E3F SWAP1 PUSH2 0x51A1 JUMP JUMPDEST PUSH1 0x40 MLOAD DUP1 SWAP2 SUB SWAP1 REVERT JUMPDEST PUSH1 0x0 DUP3 PUSH20 0xFFFFFFFFFFFFFFFFFFFFFFFFFFFFFFFFFFFFFFFF AND DUP3 PUSH1 0x40 MLOAD PUSH2 0x1E6E SWAP1 PUSH2 0x51F2 JUMP JUMPDEST PUSH1 0x0 PUSH1 0x40 MLOAD DUP1 DUP4 SUB DUP2 DUP6 DUP8 GAS CALL SWAP3 POP POP POP RETURNDATASIZE DUP1 PUSH1 0x0 DUP2 EQ PUSH2 0x1EAB JUMPI PUSH1 0x40 MLOAD SWAP2 POP PUSH1 0x1F NOT PUSH1 0x3F RETURNDATASIZE ADD AND DUP3 ADD PUSH1 0x40 MSTORE RETURNDATASIZE DUP3 MSTORE RETURNDATASIZE PUSH1 0x0 PUSH1 0x20 DUP5 ADD RETURNDATACOPY PUSH2 0x1EB0 JUMP JUMPDEST PUSH1 0x60 SWAP2 POP JUMPDEST POP POP SWAP1 POP DUP1 PUSH2 0x1EF4 JUMPI PUSH1 0x40 MLOAD PUSH32 0x8C379A000000000000000000000000000000000000000000000000000000000 DUP2 MSTORE PUSH1 0x4 ADD PUSH2 0x1EEB SWAP1 PUSH2 0x5279 JUMP JUMPDEST PUSH1 0x40 MLOAD DUP1 SWAP2 SUB SWAP1 REVERT JUMPDEST POP POP POP JUMP JUMPDEST PUSH1 0x0 PUSH20 0xFFFFFFFFFFFFFFFFFFFFFFFFFFFFFFFFFFFFFFFF AND DUP5 PUSH20 0xFFFFFFFFFFFFFFFFFFFFFFFFFFFFFFFFFFFFFFFF AND SUB PUSH2 0x1F68 JUMPI PUSH1 0x40 MLOAD PUSH32 0x8C379A000000000000000000000000000000000000000000000000000000000 DUP2 MSTORE PUSH1 0x4 ADD PUSH2 0x1F5F SWAP1 PUSH2 0x530B JUMP JUMPDEST PUSH1 0x40 MLOAD DUP1 SWAP2 SUB SWAP1 REVERT JUMPDEST DUP2 MLOAD DUP4 MLOAD EQ PUSH2 0x1FAC JUMPI PUSH1 0x40 MLOAD PUSH32 0x8C379A000000000000000000000000000000000000000000000000000000000 DUP2 MSTORE PUSH1 0x4 ADD PUSH2 0x1FA3 SWAP1 PUSH2 0x539D JUMP JUMPDEST PUSH1 0x40 MLOAD DUP1 SWAP2 SUB SWAP1 REVERT JUMPDEST PUSH1 0x0 PUSH2 0x1FB6 PUSH2 0x9CE JUMP JUMPDEST SWAP1 POP PUSH2 0x1FC7 DUP2 PUSH1 0x0 DUP8 DUP8 DUP8 DUP8 PUSH2 0x2DD0 JUMP JUMPDEST PUSH1 0x0 JUMPDEST DUP5 MLOAD DUP2 LT ISZERO PUSH2 0x2080 JUMPI DUP4 DUP2 DUP2 MLOAD DUP2 LT PUSH2 0x1FE6 JUMPI PUSH2 0x1FE5 PUSH2 0x4A17 JUMP JUMPDEST JUMPDEST PUSH1 0x20 MUL PUSH1 0x20 ADD ADD MLOAD PUSH1 0x0 DUP1 DUP8 DUP5 DUP2 MLOAD DUP2 LT PUSH2 0x2004 JUMPI PUSH2 0x2003 PUSH2 0x4A17 JUMP JUMPDEST JUMPDEST PUSH1 0x20 MUL PUSH1 0x20 ADD ADD MLOAD DUP2 MSTORE PUSH1 0x20 ADD SWAP1 DUP2 MSTORE PUSH1 0x20 ADD PUSH1 0x0 KECCAK256 PUSH1 0x0 DUP9 PUSH20 0xFFFFFFFFFFFFFFFFFFFFFFFFFFFFFFFFFFFFFFFF AND PUSH20 0xFFFFFFFFFFFFFFFFFFFFFFFFFFFFFFFFFFFFFFFF AND DUP2 MSTORE PUSH1 0x20 ADD SWAP1 DUP2 MSTORE PUSH1 0x20 ADD PUSH1 0x0 KECCAK256 PUSH1 0x0 DUP3 DUP3 SLOAD PUSH2 0x2066 SWAP2 SWAP1 PUSH2 0x4837 JUMP JUMPDEST SWAP3 POP POP DUP2 SWAP1 SSTORE POP DUP1 DUP1 PUSH2 0x2078 SWAP1 PUSH2 0x4A46 JUMP JUMPDEST SWAP2 POP POP PUSH2 0x1FCA JUMP JUMPDEST POP DUP5 PUSH20 0xFFFFFFFFFFFFFFFFFFFFFFFFFFFFFFFFFFFFFFFF AND PUSH1 0x0 PUSH20 0xFFFFFFFFFFFFFFFFFFFFFFFFFFFFFFFFFFFFFFFF AND DUP3 PUSH20 0xFFFFFFFFFFFFFFFFFFFFFFFFFFFFFFFFFFFFFFFF AND PUSH32 0x4A39DC06D4C0DBC64B70AF90FD698A233A518AA5D07E595D983B8C0526C8F7FB DUP8 DUP8 PUSH1 0x40 MLOAD PUSH2 0x20F8 SWAP3 SWAP2 SWAP1 PUSH2 0x53BD JUMP JUMPDEST PUSH1 0x40 MLOAD DUP1 SWAP2 SUB SWAP1 LOG4 PUSH2 0x210F DUP2 PUSH1 0x0 DUP8 DUP8 DUP8 DUP8 PUSH2 0x2DEE JUMP JUMPDEST PUSH2 0x211E DUP2 PUSH1 0x0 DUP8 DUP8 DUP8 DUP8 PUSH2 0x2DF6 JUMP JUMPDEST POP POP POP POP POP JUMP JUMPDEST DUP2 MLOAD DUP4 MLOAD EQ PUSH2 0x2169 JUMPI PUSH1 0x40 MLOAD PUSH32 0x8C379A000000000000000000000000000000000000000000000000000000000 DUP2 MSTORE PUSH1 0x4 ADD PUSH2 0x2160 SWAP1 PUSH2 0x539D JUMP JUMPDEST PUSH1 0x40 MLOAD DUP1 SWAP2 SUB SWAP1 REVERT JUMPDEST PUSH1 0x0 PUSH20 0xFFFFFFFFFFFFFFFFFFFFFFFFFFFFFFFFFFFFFFFF AND DUP5 PUSH20 0xFFFFFFFFFFFFFFFFFFFFFFFFFFFFFFFFFFFFFFFF AND SUB PUSH2 0x21D8 JUMPI PUSH1 0x40 MLOAD PUSH32 0x8C379A000000000000000000000000000000000000000000000000000000000 DUP2 MSTORE PUSH1 0x4 ADD PUSH2 0x21CF SWAP1 PUSH2 0x5466 JUMP JUMPDEST PUSH1 0x40 MLOAD DUP1 SWAP2 SUB SWAP1 REVERT JUMPDEST PUSH1 0x0 PUSH2 0x21E2 PUSH2 0x9CE JUMP JUMPDEST SWAP1 POP PUSH2 0x21F2 DUP2 DUP8 DUP8 DUP8 DUP8 DUP8 PUSH2 0x2DD0 JUMP JUMPDEST PUSH1 0x0 JUMPDEST DUP5 MLOAD DUP2 LT ISZERO PUSH2 0x23A3 JUMPI PUSH1 0x0 DUP6 DUP3 DUP2 MLOAD DUP2 LT PUSH2 0x2213 JUMPI PUSH2 0x2212 PUSH2 0x4A17 JUMP JUMPDEST JUMPDEST PUSH1 0x20 MUL PUSH1 0x20 ADD ADD MLOAD SWAP1 POP PUSH1 0x0 DUP6 DUP4 DUP2 MLOAD DUP2 LT PUSH2 0x2232 JUMPI PUSH2 0x2231 PUSH2 0x4A17 JUMP JUMPDEST JUMPDEST PUSH1 0x20 MUL PUSH1 0x20 ADD ADD MLOAD SWAP1 POP PUSH1 0x0 DUP1 PUSH1 0x0 DUP5 DUP2 MSTORE PUSH1 0x20 ADD SWAP1 DUP2 MSTORE PUSH1 0x20 ADD PUSH1 0x0 KECCAK256 PUSH1 0x0 DUP12 PUSH20 0xFFFFFFFFFFFFFFFFFFFFFFFFFFFFFFFFFFFFFFFF AND PUSH20 0xFFFFFFFFFFFFFFFFFFFFFFFFFFFFFFFFFFFFFFFF AND DUP2 MSTORE PUSH1 0x20 ADD SWAP1 DUP2 MSTORE PUSH1 0x20 ADD PUSH1 0x0 KECCAK256 SLOAD SWAP1 POP DUP2 DUP2 LT ISZERO PUSH2 0x22D3 JUMPI PUSH1 0x40 MLOAD PUSH32 0x8C379A000000000000000000000000000000000000000000000000000000000 DUP2 MSTORE PUSH1 0x4 ADD PUSH2 0x22CA SWAP1 PUSH2 0x54F8 JUMP JUMPDEST PUSH1 0x40 MLOAD DUP1 SWAP2 SUB SWAP1 REVERT JUMPDEST DUP2 DUP2 SUB PUSH1 0x0 DUP1 DUP6 DUP2 MSTORE PUSH1 0x20 ADD SWAP1 DUP2 MSTORE PUSH1 0x20 ADD PUSH1 0x0 KECCAK256 PUSH1 0x0 DUP13 PUSH20 0xFFFFFFFFFFFFFFFFFFFFFFFFFFFFFFFFFFFFFFFF AND PUSH20 0xFFFFFFFFFFFFFFFFFFFFFFFFFFFFFFFFFFFFFFFF AND DUP2 MSTORE PUSH1 0x20 ADD SWAP1 DUP2 MSTORE PUSH1 0x20 ADD PUSH1 0x0 KECCAK256 DUP2 SWAP1 SSTORE POP DUP2 PUSH1 0x0 DUP1 DUP6 DUP2 MSTORE PUSH1 0x20 ADD SWAP1 DUP2 MSTORE PUSH1 0x20 ADD PUSH1 0x0 KECCAK256 PUSH1 0x0 DUP12 PUSH20 0xFFFFFFFFFFFFFFFFFFFFFFFFFFFFFFFFFFFFFFFF AND PUSH20 0xFFFFFFFFFFFFFFFFFFFFFFFFFFFFFFFFFFFFFFFF AND DUP2 MSTORE PUSH1 0x20 ADD SWAP1 DUP2 MSTORE PUSH1 0x20 ADD PUSH1 0x0 KECCAK256 PUSH1 0x0 DUP3 DUP3 SLOAD PUSH2 0x2388 SWAP2 SWAP1 PUSH2 0x4837 JUMP JUMPDEST SWAP3 POP POP DUP2 SWAP1 SSTORE POP POP POP POP DUP1 PUSH2 0x239C SWAP1 PUSH2 0x4A46 JUMP JUMPDEST SWAP1 POP PUSH2 0x21F5 JUMP JUMPDEST POP DUP5 PUSH20 0xFFFFFFFFFFFFFFFFFFFFFFFFFFFFFFFFFFFFFFFF AND DUP7 PUSH20 0xFFFFFFFFFFFFFFFFFFFFFFFFFFFFFFFFFFFFFFFF AND DUP3 PUSH20 0xFFFFFFFFFFFFFFFFFFFFFFFFFFFFFFFFFFFFFFFF AND PUSH32 0x4A39DC06D4C0DBC64B70AF90FD698A233A518AA5D07E595D983B8C0526C8F7FB DUP8 DUP8 PUSH1 0x40 MLOAD PUSH2 0x241A SWAP3 SWAP2 SWAP1 PUSH2 0x53BD JUMP JUMPDEST PUSH1 0x40 MLOAD DUP1 SWAP2 SUB SWAP1 LOG4 PUSH2 0x2430 DUP2 DUP8 DUP8 DUP8 DUP8 DUP8 PUSH2 0x2DEE JUMP JUMPDEST PUSH2 0x243E DUP2 DUP8 DUP8 DUP8 DUP8 DUP8 PUSH2 0x2DF6 JUMP JUMPDEST POP POP POP POP POP POP JUMP JUMPDEST PUSH2 0x244E PUSH2 0x2FCD JUMP JUMPDEST PUSH1 0x0 PUSH1 0x3 PUSH1 0x14 PUSH2 0x100 EXP DUP2 SLOAD DUP2 PUSH1 0xFF MUL NOT AND SWAP1 DUP4 ISZERO ISZERO MUL OR SWAP1 SSTORE POP PUSH32 0x5DB9EE0A495BF2E6FF9C91A7834C1BA4FDD244A5E8AA4E537BD38AEAE4B073AA PUSH2 0x2492 PUSH2 0x9CE JUMP JUMPDEST PUSH1 0x40 MLOAD PUSH2 0x249F SWAP2 SWAP1 PUSH2 0x42F8 JUMP JUMPDEST PUSH1 0x40 MLOAD DUP1 SWAP2 SUB SWAP1 LOG1 JUMP JUMPDEST PUSH2 0x252A DUP4 PUSH4 0xA9059CBB PUSH1 0xE0 SHL DUP5 DUP5 PUSH1 0x40 MLOAD PUSH1 0x24 ADD PUSH2 0x24C8 SWAP3 SWAP2 SWAP1 PUSH2 0x3778 JUMP JUMPDEST PUSH1 0x40 MLOAD PUSH1 0x20 DUP2 DUP4 SUB SUB DUP2 MSTORE SWAP1 PUSH1 0x40 MSTORE SWAP1 PUSH28 0xFFFFFFFFFFFFFFFFFFFFFFFFFFFFFFFFFFFFFFFFFFFFFFFFFFFFFFFF NOT AND PUSH1 0x20 DUP3 ADD DUP1 MLOAD PUSH28 0xFFFFFFFFFFFFFFFFFFFFFFFFFFFFFFFFFFFFFFFFFFFFFFFFFFFFFFFF DUP4 DUP2 DUP4 AND OR DUP4 MSTORE POP POP POP POP PUSH2 0x3016 JUMP JUMPDEST POP POP POP JUMP JUMPDEST PUSH1 0x0 PUSH1 0x3 PUSH1 0x0 SWAP1 SLOAD SWAP1 PUSH2 0x100 EXP SWAP1 DIV PUSH20 0xFFFFFFFFFFFFFFFFFFFFFFFFFFFFFFFFFFFFFFFF AND SWAP1 POP DUP2 PUSH1 0x3 PUSH1 0x0 PUSH2 0x100 EXP DUP2 SLOAD DUP2 PUSH20 0xFFFFFFFFFFFFFFFFFFFFFFFFFFFFFFFFFFFFFFFF MUL NOT AND SWAP1 DUP4 PUSH20 0xFFFFFFFFFFFFFFFFFFFFFFFFFFFFFFFFFFFFFFFF AND MUL OR SWAP1 SSTORE POP DUP2 PUSH20 0xFFFFFFFFFFFFFFFFFFFFFFFFFFFFFFFFFFFFFFFF AND DUP2 PUSH20 0xFFFFFFFFFFFFFFFFFFFFFFFFFFFFFFFFFFFFFFFF AND PUSH32 0x8BE0079C531659141344CD1FD0A4F28419497F9722A3DAAFE3B4186F6B6457E0 PUSH1 0x40 MLOAD PUSH1 0x40 MLOAD DUP1 SWAP2 SUB SWAP1 LOG3 POP POP JUMP JUMPDEST PUSH2 0x25FD PUSH2 0x30DE JUMP JUMPDEST PUSH1 0x1 PUSH1 0x3 PUSH1 0x14 PUSH2 0x100 EXP DUP2 SLOAD DUP2 PUSH1 0xFF MUL NOT AND SWAP1 DUP4 ISZERO ISZERO MUL OR SWAP1 SSTORE POP PUSH32 0x62E78CEA01BEE320CD4E420270B5EA74000D11B0C9F74754EBDBFC544B05A258 PUSH2 0x2641 PUSH2 0x9CE JUMP JUMPDEST PUSH1 0x40 MLOAD PUSH2 0x264E SWAP2 SWAP1 PUSH2 0x42F8 JUMP JUMPDEST PUSH1 0x40 MLOAD DUP1 SWAP2 SUB SWAP1 LOG1 JUMP JUMPDEST DUP2 PUSH20 0xFFFFFFFFFFFFFFFFFFFFFFFFFFFFFFFFFFFFFFFF AND DUP4 PUSH20 0xFFFFFFFFFFFFFFFFFFFFFFFFFFFFFFFFFFFFFFFF AND SUB PUSH2 0x26C6 JUMPI PUSH1 0x40 MLOAD PUSH32 0x8C379A000000000000000000000000000000000000000000000000000000000 DUP2 MSTORE PUSH1 0x4 ADD PUSH2 0x26BD SWAP1 PUSH2 0x558A JUMP JUMPDEST PUSH1 0x40 MLOAD DUP1 SWAP2 SUB SWAP1 REVERT JUMPDEST DUP1 PUSH1 0x1 PUSH1 0x0 DUP6 PUSH20 0xFFFFFFFFFFFFFFFFFFFFFFFFFFFFFFFFFFFFFFFF AND PUSH20 0xFFFFFFFFFFFFFFFFFFFFFFFFFFFFFFFFFFFFFFFF AND DUP2 MSTORE PUSH1 0x20 ADD SWAP1 DUP2 MSTORE PUSH1 0x20 ADD PUSH1 0x0 KECCAK256 PUSH1 0x0 DUP5 PUSH20 0xFFFFFFFFFFFFFFFFFFFFFFFFFFFFFFFFFFFFFFFF AND PUSH20 0xFFFFFFFFFFFFFFFFFFFFFFFFFFFFFFFFFFFFFFFF AND DUP2 MSTORE PUSH1 0x20 ADD SWAP1 DUP2 MSTORE PUSH1 0x20 ADD PUSH1 0x0 KECCAK256 PUSH1 0x0 PUSH2 0x100 EXP DUP2 SLOAD DUP2 PUSH1 0xFF MUL NOT AND SWAP1 DUP4 ISZERO ISZERO MUL OR SWAP1 SSTORE POP DUP2 PUSH20 0xFFFFFFFFFFFFFFFFFFFFFFFFFFFFFFFFFFFFFFFF AND DUP4 PUSH20 0xFFFFFFFFFFFFFFFFFFFFFFFFFFFFFFFFFFFFFFFF AND PUSH32 0x17307EAB39AB6107E8899845AD3D59BD9653F200F220920489CA2B5937696C31 DUP4 PUSH1 0x40 MLOAD PUSH2 0x27B7 SWAP2 SWAP1 PUSH2 0x3908 JUMP JUMPDEST PUSH1 0x40 MLOAD DUP1 SWAP2 SUB SWAP1 LOG3 POP POP POP JUMP JUMPDEST PUSH1 0x0 DUP2 PUSH1 0x5 SLOAD PUSH1 0x7 PUSH1 0x0 DUP8 PUSH20 0xFFFFFFFFFFFFFFFFFFFFFFFFFFFFFFFFFFFFFFFF AND PUSH20 0xFFFFFFFFFFFFFFFFFFFFFFFFFFFFFFFFFFFFFFFF AND DUP2 MSTORE PUSH1 0x20 ADD SWAP1 DUP2 MSTORE PUSH1 0x20 ADD PUSH1 0x0 KECCAK256 SLOAD DUP6 PUSH2 0x2815 SWAP2 SWAP1 PUSH2 0x4B8C JUMP JUMPDEST PUSH2 0x281F SWAP2 SWAP1 PUSH2 0x55AA JUMP JUMPDEST PUSH2 0x2829 SWAP2 SWAP1 PUSH2 0x55DB JUMP JUMPDEST SWAP1 POP SWAP4 SWAP3 POP POP POP JUMP JUMPDEST PUSH1 0x0 PUSH20 0xFFFFFFFFFFFFFFFFFFFFFFFFFFFFFFFFFFFFFFFF AND DUP5 PUSH20 0xFFFFFFFFFFFFFFFFFFFFFFFFFFFFFFFFFFFFFFFF AND SUB PUSH2 0x28A1 JUMPI PUSH1 0x40 MLOAD PUSH32 0x8C379A000000000000000000000000000000000000000000000000000000000 DUP2 MSTORE PUSH1 0x4 ADD PUSH2 0x2898 SWAP1 PUSH2 0x5466 JUMP JUMPDEST PUSH1 0x40 MLOAD DUP1 SWAP2 SUB SWAP1 REVERT JUMPDEST PUSH1 0x0 PUSH2 0x28AB PUSH2 0x9CE JUMP JUMPDEST SWAP1 POP PUSH1 0x0 PUSH2 0x28B8 DUP6 PUSH2 0x3128 JUMP JUMPDEST SWAP1 POP PUSH1 0x0 PUSH2 0x28C5 DUP6 PUSH2 0x3128 JUMP JUMPDEST SWAP1 POP PUSH2 0x28D5 DUP4 DUP10 DUP10 DUP6 DUP6 DUP10 PUSH2 0x2DD0 JUMP JUMPDEST PUSH1 0x0 DUP1 PUSH1 0x0 DUP9 DUP2 MSTORE PUSH1 0x20 ADD SWAP1 DUP2 MSTORE PUSH1 0x20 ADD PUSH1 0x0 KECCAK256 PUSH1 0x0 DUP11 PUSH20 0xFFFFFFFFFFFFFFFFFFFFFFFFFFFFFFFFFFFFFFFF AND PUSH20 0xFFFFFFFFFFFFFFFFFFFFFFFFFFFFFFFFFFFFFFFF AND DUP2 MSTORE PUSH1 0x20 ADD SWAP1 DUP2 MSTORE PUSH1 0x20 ADD PUSH1 0x0 KECCAK256 SLOAD SWAP1 POP DUP6 DUP2 LT ISZERO PUSH2 0x296C JUMPI PUSH1 0x40 MLOAD PUSH32 0x8C379A000000000000000000000000000000000000000000000000000000000 DUP2 MSTORE PUSH1 0x4 ADD PUSH2 0x2963 SWAP1 PUSH2 0x54F8 JUMP JUMPDEST PUSH1 0x40 MLOAD DUP1 SWAP2 SUB SWAP1 REVERT JUMPDEST DUP6 DUP2 SUB PUSH1 0x0 DUP1 DUP10 DUP2 MSTORE PUSH1 0x20 ADD SWAP1 DUP2 MSTORE PUSH1 0x20 ADD PUSH1 0x0 KECCAK256 PUSH1 0x0 DUP12 PUSH20 0xFFFFFFFFFFFFFFFFFFFFFFFFFFFFFFFFFFFFFFFF AND PUSH20 0xFFFFFFFFFFFFFFFFFFFFFFFFFFFFFFFFFFFFFFFF AND DUP2 MSTORE PUSH1 0x20 ADD SWAP1 DUP2 MSTORE PUSH1 0x20 ADD PUSH1 0x0 KECCAK256 DUP2 SWAP1 SSTORE POP DUP6 PUSH1 0x0 DUP1 DUP10 DUP2 MSTORE PUSH1 0x20 ADD SWAP1 DUP2 MSTORE PUSH1 0x20 ADD PUSH1 0x0 KECCAK256 PUSH1 0x0 DUP11 PUSH20 0xFFFFFFFFFFFFFFFFFFFFFFFFFFFFFFFFFFFFFFFF AND PUSH20 0xFFFFFFFFFFFFFFFFFFFFFFFFFFFFFFFFFFFFFFFF AND DUP2 MSTORE PUSH1 0x20 ADD SWAP1 DUP2 MSTORE PUSH1 0x20 ADD PUSH1 0x0 KECCAK256 PUSH1 0x0 DUP3 DUP3 SLOAD PUSH2 0x2A21 SWAP2 SWAP1 PUSH2 0x4837 JUMP JUMPDEST SWAP3 POP POP DUP2 SWAP1 SSTORE POP DUP8 PUSH20 0xFFFFFFFFFFFFFFFFFFFFFFFFFFFFFFFFFFFFFFFF AND DUP10 PUSH20 0xFFFFFFFFFFFFFFFFFFFFFFFFFFFFFFFFFFFFFFFF AND DUP6 PUSH20 0xFFFFFFFFFFFFFFFFFFFFFFFFFFFFFFFFFFFFFFFF AND PUSH32 0xC3D58168C5AE7397731D063D5BBF3D657854427343F4C083240F7AACAA2D0F62 DUP11 DUP11 PUSH1 0x40 MLOAD PUSH2 0x2A9E SWAP3 SWAP2 SWAP1 PUSH2 0x560F JUMP JUMPDEST PUSH1 0x40 MLOAD DUP1 SWAP2 SUB SWAP1 LOG4 PUSH2 0x2AB4 DUP5 DUP11 DUP11 DUP7 DUP7 DUP11 PUSH2 0x2DEE JUMP JUMPDEST PUSH2 0x2AC2 DUP5 DUP11 DUP11 DUP11 DUP11 DUP11 PUSH2 0x31A2 JUMP JUMPDEST POP POP POP POP POP POP POP POP POP JUMP JUMPDEST PUSH1 0x0 DUP1 PUSH1 0x0 SWAP1 POP PUSH27 0x184F03E93FF9F4DAA797ED6E38ED64BF6A1F010000000000000000 DUP4 LT PUSH2 0x2B2B JUMPI PUSH27 0x184F03E93FF9F4DAA797ED6E38ED64BF6A1F010000000000000000 DUP4 DUP2 PUSH2 0x2B21 JUMPI PUSH2 0x2B20 PUSH2 0x504E JUMP JUMPDEST JUMPDEST DIV SWAP3 POP PUSH1 0x40 DUP2 ADD SWAP1 POP JUMPDEST PUSH14 0x4EE2D6D415B85ACEF8100000000 DUP4 LT PUSH2 0x2B68 JUMPI PUSH14 0x4EE2D6D415B85ACEF8100000000 DUP4 DUP2 PUSH2 0x2B5E JUMPI PUSH2 0x2B5D PUSH2 0x504E JUMP JUMPDEST JUMPDEST DIV SWAP3 POP PUSH1 0x20 DUP2 ADD SWAP1 POP JUMPDEST PUSH7 0x2386F26FC10000 DUP4 LT PUSH2 0x2B97 JUMPI PUSH7 0x2386F26FC10000 DUP4 DUP2 PUSH2 0x2B8D JUMPI PUSH2 0x2B8C PUSH2 0x504E JUMP JUMPDEST JUMPDEST DIV SWAP3 POP PUSH1 0x10 DUP2 ADD SWAP1 POP JUMPDEST PUSH4 0x5F5E100 DUP4 LT PUSH2 0x2BC0 JUMPI PUSH4 0x5F5E100 DUP4 DUP2 PUSH2 0x2BB6 JUMPI PUSH2 0x2BB5 PUSH2 0x504E JUMP JUMPDEST JUMPDEST DIV SWAP3 POP PUSH1 0x8 DUP2 ADD SWAP1 POP JUMPDEST PUSH2 0x2710 DUP4 LT PUSH2 0x2BE5 JUMPI PUSH2 0x2710 DUP4 DUP2 PUSH2 0x2BDB JUMPI PUSH2 0x2BDA PUSH2 0x504E JUMP JUMPDEST JUMPDEST DIV SWAP3 POP PUSH1 0x4 DUP2 ADD SWAP1 POP JUMPDEST PUSH1 0x64 DUP4 LT PUSH2 0x2C08 JUMPI PUSH1 0x64 DUP4 DUP2 PUSH2 0x2BFE JUMPI PUSH2 0x2BFD PUSH2 0x504E JUMP JUMPDEST JUMPDEST DIV SWAP3 POP PUSH1 0x2 DUP2 ADD SWAP1 POP JUMPDEST PUSH1 0xA DUP4 LT PUSH2 0x2C17 JUMPI PUSH1 0x1 DUP2 ADD SWAP1 POP JUMPDEST DUP1 SWAP2 POP POP SWAP2 SWAP1 POP JUMP JUMPDEST PUSH1 0x0 PUSH20 0xFFFFFFFFFFFFFFFFFFFFFFFFFFFFFFFFFFFFFFFF AND DUP5 PUSH20 0xFFFFFFFFFFFFFFFFFFFFFFFFFFFFFFFFFFFFFFFF AND SUB PUSH2 0x2C8F JUMPI PUSH1 0x40 MLOAD PUSH32 0x8C379A000000000000000000000000000000000000000000000000000000000 DUP2 MSTORE PUSH1 0x4 ADD PUSH2 0x2C86 SWAP1 PUSH2 0x530B JUMP JUMPDEST PUSH1 0x40 MLOAD DUP1 SWAP2 SUB SWAP1 REVERT JUMPDEST PUSH1 0x0 PUSH2 0x2C99 PUSH2 0x9CE JUMP JUMPDEST SWAP1 POP PUSH1 0x0 PUSH2 0x2CA6 DUP6 PUSH2 0x3128 JUMP JUMPDEST SWAP1 POP PUSH1 0x0 PUSH2 0x2CB3 DUP6 PUSH2 0x3128 JUMP JUMPDEST SWAP1 POP PUSH2 0x2CC4 DUP4 PUSH1 0x0 DUP10 DUP6 DUP6 DUP10 PUSH2 0x2DD0 JUMP JUMPDEST DUP5 PUSH1 0x0 DUP1 DUP9 DUP2 MSTORE PUSH1 0x20 ADD SWAP1 DUP2 MSTORE PUSH1 0x20 ADD PUSH1 0x0 KECCAK256 PUSH1 0x0 DUP10 PUSH20 0xFFFFFFFFFFFFFFFFFFFFFFFFFFFFFFFFFFFFFFFF AND PUSH20 0xFFFFFFFFFFFFFFFFFFFFFFFFFFFFFFFFFFFFFFFF AND DUP2 MSTORE PUSH1 0x20 ADD SWAP1 DUP2 MSTORE PUSH1 0x20 ADD PUSH1 0x0 KECCAK256 PUSH1 0x0 DUP3 DUP3 SLOAD PUSH2 0x2D23 SWAP2 SWAP1 PUSH2 0x4837 JUMP JUMPDEST SWAP3 POP POP DUP2 SWAP1 SSTORE POP DUP7 PUSH20 0xFFFFFFFFFFFFFFFFFFFFFFFFFFFFFFFFFFFFFFFF AND PUSH1 0x0 PUSH20 0xFFFFFFFFFFFFFFFFFFFFFFFFFFFFFFFFFFFFFFFF AND DUP5 PUSH20 0xFFFFFFFFFFFFFFFFFFFFFFFFFFFFFFFFFFFFFFFF AND PUSH32 0xC3D58168C5AE7397731D063D5BBF3D657854427343F4C083240F7AACAA2D0F62 DUP10 DUP10 PUSH1 0x40 MLOAD PUSH2 0x2DA1 SWAP3 SWAP2 SWAP1 PUSH2 0x560F JUMP JUMPDEST PUSH1 0x40 MLOAD DUP1 SWAP2 SUB SWAP1 LOG4 PUSH2 0x2DB8 DUP4 PUSH1 0x0 DUP10 DUP6 DUP6 DUP10 PUSH2 0x2DEE JUMP JUMPDEST PUSH2 0x2DC7 DUP4 PUSH1 0x0 DUP10 DUP10 DUP10 DUP10 PUSH2 0x31A2 JUMP JUMPDEST POP POP POP POP POP POP POP JUMP JUMPDEST PUSH2 0x2DD8 PUSH2 0x30DE JUMP JUMPDEST PUSH2 0x2DE6 DUP7 DUP7 DUP7 DUP7 DUP7 DUP7 PUSH2 0x3379 JUMP JUMPDEST POP POP POP POP POP POP JUMP JUMPDEST POP POP POP POP POP POP JUMP JUMPDEST PUSH2 0x2E15 DUP5 PUSH20 0xFFFFFFFFFFFFFFFFFFFFFFFFFFFFFFFFFFFFFFFF AND PUSH2 0x3549 JUMP JUMPDEST ISZERO PUSH2 0x2FC5 JUMPI DUP4 PUSH20 0xFFFFFFFFFFFFFFFFFFFFFFFFFFFFFFFFFFFFFFFF AND PUSH4 0xBC197C81 DUP8 DUP8 DUP7 DUP7 DUP7 PUSH1 0x40 MLOAD DUP7 PUSH4 0xFFFFFFFF AND PUSH1 0xE0 SHL DUP2 MSTORE PUSH1 0x4 ADD PUSH2 0x2E5B SWAP6 SWAP5 SWAP4 SWAP3 SWAP2 SWAP1 PUSH2 0x568D JUMP JUMPDEST PUSH1 0x20 PUSH1 0x40 MLOAD DUP1 DUP4 SUB DUP2 PUSH1 0x0 DUP8 GAS CALL SWAP3 POP POP POP DUP1 ISZERO PUSH2 0x2E97 JUMPI POP PUSH1 0x40 MLOAD RETURNDATASIZE PUSH1 0x1F NOT PUSH1 0x1F DUP3 ADD AND DUP3 ADD DUP1 PUSH1 0x40 MSTORE POP DUP2 ADD SWAP1 PUSH2 0x2E94 SWAP2 SWAP1 PUSH2 0x570A JUMP JUMPDEST PUSH1 0x1 JUMPDEST PUSH2 0x2F3C JUMPI PUSH2 0x2EA3 PUSH2 0x5744 JUMP JUMPDEST DUP1 PUSH4 0x8C379A0 SUB PUSH2 0x2EFF JUMPI POP PUSH2 0x2EB7 PUSH2 0x5766 JUMP JUMPDEST DUP1 PUSH2 0x2EC2 JUMPI POP PUSH2 0x2F01 JUMP JUMPDEST DUP1 PUSH1 0x40 MLOAD PUSH32 0x8C379A000000000000000000000000000000000000000000000000000000000 DUP2 MSTORE PUSH1 0x4 ADD PUSH2 0x2EF6 SWAP2 SWAP1 PUSH2 0x3B5E JUMP JUMPDEST PUSH1 0x40 MLOAD DUP1 SWAP2 SUB SWAP1 REVERT JUMPDEST POP JUMPDEST PUSH1 0x40 MLOAD PUSH32 0x8C379A000000000000000000000000000000000000000000000000000000000 DUP2 MSTORE PUSH1 0x4 ADD PUSH2 0x2F33 SWAP1 PUSH2 0x5868 JUMP JUMPDEST PUSH1 0x40 MLOAD DUP1 SWAP2 SUB SWAP1 REVERT JUMPDEST PUSH4 0xBC197C81 PUSH1 0xE0 SHL PUSH28 0xFFFFFFFFFFFFFFFFFFFFFFFFFFFFFFFFFFFFFFFFFFFFFFFFFFFFFFFF NOT AND DUP2 PUSH28 0xFFFFFFFFFFFFFFFFFFFFFFFFFFFFFFFFFFFFFFFFFFFFFFFFFFFFFFFF NOT AND EQ PUSH2 0x2FC3 JUMPI PUSH1 0x40 MLOAD PUSH32 0x8C379A000000000000000000000000000000000000000000000000000000000 DUP2 MSTORE PUSH1 0x4 ADD PUSH2 0x2FBA SWAP1 PUSH2 0x58FA JUMP JUMPDEST PUSH1 0x40 MLOAD DUP1 SWAP2 SUB SWAP1 REVERT JUMPDEST POP JUMPDEST POP POP POP POP POP POP JUMP JUMPDEST PUSH2 0x2FD5 PUSH2 0x13CE JUMP JUMPDEST PUSH2 0x3014 JUMPI PUSH1 0x40 MLOAD PUSH32 0x8C379A000000000000000000000000000000000000000000000000000000000 DUP2 MSTORE PUSH1 0x4 ADD PUSH2 0x300B SWAP1 PUSH2 0x5966 JUMP JUMPDEST PUSH1 0x40 MLOAD DUP1 SWAP2 SUB SWAP1 REVERT JUMPDEST JUMP JUMPDEST PUSH1 0x0 PUSH2 0x3078 DUP3 PUSH1 0x40 MLOAD DUP1 PUSH1 0x40 ADD PUSH1 0x40 MSTORE DUP1 PUSH1 0x20 DUP2 MSTORE PUSH1 0x20 ADD PUSH32 0x5361666545524332303A206C6F772D6C6576656C2063616C6C206661696C6564 DUP2 MSTORE POP DUP6 PUSH20 0xFFFFFFFFFFFFFFFFFFFFFFFFFFFFFFFFFFFFFFFF AND PUSH2 0x356C SWAP1 SWAP3 SWAP2 SWAP1 PUSH4 0xFFFFFFFF AND JUMP JUMPDEST SWAP1 POP PUSH1 0x0 DUP2 MLOAD EQ DUP1 PUSH2 0x309A JUMPI POP DUP1 DUP1 PUSH1 0x20 ADD SWAP1 MLOAD DUP2 ADD SWAP1 PUSH2 0x3099 SWAP2 SWAP1 PUSH2 0x599B JUMP JUMPDEST JUMPDEST PUSH2 0x30D9 JUMPI PUSH1 0x40 MLOAD PUSH32 0x8C379A000000000000000000000000000000000000000000000000000000000 DUP2 MSTORE PUSH1 0x4 ADD PUSH2 0x30D0 SWAP1 PUSH2 0x5A3A JUMP JUMPDEST PUSH1 0x40 MLOAD DUP1 SWAP2 SUB SWAP1 REVERT JUMPDEST POP POP POP JUMP JUMPDEST PUSH2 0x30E6 PUSH2 0x13CE JUMP JUMPDEST ISZERO PUSH2 0x3126 JUMPI PUSH1 0x40 MLOAD PUSH32 0x8C379A000000000000000000000000000000000000000000000000000000000 DUP2 MSTORE PUSH1 0x4 ADD PUSH2 0x311D SWAP1 PUSH2 0x5AA6 JUMP JUMPDEST PUSH1 0x40 MLOAD DUP1 SWAP2 SUB SWAP1 REVERT JUMPDEST JUMP JUMPDEST PUSH1 0x60 PUSH1 0x0 PUSH1 0x1 PUSH8 0xFFFFFFFFFFFFFFFF DUP2 GT ISZERO PUSH2 0x3147 JUMPI PUSH2 0x3146 PUSH2 0x393E JUMP JUMPDEST JUMPDEST PUSH1 0x40 MLOAD SWAP1 DUP1 DUP3 MSTORE DUP1 PUSH1 0x20 MUL PUSH1 0x20 ADD DUP3 ADD PUSH1 0x40 MSTORE DUP1 ISZERO PUSH2 0x3175 JUMPI DUP2 PUSH1 0x20 ADD PUSH1 0x20 DUP3 MUL DUP1 CALLDATASIZE DUP4 CALLDATACOPY DUP1 DUP3 ADD SWAP2 POP POP SWAP1 POP JUMPDEST POP SWAP1 POP DUP3 DUP2 PUSH1 0x0 DUP2 MLOAD DUP2 LT PUSH2 0x318D JUMPI PUSH2 0x318C PUSH2 0x4A17 JUMP JUMPDEST JUMPDEST PUSH1 0x20 MUL PUSH1 0x20 ADD ADD DUP2 DUP2 MSTORE POP POP DUP1 SWAP2 POP POP SWAP2 SWAP1 POP JUMP JUMPDEST PUSH2 0x31C1 DUP5 PUSH20 0xFFFFFFFFFFFFFFFFFFFFFFFFFFFFFFFFFFFFFFFF AND PUSH2 0x3549 JUMP JUMPDEST ISZERO PUSH2 0x3371 JUMPI DUP4 PUSH20 0xFFFFFFFFFFFFFFFFFFFFFFFFFFFFFFFFFFFFFFFF AND PUSH4 0xF23A6E61 DUP8 DUP8 DUP7 DUP7 DUP7 PUSH1 0x40 MLOAD DUP7 PUSH4 0xFFFFFFFF AND PUSH1 0xE0 SHL DUP2 MSTORE PUSH1 0x4 ADD PUSH2 0x3207 SWAP6 SWAP5 SWAP4 SWAP3 SWAP2 SWAP1 PUSH2 0x5AC6 JUMP JUMPDEST PUSH1 0x20 PUSH1 0x40 MLOAD DUP1 DUP4 SUB DUP2 PUSH1 0x0 DUP8 GAS CALL SWAP3 POP POP POP DUP1 ISZERO PUSH2 0x3243 JUMPI POP PUSH1 0x40 MLOAD RETURNDATASIZE PUSH1 0x1F NOT PUSH1 0x1F DUP3 ADD AND DUP3 ADD DUP1 PUSH1 0x40 MSTORE POP DUP2 ADD SWAP1 PUSH2 0x3240 SWAP2 SWAP1 PUSH2 0x570A JUMP JUMPDEST PUSH1 0x1 JUMPDEST PUSH2 0x32E8 JUMPI PUSH2 0x324F PUSH2 0x5744 JUMP JUMPDEST DUP1 PUSH4 0x8C379A0 SUB PUSH2 0x32AB JUMPI POP PUSH2 0x3263 PUSH2 0x5766 JUMP JUMPDEST DUP1 PUSH2 0x326E JUMPI POP PUSH2 0x32AD JUMP JUMPDEST DUP1 PUSH1 0x40 MLOAD PUSH32 0x8C379A000000000000000000000000000000000000000000000000000000000 DUP2 MSTORE PUSH1 0x4 ADD PUSH2 0x32A2 SWAP2 SWAP1 PUSH2 0x3B5E JUMP JUMPDEST PUSH1 0x40 MLOAD DUP1 SWAP2 SUB SWAP1 REVERT JUMPDEST POP JUMPDEST PUSH1 0x40 MLOAD PUSH32 0x8C379A000000000000000000000000000000000000000000000000000000000 DUP2 MSTORE PUSH1 0x4 ADD PUSH2 0x32DF SWAP1 PUSH2 0x5868 JUMP JUMPDEST PUSH1 0x40 MLOAD DUP1 SWAP2 SUB SWAP1 REVERT JUMPDEST PUSH4 0xF23A6E61 PUSH1 0xE0 SHL PUSH28 0xFFFFFFFFFFFFFFFFFFFFFFFFFFFFFFFFFFFFFFFFFFFFFFFFFFFFFFFF NOT AND DUP2 PUSH28 0xFFFFFFFFFFFFFFFFFFFFFFFFFFFFFFFFFFFFFFFFFFFFFFFFFFFFFFFF NOT AND EQ PUSH2 0x336F JUMPI PUSH1 0x40 MLOAD PUSH32 0x8C379A000000000000000000000000000000000000000000000000000000000 DUP2 MSTORE PUSH1 0x4 ADD PUSH2 0x3366 SWAP1 PUSH2 0x58FA JUMP JUMPDEST PUSH1 0x40 MLOAD DUP1 SWAP2 SUB SWAP1 REVERT JUMPDEST POP JUMPDEST POP POP POP POP POP POP JUMP JUMPDEST PUSH2 0x3387 DUP7 DUP7 DUP7 DUP7 DUP7 DUP7 PUSH2 0x3584 JUMP JUMPDEST PUSH1 0x0 PUSH20 0xFFFFFFFFFFFFFFFFFFFFFFFFFFFFFFFFFFFFFFFF AND DUP6 PUSH20 0xFFFFFFFFFFFFFFFFFFFFFFFFFFFFFFFFFFFFFFFF AND SUB PUSH2 0x3438 JUMPI PUSH1 0x0 JUMPDEST DUP4 MLOAD DUP2 LT ISZERO PUSH2 0x3436 JUMPI DUP3 DUP2 DUP2 MLOAD DUP2 LT PUSH2 0x33DA JUMPI PUSH2 0x33D9 PUSH2 0x4A17 JUMP JUMPDEST JUMPDEST PUSH1 0x20 MUL PUSH1 0x20 ADD ADD MLOAD PUSH1 0x4 PUSH1 0x0 DUP7 DUP5 DUP2 MLOAD DUP2 LT PUSH2 0x33F9 JUMPI PUSH2 0x33F8 PUSH2 0x4A17 JUMP JUMPDEST JUMPDEST PUSH1 0x20 MUL PUSH1 0x20 ADD ADD MLOAD DUP2 MSTORE PUSH1 0x20 ADD SWAP1 DUP2 MSTORE PUSH1 0x20 ADD PUSH1 0x0 KECCAK256 PUSH1 0x0 DUP3 DUP3 SLOAD PUSH2 0x341E SWAP2 SWAP1 PUSH2 0x4837 JUMP JUMPDEST SWAP3 POP POP DUP2 SWAP1 SSTORE POP DUP1 PUSH2 0x342F SWAP1 PUSH2 0x4A46 JUMP JUMPDEST SWAP1 POP PUSH2 0x33BE JUMP JUMPDEST POP JUMPDEST PUSH1 0x0 PUSH20 0xFFFFFFFFFFFFFFFFFFFFFFFFFFFFFFFFFFFFFFFF AND DUP5 PUSH20 0xFFFFFFFFFFFFFFFFFFFFFFFFFFFFFFFFFFFFFFFF AND SUB PUSH2 0x3541 JUMPI PUSH1 0x0 JUMPDEST DUP4 MLOAD DUP2 LT ISZERO PUSH2 0x353F JUMPI PUSH1 0x0 DUP5 DUP3 DUP2 MLOAD DUP2 LT PUSH2 0x348D JUMPI PUSH2 0x348C PUSH2 0x4A17 JUMP JUMPDEST JUMPDEST PUSH1 0x20 MUL PUSH1 0x20 ADD ADD MLOAD SWAP1 POP PUSH1 0x0 DUP5 DUP4 DUP2 MLOAD DUP2 LT PUSH2 0x34AC JUMPI PUSH2 0x34AB PUSH2 0x4A17 JUMP JUMPDEST JUMPDEST PUSH1 0x20 MUL PUSH1 0x20 ADD ADD MLOAD SWAP1 POP PUSH1 0x0 PUSH1 0x4 PUSH1 0x0 DUP5 DUP2 MSTORE PUSH1 0x20 ADD SWAP1 DUP2 MSTORE PUSH1 0x20 ADD PUSH1 0x0 KECCAK256 SLOAD SWAP1 POP DUP2 DUP2 LT ISZERO PUSH2 0x3511 JUMPI PUSH1 0x40 MLOAD PUSH32 0x8C379A000000000000000000000000000000000000000000000000000000000 DUP2 MSTORE PUSH1 0x4 ADD PUSH2 0x3508 SWAP1 PUSH2 0x5B92 JUMP JUMPDEST PUSH1 0x40 MLOAD DUP1 SWAP2 SUB SWAP1 REVERT JUMPDEST DUP2 DUP2 SUB PUSH1 0x4 PUSH1 0x0 DUP6 DUP2 MSTORE PUSH1 0x20 ADD SWAP1 DUP2 MSTORE PUSH1 0x20 ADD PUSH1 0x0 KECCAK256 DUP2 SWAP1 SSTORE POP POP POP POP DUP1 PUSH2 0x3538 SWAP1 PUSH2 0x4A46 JUMP JUMPDEST SWAP1 POP PUSH2 0x346F JUMP JUMPDEST POP JUMPDEST POP POP POP POP POP POP JUMP JUMPDEST PUSH1 0x0 DUP1 DUP3 PUSH20 0xFFFFFFFFFFFFFFFFFFFFFFFFFFFFFFFFFFFFFFFF AND EXTCODESIZE GT SWAP1 POP SWAP2 SWAP1 POP JUMP JUMPDEST PUSH1 0x60 PUSH2 0x357B DUP5 DUP5 PUSH1 0x0 DUP6 PUSH2 0x358C JUMP JUMPDEST SWAP1 POP SWAP4 SWAP3 POP POP POP JUMP JUMPDEST POP POP POP POP POP POP JUMP JUMPDEST PUSH1 0x60 DUP3 SELFBALANCE LT ISZERO PUSH2 0x35D1 JUMPI PUSH1 0x40 MLOAD PUSH32 0x8C379A000000000000000000000000000000000000000000000000000000000 DUP2 MSTORE PUSH1 0x4 ADD PUSH2 0x35C8 SWAP1 PUSH2 0x5C24 JUMP JUMPDEST PUSH1 0x40 MLOAD DUP1 SWAP2 SUB SWAP1 REVERT JUMPDEST PUSH1 0x0 DUP1 DUP7 PUSH20 0xFFFFFFFFFFFFFFFFFFFFFFFFFFFFFFFFFFFFFFFF AND DUP6 DUP8 PUSH1 0x40 MLOAD PUSH2 0x35FA SWAP2 SWAP1 PUSH2 0x5C75 JUMP JUMPDEST PUSH1 0x0 PUSH1 0x40 MLOAD DUP1 DUP4 SUB DUP2 DUP6 DUP8 GAS CALL SWAP3 POP POP POP RETURNDATASIZE DUP1 PUSH1 0x0 DUP2 EQ PUSH2 0x3637 JUMPI PUSH1 0x40 MLOAD SWAP2 POP PUSH1 0x1F NOT PUSH1 0x3F RETURNDATASIZE ADD AND DUP3 ADD PUSH1 0x40 MSTORE RETURNDATASIZE DUP3 MSTORE RETURNDATASIZE PUSH1 0x0 PUSH1 0x20 DUP5 ADD RETURNDATACOPY PUSH2 0x363C JUMP JUMPDEST PUSH1 0x60 SWAP2 POP JUMPDEST POP SWAP2 POP SWAP2 POP PUSH2 0x364D DUP8 DUP4 DUP4 DUP8 PUSH2 0x3659 JUMP JUMPDEST SWAP3 POP POP POP SWAP5 SWAP4 POP POP POP POP JUMP JUMPDEST PUSH1 0x60 DUP4 ISZERO PUSH2 0x36BB JUMPI PUSH1 0x0 DUP4 MLOAD SUB PUSH2 0x36B3 JUMPI PUSH2 0x3673 DUP6 PUSH2 0x3549 JUMP JUMPDEST PUSH2 0x36B2 JUMPI PUSH1 0x40 MLOAD PUSH32 0x8C379A000000000000000000000000000000000000000000000000000000000 DUP2 MSTORE PUSH1 0x4 ADD PUSH2 0x36A9 SWAP1 PUSH2 0x5CD8 JUMP JUMPDEST PUSH1 0x40 MLOAD DUP1 SWAP2 SUB SWAP1 REVERT JUMPDEST JUMPDEST DUP3 SWAP1 POP PUSH2 0x36C6 JUMP JUMPDEST PUSH2 0x36C5 DUP4 DUP4 PUSH2 0x36CE JUMP JUMPDEST JUMPDEST SWAP5 SWAP4 POP POP POP POP JUMP JUMPDEST PUSH1 0x0 DUP3 MLOAD GT ISZERO PUSH2 0x36E1 JUMPI DUP2 MLOAD DUP1 DUP4 PUSH1 0x20 ADD REVERT JUMPDEST DUP1 PUSH1 0x40 MLOAD PUSH32 0x8C379A000000000000000000000000000000000000000000000000000000000 DUP2 MSTORE PUSH1 0x4 ADD PUSH2 0x3715 SWAP2 SWAP1 PUSH2 0x3B5E JUMP JUMPDEST PUSH1 0x40 MLOAD DUP1 SWAP2 SUB SWAP1 REVERT JUMPDEST PUSH1 0x0 PUSH20 0xFFFFFFFFFFFFFFFFFFFFFFFFFFFFFFFFFFFFFFFF DUP3 AND SWAP1 POP SWAP2 SWAP1 POP JUMP JUMPDEST PUSH1 0x0 PUSH2 0x3749 DUP3 PUSH2 0x371E JUMP JUMPDEST SWAP1 POP SWAP2 SWAP1 POP JUMP JUMPDEST PUSH2 0x3759 DUP2 PUSH2 0x373E JUMP JUMPDEST DUP3 MSTORE POP POP JUMP JUMPDEST PUSH1 0x0 DUP2 SWAP1 POP SWAP2 SWAP1 POP JUMP JUMPDEST PUSH2 0x3772 DUP2 PUSH2 0x375F JUMP JUMPDEST DUP3 MSTORE POP POP JUMP JUMPDEST PUSH1 0x0 PUSH1 0x40 DUP3 ADD SWAP1 POP PUSH2 0x378D PUSH1 0x0 DUP4 ADD DUP6 PUSH2 0x3750 JUMP JUMPDEST PUSH2 0x379A PUSH1 0x20 DUP4 ADD DUP5 PUSH2 0x3769 JUMP JUMPDEST SWAP4 SWAP3 POP POP POP JUMP JUMPDEST PUSH1 0x0 PUSH1 0x40 MLOAD SWAP1 POP SWAP1 JUMP JUMPDEST PUSH1 0x0 DUP1 REVERT JUMPDEST PUSH1 0x0 DUP1 REVERT JUMPDEST PUSH2 0x37BE DUP2 PUSH2 0x373E JUMP JUMPDEST DUP2 EQ PUSH2 0x37C9 JUMPI PUSH1 0x0 DUP1 REVERT JUMPDEST POP JUMP JUMPDEST PUSH1 0x0 DUP2 CALLDATALOAD SWAP1 POP PUSH2 0x37DB DUP2 PUSH2 0x37B5 JUMP JUMPDEST SWAP3 SWAP2 POP POP JUMP JUMPDEST PUSH2 0x37EA DUP2 PUSH2 0x375F JUMP JUMPDEST DUP2 EQ PUSH2 0x37F5 JUMPI PUSH1 0x0 DUP1 REVERT JUMPDEST POP JUMP JUMPDEST PUSH1 0x0 DUP2 CALLDATALOAD SWAP1 POP PUSH2 0x3807 DUP2 PUSH2 0x37E1 JUMP JUMPDEST SWAP3 SWAP2 POP POP JUMP JUMPDEST PUSH1 0x0 DUP1 PUSH1 0x40 DUP4 DUP6 SUB SLT ISZERO PUSH2 0x3824 JUMPI PUSH2 0x3823 PUSH2 0x37AB JUMP JUMPDEST JUMPDEST PUSH1 0x0 PUSH2 0x3832 DUP6 DUP3 DUP7 ADD PUSH2 0x37CC JUMP JUMPDEST SWAP3 POP POP PUSH1 0x20 PUSH2 0x3843 DUP6 DUP3 DUP7 ADD PUSH2 0x37F8 JUMP JUMPDEST SWAP2 POP POP SWAP3 POP SWAP3 SWAP1 POP JUMP JUMPDEST PUSH1 0x0 PUSH1 0x20 DUP3 ADD SWAP1 POP PUSH2 0x3862 PUSH1 0x0 DUP4 ADD DUP5 PUSH2 0x3769 JUMP JUMPDEST SWAP3 SWAP2 POP POP JUMP JUMPDEST PUSH1 0x0 PUSH32 0xFFFFFFFF00000000000000000000000000000000000000000000000000000000 DUP3 AND SWAP1 POP SWAP2 SWAP1 POP JUMP JUMPDEST PUSH2 0x389D DUP2 PUSH2 0x3868 JUMP JUMPDEST DUP2 EQ PUSH2 0x38A8 JUMPI PUSH1 0x0 DUP1 REVERT JUMPDEST POP JUMP JUMPDEST PUSH1 0x0 DUP2 CALLDATALOAD SWAP1 POP PUSH2 0x38BA DUP2 PUSH2 0x3894 JUMP JUMPDEST SWAP3 SWAP2 POP POP JUMP JUMPDEST PUSH1 0x0 PUSH1 0x20 DUP3 DUP5 SUB SLT ISZERO PUSH2 0x38D6 JUMPI PUSH2 0x38D5 PUSH2 0x37AB JUMP JUMPDEST JUMPDEST PUSH1 0x0 PUSH2 0x38E4 DUP5 DUP3 DUP6 ADD PUSH2 0x38AB JUMP JUMPDEST SWAP2 POP POP SWAP3 SWAP2 POP POP JUMP JUMPDEST PUSH1 0x0 DUP2 ISZERO ISZERO SWAP1 POP SWAP2 SWAP1 POP JUMP JUMPDEST PUSH2 0x3902 DUP2 PUSH2 0x38ED JUMP JUMPDEST DUP3 MSTORE POP POP JUMP JUMPDEST PUSH1 0x0 PUSH1 0x20 DUP3 ADD SWAP1 POP PUSH2 0x391D PUSH1 0x0 DUP4 ADD DUP5 PUSH2 0x38F9 JUMP JUMPDEST SWAP3 SWAP2 POP POP JUMP JUMPDEST PUSH1 0x0 DUP1 REVERT JUMPDEST PUSH1 0x0 DUP1 REVERT JUMPDEST PUSH1 0x0 PUSH1 0x1F NOT PUSH1 0x1F DUP4 ADD AND SWAP1 POP SWAP2 SWAP1 POP JUMP JUMPDEST PUSH32 0x4E487B7100000000000000000000000000000000000000000000000000000000 PUSH1 0x0 MSTORE PUSH1 0x41 PUSH1 0x4 MSTORE PUSH1 0x24 PUSH1 0x0 REVERT JUMPDEST PUSH2 0x3976 DUP3 PUSH2 0x392D JUMP JUMPDEST DUP2 ADD DUP2 DUP2 LT PUSH8 0xFFFFFFFFFFFFFFFF DUP3 GT OR ISZERO PUSH2 0x3995 JUMPI PUSH2 0x3994 PUSH2 0x393E JUMP JUMPDEST JUMPDEST DUP1 PUSH1 0x40 MSTORE POP POP POP JUMP JUMPDEST PUSH1 0x0 PUSH2 0x39A8 PUSH2 0x37A1 JUMP JUMPDEST SWAP1 POP PUSH2 0x39B4 DUP3 DUP3 PUSH2 0x396D JUMP JUMPDEST SWAP2 SWAP1 POP JUMP JUMPDEST PUSH1 0x0 PUSH8 0xFFFFFFFFFFFFFFFF DUP3 GT ISZERO PUSH2 0x39D4 JUMPI PUSH2 0x39D3 PUSH2 0x393E JUMP JUMPDEST JUMPDEST PUSH2 0x39DD DUP3 PUSH2 0x392D JUMP JUMPDEST SWAP1 POP PUSH1 0x20 DUP2 ADD SWAP1 POP SWAP2 SWAP1 POP JUMP JUMPDEST DUP3 DUP2 DUP4 CALLDATACOPY PUSH1 0x0 DUP4 DUP4 ADD MSTORE POP POP POP JUMP JUMPDEST PUSH1 0x0 PUSH2 0x3A0C PUSH2 0x3A07 DUP5 PUSH2 0x39B9 JUMP JUMPDEST PUSH2 0x399E JUMP JUMPDEST SWAP1 POP DUP3 DUP2 MSTORE PUSH1 0x20 DUP2 ADD DUP5 DUP5 DUP5 ADD GT ISZERO PUSH2 0x3A28 JUMPI PUSH2 0x3A27 PUSH2 0x3928 JUMP JUMPDEST JUMPDEST PUSH2 0x3A33 DUP5 DUP3 DUP6 PUSH2 0x39EA JUMP JUMPDEST POP SWAP4 SWAP3 POP POP POP JUMP JUMPDEST PUSH1 0x0 DUP3 PUSH1 0x1F DUP4 ADD SLT PUSH2 0x3A50 JUMPI PUSH2 0x3A4F PUSH2 0x3923 JUMP JUMPDEST JUMPDEST DUP2 CALLDATALOAD PUSH2 0x3A60 DUP5 DUP3 PUSH1 0x20 DUP7 ADD PUSH2 0x39F9 JUMP JUMPDEST SWAP2 POP POP SWAP3 SWAP2 POP POP JUMP JUMPDEST PUSH1 0x0 PUSH1 0x20 DUP3 DUP5 SUB SLT ISZERO PUSH2 0x3A7F JUMPI PUSH2 0x3A7E PUSH2 0x37AB JUMP JUMPDEST JUMPDEST PUSH1 0x0 DUP3 ADD CALLDATALOAD PUSH8 0xFFFFFFFFFFFFFFFF DUP2 GT ISZERO PUSH2 0x3A9D JUMPI PUSH2 0x3A9C PUSH2 0x37B0 JUMP JUMPDEST JUMPDEST PUSH2 0x3AA9 DUP5 DUP3 DUP6 ADD PUSH2 0x3A3B JUMP JUMPDEST SWAP2 POP POP SWAP3 SWAP2 POP POP JUMP JUMPDEST PUSH1 0x0 PUSH1 0x20 DUP3 DUP5 SUB SLT ISZERO PUSH2 0x3AC8 JUMPI PUSH2 0x3AC7 PUSH2 0x37AB JUMP JUMPDEST JUMPDEST PUSH1 0x0 PUSH2 0x3AD6 DUP5 DUP3 DUP6 ADD PUSH2 0x37F8 JUMP JUMPDEST SWAP2 POP POP SWAP3 SWAP2 POP POP JUMP JUMPDEST PUSH1 0x0 DUP2 MLOAD SWAP1 POP SWAP2 SWAP1 POP JUMP JUMPDEST PUSH1 0x0 DUP3 DUP3 MSTORE PUSH1 0x20 DUP3 ADD SWAP1 POP SWAP3 SWAP2 POP POP JUMP JUMPDEST PUSH1 0x0 JUMPDEST DUP4 DUP2 LT ISZERO PUSH2 0x3B19 JUMPI DUP1 DUP3 ADD MLOAD DUP2 DUP5 ADD MSTORE PUSH1 0x20 DUP2 ADD SWAP1 POP PUSH2 0x3AFE JUMP JUMPDEST PUSH1 0x0 DUP5 DUP5 ADD MSTORE POP POP POP POP JUMP JUMPDEST PUSH1 0x0 PUSH2 0x3B30 DUP3 PUSH2 0x3ADF JUMP JUMPDEST PUSH2 0x3B3A DUP2 DUP6 PUSH2 0x3AEA JUMP JUMPDEST SWAP4 POP PUSH2 0x3B4A DUP2 DUP6 PUSH1 0x20 DUP7 ADD PUSH2 0x3AFB JUMP JUMPDEST PUSH2 0x3B53 DUP2 PUSH2 0x392D JUMP JUMPDEST DUP5 ADD SWAP2 POP POP SWAP3 SWAP2 POP POP JUMP JUMPDEST PUSH1 0x0 PUSH1 0x20 DUP3 ADD SWAP1 POP DUP2 DUP2 SUB PUSH1 0x0 DUP4 ADD MSTORE PUSH2 0x3B78 DUP2 DUP5 PUSH2 0x3B25 JUMP JUMPDEST SWAP1 POP SWAP3 SWAP2 POP POP JUMP JUMPDEST PUSH1 0x0 DUP1 PUSH1 0x40 DUP4 DUP6 SUB SLT ISZERO PUSH2 0x3B97 JUMPI PUSH2 0x3B96 PUSH2 0x37AB JUMP JUMPDEST JUMPDEST PUSH1 0x0 PUSH2 0x3BA5 DUP6 DUP3 DUP7 ADD PUSH2 0x37F8 JUMP JUMPDEST SWAP3 POP POP PUSH1 0x20 PUSH2 0x3BB6 DUP6 DUP3 DUP7 ADD PUSH2 0x37F8 JUMP JUMPDEST SWAP2 POP POP SWAP3 POP SWAP3 SWAP1 POP JUMP JUMPDEST PUSH1 0x0 PUSH2 0x3BCB DUP3 PUSH2 0x371E JUMP JUMPDEST SWAP1 POP SWAP2 SWAP1 POP JUMP JUMPDEST PUSH2 0x3BDB DUP2 PUSH2 0x3BC0 JUMP JUMPDEST DUP2 EQ PUSH2 0x3BE6 JUMPI PUSH1 0x0 DUP1 REVERT JUMPDEST POP JUMP JUMPDEST PUSH1 0x0 DUP2 CALLDATALOAD SWAP1 POP PUSH2 0x3BF8 DUP2 PUSH2 0x3BD2 JUMP JUMPDEST SWAP3 SWAP2 POP POP JUMP JUMPDEST PUSH1 0x0 PUSH1 0x20 DUP3 DUP5 SUB SLT ISZERO PUSH2 0x3C14 JUMPI PUSH2 0x3C13 PUSH2 0x37AB JUMP JUMPDEST JUMPDEST PUSH1 0x0 PUSH2 0x3C22 DUP5 DUP3 DUP6 ADD PUSH2 0x3BE9 JUMP JUMPDEST SWAP2 POP POP SWAP3 SWAP2 POP POP JUMP JUMPDEST PUSH1 0x0 PUSH8 0xFFFFFFFFFFFFFFFF DUP3 GT ISZERO PUSH2 0x3C46 JUMPI PUSH2 0x3C45 PUSH2 0x393E JUMP JUMPDEST JUMPDEST PUSH1 0x20 DUP3 MUL SWAP1 POP PUSH1 0x20 DUP2 ADD SWAP1 POP SWAP2 SWAP1 POP JUMP JUMPDEST PUSH1 0x0 DUP1 REVERT JUMPDEST PUSH1 0x0 PUSH2 0x3C6F PUSH2 0x3C6A DUP5 PUSH2 0x3C2B JUMP JUMPDEST PUSH2 0x399E JUMP JUMPDEST SWAP1 POP DUP1 DUP4 DUP3 MSTORE PUSH1 0x20 DUP3 ADD SWAP1 POP PUSH1 0x20 DUP5 MUL DUP4 ADD DUP6 DUP2 GT ISZERO PUSH2 0x3C92 JUMPI PUSH2 0x3C91 PUSH2 0x3C57 JUMP JUMPDEST JUMPDEST DUP4 JUMPDEST DUP2 DUP2 LT ISZERO PUSH2 0x3CBB JUMPI DUP1 PUSH2 0x3CA7 DUP9 DUP3 PUSH2 0x37F8 JUMP JUMPDEST DUP5 MSTORE PUSH1 0x20 DUP5 ADD SWAP4 POP POP PUSH1 0x20 DUP2 ADD SWAP1 POP PUSH2 0x3C94 JUMP JUMPDEST POP POP POP SWAP4 SWAP3 POP POP POP JUMP JUMPDEST PUSH1 0x0 DUP3 PUSH1 0x1F DUP4 ADD SLT PUSH2 0x3CDA JUMPI PUSH2 0x3CD9 PUSH2 0x3923 JUMP JUMPDEST JUMPDEST DUP2 CALLDATALOAD PUSH2 0x3CEA DUP5 DUP3 PUSH1 0x20 DUP7 ADD PUSH2 0x3C5C JUMP JUMPDEST SWAP2 POP POP SWAP3 SWAP2 POP POP JUMP JUMPDEST PUSH1 0x0 PUSH8 0xFFFFFFFFFFFFFFFF DUP3 GT ISZERO PUSH2 0x3D0E JUMPI PUSH2 0x3D0D PUSH2 0x393E JUMP JUMPDEST JUMPDEST PUSH2 0x3D17 DUP3 PUSH2 0x392D JUMP JUMPDEST SWAP1 POP PUSH1 0x20 DUP2 ADD SWAP1 POP SWAP2 SWAP1 POP JUMP JUMPDEST PUSH1 0x0 PUSH2 0x3D37 PUSH2 0x3D32 DUP5 PUSH2 0x3CF3 JUMP JUMPDEST PUSH2 0x399E JUMP JUMPDEST SWAP1 POP DUP3 DUP2 MSTORE PUSH1 0x20 DUP2 ADD DUP5 DUP5 DUP5 ADD GT ISZERO PUSH2 0x3D53 JUMPI PUSH2 0x3D52 PUSH2 0x3928 JUMP JUMPDEST JUMPDEST PUSH2 0x3D5E DUP5 DUP3 DUP6 PUSH2 0x39EA JUMP JUMPDEST POP SWAP4 SWAP3 POP POP POP JUMP JUMPDEST PUSH1 0x0 DUP3 PUSH1 0x1F DUP4 ADD SLT PUSH2 0x3D7B JUMPI PUSH2 0x3D7A PUSH2 0x3923 JUMP JUMPDEST JUMPDEST DUP2 CALLDATALOAD PUSH2 0x3D8B DUP5 DUP3 PUSH1 0x20 DUP7 ADD PUSH2 0x3D24 JUMP JUMPDEST SWAP2 POP POP SWAP3 SWAP2 POP POP JUMP JUMPDEST PUSH1 0x0 DUP1 PUSH1 0x0 DUP1 PUSH1 0x80 DUP6 DUP8 SUB SLT ISZERO PUSH2 0x3DAE JUMPI PUSH2 0x3DAD PUSH2 0x37AB JUMP JUMPDEST JUMPDEST PUSH1 0x0 PUSH2 0x3DBC DUP8 DUP3 DUP9 ADD PUSH2 0x37CC JUMP JUMPDEST SWAP5 POP POP PUSH1 0x20 DUP6 ADD CALLDATALOAD PUSH8 0xFFFFFFFFFFFFFFFF DUP2 GT ISZERO PUSH2 0x3DDD JUMPI PUSH2 0x3DDC PUSH2 0x37B0 JUMP JUMPDEST JUMPDEST PUSH2 0x3DE9 DUP8 DUP3 DUP9 ADD PUSH2 0x3CC5 JUMP JUMPDEST SWAP4 POP POP PUSH1 0x40 DUP6 ADD CALLDATALOAD PUSH8 0xFFFFFFFFFFFFFFFF DUP2 GT ISZERO PUSH2 0x3E0A JUMPI PUSH2 0x3E09 PUSH2 0x37B0 JUMP JUMPDEST JUMPDEST PUSH2 0x3E16 DUP8 DUP3 DUP9 ADD PUSH2 0x3CC5 JUMP JUMPDEST SWAP3 POP POP PUSH1 0x60 DUP6 ADD CALLDATALOAD PUSH8 0xFFFFFFFFFFFFFFFF DUP2 GT ISZERO PUSH2 0x3E37 JUMPI PUSH2 0x3E36 PUSH2 0x37B0 JUMP JUMPDEST JUMPDEST PUSH2 0x3E43 DUP8 DUP3 DUP9 ADD PUSH2 0x3D66 JUMP JUMPDEST SWAP2 POP POP SWAP3 SWAP6 SWAP2 SWAP5 POP SWAP3 POP JUMP JUMPDEST PUSH1 0x0 DUP1 PUSH1 0x0 DUP1 PUSH1 0x0 PUSH1 0xA0 DUP7 DUP9 SUB SLT ISZERO PUSH2 0x3E6B JUMPI PUSH2 0x3E6A PUSH2 0x37AB JUMP JUMPDEST JUMPDEST PUSH1 0x0 PUSH2 0x3E79 DUP9 DUP3 DUP10 ADD PUSH2 0x37CC JUMP JUMPDEST SWAP6 POP POP PUSH1 0x20 PUSH2 0x3E8A DUP9 DUP3 DUP10 ADD PUSH2 0x37CC JUMP JUMPDEST SWAP5 POP POP PUSH1 0x40 DUP7 ADD CALLDATALOAD PUSH8 0xFFFFFFFFFFFFFFFF DUP2 GT ISZERO PUSH2 0x3EAB JUMPI PUSH2 0x3EAA PUSH2 0x37B0 JUMP JUMPDEST JUMPDEST PUSH2 0x3EB7 DUP9 DUP3 DUP10 ADD PUSH2 0x3CC5 JUMP JUMPDEST SWAP4 POP POP PUSH1 0x60 DUP7 ADD CALLDATALOAD PUSH8 0xFFFFFFFFFFFFFFFF DUP2 GT ISZERO PUSH2 0x3ED8 JUMPI PUSH2 0x3ED7 PUSH2 0x37B0 JUMP JUMPDEST JUMPDEST PUSH2 0x3EE4 DUP9 DUP3 DUP10 ADD PUSH2 0x3CC5 JUMP JUMPDEST SWAP3 POP POP PUSH1 0x80 DUP7 ADD CALLDATALOAD PUSH8 0xFFFFFFFFFFFFFFFF DUP2 GT ISZERO PUSH2 0x3F05 JUMPI PUSH2 0x3F04 PUSH2 0x37B0 JUMP JUMPDEST JUMPDEST PUSH2 0x3F11 DUP9 DUP3 DUP10 ADD PUSH2 0x3D66 JUMP JUMPDEST SWAP2 POP POP SWAP3 SWAP6 POP SWAP3 SWAP6 SWAP1 SWAP4 POP JUMP JUMPDEST PUSH2 0x3F27 DUP2 PUSH2 0x38ED JUMP JUMPDEST DUP2 EQ PUSH2 0x3F32 JUMPI PUSH1 0x0 DUP1 REVERT JUMPDEST POP JUMP JUMPDEST PUSH1 0x0 DUP2 CALLDATALOAD SWAP1 POP PUSH2 0x3F44 DUP2 PUSH2 0x3F1E JUMP JUMPDEST SWAP3 SWAP2 POP POP JUMP JUMPDEST PUSH1 0x0 DUP1 PUSH1 0x40 DUP4 DUP6 SUB SLT ISZERO PUSH2 0x3F61 JUMPI PUSH2 0x3F60 PUSH2 0x37AB JUMP JUMPDEST JUMPDEST PUSH1 0x0 PUSH2 0x3F6F DUP6 DUP3 DUP7 ADD PUSH2 0x3F35 JUMP JUMPDEST SWAP3 POP POP PUSH1 0x20 PUSH2 0x3F80 DUP6 DUP3 DUP7 ADD PUSH2 0x3F35 JUMP JUMPDEST SWAP2 POP POP SWAP3 POP SWAP3 SWAP1 POP JUMP JUMPDEST PUSH1 0x0 PUSH2 0x3F95 DUP3 PUSH2 0x373E JUMP JUMPDEST SWAP1 POP SWAP2 SWAP1 POP JUMP JUMPDEST PUSH2 0x3FA5 DUP2 PUSH2 0x3F8A JUMP JUMPDEST DUP2 EQ PUSH2 0x3FB0 JUMPI PUSH1 0x0 DUP1 REVERT JUMPDEST POP JUMP JUMPDEST PUSH1 0x0 DUP2 CALLDATALOAD SWAP1 POP PUSH2 0x3FC2 DUP2 PUSH2 0x3F9C JUMP JUMPDEST SWAP3 SWAP2 POP POP JUMP JUMPDEST PUSH1 0x0 DUP1 PUSH1 0x40 DUP4 DUP6 SUB SLT ISZERO PUSH2 0x3FDF JUMPI PUSH2 0x3FDE PUSH2 0x37AB JUMP JUMPDEST JUMPDEST PUSH1 0x0 PUSH2 0x3FED DUP6 DUP3 DUP7 ADD PUSH2 0x3FB3 JUMP JUMPDEST SWAP3 POP POP PUSH1 0x20 PUSH2 0x3FFE DUP6 DUP3 DUP7 ADD PUSH2 0x37CC JUMP JUMPDEST SWAP2 POP POP SWAP3 POP SWAP3 SWAP1 POP JUMP JUMPDEST PUSH1 0x0 PUSH8 0xFFFFFFFFFFFFFFFF DUP3 GT ISZERO PUSH2 0x4023 JUMPI PUSH2 0x4022 PUSH2 0x393E JUMP JUMPDEST JUMPDEST PUSH1 0x20 DUP3 MUL SWAP1 POP PUSH1 0x20 DUP2 ADD SWAP1 POP SWAP2 SWAP1 POP JUMP JUMPDEST PUSH1 0x0 PUSH2 0x4047 PUSH2 0x4042 DUP5 PUSH2 0x4008 JUMP JUMPDEST PUSH2 0x399E JUMP JUMPDEST SWAP1 POP DUP1 DUP4 DUP3 MSTORE PUSH1 0x20 DUP3 ADD SWAP1 POP PUSH1 0x20 DUP5 MUL DUP4 ADD DUP6 DUP2 GT ISZERO PUSH2 0x406A JUMPI PUSH2 0x4069 PUSH2 0x3C57 JUMP JUMPDEST JUMPDEST DUP4 JUMPDEST DUP2 DUP2 LT ISZERO PUSH2 0x4093 JUMPI DUP1 PUSH2 0x407F DUP9 DUP3 PUSH2 0x37CC JUMP JUMPDEST DUP5 MSTORE PUSH1 0x20 DUP5 ADD SWAP4 POP POP PUSH1 0x20 DUP2 ADD SWAP1 POP PUSH2 0x406C JUMP JUMPDEST POP POP POP SWAP4 SWAP3 POP POP POP JUMP JUMPDEST PUSH1 0x0 DUP3 PUSH1 0x1F DUP4 ADD SLT PUSH2 0x40B2 JUMPI PUSH2 0x40B1 PUSH2 0x3923 JUMP JUMPDEST JUMPDEST DUP2 CALLDATALOAD PUSH2 0x40C2 DUP5 DUP3 PUSH1 0x20 DUP7 ADD PUSH2 0x4034 JUMP JUMPDEST SWAP2 POP POP SWAP3 SWAP2 POP POP JUMP JUMPDEST PUSH1 0x0 DUP1 PUSH1 0x40 DUP4 DUP6 SUB SLT ISZERO PUSH2 0x40E2 JUMPI PUSH2 0x40E1 PUSH2 0x37AB JUMP JUMPDEST JUMPDEST PUSH1 0x0 DUP4 ADD CALLDATALOAD PUSH8 0xFFFFFFFFFFFFFFFF DUP2 GT ISZERO PUSH2 0x4100 JUMPI PUSH2 0x40FF PUSH2 0x37B0 JUMP JUMPDEST JUMPDEST PUSH2 0x410C DUP6 DUP3 DUP7 ADD PUSH2 0x409D JUMP JUMPDEST SWAP3 POP POP PUSH1 0x20 DUP4 ADD CALLDATALOAD PUSH8 0xFFFFFFFFFFFFFFFF DUP2 GT ISZERO PUSH2 0x412D JUMPI PUSH2 0x412C PUSH2 0x37B0 JUMP JUMPDEST JUMPDEST PUSH2 0x4139 DUP6 DUP3 DUP7 ADD PUSH2 0x3CC5 JUMP JUMPDEST SWAP2 POP POP SWAP3 POP SWAP3 SWAP1 POP JUMP JUMPDEST PUSH1 0x0 DUP2 MLOAD SWAP1 POP SWAP2 SWAP1 POP JUMP JUMPDEST PUSH1 0x0 DUP3 DUP3 MSTORE PUSH1 0x20 DUP3 ADD SWAP1 POP SWAP3 SWAP2 POP POP JUMP JUMPDEST PUSH1 0x0 DUP2 SWAP1 POP PUSH1 0x20 DUP3 ADD SWAP1 POP SWAP2 SWAP1 POP JUMP JUMPDEST PUSH2 0x4178 DUP2 PUSH2 0x375F JUMP JUMPDEST DUP3 MSTORE POP POP JUMP JUMPDEST PUSH1 0x0 PUSH2 0x418A DUP4 DUP4 PUSH2 0x416F JUMP JUMPDEST PUSH1 0x20 DUP4 ADD SWAP1 POP SWAP3 SWAP2 POP POP JUMP JUMPDEST PUSH1 0x0 PUSH1 0x20 DUP3 ADD SWAP1 POP SWAP2 SWAP1 POP JUMP JUMPDEST PUSH1 0x0 PUSH2 0x41AE DUP3 PUSH2 0x4143 JUMP JUMPDEST PUSH2 0x41B8 DUP2 DUP6 PUSH2 0x414E JUMP JUMPDEST SWAP4 POP PUSH2 0x41C3 DUP4 PUSH2 0x415F JUMP JUMPDEST DUP1 PUSH1 0x0 JUMPDEST DUP4 DUP2 LT ISZERO PUSH2 0x41F4 JUMPI DUP2 MLOAD PUSH2 0x41DB DUP9 DUP3 PUSH2 0x417E JUMP JUMPDEST SWAP8 POP PUSH2 0x41E6 DUP4 PUSH2 0x4196 JUMP JUMPDEST SWAP3 POP POP PUSH1 0x1 DUP2 ADD SWAP1 POP PUSH2 0x41C7 JUMP JUMPDEST POP DUP6 SWAP4 POP POP POP POP SWAP3 SWAP2 POP POP JUMP JUMPDEST PUSH1 0x0 PUSH1 0x20 DUP3 ADD SWAP1 POP DUP2 DUP2 SUB PUSH1 0x0 DUP4 ADD MSTORE PUSH2 0x421B DUP2 DUP5 PUSH2 0x41A3 JUMP JUMPDEST SWAP1 POP SWAP3 SWAP2 POP POP JUMP JUMPDEST PUSH1 0x0 PUSH1 0x20 DUP3 DUP5 SUB SLT ISZERO PUSH2 0x4239 JUMPI PUSH2 0x4238 PUSH2 0x37AB JUMP JUMPDEST JUMPDEST PUSH1 0x0 PUSH2 0x4247 DUP5 DUP3 DUP6 ADD PUSH2 0x37CC JUMP JUMPDEST SWAP2 POP POP SWAP3 SWAP2 POP POP JUMP JUMPDEST PUSH1 0x0 DUP1 REVERT JUMPDEST PUSH1 0x0 DUP1 DUP4 PUSH1 0x1F DUP5 ADD SLT PUSH2 0x426B JUMPI PUSH2 0x426A PUSH2 0x3923 JUMP JUMPDEST JUMPDEST DUP3 CALLDATALOAD SWAP1 POP PUSH8 0xFFFFFFFFFFFFFFFF DUP2 GT ISZERO PUSH2 0x4288 JUMPI PUSH2 0x4287 PUSH2 0x4250 JUMP JUMPDEST JUMPDEST PUSH1 0x20 DUP4 ADD SWAP2 POP DUP4 PUSH1 0x20 DUP3 MUL DUP4 ADD GT ISZERO PUSH2 0x42A4 JUMPI PUSH2 0x42A3 PUSH2 0x3C57 JUMP JUMPDEST JUMPDEST SWAP3 POP SWAP3 SWAP1 POP JUMP JUMPDEST PUSH1 0x0 DUP1 PUSH1 0x20 DUP4 DUP6 SUB SLT ISZERO PUSH2 0x42C2 JUMPI PUSH2 0x42C1 PUSH2 0x37AB JUMP JUMPDEST JUMPDEST PUSH1 0x0 DUP4 ADD CALLDATALOAD PUSH8 0xFFFFFFFFFFFFFFFF DUP2 GT ISZERO PUSH2 0x42E0 JUMPI PUSH2 0x42DF PUSH2 0x37B0 JUMP JUMPDEST JUMPDEST PUSH2 0x42EC DUP6 DUP3 DUP7 ADD PUSH2 0x4255 JUMP JUMPDEST SWAP3 POP SWAP3 POP POP SWAP3 POP SWAP3 SWAP1 POP JUMP JUMPDEST PUSH1 0x0 PUSH1 0x20 DUP3 ADD SWAP1 POP PUSH2 0x430D PUSH1 0x0 DUP4 ADD DUP5 PUSH2 0x3750 JUMP JUMPDEST SWAP3 SWAP2 POP POP JUMP JUMPDEST PUSH1 0x0 DUP1 PUSH1 0x40 DUP4 DUP6 SUB SLT ISZERO PUSH2 0x432A JUMPI PUSH2 0x4329 PUSH2 0x37AB JUMP JUMPDEST JUMPDEST PUSH1 0x0 PUSH2 0x4338 DUP6 DUP3 DUP7 ADD PUSH2 0x37CC JUMP JUMPDEST SWAP3 POP POP PUSH1 0x20 PUSH2 0x4349 DUP6 DUP3 DUP7 ADD PUSH2 0x3F35 JUMP JUMPDEST SWAP2 POP POP SWAP3 POP SWAP3 SWAP1 POP JUMP JUMPDEST PUSH1 0x0 PUSH1 0x20 DUP3 DUP5 SUB SLT ISZERO PUSH2 0x4369 JUMPI PUSH2 0x4368 PUSH2 0x37AB JUMP JUMPDEST JUMPDEST PUSH1 0x0 PUSH2 0x4377 DUP5 DUP3 DUP6 ADD PUSH2 0x3FB3 JUMP JUMPDEST SWAP2 POP POP SWAP3 SWAP2 POP POP JUMP JUMPDEST PUSH1 0x0 DUP1 PUSH1 0x40 DUP4 DUP6 SUB SLT ISZERO PUSH2 0x4397 JUMPI PUSH2 0x4396 PUSH2 0x37AB JUMP JUMPDEST JUMPDEST PUSH1 0x0 PUSH2 0x43A5 DUP6 DUP3 DUP7 ADD PUSH2 0x37CC JUMP JUMPDEST SWAP3 POP POP PUSH1 0x20 PUSH2 0x43B6 DUP6 DUP3 DUP7 ADD PUSH2 0x37CC JUMP JUMPDEST SWAP2 POP POP SWAP3 POP SWAP3 SWAP1 POP JUMP JUMPDEST PUSH1 0x0 DUP1 PUSH1 0x0 DUP1 PUSH1 0x0 PUSH1 0xA0 DUP7 DUP9 SUB SLT ISZERO PUSH2 0x43DC JUMPI PUSH2 0x43DB PUSH2 0x37AB JUMP JUMPDEST JUMPDEST PUSH1 0x0 PUSH2 0x43EA DUP9 DUP3 DUP10 ADD PUSH2 0x37CC JUMP JUMPDEST SWAP6 POP POP PUSH1 0x20 PUSH2 0x43FB DUP9 DUP3 DUP10 ADD PUSH2 0x37CC JUMP JUMPDEST SWAP5 POP POP PUSH1 0x40 PUSH2 0x440C DUP9 DUP3 DUP10 ADD PUSH2 0x37F8 JUMP JUMPDEST SWAP4 POP POP PUSH1 0x60 PUSH2 0x441D DUP9 DUP3 DUP10 ADD PUSH2 0x37F8 JUMP JUMPDEST SWAP3 POP POP PUSH1 0x80 DUP7 ADD CALLDATALOAD PUSH8 0xFFFFFFFFFFFFFFFF DUP2 GT ISZERO PUSH2 0x443E JUMPI PUSH2 0x443D PUSH2 0x37B0 JUMP JUMPDEST JUMPDEST PUSH2 0x444A DUP9 DUP3 DUP10 ADD PUSH2 0x3D66 JUMP JUMPDEST SWAP2 POP POP SWAP3 SWAP6 POP SWAP3 SWAP6 SWAP1 SWAP4 POP JUMP JUMPDEST PUSH32 0x455243313135353A2061646472657373207A65726F206973206E6F7420612076 PUSH1 0x0 DUP3 ADD MSTORE PUSH32 0x616C6964206F776E657200000000000000000000000000000000000000000000 PUSH1 0x20 DUP3 ADD MSTORE POP JUMP JUMPDEST PUSH1 0x0 PUSH2 0x44B3 PUSH1 0x2A DUP4 PUSH2 0x3AEA JUMP JUMPDEST SWAP2 POP PUSH2 0x44BE DUP3 PUSH2 0x4457 JUMP JUMPDEST PUSH1 0x40 DUP3 ADD SWAP1 POP SWAP2 SWAP1 POP JUMP JUMPDEST PUSH1 0x0 PUSH1 0x20 DUP3 ADD SWAP1 POP DUP2 DUP2 SUB PUSH1 0x0 DUP4 ADD MSTORE PUSH2 0x44E2 DUP2 PUSH2 0x44A6 JUMP JUMPDEST SWAP1 POP SWAP2 SWAP1 POP JUMP JUMPDEST PUSH32 0x5552493A206E6F6E6578697374656E7420746F6B656E00000000000000000000 PUSH1 0x0 DUP3 ADD MSTORE POP JUMP JUMPDEST PUSH1 0x0 PUSH2 0x451F PUSH1 0x16 DUP4 PUSH2 0x3AEA JUMP JUMPDEST SWAP2 POP PUSH2 0x452A DUP3 PUSH2 0x44E9 JUMP JUMPDEST PUSH1 0x20 DUP3 ADD SWAP1 POP SWAP2 SWAP1 POP JUMP JUMPDEST PUSH1 0x0 PUSH1 0x20 DUP3 ADD SWAP1 POP DUP2 DUP2 SUB PUSH1 0x0 DUP4 ADD MSTORE PUSH2 0x454E DUP2 PUSH2 0x4512 JUMP JUMPDEST SWAP1 POP SWAP2 SWAP1 POP JUMP JUMPDEST PUSH1 0x0 DUP2 SWAP1 POP SWAP3 SWAP2 POP POP JUMP JUMPDEST PUSH1 0x0 PUSH2 0x456B DUP3 PUSH2 0x3ADF JUMP JUMPDEST PUSH2 0x4575 DUP2 DUP6 PUSH2 0x4555 JUMP JUMPDEST SWAP4 POP PUSH2 0x4585 DUP2 DUP6 PUSH1 0x20 DUP7 ADD PUSH2 0x3AFB JUMP JUMPDEST DUP1 DUP5 ADD SWAP2 POP POP SWAP3 SWAP2 POP POP JUMP JUMPDEST PUSH32 0x2E6A736F6E000000000000000000000000000000000000000000000000000000 PUSH1 0x0 DUP3 ADD MSTORE POP JUMP JUMPDEST PUSH1 0x0 PUSH2 0x45C7 PUSH1 0x5 DUP4 PUSH2 0x4555 JUMP JUMPDEST SWAP2 POP PUSH2 0x45D2 DUP3 PUSH2 0x4591 JUMP JUMPDEST PUSH1 0x5 DUP3 ADD SWAP1 POP SWAP2 SWAP1 POP JUMP JUMPDEST PUSH1 0x0 PUSH2 0x45E9 DUP3 DUP6 PUSH2 0x4560 JUMP JUMPDEST SWAP2 POP PUSH2 0x45F5 DUP3 DUP5 PUSH2 0x4560 JUMP JUMPDEST SWAP2 POP PUSH2 0x4600 DUP3 PUSH2 0x45BA JUMP JUMPDEST SWAP2 POP DUP2 SWAP1 POP SWAP4 SWAP3 POP POP POP JUMP JUMPDEST PUSH32 0x416C6C6F77204C697374206D696E7420697320636C6F7365642E000000000000 PUSH1 0x0 DUP3 ADD MSTORE POP JUMP JUMPDEST PUSH1 0x0 PUSH2 0x4642 PUSH1 0x1A DUP4 PUSH2 0x3AEA JUMP JUMPDEST SWAP2 POP PUSH2 0x464D DUP3 PUSH2 0x460C JUMP JUMPDEST PUSH1 0x20 DUP3 ADD SWAP1 POP SWAP2 SWAP1 POP JUMP JUMPDEST PUSH1 0x0 PUSH1 0x20 DUP3 ADD SWAP1 POP DUP2 DUP2 SUB PUSH1 0x0 DUP4 ADD MSTORE PUSH2 0x4671 DUP2 PUSH2 0x4635 JUMP JUMPDEST SWAP1 POP SWAP2 SWAP1 POP JUMP JUMPDEST PUSH32 0x596F7520617265206E6F74206F6E2074686520616C6C6F774C69737400000000 PUSH1 0x0 DUP3 ADD MSTORE POP JUMP JUMPDEST PUSH1 0x0 PUSH2 0x46AE PUSH1 0x1C DUP4 PUSH2 0x3AEA JUMP JUMPDEST SWAP2 POP PUSH2 0x46B9 DUP3 PUSH2 0x4678 JUMP JUMPDEST PUSH1 0x20 DUP3 ADD SWAP1 POP SWAP2 SWAP1 POP JUMP JUMPDEST PUSH1 0x0 PUSH1 0x20 DUP3 ADD SWAP1 POP DUP2 DUP2 SUB PUSH1 0x0 DUP4 ADD MSTORE PUSH2 0x46DD DUP2 PUSH2 0x46A1 JUMP JUMPDEST SWAP1 POP SWAP2 SWAP1 POP JUMP JUMPDEST PUSH32 0x5061796D656E7453706C69747465723A206163636F756E7420686173206E6F20 PUSH1 0x0 DUP3 ADD MSTORE PUSH32 0x7368617265730000000000000000000000000000000000000000000000000000 PUSH1 0x20 DUP3 ADD MSTORE POP JUMP JUMPDEST PUSH1 0x0 PUSH2 0x4740 PUSH1 0x26 DUP4 PUSH2 0x3AEA JUMP JUMPDEST SWAP2 POP PUSH2 0x474B DUP3 PUSH2 0x46E4 JUMP JUMPDEST PUSH1 0x40 DUP3 ADD SWAP1 POP SWAP2 SWAP1 POP JUMP JUMPDEST PUSH1 0x0 PUSH1 0x20 DUP3 ADD SWAP1 POP DUP2 DUP2 SUB PUSH1 0x0 DUP4 ADD MSTORE PUSH2 0x476F DUP2 PUSH2 0x4733 JUMP JUMPDEST SWAP1 POP SWAP2 SWAP1 POP JUMP JUMPDEST PUSH32 0x5061796D656E7453706C69747465723A206163636F756E74206973206E6F7420 PUSH1 0x0 DUP3 ADD MSTORE PUSH32 0x647565207061796D656E74000000000000000000000000000000000000000000 PUSH1 0x20 DUP3 ADD MSTORE POP JUMP JUMPDEST PUSH1 0x0 PUSH2 0x47D2 PUSH1 0x2B DUP4 PUSH2 0x3AEA JUMP JUMPDEST SWAP2 POP PUSH2 0x47DD DUP3 PUSH2 0x4776 JUMP JUMPDEST PUSH1 0x40 DUP3 ADD SWAP1 POP SWAP2 SWAP1 POP JUMP JUMPDEST PUSH1 0x0 PUSH1 0x20 DUP3 ADD SWAP1 POP DUP2 DUP2 SUB PUSH1 0x0 DUP4 ADD MSTORE PUSH2 0x4801 DUP2 PUSH2 0x47C5 JUMP JUMPDEST SWAP1 POP SWAP2 SWAP1 POP JUMP JUMPDEST PUSH32 0x4E487B7100000000000000000000000000000000000000000000000000000000 PUSH1 0x0 MSTORE PUSH1 0x11 PUSH1 0x4 MSTORE PUSH1 0x24 PUSH1 0x0 REVERT JUMPDEST PUSH1 0x0 PUSH2 0x4842 DUP3 PUSH2 0x375F JUMP JUMPDEST SWAP2 POP PUSH2 0x484D DUP4 PUSH2 0x375F JUMP JUMPDEST SWAP3 POP DUP3 DUP3 ADD SWAP1 POP DUP1 DUP3 GT ISZERO PUSH2 0x4865 JUMPI PUSH2 0x4864 PUSH2 0x4808 JUMP JUMPDEST JUMPDEST SWAP3 SWAP2 POP POP JUMP JUMPDEST PUSH1 0x0 DUP2 SWAP1 POP SWAP2 SWAP1 POP JUMP JUMPDEST PUSH1 0x0 PUSH2 0x4890 PUSH2 0x488B PUSH2 0x4886 DUP5 PUSH2 0x371E JUMP JUMPDEST PUSH2 0x486B JUMP JUMPDEST PUSH2 0x371E JUMP JUMPDEST SWAP1 POP SWAP2 SWAP1 POP JUMP JUMPDEST PUSH1 0x0 PUSH2 0x48A2 DUP3 PUSH2 0x4875 JUMP JUMPDEST SWAP1 POP SWAP2 SWAP1 POP JUMP JUMPDEST PUSH1 0x0 PUSH2 0x48B4 DUP3 PUSH2 0x4897 JUMP JUMPDEST SWAP1 POP SWAP2 SWAP1 POP JUMP JUMPDEST PUSH2 0x48C4 DUP2 PUSH2 0x48A9 JUMP JUMPDEST DUP3 MSTORE POP POP JUMP JUMPDEST PUSH1 0x0 PUSH1 0x40 DUP3 ADD SWAP1 POP PUSH2 0x48DF PUSH1 0x0 DUP4 ADD DUP6 PUSH2 0x48BB JUMP JUMPDEST PUSH2 0x48EC PUSH1 0x20 DUP4 ADD DUP5 PUSH2 0x3769 JUMP JUMPDEST SWAP4 SWAP3 POP POP POP JUMP JUMPDEST PUSH32 0x455243313135353A2063616C6C6572206973206E6F7420746F6B656E206F776E PUSH1 0x0 DUP3 ADD MSTORE PUSH32 0x6572206F7220617070726F766564000000000000000000000000000000000000 PUSH1 0x20 DUP3 ADD MSTORE POP JUMP JUMPDEST PUSH1 0x0 PUSH2 0x494F PUSH1 0x2E DUP4 PUSH2 0x3AEA JUMP JUMPDEST SWAP2 POP PUSH2 0x495A DUP3 PUSH2 0x48F3 JUMP JUMPDEST PUSH1 0x40 DUP3 ADD SWAP1 POP SWAP2 SWAP1 POP JUMP JUMPDEST PUSH1 0x0 PUSH1 0x20 DUP3 ADD SWAP1 POP DUP2 DUP2 SUB PUSH1 0x0 DUP4 ADD MSTORE PUSH2 0x497E DUP2 PUSH2 0x4942 JUMP JUMPDEST SWAP1 POP SWAP2 SWAP1 POP JUMP JUMPDEST PUSH32 0x455243313135353A206163636F756E747320616E6420696473206C656E677468 PUSH1 0x0 DUP3 ADD MSTORE PUSH32 0x206D69736D617463680000000000000000000000000000000000000000000000 PUSH1 0x20 DUP3 ADD MSTORE POP JUMP JUMPDEST PUSH1 0x0 PUSH2 0x49E1 PUSH1 0x29 DUP4 PUSH2 0x3AEA JUMP JUMPDEST SWAP2 POP PUSH2 0x49EC DUP3 PUSH2 0x4985 JUMP JUMPDEST PUSH1 0x40 DUP3 ADD SWAP1 POP SWAP2 SWAP1 POP JUMP JUMPDEST PUSH1 0x0 PUSH1 0x20 DUP3 ADD SWAP1 POP DUP2 DUP2 SUB PUSH1 0x0 DUP4 ADD MSTORE PUSH2 0x4A10 DUP2 PUSH2 0x49D4 JUMP JUMPDEST SWAP1 POP SWAP2 SWAP1 POP JUMP JUMPDEST PUSH32 0x4E487B7100000000000000000000000000000000000000000000000000000000 PUSH1 0x0 MSTORE PUSH1 0x32 PUSH1 0x4 MSTORE PUSH1 0x24 PUSH1 0x0 REVERT JUMPDEST PUSH1 0x0 PUSH2 0x4A51 DUP3 PUSH2 0x375F JUMP JUMPDEST SWAP2 POP PUSH32 0xFFFFFFFFFFFFFFFFFFFFFFFFFFFFFFFFFFFFFFFFFFFFFFFFFFFFFFFFFFFFFFFF DUP3 SUB PUSH2 0x4A83 JUMPI PUSH2 0x4A82 PUSH2 0x4808 JUMP JUMPDEST JUMPDEST PUSH1 0x1 DUP3 ADD SWAP1 POP SWAP2 SWAP1 POP JUMP JUMPDEST PUSH32 0x5075626C6963206D696E7420636C6F7365642E00000000000000000000000000 PUSH1 0x0 DUP3 ADD MSTORE POP JUMP JUMPDEST PUSH1 0x0 PUSH2 0x4AC4 PUSH1 0x13 DUP4 PUSH2 0x3AEA JUMP JUMPDEST SWAP2 POP PUSH2 0x4ACF DUP3 PUSH2 0x4A8E JUMP JUMPDEST PUSH1 0x20 DUP3 ADD SWAP1 POP SWAP2 SWAP1 POP JUMP JUMPDEST PUSH1 0x0 PUSH1 0x20 DUP3 ADD SWAP1 POP DUP2 DUP2 SUB PUSH1 0x0 DUP4 ADD MSTORE PUSH2 0x4AF3 DUP2 PUSH2 0x4AB7 JUMP JUMPDEST SWAP1 POP SWAP2 SWAP1 POP JUMP JUMPDEST PUSH32 0x536F727279206C6F6F6B73206C696B6520796F752061726520747279696E6720 PUSH1 0x0 DUP3 ADD MSTORE PUSH32 0x746F206D696E74207468652077726F6E67204E46542E00000000000000000000 PUSH1 0x20 DUP3 ADD MSTORE POP JUMP JUMPDEST PUSH1 0x0 PUSH2 0x4B56 PUSH1 0x36 DUP4 PUSH2 0x3AEA JUMP JUMPDEST SWAP2 POP PUSH2 0x4B61 DUP3 PUSH2 0x4AFA JUMP JUMPDEST PUSH1 0x40 DUP3 ADD SWAP1 POP SWAP2 SWAP1 POP JUMP JUMPDEST PUSH1 0x0 PUSH1 0x20 DUP3 ADD SWAP1 POP DUP2 DUP2 SUB PUSH1 0x0 DUP4 ADD MSTORE PUSH2 0x4B85 DUP2 PUSH2 0x4B49 JUMP JUMPDEST SWAP1 POP SWAP2 SWAP1 POP JUMP JUMPDEST PUSH1 0x0 PUSH2 0x4B97 DUP3 PUSH2 0x375F JUMP JUMPDEST SWAP2 POP PUSH2 0x4BA2 DUP4 PUSH2 0x375F JUMP JUMPDEST SWAP3 POP DUP3 DUP3 MUL PUSH2 0x4BB0 DUP2 PUSH2 0x375F JUMP JUMPDEST SWAP2 POP DUP3 DUP3 DIV DUP5 EQ DUP4 ISZERO OR PUSH2 0x4BC7 JUMPI PUSH2 0x4BC6 PUSH2 0x4808 JUMP JUMPDEST JUMPDEST POP SWAP3 SWAP2 POP POP JUMP JUMPDEST PUSH32 0x57726F6E6721204E6F7420656E6F756768206D6F6E65792073656E742E000000 PUSH1 0x0 DUP3 ADD MSTORE POP JUMP JUMPDEST PUSH1 0x0 PUSH2 0x4C04 PUSH1 0x1D DUP4 PUSH2 0x3AEA JUMP JUMPDEST SWAP2 POP PUSH2 0x4C0F DUP3 PUSH2 0x4BCE JUMP JUMPDEST PUSH1 0x20 DUP3 ADD SWAP1 POP SWAP2 SWAP1 POP JUMP JUMPDEST PUSH1 0x0 PUSH1 0x20 DUP3 ADD SWAP1 POP DUP2 DUP2 SUB PUSH1 0x0 DUP4 ADD MSTORE PUSH2 0x4C33 DUP2 PUSH2 0x4BF7 JUMP JUMPDEST SWAP1 POP SWAP2 SWAP1 POP JUMP JUMPDEST PUSH1 0x0 DUP2 MLOAD SWAP1 POP PUSH2 0x4C49 DUP2 PUSH2 0x37E1 JUMP JUMPDEST SWAP3 SWAP2 POP POP JUMP JUMPDEST PUSH1 0x0 PUSH1 0x20 DUP3 DUP5 SUB SLT ISZERO PUSH2 0x4C65 JUMPI PUSH2 0x4C64 PUSH2 0x37AB JUMP JUMPDEST JUMPDEST PUSH1 0x0 PUSH2 0x4C73 DUP5 DUP3 DUP6 ADD PUSH2 0x4C3A JUMP JUMPDEST SWAP2 POP POP SWAP3 SWAP2 POP POP JUMP JUMPDEST PUSH32 0x4F776E61626C653A206E6577206F776E657220697320746865207A65726F2061 PUSH1 0x0 DUP3 ADD MSTORE PUSH32 0x6464726573730000000000000000000000000000000000000000000000000000 PUSH1 0x20 DUP3 ADD MSTORE POP JUMP JUMPDEST PUSH1 0x0 PUSH2 0x4CD8 PUSH1 0x26 DUP4 PUSH2 0x3AEA JUMP JUMPDEST SWAP2 POP PUSH2 0x4CE3 DUP3 PUSH2 0x4C7C JUMP JUMPDEST PUSH1 0x40 DUP3 ADD SWAP1 POP SWAP2 SWAP1 POP JUMP JUMPDEST PUSH1 0x0 PUSH1 0x20 DUP3 ADD SWAP1 POP DUP2 DUP2 SUB PUSH1 0x0 DUP4 ADD MSTORE PUSH2 0x4D07 DUP2 PUSH2 0x4CCB JUMP JUMPDEST SWAP1 POP SWAP2 SWAP1 POP JUMP JUMPDEST PUSH32 0x4F776E61626C653A2063616C6C6572206973206E6F7420746865206F776E6572 PUSH1 0x0 DUP3 ADD MSTORE POP JUMP JUMPDEST PUSH1 0x0 PUSH2 0x4D44 PUSH1 0x20 DUP4 PUSH2 0x3AEA JUMP JUMPDEST SWAP2 POP PUSH2 0x4D4F DUP3 PUSH2 0x4D0E JUMP JUMPDEST PUSH1 0x20 DUP3 ADD SWAP1 POP SWAP2 SWAP1 POP JUMP JUMPDEST PUSH1 0x0 PUSH1 0x20 DUP3 ADD SWAP1 POP DUP2 DUP2 SUB PUSH1 0x0 DUP4 ADD MSTORE PUSH2 0x4D73 DUP2 PUSH2 0x4D37 JUMP JUMPDEST SWAP1 POP SWAP2 SWAP1 POP JUMP JUMPDEST PUSH32 0x4E487B7100000000000000000000000000000000000000000000000000000000 PUSH1 0x0 MSTORE PUSH1 0x22 PUSH1 0x4 MSTORE PUSH1 0x24 PUSH1 0x0 REVERT JUMPDEST PUSH1 0x0 PUSH1 0x2 DUP3 DIV SWAP1 POP PUSH1 0x1 DUP3 AND DUP1 PUSH2 0x4DC1 JUMPI PUSH1 0x7F DUP3 AND SWAP2 POP JUMPDEST PUSH1 0x20 DUP3 LT DUP2 SUB PUSH2 0x4DD4 JUMPI PUSH2 0x4DD3 PUSH2 0x4D7A JUMP JUMPDEST JUMPDEST POP SWAP2 SWAP1 POP JUMP JUMPDEST PUSH1 0x0 DUP2 SWAP1 POP DUP2 PUSH1 0x0 MSTORE PUSH1 0x20 PUSH1 0x0 KECCAK256 SWAP1 POP SWAP2 SWAP1 POP JUMP JUMPDEST PUSH1 0x0 PUSH1 0x20 PUSH1 0x1F DUP4 ADD DIV SWAP1 POP SWAP2 SWAP1 POP JUMP JUMPDEST PUSH1 0x0 DUP3 DUP3 SHL SWAP1 POP SWAP3 SWAP2 POP POP JUMP JUMPDEST PUSH1 0x0 PUSH1 0x8 DUP4 MUL PUSH2 0x4E3C PUSH32 0xFFFFFFFFFFFFFFFFFFFFFFFFFFFFFFFFFFFFFFFFFFFFFFFFFFFFFFFFFFFFFFFF DUP3 PUSH2 0x4DFF JUMP JUMPDEST PUSH2 0x4E46 DUP7 DUP4 PUSH2 0x4DFF JUMP JUMPDEST SWAP6 POP DUP1 NOT DUP5 AND SWAP4 POP DUP1 DUP7 AND DUP5 OR SWAP3 POP POP POP SWAP4 SWAP3 POP POP POP JUMP JUMPDEST PUSH1 0x0 PUSH2 0x4E79 PUSH2 0x4E74 PUSH2 0x4E6F DUP5 PUSH2 0x375F JUMP JUMPDEST PUSH2 0x486B JUMP JUMPDEST PUSH2 0x375F JUMP JUMPDEST SWAP1 POP SWAP2 SWAP1 POP JUMP JUMPDEST PUSH1 0x0 DUP2 SWAP1 POP SWAP2 SWAP1 POP JUMP JUMPDEST PUSH2 0x4E93 DUP4 PUSH2 0x4E5E JUMP JUMPDEST PUSH2 0x4EA7 PUSH2 0x4E9F DUP3 PUSH2 0x4E80 JUMP JUMPDEST DUP5 DUP5 SLOAD PUSH2 0x4E0C JUMP JUMPDEST DUP3 SSTORE POP POP POP POP JUMP JUMPDEST PUSH1 0x0 SWAP1 JUMP JUMPDEST PUSH2 0x4EBC PUSH2 0x4EAF JUMP JUMPDEST PUSH2 0x4EC7 DUP2 DUP5 DUP5 PUSH2 0x4E8A JUMP JUMPDEST POP POP POP JUMP JUMPDEST JUMPDEST DUP2 DUP2 LT ISZERO PUSH2 0x4EEB JUMPI PUSH2 0x4EE0 PUSH1 0x0 DUP3 PUSH2 0x4EB4 JUMP JUMPDEST PUSH1 0x1 DUP2 ADD SWAP1 POP PUSH2 0x4ECD JUMP JUMPDEST POP POP JUMP JUMPDEST PUSH1 0x1F DUP3 GT ISZERO PUSH2 0x4F30 JUMPI PUSH2 0x4F01 DUP2 PUSH2 0x4DDA JUMP JUMPDEST PUSH2 0x4F0A DUP5 PUSH2 0x4DEF JUMP JUMPDEST DUP2 ADD PUSH1 0x20 DUP6 LT ISZERO PUSH2 0x4F19 JUMPI DUP2 SWAP1 POP JUMPDEST PUSH2 0x4F2D PUSH2 0x4F25 DUP6 PUSH2 0x4DEF JUMP JUMPDEST DUP4 ADD DUP3 PUSH2 0x4ECC JUMP JUMPDEST POP POP JUMPDEST POP POP POP JUMP JUMPDEST PUSH1 0x0 DUP3 DUP3 SHR SWAP1 POP SWAP3 SWAP2 POP POP JUMP JUMPDEST PUSH1 0x0 PUSH2 0x4F53 PUSH1 0x0 NOT DUP5 PUSH1 0x8 MUL PUSH2 0x4F35 JUMP JUMPDEST NOT DUP1 DUP4 AND SWAP2 POP POP SWAP3 SWAP2 POP POP JUMP JUMPDEST PUSH1 0x0 PUSH2 0x4F6C DUP4 DUP4 PUSH2 0x4F42 JUMP JUMPDEST SWAP2 POP DUP3 PUSH1 0x2 MUL DUP3 OR SWAP1 POP SWAP3 SWAP2 POP POP JUMP JUMPDEST PUSH2 0x4F85 DUP3 PUSH2 0x3ADF JUMP JUMPDEST PUSH8 0xFFFFFFFFFFFFFFFF DUP2 GT ISZERO PUSH2 0x4F9E JUMPI PUSH2 0x4F9D PUSH2 0x393E JUMP JUMPDEST JUMPDEST PUSH2 0x4FA8 DUP3 SLOAD PUSH2 0x4DA9 JUMP JUMPDEST PUSH2 0x4FB3 DUP3 DUP3 DUP6 PUSH2 0x4EEF JUMP JUMPDEST PUSH1 0x0 PUSH1 0x20 SWAP1 POP PUSH1 0x1F DUP4 GT PUSH1 0x1 DUP2 EQ PUSH2 0x4FE6 JUMPI PUSH1 0x0 DUP5 ISZERO PUSH2 0x4FD4 JUMPI DUP3 DUP8 ADD MLOAD SWAP1 POP JUMPDEST PUSH2 0x4FDE DUP6 DUP3 PUSH2 0x4F60 JUMP JUMPDEST DUP7 SSTORE POP PUSH2 0x5046 JUMP JUMPDEST PUSH1 0x1F NOT DUP5 AND PUSH2 0x4FF4 DUP7 PUSH2 0x4DDA JUMP JUMPDEST PUSH1 0x0 JUMPDEST DUP3 DUP2 LT ISZERO PUSH2 0x501C JUMPI DUP5 DUP10 ADD MLOAD DUP3 SSTORE PUSH1 0x1 DUP3 ADD SWAP2 POP PUSH1 0x20 DUP6 ADD SWAP5 POP PUSH1 0x20 DUP2 ADD SWAP1 POP PUSH2 0x4FF7 JUMP JUMPDEST DUP7 DUP4 LT ISZERO PUSH2 0x5039 JUMPI DUP5 DUP10 ADD MLOAD PUSH2 0x5035 PUSH1 0x1F DUP10 AND DUP3 PUSH2 0x4F42 JUMP JUMPDEST DUP4 SSTORE POP JUMPDEST PUSH1 0x1 PUSH1 0x2 DUP9 MUL ADD DUP9 SSTORE POP POP POP JUMPDEST POP POP POP POP POP POP JUMP JUMPDEST PUSH32 0x4E487B7100000000000000000000000000000000000000000000000000000000 PUSH1 0x0 MSTORE PUSH1 0x12 PUSH1 0x4 MSTORE PUSH1 0x24 PUSH1 0x0 REVERT JUMPDEST PUSH32 0x57616C6C6574206C696D69742072656163686564000000000000000000000000 PUSH1 0x0 DUP3 ADD MSTORE POP JUMP JUMPDEST PUSH1 0x0 PUSH2 0x50B3 PUSH1 0x14 DUP4 PUSH2 0x3AEA JUMP JUMPDEST SWAP2 POP PUSH2 0x50BE DUP3 PUSH2 0x507D JUMP JUMPDEST PUSH1 0x20 DUP3 ADD SWAP1 POP SWAP2 SWAP1 POP JUMP JUMPDEST PUSH1 0x0 PUSH1 0x20 DUP3 ADD SWAP1 POP DUP2 DUP2 SUB PUSH1 0x0 DUP4 ADD MSTORE PUSH2 0x50E2 DUP2 PUSH2 0x50A6 JUMP JUMPDEST SWAP1 POP SWAP2 SWAP1 POP JUMP JUMPDEST PUSH32 0x536F7272792077652068617665206D696E746564206F75742100000000000000 PUSH1 0x0 DUP3 ADD MSTORE POP JUMP JUMPDEST PUSH1 0x0 PUSH2 0x511F PUSH1 0x19 DUP4 PUSH2 0x3AEA JUMP JUMPDEST SWAP2 POP PUSH2 0x512A DUP3 PUSH2 0x50E9 JUMP JUMPDEST PUSH1 0x20 DUP3 ADD SWAP1 POP SWAP2 SWAP1 POP JUMP JUMPDEST PUSH1 0x0 PUSH1 0x20 DUP3 ADD SWAP1 POP DUP2 DUP2 SUB PUSH1 0x0 DUP4 ADD MSTORE PUSH2 0x514E DUP2 PUSH2 0x5112 JUMP JUMPDEST SWAP1 POP SWAP2 SWAP1 POP JUMP JUMPDEST PUSH32 0x416464726573733A20696E73756666696369656E742062616C616E6365000000 PUSH1 0x0 DUP3 ADD MSTORE POP JUMP JUMPDEST PUSH1 0x0 PUSH2 0x518B PUSH1 0x1D DUP4 PUSH2 0x3AEA JUMP JUMPDEST SWAP2 POP PUSH2 0x5196 DUP3 PUSH2 0x5155 JUMP JUMPDEST PUSH1 0x20 DUP3 ADD SWAP1 POP SWAP2 SWAP1 POP JUMP JUMPDEST PUSH1 0x0 PUSH1 0x20 DUP3 ADD SWAP1 POP DUP2 DUP2 SUB PUSH1 0x0 DUP4 ADD MSTORE PUSH2 0x51BA DUP2 PUSH2 0x517E JUMP JUMPDEST SWAP1 POP SWAP2 SWAP1 POP JUMP JUMPDEST PUSH1 0x0 DUP2 SWAP1 POP SWAP3 SWAP2 POP POP JUMP JUMPDEST POP JUMP JUMPDEST PUSH1 0x0 PUSH2 0x51DC PUSH1 0x0 DUP4 PUSH2 0x51C1 JUMP JUMPDEST SWAP2 POP PUSH2 0x51E7 DUP3 PUSH2 0x51CC JUMP JUMPDEST PUSH1 0x0 DUP3 ADD SWAP1 POP SWAP2 SWAP1 POP JUMP JUMPDEST PUSH1 0x0 PUSH2 0x51FD DUP3 PUSH2 0x51CF JUMP JUMPDEST SWAP2 POP DUP2 SWAP1 POP SWAP2 SWAP1 POP JUMP JUMPDEST PUSH32 0x416464726573733A20756E61626C6520746F2073656E642076616C75652C2072 PUSH1 0x0 DUP3 ADD MSTORE PUSH32 0x6563697069656E74206D61792068617665207265766572746564000000000000 PUSH1 0x20 DUP3 ADD MSTORE POP JUMP JUMPDEST PUSH1 0x0 PUSH2 0x5263 PUSH1 0x3A DUP4 PUSH2 0x3AEA JUMP JUMPDEST SWAP2 POP PUSH2 0x526E DUP3 PUSH2 0x5207 JUMP JUMPDEST PUSH1 0x40 DUP3 ADD SWAP1 POP SWAP2 SWAP1 POP JUMP JUMPDEST PUSH1 0x0 PUSH1 0x20 DUP3 ADD SWAP1 POP DUP2 DUP2 SUB PUSH1 0x0 DUP4 ADD MSTORE PUSH2 0x5292 DUP2 PUSH2 0x5256 JUMP JUMPDEST SWAP1 POP SWAP2 SWAP1 POP JUMP JUMPDEST PUSH32 0x455243313135353A206D696E7420746F20746865207A65726F20616464726573 PUSH1 0x0 DUP3 ADD MSTORE PUSH32 0x7300000000000000000000000000000000000000000000000000000000000000 PUSH1 0x20 DUP3 ADD MSTORE POP JUMP JUMPDEST PUSH1 0x0 PUSH2 0x52F5 PUSH1 0x21 DUP4 PUSH2 0x3AEA JUMP JUMPDEST SWAP2 POP PUSH2 0x5300 DUP3 PUSH2 0x5299 JUMP JUMPDEST PUSH1 0x40 DUP3 ADD SWAP1 POP SWAP2 SWAP1 POP JUMP JUMPDEST PUSH1 0x0 PUSH1 0x20 DUP3 ADD SWAP1 POP DUP2 DUP2 SUB PUSH1 0x0 DUP4 ADD MSTORE PUSH2 0x5324 DUP2 PUSH2 0x52E8 JUMP JUMPDEST SWAP1 POP SWAP2 SWAP1 POP JUMP JUMPDEST PUSH32 0x455243313135353A2069647320616E6420616D6F756E7473206C656E67746820 PUSH1 0x0 DUP3 ADD MSTORE PUSH32 0x6D69736D61746368000000000000000000000000000000000000000000000000 PUSH1 0x20 DUP3 ADD MSTORE POP JUMP JUMPDEST PUSH1 0x0 PUSH2 0x5387 PUSH1 0x28 DUP4 PUSH2 0x3AEA JUMP JUMPDEST SWAP2 POP PUSH2 0x5392 DUP3 PUSH2 0x532B JUMP JUMPDEST PUSH1 0x40 DUP3 ADD SWAP1 POP SWAP2 SWAP1 POP JUMP JUMPDEST PUSH1 0x0 PUSH1 0x20 DUP3 ADD SWAP1 POP DUP2 DUP2 SUB PUSH1 0x0 DUP4 ADD MSTORE PUSH2 0x53B6 DUP2 PUSH2 0x537A JUMP JUMPDEST SWAP1 POP SWAP2 SWAP1 POP JUMP JUMPDEST PUSH1 0x0 PUSH1 0x40 DUP3 ADD SWAP1 POP DUP2 DUP2 SUB PUSH1 0x0 DUP4 ADD MSTORE PUSH2 0x53D7 DUP2 DUP6 PUSH2 0x41A3 JUMP JUMPDEST SWAP1 POP DUP2 DUP2 SUB PUSH1 0x20 DUP4 ADD MSTORE PUSH2 0x53EB DUP2 DUP5 PUSH2 0x41A3 JUMP JUMPDEST SWAP1 POP SWAP4 SWAP3 POP POP POP JUMP JUMPDEST PUSH32 0x455243313135353A207472616E7366657220746F20746865207A65726F206164 PUSH1 0x0 DUP3 ADD MSTORE PUSH32 0x6472657373000000000000000000000000000000000000000000000000000000 PUSH1 0x20 DUP3 ADD MSTORE POP JUMP JUMPDEST PUSH1 0x0 PUSH2 0x5450 PUSH1 0x25 DUP4 PUSH2 0x3AEA JUMP JUMPDEST SWAP2 POP PUSH2 0x545B DUP3 PUSH2 0x53F4 JUMP JUMPDEST PUSH1 0x40 DUP3 ADD SWAP1 POP SWAP2 SWAP1 POP JUMP JUMPDEST PUSH1 0x0 PUSH1 0x20 DUP3 ADD SWAP1 POP DUP2 DUP2 SUB PUSH1 0x0 DUP4 ADD MSTORE PUSH2 0x547F DUP2 PUSH2 0x5443 JUMP JUMPDEST SWAP1 POP SWAP2 SWAP1 POP JUMP JUMPDEST PUSH32 0x455243313135353A20696E73756666696369656E742062616C616E636520666F PUSH1 0x0 DUP3 ADD MSTORE PUSH32 0x72207472616E7366657200000000000000000000000000000000000000000000 PUSH1 0x20 DUP3 ADD MSTORE POP JUMP JUMPDEST PUSH1 0x0 PUSH2 0x54E2 PUSH1 0x2A DUP4 PUSH2 0x3AEA JUMP JUMPDEST SWAP2 POP PUSH2 0x54ED DUP3 PUSH2 0x5486 JUMP JUMPDEST PUSH1 0x40 DUP3 ADD SWAP1 POP SWAP2 SWAP1 POP JUMP JUMPDEST PUSH1 0x0 PUSH1 0x20 DUP3 ADD SWAP1 POP DUP2 DUP2 SUB PUSH1 0x0 DUP4 ADD MSTORE PUSH2 0x5511 DUP2 PUSH2 0x54D5 JUMP JUMPDEST SWAP1 POP SWAP2 SWAP1 POP JUMP JUMPDEST PUSH32 0x455243313135353A2073657474696E6720617070726F76616C20737461747573 PUSH1 0x0 DUP3 ADD MSTORE PUSH32 0x20666F722073656C660000000000000000000000000000000000000000000000 PUSH1 0x20 DUP3 ADD MSTORE POP JUMP JUMPDEST PUSH1 0x0 PUSH2 0x5574 PUSH1 0x29 DUP4 PUSH2 0x3AEA JUMP JUMPDEST SWAP2 POP PUSH2 0x557F DUP3 PUSH2 0x5518 JUMP JUMPDEST PUSH1 0x40 DUP3 ADD SWAP1 POP SWAP2 SWAP1 POP JUMP JUMPDEST PUSH1 0x0 PUSH1 0x20 DUP3 ADD SWAP1 POP DUP2 DUP2 SUB PUSH1 0x0 DUP4 ADD MSTORE PUSH2 0x55A3 DUP2 PUSH2 0x5567 JUMP JUMPDEST SWAP1 POP SWAP2 SWAP1 POP JUMP JUMPDEST PUSH1 0x0 PUSH2 0x55B5 DUP3 PUSH2 0x375F JUMP JUMPDEST SWAP2 POP PUSH2 0x55C0 DUP4 PUSH2 0x375F JUMP JUMPDEST SWAP3 POP DUP3 PUSH2 0x55D0 JUMPI PUSH2 0x55CF PUSH2 0x504E JUMP JUMPDEST JUMPDEST DUP3 DUP3 DIV SWAP1 POP SWAP3 SWAP2 POP POP JUMP JUMPDEST PUSH1 0x0 PUSH2 0x55E6 DUP3 PUSH2 0x375F JUMP JUMPDEST SWAP2 POP PUSH2 0x55F1 DUP4 PUSH2 0x375F JUMP JUMPDEST SWAP3 POP DUP3 DUP3 SUB SWAP1 POP DUP2 DUP2 GT ISZERO PUSH2 0x5609 JUMPI PUSH2 0x5608 PUSH2 0x4808 JUMP JUMPDEST JUMPDEST SWAP3 SWAP2 POP POP JUMP JUMPDEST PUSH1 0x0 PUSH1 0x40 DUP3 ADD SWAP1 POP PUSH2 0x5624 PUSH1 0x0 DUP4 ADD DUP6 PUSH2 0x3769 JUMP JUMPDEST PUSH2 0x5631 PUSH1 0x20 DUP4 ADD DUP5 PUSH2 0x3769 JUMP JUMPDEST SWAP4 SWAP3 POP POP POP JUMP JUMPDEST PUSH1 0x0 DUP2 MLOAD SWAP1 POP SWAP2 SWAP1 POP JUMP JUMPDEST PUSH1 0x0 DUP3 DUP3 MSTORE PUSH1 0x20 DUP3 ADD SWAP1 POP SWAP3 SWAP2 POP POP JUMP JUMPDEST PUSH1 0x0 PUSH2 0x565F DUP3 PUSH2 0x5638 JUMP JUMPDEST PUSH2 0x5669 DUP2 DUP6 PUSH2 0x5643 JUMP JUMPDEST SWAP4 POP PUSH2 0x5679 DUP2 DUP6 PUSH1 0x20 DUP7 ADD PUSH2 0x3AFB JUMP JUMPDEST PUSH2 0x5682 DUP2 PUSH2 0x392D JUMP JUMPDEST DUP5 ADD SWAP2 POP POP SWAP3 SWAP2 POP POP JUMP JUMPDEST PUSH1 0x0 PUSH1 0xA0 DUP3 ADD SWAP1 POP PUSH2 0x56A2 PUSH1 0x0 DUP4 ADD DUP9 PUSH2 0x3750 JUMP JUMPDEST PUSH2 0x56AF PUSH1 0x20 DUP4 ADD DUP8 PUSH2 0x3750 JUMP JUMPDEST DUP2 DUP2 SUB PUSH1 0x40 DUP4 ADD MSTORE PUSH2 0x56C1 DUP2 DUP7 PUSH2 0x41A3 JUMP JUMPDEST SWAP1 POP DUP2 DUP2 SUB PUSH1 0x60 DUP4 ADD MSTORE PUSH2 0x56D5 DUP2 DUP6 PUSH2 0x41A3 JUMP JUMPDEST SWAP1 POP DUP2 DUP2 SUB PUSH1 0x80 DUP4 ADD MSTORE PUSH2 0x56E9 DUP2 DUP5 PUSH2 0x5654 JUMP JUMPDEST SWAP1 POP SWAP7 SWAP6 POP POP POP POP POP POP JUMP JUMPDEST PUSH1 0x0 DUP2 MLOAD SWAP1 POP PUSH2 0x5704 DUP2 PUSH2 0x3894 JUMP JUMPDEST SWAP3 SWAP2 POP POP JUMP JUMPDEST PUSH1 0x0 PUSH1 0x20 DUP3 DUP5 SUB SLT ISZERO PUSH2 0x5720 JUMPI PUSH2 0x571F PUSH2 0x37AB JUMP JUMPDEST JUMPDEST PUSH1 0x0 PUSH2 0x572E DUP5 DUP3 DUP6 ADD PUSH2 0x56F5 JUMP JUMPDEST SWAP2 POP POP SWAP3 SWAP2 POP POP JUMP JUMPDEST PUSH1 0x0 DUP2 PUSH1 0xE0 SHR SWAP1 POP SWAP2 SWAP1 POP JUMP JUMPDEST PUSH1 0x0 PUSH1 0x3 RETURNDATASIZE GT ISZERO PUSH2 0x5763 JUMPI PUSH1 0x4 PUSH1 0x0 DUP1 RETURNDATACOPY PUSH2 0x5760 PUSH1 0x0 MLOAD PUSH2 0x5737 JUMP JUMPDEST SWAP1 POP JUMPDEST SWAP1 JUMP JUMPDEST PUSH1 0x0 PUSH1 0x44 RETURNDATASIZE LT PUSH2 0x57F3 JUMPI PUSH2 0x5778 PUSH2 0x37A1 JUMP JUMPDEST PUSH1 0x4 RETURNDATASIZE SUB PUSH1 0x4 DUP3 RETURNDATACOPY DUP1 MLOAD RETURNDATASIZE PUSH1 0x24 DUP3 ADD GT PUSH8 0xFFFFFFFFFFFFFFFF DUP3 GT OR ISZERO PUSH2 0x57A0 JUMPI POP POP PUSH2 0x57F3 JUMP JUMPDEST DUP1 DUP3 ADD DUP1 MLOAD PUSH8 0xFFFFFFFFFFFFFFFF DUP2 GT ISZERO PUSH2 0x57BE JUMPI POP POP POP POP PUSH2 0x57F3 JUMP JUMPDEST DUP1 PUSH1 0x20 DUP4 ADD ADD PUSH1 0x4 RETURNDATASIZE SUB DUP6 ADD DUP2 GT ISZERO PUSH2 0x57DB JUMPI POP POP POP POP POP PUSH2 0x57F3 JUMP JUMPDEST PUSH2 0x57EA DUP3 PUSH1 0x20 ADD DUP6 ADD DUP7 PUSH2 0x396D JUMP JUMPDEST DUP3 SWAP6 POP POP POP POP POP POP JUMPDEST SWAP1 JUMP JUMPDEST PUSH32 0x455243313135353A207472616E7366657220746F206E6F6E2D45524331313535 PUSH1 0x0 DUP3 ADD MSTORE PUSH32 0x526563656976657220696D706C656D656E746572000000000000000000000000 PUSH1 0x20 DUP3 ADD MSTORE POP JUMP JUMPDEST PUSH1 0x0 PUSH2 0x5852 PUSH1 0x34 DUP4 PUSH2 0x3AEA JUMP JUMPDEST SWAP2 POP PUSH2 0x585D DUP3 PUSH2 0x57F6 JUMP JUMPDEST PUSH1 0x40 DUP3 ADD SWAP1 POP SWAP2 SWAP1 POP JUMP JUMPDEST PUSH1 0x0 PUSH1 0x20 DUP3 ADD SWAP1 POP DUP2 DUP2 SUB PUSH1 0x0 DUP4 ADD MSTORE PUSH2 0x5881 DUP2 PUSH2 0x5845 JUMP JUMPDEST SWAP1 POP SWAP2 SWAP1 POP JUMP JUMPDEST PUSH32 0x455243313135353A204552433131353552656365697665722072656A65637465 PUSH1 0x0 DUP3 ADD MSTORE PUSH32 0x6420746F6B656E73000000000000000000000000000000000000000000000000 PUSH1 0x20 DUP3 ADD MSTORE POP JUMP JUMPDEST PUSH1 0x0 PUSH2 0x58E4 PUSH1 0x28 DUP4 PUSH2 0x3AEA JUMP JUMPDEST SWAP2 POP PUSH2 0x58EF DUP3 PUSH2 0x5888 JUMP JUMPDEST PUSH1 0x40 DUP3 ADD SWAP1 POP SWAP2 SWAP1 POP JUMP JUMPDEST PUSH1 0x0 PUSH1 0x20 DUP3 ADD SWAP1 POP DUP2 DUP2 SUB PUSH1 0x0 DUP4 ADD MSTORE PUSH2 0x5913 DUP2 PUSH2 0x58D7 JUMP JUMPDEST SWAP1 POP SWAP2 SWAP1 POP JUMP JUMPDEST PUSH32 0x5061757361626C653A206E6F7420706175736564000000000000000000000000 PUSH1 0x0 DUP3 ADD MSTORE POP JUMP JUMPDEST PUSH1 0x0 PUSH2 0x5950 PUSH1 0x14 DUP4 PUSH2 0x3AEA JUMP JUMPDEST SWAP2 POP PUSH2 0x595B DUP3 PUSH2 0x591A JUMP JUMPDEST PUSH1 0x20 DUP3 ADD SWAP1 POP SWAP2 SWAP1 POP JUMP JUMPDEST PUSH1 0x0 PUSH1 0x20 DUP3 ADD SWAP1 POP DUP2 DUP2 SUB PUSH1 0x0 DUP4 ADD MSTORE PUSH2 0x597F DUP2 PUSH2 0x5943 JUMP JUMPDEST SWAP1 POP SWAP2 SWAP1 POP JUMP JUMPDEST PUSH1 0x0 DUP2 MLOAD SWAP1 POP PUSH2 0x5995 DUP2 PUSH2 0x3F1E JUMP JUMPDEST SWAP3 SWAP2 POP POP JUMP JUMPDEST PUSH1 0x0 PUSH1 0x20 DUP3 DUP5 SUB SLT ISZERO PUSH2 0x59B1 JUMPI PUSH2 0x59B0 PUSH2 0x37AB JUMP JUMPDEST JUMPDEST PUSH1 0x0 PUSH2 0x59BF DUP5 DUP3 DUP6 ADD PUSH2 0x5986 JUMP JUMPDEST SWAP2 POP POP SWAP3 SWAP2 POP POP JUMP JUMPDEST PUSH32 0x5361666545524332303A204552433230206F7065726174696F6E20646964206E PUSH1 0x0 DUP3 ADD MSTORE PUSH32 0x6F74207375636365656400000000000000000000000000000000000000000000 PUSH1 0x20 DUP3 ADD MSTORE POP JUMP JUMPDEST PUSH1 0x0 PUSH2 0x5A24 PUSH1 0x2A DUP4 PUSH2 0x3AEA JUMP JUMPDEST SWAP2 POP PUSH2 0x5A2F DUP3 PUSH2 0x59C8 JUMP JUMPDEST PUSH1 0x40 DUP3 ADD SWAP1 POP SWAP2 SWAP1 POP JUMP JUMPDEST PUSH1 0x0 PUSH1 0x20 DUP3 ADD SWAP1 POP DUP2 DUP2 SUB PUSH1 0x0 DUP4 ADD MSTORE PUSH2 0x5A53 DUP2 PUSH2 0x5A17 JUMP JUMPDEST SWAP1 POP SWAP2 SWAP1 POP JUMP JUMPDEST PUSH32 0x5061757361626C653A2070617573656400000000000000000000000000000000 PUSH1 0x0 DUP3 ADD MSTORE POP JUMP JUMPDEST PUSH1 0x0 PUSH2 0x5A90 PUSH1 0x10 DUP4 PUSH2 0x3AEA JUMP JUMPDEST SWAP2 POP PUSH2 0x5A9B DUP3 PUSH2 0x5A5A JUMP JUMPDEST PUSH1 0x20 DUP3 ADD SWAP1 POP SWAP2 SWAP1 POP JUMP JUMPDEST PUSH1 0x0 PUSH1 0x20 DUP3 ADD SWAP1 POP DUP2 DUP2 SUB PUSH1 0x0 DUP4 ADD MSTORE PUSH2 0x5ABF DUP2 PUSH2 0x5A83 JUMP JUMPDEST SWAP1 POP SWAP2 SWAP1 POP JUMP JUMPDEST PUSH1 0x0 PUSH1 0xA0 DUP3 ADD SWAP1 POP PUSH2 0x5ADB PUSH1 0x0 DUP4 ADD DUP9 PUSH2 0x3750 JUMP JUMPDEST PUSH2 0x5AE8 PUSH1 0x20 DUP4 ADD DUP8 PUSH2 0x3750 JUMP JUMPDEST PUSH2 0x5AF5 PUSH1 0x40 DUP4 ADD DUP7 PUSH2 0x3769 JUMP JUMPDEST PUSH2 0x5B02 PUSH1 0x60 DUP4 ADD DUP6 PUSH2 0x3769 JUMP JUMPDEST DUP2 DUP2 SUB PUSH1 0x80 DUP4 ADD MSTORE PUSH2 0x5B14 DUP2 DUP5 PUSH2 0x5654 JUMP JUMPDEST SWAP1 POP SWAP7 SWAP6 POP POP POP POP POP POP JUMP JUMPDEST PUSH32 0x455243313135353A206275726E20616D6F756E74206578636565647320746F74 PUSH1 0x0 DUP3 ADD MSTORE PUSH32 0x616C537570706C79000000000000000000000000000000000000000000000000 PUSH1 0x20 DUP3 ADD MSTORE POP JUMP JUMPDEST PUSH1 0x0 PUSH2 0x5B7C PUSH1 0x28 DUP4 PUSH2 0x3AEA JUMP JUMPDEST SWAP2 POP PUSH2 0x5B87 DUP3 PUSH2 0x5B20 JUMP JUMPDEST PUSH1 0x40 DUP3 ADD SWAP1 POP SWAP2 SWAP1 POP JUMP JUMPDEST PUSH1 0x0 PUSH1 0x20 DUP3 ADD SWAP1 POP DUP2 DUP2 SUB PUSH1 0x0 DUP4 ADD MSTORE PUSH2 0x5BAB DUP2 PUSH2 0x5B6F JUMP JUMPDEST SWAP1 POP SWAP2 SWAP1 POP JUMP JUMPDEST PUSH32 0x416464726573733A20696E73756666696369656E742062616C616E636520666F PUSH1 0x0 DUP3 ADD MSTORE PUSH32 0x722063616C6C0000000000000000000000000000000000000000000000000000 PUSH1 0x20 DUP3 ADD MSTORE POP JUMP JUMPDEST PUSH1 0x0 PUSH2 0x5C0E PUSH1 0x26 DUP4 PUSH2 0x3AEA JUMP JUMPDEST SWAP2 POP PUSH2 0x5C19 DUP3 PUSH2 0x5BB2 JUMP JUMPDEST PUSH1 0x40 DUP3 ADD SWAP1 POP SWAP2 SWAP1 POP JUMP JUMPDEST PUSH1 0x0 PUSH1 0x20 DUP3 ADD SWAP1 POP DUP2 DUP2 SUB PUSH1 0x0 DUP4 ADD MSTORE PUSH2 0x5C3D DUP2 PUSH2 0x5C01 JUMP JUMPDEST SWAP1 POP SWAP2 SWAP1 POP JUMP JUMPDEST PUSH1 0x0 PUSH2 0x5C4F DUP3 PUSH2 0x5638 JUMP JUMPDEST PUSH2 0x5C59 DUP2 DUP6 PUSH2 0x51C1 JUMP JUMPDEST SWAP4 POP PUSH2 0x5C69 DUP2 DUP6 PUSH1 0x20 DUP7 ADD PUSH2 0x3AFB JUMP JUMPDEST DUP1 DUP5 ADD SWAP2 POP POP SWAP3 SWAP2 POP POP JUMP JUMPDEST PUSH1 0x0 PUSH2 0x5C81 DUP3 DUP5 PUSH2 0x5C44 JUMP JUMPDEST SWAP2 POP DUP2 SWAP1 POP SWAP3 SWAP2 POP POP JUMP JUMPDEST PUSH32 0x416464726573733A2063616C6C20746F206E6F6E2D636F6E7472616374000000 PUSH1 0x0 DUP3 ADD MSTORE POP JUMP JUMPDEST PUSH1 0x0 PUSH2 0x5CC2 PUSH1 0x1D DUP4 PUSH2 0x3AEA JUMP JUMPDEST SWAP2 POP PUSH2 0x5CCD DUP3 PUSH2 0x5C8C JUMP JUMPDEST PUSH1 0x20 DUP3 ADD SWAP1 POP SWAP2 SWAP1 POP JUMP JUMPDEST PUSH1 0x0 PUSH1 0x20 DUP3 ADD SWAP1 POP DUP2 DUP2 SUB PUSH1 0x0 DUP4 ADD MSTORE PUSH2 0x5CF1 DUP2 PUSH2 0x5CB5 JUMP JUMPDEST SWAP1 POP SWAP2 SWAP1 POP JUMP INVALID LOG2 PUSH5 0x6970667358 0x22 SLT KECCAK256 0x5D 0xF8 0xE1 PUSH10 0x997E7EBAF2C4E90792E1 DUP12 GASLIMIT 0xCE 0xC0 DUP6 0xAE PUSH29 0x8B4CF01A57B9A86246622964736F6C63430008120033697066733A2F2F MLOAD PUSH14 0x61613654755032733970534B637A BASEFEE CHAINID CALLVALUE PUSH19 0x775768544B556479677272447338526D595971 NUMBER PUSH11 0x50334879652F0000000000 "
		},
		"gasEstimates": {
			"creation": {
				"codeDepositCost": "4770800",
				"executionCost": "infinite",
				"totalCost": "infinite"
			},
			"external": {
				"allowListMint(uint256,uint256)": "infinite",
				"allowListMintOpen()": "2634",
				"allowListPrice()": "2518",
				"balanceOf(address,uint256)": "infinite",
				"balanceOfBatch(address[],uint256[])": "infinite",
				"editMintWindows(bool,bool)": "infinite",
				"exists(uint256)": "2902",
				"isApprovedForAll(address,address)": "infinite",
				"maxPerWallet()": "2541",
				"maxSupply()": "2562",
				"mintBatch(address,uint256[],uint256[],bytes)": "infinite",
				"owner()": "2634",
				"pause()": "infinite",
				"paused()": "2640",
				"payee(uint256)": "5057",
				"publicMint(uint256,uint256)": "infinite",
				"publicMintOpen()": "2516",
				"publicPrice()": "2562",
				"releasable(address)": "infinite",
				"releasable(address,address)": "infinite",
				"release(address)": "infinite",
				"release(address,address)": "infinite",
				"released(address)": "2975",
				"released(address,address)": "infinite",
				"renounceOwnership()": "30444",
				"safeBatchTransferFrom(address,address,uint256[],uint256[],bytes)": "infinite",
				"safeTransferFrom(address,address,uint256,uint256,bytes)": "infinite",
				"setAllowList(address[])": "infinite",
				"setApprovalForAll(address,bool)": "infinite",
				"setURI(string)": "infinite",
				"shares(address)": "2952",
				"supportsInterface(bytes4)": "842",
				"totalReleased()": "2503",
				"totalReleased(address)": "2928",
				"totalShares()": "2483",
				"totalSupply(uint256)": "infinite",
				"transferOwnership(address)": "30876",
				"unpause()": "infinite",
				"uri(uint256)": "infinite",
				"withdraw(address)": "infinite"
			},
			"internal": {
				"_beforeTokenTransfer(address,address,address,uint256[] memory,uint256[] memory,bytes memory)": "infinite",
				"mint(uint256,uint256)": "infinite"
			}
		},
		"methodIdentifiers": {
			"allowListMint(uint256,uint256)": "128ac91b",
			"allowListMintOpen()": "085c9bac",
			"allowListPrice()": "a24e5153",
			"balanceOf(address,uint256)": "00fdd58e",
			"balanceOfBatch(address[],uint256[])": "4e1273f4",
			"editMintWindows(bool,bool)": "2f48de79",
			"exists(uint256)": "4f558e79",
			"isApprovedForAll(address,address)": "e985e9c5",
			"maxPerWallet()": "453c2310",
			"maxSupply()": "d5abeb01",
			"mintBatch(address,uint256[],uint256[],bytes)": "1f7fdffa",
			"owner()": "8da5cb5b",
			"pause()": "8456cb59",
			"paused()": "5c975abb",
			"payee(uint256)": "8b83209b",
			"publicMint(uint256,uint256)": "98ae99a8",
			"publicMintOpen()": "bcc9ca5b",
			"publicPrice()": "a945bf80",
			"releasable(address)": "a3f8eace",
			"releasable(address,address)": "c45ac050",
			"release(address)": "19165587",
			"release(address,address)": "48b75044",
			"released(address)": "9852595c",
			"released(address,address)": "406072a9",
			"renounceOwnership()": "715018a6",
			"safeBatchTransferFrom(address,address,uint256[],uint256[],bytes)": "2eb2c2d6",
			"safeTransferFrom(address,address,uint256,uint256,bytes)": "f242432a",
			"setAllowList(address[])": "6447c35d",
			"setApprovalForAll(address,bool)": "a22cb465",
			"setURI(string)": "02fe5305",
			"shares(address)": "ce7c2ac2",
			"supportsInterface(bytes4)": "01ffc9a7",
			"totalReleased()": "e33b7de3",
			"totalReleased(address)": "d79779b2",
			"totalShares()": "3a98ef39",
			"totalSupply(uint256)": "bd85b039",
			"transferOwnership(address)": "f2fde38b",
			"unpause()": "3f4ba83a",
			"uri(uint256)": "0e89341c",
			"withdraw(address)": "51cff8d9"
		}
	},
	"abi": [
		{
			"inputs": [
				{
					"internalType": "address[]",
					"name": "_payees",
					"type": "address[]"
				},
				{
					"internalType": "uint256[]",
					"name": "_shares",
					"type": "uint256[]"
				}
			],
			"stateMutability": "nonpayable",
			"type": "constructor"
		},
		{
			"anonymous": false,
			"inputs": [
				{
					"indexed": true,
					"internalType": "address",
					"name": "account",
					"type": "address"
				},
				{
					"indexed": true,
					"internalType": "address",
					"name": "operator",
					"type": "address"
				},
				{
					"indexed": false,
					"internalType": "bool",
					"name": "approved",
					"type": "bool"
				}
			],
			"name": "ApprovalForAll",
			"type": "event"
		},
		{
			"anonymous": false,
			"inputs": [
				{
					"indexed": true,
					"internalType": "contract IERC20",
					"name": "token",
					"type": "address"
				},
				{
					"indexed": false,
					"internalType": "address",
					"name": "to",
					"type": "address"
				},
				{
					"indexed": false,
					"internalType": "uint256",
					"name": "amount",
					"type": "uint256"
				}
			],
			"name": "ERC20PaymentReleased",
			"type": "event"
		},
		{
			"anonymous": false,
			"inputs": [
				{
					"indexed": true,
					"internalType": "address",
					"name": "previousOwner",
					"type": "address"
				},
				{
					"indexed": true,
					"internalType": "address",
					"name": "newOwner",
					"type": "address"
				}
			],
			"name": "OwnershipTransferred",
			"type": "event"
		},
		{
			"anonymous": false,
			"inputs": [
				{
					"indexed": false,
					"internalType": "address",
					"name": "account",
					"type": "address"
				}
			],
			"name": "Paused",
			"type": "event"
		},
		{
			"anonymous": false,
			"inputs": [
				{
					"indexed": false,
					"internalType": "address",
					"name": "account",
					"type": "address"
				},
				{
					"indexed": false,
					"internalType": "uint256",
					"name": "shares",
					"type": "uint256"
				}
			],
			"name": "PayeeAdded",
			"type": "event"
		},
		{
			"anonymous": false,
			"inputs": [
				{
					"indexed": false,
					"internalType": "address",
					"name": "from",
					"type": "address"
				},
				{
					"indexed": false,
					"internalType": "uint256",
					"name": "amount",
					"type": "uint256"
				}
			],
			"name": "PaymentReceived",
			"type": "event"
		},
		{
			"anonymous": false,
			"inputs": [
				{
					"indexed": false,
					"internalType": "address",
					"name": "to",
					"type": "address"
				},
				{
					"indexed": false,
					"internalType": "uint256",
					"name": "amount",
					"type": "uint256"
				}
			],
			"name": "PaymentReleased",
			"type": "event"
		},
		{
			"anonymous": false,
			"inputs": [
				{
					"indexed": true,
					"internalType": "address",
					"name": "operator",
					"type": "address"
				},
				{
					"indexed": true,
					"internalType": "address",
					"name": "from",
					"type": "address"
				},
				{
					"indexed": true,
					"internalType": "address",
					"name": "to",
					"type": "address"
				},
				{
					"indexed": false,
					"internalType": "uint256[]",
					"name": "ids",
					"type": "uint256[]"
				},
				{
					"indexed": false,
					"internalType": "uint256[]",
					"name": "values",
					"type": "uint256[]"
				}
			],
			"name": "TransferBatch",
			"type": "event"
		},
		{
			"anonymous": false,
			"inputs": [
				{
					"indexed": true,
					"internalType": "address",
					"name": "operator",
					"type": "address"
				},
				{
					"indexed": true,
					"internalType": "address",
					"name": "from",
					"type": "address"
				},
				{
					"indexed": true,
					"internalType": "address",
					"name": "to",
					"type": "address"
				},
				{
					"indexed": false,
					"internalType": "uint256",
					"name": "id",
					"type": "uint256"
				},
				{
					"indexed": false,
					"internalType": "uint256",
					"name": "value",
					"type": "uint256"
				}
			],
			"name": "TransferSingle",
			"type": "event"
		},
		{
			"anonymous": false,
			"inputs": [
				{
					"indexed": false,
					"internalType": "string",
					"name": "value",
					"type": "string"
				},
				{
					"indexed": true,
					"internalType": "uint256",
					"name": "id",
					"type": "uint256"
				}
			],
			"name": "URI",
			"type": "event"
		},
		{
			"anonymous": false,
			"inputs": [
				{
					"indexed": false,
					"internalType": "address",
					"name": "account",
					"type": "address"
				}
			],
			"name": "Unpaused",
			"type": "event"
		},
		{
			"inputs": [
				{
					"internalType": "uint256",
					"name": "id",
					"type": "uint256"
				},
				{
					"internalType": "uint256",
					"name": "amount",
					"type": "uint256"
				}
			],
			"name": "allowListMint",
			"outputs": [],
			"stateMutability": "payable",
			"type": "function"
		},
		{
			"inputs": [],
			"name": "allowListMintOpen",
			"outputs": [
				{
					"internalType": "bool",
					"name": "",
					"type": "bool"
				}
			],
			"stateMutability": "view",
			"type": "function"
		},
		{
			"inputs": [],
			"name": "allowListPrice",
			"outputs": [
				{
					"internalType": "uint256",
					"name": "",
					"type": "uint256"
				}
			],
			"stateMutability": "view",
			"type": "function"
		},
		{
			"inputs": [
				{
					"internalType": "address",
					"name": "account",
					"type": "address"
				},
				{
					"internalType": "uint256",
					"name": "id",
					"type": "uint256"
				}
			],
			"name": "balanceOf",
			"outputs": [
				{
					"internalType": "uint256",
					"name": "",
					"type": "uint256"
				}
			],
			"stateMutability": "view",
			"type": "function"
		},
		{
			"inputs": [
				{
					"internalType": "address[]",
					"name": "accounts",
					"type": "address[]"
				},
				{
					"internalType": "uint256[]",
					"name": "ids",
					"type": "uint256[]"
				}
			],
			"name": "balanceOfBatch",
			"outputs": [
				{
					"internalType": "uint256[]",
					"name": "",
					"type": "uint256[]"
				}
			],
			"stateMutability": "view",
			"type": "function"
		},
		{
			"inputs": [
				{
					"internalType": "bool",
					"name": "_publicMintOpen",
					"type": "bool"
				},
				{
					"internalType": "bool",
					"name": "_allowListMintOpen",
					"type": "bool"
				}
			],
			"name": "editMintWindows",
			"outputs": [],
			"stateMutability": "nonpayable",
			"type": "function"
		},
		{
			"inputs": [
				{
					"internalType": "uint256",
					"name": "id",
					"type": "uint256"
				}
			],
			"name": "exists",
			"outputs": [
				{
					"internalType": "bool",
					"name": "",
					"type": "bool"
				}
			],
			"stateMutability": "view",
			"type": "function"
		},
		{
			"inputs": [
				{
					"internalType": "address",
					"name": "account",
					"type": "address"
				},
				{
					"internalType": "address",
					"name": "operator",
					"type": "address"
				}
			],
			"name": "isApprovedForAll",
			"outputs": [
				{
					"internalType": "bool",
					"name": "",
					"type": "bool"
				}
			],
			"stateMutability": "view",
			"type": "function"
		},
		{
			"inputs": [],
			"name": "maxPerWallet",
			"outputs": [
				{
					"internalType": "uint256",
					"name": "",
					"type": "uint256"
				}
			],
			"stateMutability": "view",
			"type": "function"
		},
		{
			"inputs": [],
			"name": "maxSupply",
			"outputs": [
				{
					"internalType": "uint256",
					"name": "",
					"type": "uint256"
				}
			],
			"stateMutability": "view",
			"type": "function"
		},
		{
			"inputs": [
				{
					"internalType": "address",
					"name": "to",
					"type": "address"
				},
				{
					"internalType": "uint256[]",
					"name": "ids",
					"type": "uint256[]"
				},
				{
					"internalType": "uint256[]",
					"name": "amounts",
					"type": "uint256[]"
				},
				{
					"internalType": "bytes",
					"name": "data",
					"type": "bytes"
				}
			],
			"name": "mintBatch",
			"outputs": [],
			"stateMutability": "nonpayable",
			"type": "function"
		},
		{
			"inputs": [],
			"name": "owner",
			"outputs": [
				{
					"internalType": "address",
					"name": "",
					"type": "address"
				}
			],
			"stateMutability": "view",
			"type": "function"
		},
		{
			"inputs": [],
			"name": "pause",
			"outputs": [],
			"stateMutability": "nonpayable",
			"type": "function"
		},
		{
			"inputs": [],
			"name": "paused",
			"outputs": [
				{
					"internalType": "bool",
					"name": "",
					"type": "bool"
				}
			],
			"stateMutability": "view",
			"type": "function"
		},
		{
			"inputs": [
				{
					"internalType": "uint256",
					"name": "index",
					"type": "uint256"
				}
			],
			"name": "payee",
			"outputs": [
				{
					"internalType": "address",
					"name": "",
					"type": "address"
				}
			],
			"stateMutability": "view",
			"type": "function"
		},
		{
			"inputs": [
				{
					"internalType": "uint256",
					"name": "id",
					"type": "uint256"
				},
				{
					"internalType": "uint256",
					"name": "amount",
					"type": "uint256"
				}
			],
			"name": "publicMint",
			"outputs": [],
			"stateMutability": "payable",
			"type": "function"
		},
		{
			"inputs": [],
			"name": "publicMintOpen",
			"outputs": [
				{
					"internalType": "bool",
					"name": "",
					"type": "bool"
				}
			],
			"stateMutability": "view",
			"type": "function"
		},
		{
			"inputs": [],
			"name": "publicPrice",
			"outputs": [
				{
					"internalType": "uint256",
					"name": "",
					"type": "uint256"
				}
			],
			"stateMutability": "view",
			"type": "function"
		},
		{
			"inputs": [
				{
					"internalType": "address",
					"name": "account",
					"type": "address"
				}
			],
			"name": "releasable",
			"outputs": [
				{
					"internalType": "uint256",
					"name": "",
					"type": "uint256"
				}
			],
			"stateMutability": "view",
			"type": "function"
		},
		{
			"inputs": [
				{
					"internalType": "contract IERC20",
					"name": "token",
					"type": "address"
				},
				{
					"internalType": "address",
					"name": "account",
					"type": "address"
				}
			],
			"name": "releasable",
			"outputs": [
				{
					"internalType": "uint256",
					"name": "",
					"type": "uint256"
				}
			],
			"stateMutability": "view",
			"type": "function"
		},
		{
			"inputs": [
				{
					"internalType": "address payable",
					"name": "account",
					"type": "address"
				}
			],
			"name": "release",
			"outputs": [],
			"stateMutability": "nonpayable",
			"type": "function"
		},
		{
			"inputs": [
				{
					"internalType": "contract IERC20",
					"name": "token",
					"type": "address"
				},
				{
					"internalType": "address",
					"name": "account",
					"type": "address"
				}
			],
			"name": "release",
			"outputs": [],
			"stateMutability": "nonpayable",
			"type": "function"
		},
		{
			"inputs": [
				{
					"internalType": "contract IERC20",
					"name": "token",
					"type": "address"
				},
				{
					"internalType": "address",
					"name": "account",
					"type": "address"
				}
			],
			"name": "released",
			"outputs": [
				{
					"internalType": "uint256",
					"name": "",
					"type": "uint256"
				}
			],
			"stateMutability": "view",
			"type": "function"
		},
		{
			"inputs": [
				{
					"internalType": "address",
					"name": "account",
					"type": "address"
				}
			],
			"name": "released",
			"outputs": [
				{
					"internalType": "uint256",
					"name": "",
					"type": "uint256"
				}
			],
			"stateMutability": "view",
			"type": "function"
		},
		{
			"inputs": [],
			"name": "renounceOwnership",
			"outputs": [],
			"stateMutability": "nonpayable",
			"type": "function"
		},
		{
			"inputs": [
				{
					"internalType": "address",
					"name": "from",
					"type": "address"
				},
				{
					"internalType": "address",
					"name": "to",
					"type": "address"
				},
				{
					"internalType": "uint256[]",
					"name": "ids",
					"type": "uint256[]"
				},
				{
					"internalType": "uint256[]",
					"name": "amounts",
					"type": "uint256[]"
				},
				{
					"internalType": "bytes",
					"name": "data",
					"type": "bytes"
				}
			],
			"name": "safeBatchTransferFrom",
			"outputs": [],
			"stateMutability": "nonpayable",
			"type": "function"
		},
		{
			"inputs": [
				{
					"internalType": "address",
					"name": "from",
					"type": "address"
				},
				{
					"internalType": "address",
					"name": "to",
					"type": "address"
				},
				{
					"internalType": "uint256",
					"name": "id",
					"type": "uint256"
				},
				{
					"internalType": "uint256",
					"name": "amount",
					"type": "uint256"
				},
				{
					"internalType": "bytes",
					"name": "data",
					"type": "bytes"
				}
			],
			"name": "safeTransferFrom",
			"outputs": [],
			"stateMutability": "nonpayable",
			"type": "function"
		},
		{
			"inputs": [
				{
					"internalType": "address[]",
					"name": "addresses",
					"type": "address[]"
				}
			],
			"name": "setAllowList",
			"outputs": [],
			"stateMutability": "nonpayable",
			"type": "function"
		},
		{
			"inputs": [
				{
					"internalType": "address",
					"name": "operator",
					"type": "address"
				},
				{
					"internalType": "bool",
					"name": "approved",
					"type": "bool"
				}
			],
			"name": "setApprovalForAll",
			"outputs": [],
			"stateMutability": "nonpayable",
			"type": "function"
		},
		{
			"inputs": [
				{
					"internalType": "string",
					"name": "newuri",
					"type": "string"
				}
			],
			"name": "setURI",
			"outputs": [],
			"stateMutability": "nonpayable",
			"type": "function"
		},
		{
			"inputs": [
				{
					"internalType": "address",
					"name": "account",
					"type": "address"
				}
			],
			"name": "shares",
			"outputs": [
				{
					"internalType": "uint256",
					"name": "",
					"type": "uint256"
				}
			],
			"stateMutability": "view",
			"type": "function"
		},
		{
			"inputs": [
				{
					"internalType": "bytes4",
					"name": "interfaceId",
					"type": "bytes4"
				}
			],
			"name": "supportsInterface",
			"outputs": [
				{
					"internalType": "bool",
					"name": "",
					"type": "bool"
				}
			],
			"stateMutability": "view",
			"type": "function"
		},
		{
			"inputs": [
				{
					"internalType": "contract IERC20",
					"name": "token",
					"type": "address"
				}
			],
			"name": "totalReleased",
			"outputs": [
				{
					"internalType": "uint256",
					"name": "",
					"type": "uint256"
				}
			],
			"stateMutability": "view",
			"type": "function"
		},
		{
			"inputs": [],
			"name": "totalReleased",
			"outputs": [
				{
					"internalType": "uint256",
					"name": "",
					"type": "uint256"
				}
			],
			"stateMutability": "view",
			"type": "function"
		},
		{
			"inputs": [],
			"name": "totalShares",
			"outputs": [
				{
					"internalType": "uint256",
					"name": "",
					"type": "uint256"
				}
			],
			"stateMutability": "view",
			"type": "function"
		},
		{
			"inputs": [
				{
					"internalType": "uint256",
					"name": "id",
					"type": "uint256"
				}
			],
			"name": "totalSupply",
			"outputs": [
				{
					"internalType": "uint256",
					"name": "",
					"type": "uint256"
				}
			],
			"stateMutability": "view",
			"type": "function"
		},
		{
			"inputs": [
				{
					"internalType": "address",
					"name": "newOwner",
					"type": "address"
				}
			],
			"name": "transferOwnership",
			"outputs": [],
			"stateMutability": "nonpayable",
			"type": "function"
		},
		{
			"inputs": [],
			"name": "unpause",
			"outputs": [],
			"stateMutability": "nonpayable",
			"type": "function"
		},
		{
			"inputs": [
				{
					"internalType": "uint256",
					"name": "_id",
					"type": "uint256"
				}
			],
			"name": "uri",
			"outputs": [
				{
					"internalType": "string",
					"name": "",
					"type": "string"
				}
			],
			"stateMutability": "view",
			"type": "function"
		},
		{
			"inputs": [
				{
					"internalType": "address",
					"name": "_addr",
					"type": "address"
				}
			],
			"name": "withdraw",
			"outputs": [],
			"stateMutability": "nonpayable",
			"type": "function"
		},
		{
			"stateMutability": "payable",
			"type": "receive"
		}
	]
}